{
	"contracts/kipu-bank-v2.sol": {
		"KipuBankV2": {
			"abi": [
				{
					"inputs": [
						{
							"internalType": "uint256",
							"name": "_limiteBancoUSDC",
							"type": "uint256"
						},
						{
							"internalType": "uint256",
							"name": "_limiteRetiroWei",
							"type": "uint256"
						},
						{
							"internalType": "address",
							"name": "admin",
							"type": "address"
						}
					],
					"stateMutability": "nonpayable",
					"type": "constructor"
				},
				{
					"inputs": [],
					"name": "AccessControlBadConfirmation",
					"type": "error"
				},
				{
					"inputs": [
						{
							"internalType": "address",
							"name": "account",
							"type": "address"
						},
						{
							"internalType": "bytes32",
							"name": "neededRole",
							"type": "bytes32"
						}
					],
					"name": "AccessControlUnauthorizedAccount",
					"type": "error"
				},
				{
					"inputs": [],
					"name": "DecimalesInvalidos",
					"type": "error"
				},
				{
					"inputs": [
						{
							"internalType": "uint256",
							"name": "intentadoUSD",
							"type": "uint256"
						},
						{
							"internalType": "uint256",
							"name": "disponibleUSD",
							"type": "uint256"
						}
					],
					"name": "LimiteBancoExcedidoUSD",
					"type": "error"
				},
				{
					"inputs": [],
					"name": "MontoCero",
					"type": "error"
				},
				{
					"inputs": [
						{
							"internalType": "uint256",
							"name": "solicitado",
							"type": "uint256"
						},
						{
							"internalType": "uint256",
							"name": "limite",
							"type": "uint256"
						}
					],
					"name": "RetiroExcedeLimite",
					"type": "error"
				},
				{
					"inputs": [
						{
							"internalType": "address",
							"name": "usuario",
							"type": "address"
						},
						{
							"internalType": "address",
							"name": "token",
							"type": "address"
						},
						{
							"internalType": "uint256",
							"name": "disponible",
							"type": "uint256"
						},
						{
							"internalType": "uint256",
							"name": "solicitado",
							"type": "uint256"
						}
					],
					"name": "SaldoInsuficiente",
					"type": "error"
				},
				{
					"inputs": [],
					"name": "SoloAdmin",
					"type": "error"
				},
				{
					"inputs": [
						{
							"internalType": "address",
							"name": "token",
							"type": "address"
						}
					],
					"name": "TokenNoSoportado",
					"type": "error"
				},
				{
					"inputs": [
						{
							"internalType": "address",
							"name": "destino",
							"type": "address"
						},
						{
							"internalType": "uint256",
							"name": "monto",
							"type": "uint256"
						}
					],
					"name": "TransferenciaFallida",
					"type": "error"
				},
				{
					"anonymous": false,
					"inputs": [
						{
							"indexed": true,
							"internalType": "address",
							"name": "account",
							"type": "address"
						}
					],
					"name": "AdminAdded",
					"type": "event"
				},
				{
					"anonymous": false,
					"inputs": [
						{
							"indexed": true,
							"internalType": "address",
							"name": "account",
							"type": "address"
						}
					],
					"name": "AdminRemoved",
					"type": "event"
				},
				{
					"anonymous": false,
					"inputs": [
						{
							"indexed": true,
							"internalType": "address",
							"name": "user",
							"type": "address"
						},
						{
							"indexed": true,
							"internalType": "address",
							"name": "token",
							"type": "address"
						},
						{
							"indexed": false,
							"internalType": "uint256",
							"name": "amount",
							"type": "uint256"
						},
						{
							"indexed": false,
							"internalType": "uint256",
							"name": "amountUSDC",
							"type": "uint256"
						}
					],
					"name": "Deposit",
					"type": "event"
				},
				{
					"anonymous": false,
					"inputs": [
						{
							"indexed": true,
							"internalType": "bytes32",
							"name": "role",
							"type": "bytes32"
						},
						{
							"indexed": true,
							"internalType": "bytes32",
							"name": "previousAdminRole",
							"type": "bytes32"
						},
						{
							"indexed": true,
							"internalType": "bytes32",
							"name": "newAdminRole",
							"type": "bytes32"
						}
					],
					"name": "RoleAdminChanged",
					"type": "event"
				},
				{
					"anonymous": false,
					"inputs": [
						{
							"indexed": true,
							"internalType": "bytes32",
							"name": "role",
							"type": "bytes32"
						},
						{
							"indexed": true,
							"internalType": "address",
							"name": "account",
							"type": "address"
						},
						{
							"indexed": true,
							"internalType": "address",
							"name": "sender",
							"type": "address"
						}
					],
					"name": "RoleGranted",
					"type": "event"
				},
				{
					"anonymous": false,
					"inputs": [
						{
							"indexed": true,
							"internalType": "bytes32",
							"name": "role",
							"type": "bytes32"
						},
						{
							"indexed": true,
							"internalType": "address",
							"name": "account",
							"type": "address"
						},
						{
							"indexed": true,
							"internalType": "address",
							"name": "sender",
							"type": "address"
						}
					],
					"name": "RoleRevoked",
					"type": "event"
				},
				{
					"anonymous": false,
					"inputs": [
						{
							"indexed": true,
							"internalType": "address",
							"name": "token",
							"type": "address"
						},
						{
							"indexed": false,
							"internalType": "address",
							"name": "priceFeed",
							"type": "address"
						},
						{
							"indexed": false,
							"internalType": "uint8",
							"name": "decimals",
							"type": "uint8"
						}
					],
					"name": "TokenRegistered",
					"type": "event"
				},
				{
					"anonymous": false,
					"inputs": [
						{
							"indexed": true,
							"internalType": "address",
							"name": "token",
							"type": "address"
						}
					],
					"name": "TokenUnregistered",
					"type": "event"
				},
				{
					"anonymous": false,
					"inputs": [
						{
							"indexed": true,
							"internalType": "address",
							"name": "user",
							"type": "address"
						},
						{
							"indexed": true,
							"internalType": "address",
							"name": "token",
							"type": "address"
						},
						{
							"indexed": false,
							"internalType": "uint256",
							"name": "amount",
							"type": "uint256"
						},
						{
							"indexed": false,
							"internalType": "uint256",
							"name": "amountUSDC",
							"type": "uint256"
						}
					],
					"name": "Withdraw",
					"type": "event"
				},
				{
					"stateMutability": "payable",
					"type": "fallback"
				},
				{
					"inputs": [],
					"name": "ADMIN_ROLE",
					"outputs": [
						{
							"internalType": "bytes32",
							"name": "",
							"type": "bytes32"
						}
					],
					"stateMutability": "view",
					"type": "function"
				},
				{
					"inputs": [],
					"name": "DEFAULT_ADMIN_ROLE",
					"outputs": [
						{
							"internalType": "bytes32",
							"name": "",
							"type": "bytes32"
						}
					],
					"stateMutability": "view",
					"type": "function"
				},
				{
					"inputs": [],
					"name": "USDC_DECIMALS",
					"outputs": [
						{
							"internalType": "uint8",
							"name": "",
							"type": "uint8"
						}
					],
					"stateMutability": "view",
					"type": "function"
				},
				{
					"inputs": [
						{
							"internalType": "address",
							"name": "account",
							"type": "address"
						}
					],
					"name": "addAdmin",
					"outputs": [],
					"stateMutability": "nonpayable",
					"type": "function"
				},
				{
					"inputs": [
						{
							"internalType": "address",
							"name": "user",
							"type": "address"
						},
						{
							"internalType": "address",
							"name": "token",
							"type": "address"
						}
					],
					"name": "balanceOf",
					"outputs": [
						{
							"internalType": "uint256",
							"name": "",
							"type": "uint256"
						}
					],
					"stateMutability": "view",
					"type": "function"
				},
				{
					"inputs": [],
					"name": "depositCount",
					"outputs": [
						{
							"internalType": "uint256",
							"name": "",
							"type": "uint256"
						}
					],
					"stateMutability": "view",
					"type": "function"
				},
				{
					"inputs": [
						{
							"internalType": "address",
							"name": "token",
							"type": "address"
						},
						{
							"internalType": "uint256",
							"name": "amount",
							"type": "uint256"
						}
					],
					"name": "depositERC20",
					"outputs": [],
					"stateMutability": "nonpayable",
					"type": "function"
				},
				{
					"inputs": [],
					"name": "depositETH",
					"outputs": [],
					"stateMutability": "payable",
					"type": "function"
				},
				{
					"inputs": [],
					"name": "getLimiteBancoUSDC",
					"outputs": [
						{
							"internalType": "uint256",
							"name": "",
							"type": "uint256"
						}
					],
					"stateMutability": "view",
					"type": "function"
				},
				{
					"inputs": [
						{
							"internalType": "address",
							"name": "token",
							"type": "address"
						}
					],
					"name": "getPriceFeedForToken",
					"outputs": [
						{
							"internalType": "address",
							"name": "",
							"type": "address"
						}
					],
					"stateMutability": "view",
					"type": "function"
				},
				{
					"inputs": [
						{
							"internalType": "bytes32",
							"name": "role",
							"type": "bytes32"
						}
					],
					"name": "getRoleAdmin",
					"outputs": [
						{
							"internalType": "bytes32",
							"name": "",
							"type": "bytes32"
						}
					],
					"stateMutability": "view",
					"type": "function"
				},
				{
					"inputs": [],
					"name": "getTotalDepositedUSDC",
					"outputs": [
						{
							"internalType": "uint256",
							"name": "",
							"type": "uint256"
						}
					],
					"stateMutability": "view",
					"type": "function"
				},
				{
					"inputs": [
						{
							"internalType": "bytes32",
							"name": "role",
							"type": "bytes32"
						},
						{
							"internalType": "address",
							"name": "account",
							"type": "address"
						}
					],
					"name": "grantRole",
					"outputs": [],
					"stateMutability": "nonpayable",
					"type": "function"
				},
				{
					"inputs": [
						{
							"internalType": "bytes32",
							"name": "role",
							"type": "bytes32"
						},
						{
							"internalType": "address",
							"name": "account",
							"type": "address"
						}
					],
					"name": "hasRole",
					"outputs": [
						{
							"internalType": "bool",
							"name": "",
							"type": "bool"
						}
					],
					"stateMutability": "view",
					"type": "function"
				},
				{
					"inputs": [
						{
							"internalType": "address",
							"name": "token",
							"type": "address"
						}
					],
					"name": "isTokenRegistered",
					"outputs": [
						{
							"internalType": "bool",
							"name": "",
							"type": "bool"
						}
					],
					"stateMutability": "view",
					"type": "function"
				},
				{
					"inputs": [],
					"name": "limiteBancoUSDC",
					"outputs": [
						{
							"internalType": "uint256",
							"name": "",
							"type": "uint256"
						}
					],
					"stateMutability": "view",
					"type": "function"
				},
				{
					"inputs": [],
					"name": "limiteRetiroWei",
					"outputs": [
						{
							"internalType": "uint256",
							"name": "",
							"type": "uint256"
						}
					],
					"stateMutability": "view",
					"type": "function"
				},
				{
					"inputs": [
						{
							"internalType": "address",
							"name": "token",
							"type": "address"
						},
						{
							"internalType": "address",
							"name": "priceFeed",
							"type": "address"
						},
						{
							"internalType": "uint8",
							"name": "decimals",
							"type": "uint8"
						}
					],
					"name": "registerToken",
					"outputs": [],
					"stateMutability": "nonpayable",
					"type": "function"
				},
				{
					"inputs": [
						{
							"internalType": "address",
							"name": "account",
							"type": "address"
						}
					],
					"name": "removeAdmin",
					"outputs": [],
					"stateMutability": "nonpayable",
					"type": "function"
				},
				{
					"inputs": [
						{
							"internalType": "bytes32",
							"name": "role",
							"type": "bytes32"
						},
						{
							"internalType": "address",
							"name": "callerConfirmation",
							"type": "address"
						}
					],
					"name": "renounceRole",
					"outputs": [],
					"stateMutability": "nonpayable",
					"type": "function"
				},
				{
					"inputs": [
						{
							"internalType": "bytes32",
							"name": "role",
							"type": "bytes32"
						},
						{
							"internalType": "address",
							"name": "account",
							"type": "address"
						}
					],
					"name": "revokeRole",
					"outputs": [],
					"stateMutability": "nonpayable",
					"type": "function"
				},
				{
					"inputs": [
						{
							"internalType": "bytes4",
							"name": "interfaceId",
							"type": "bytes4"
						}
					],
					"name": "supportsInterface",
					"outputs": [
						{
							"internalType": "bool",
							"name": "",
							"type": "bool"
						}
					],
					"stateMutability": "view",
					"type": "function"
				},
				{
					"inputs": [
						{
							"internalType": "address",
							"name": "",
							"type": "address"
						}
					],
					"name": "tokenInfo",
					"outputs": [
						{
							"internalType": "bool",
							"name": "supported",
							"type": "bool"
						},
						{
							"internalType": "address",
							"name": "priceFeed",
							"type": "address"
						},
						{
							"internalType": "uint8",
							"name": "decimals",
							"type": "uint8"
						}
					],
					"stateMutability": "view",
					"type": "function"
				},
				{
					"inputs": [
						{
							"internalType": "address",
							"name": "",
							"type": "address"
						}
					],
					"name": "totalDepositedByToken",
					"outputs": [
						{
							"internalType": "uint256",
							"name": "",
							"type": "uint256"
						}
					],
					"stateMutability": "view",
					"type": "function"
				},
				{
					"inputs": [
						{
							"internalType": "address",
							"name": "token",
							"type": "address"
						}
					],
					"name": "totalDepositedForToken",
					"outputs": [
						{
							"internalType": "uint256",
							"name": "",
							"type": "uint256"
						}
					],
					"stateMutability": "view",
					"type": "function"
				},
				{
					"inputs": [],
					"name": "totalDepositedUSDC",
					"outputs": [
						{
							"internalType": "uint256",
							"name": "",
							"type": "uint256"
						}
					],
					"stateMutability": "view",
					"type": "function"
				},
				{
					"inputs": [
						{
							"internalType": "address",
							"name": "token",
							"type": "address"
						}
					],
					"name": "tryTokenDecimals",
					"outputs": [
						{
							"internalType": "uint8",
							"name": "",
							"type": "uint8"
						}
					],
					"stateMutability": "view",
					"type": "function"
				},
				{
					"inputs": [
						{
							"internalType": "address",
							"name": "token",
							"type": "address"
						}
					],
					"name": "unregisterToken",
					"outputs": [],
					"stateMutability": "nonpayable",
					"type": "function"
				},
				{
					"inputs": [
						{
							"internalType": "address",
							"name": "token",
							"type": "address"
						},
						{
							"internalType": "uint256",
							"name": "amount",
							"type": "uint256"
						}
					],
					"name": "withdraw",
					"outputs": [],
					"stateMutability": "nonpayable",
					"type": "function"
				},
				{
					"inputs": [],
					"name": "withdrawCount",
					"outputs": [
						{
							"internalType": "uint256",
							"name": "",
							"type": "uint256"
						}
					],
					"stateMutability": "view",
					"type": "function"
				},
				{
					"stateMutability": "payable",
					"type": "receive"
				}
			],
			"devdoc": {
				"errors": {
					"AccessControlBadConfirmation()": [
						{
							"details": "The caller of a function is not the expected one. NOTE: Don't confuse with {AccessControlUnauthorizedAccount}."
						}
					],
					"AccessControlUnauthorizedAccount(address,bytes32)": [
						{
							"details": "The `account` is missing a role."
						}
					]
				},
				"events": {
					"RoleAdminChanged(bytes32,bytes32,bytes32)": {
						"details": "Emitted when `newAdminRole` is set as ``role``'s admin role, replacing `previousAdminRole` `DEFAULT_ADMIN_ROLE` is the starting admin for all roles, despite {RoleAdminChanged} not being emitted to signal this."
					},
					"RoleGranted(bytes32,address,address)": {
						"details": "Emitted when `account` is granted `role`. `sender` is the account that originated the contract call. This account bears the admin role (for the granted role). Expected in cases where the role was granted using the internal {AccessControl-_grantRole}."
					},
					"RoleRevoked(bytes32,address,address)": {
						"details": "Emitted when `account` is revoked `role`. `sender` is the account that originated the contract call:   - if using `revokeRole`, it is the admin role bearer   - if using `renounceRole`, it is the role bearer (i.e. `account`)"
					}
				},
				"kind": "dev",
				"methods": {
					"constructor": {
						"params": {
							"_limiteBancoUSDC": "Límite global del banco, en unidades USDC (6 decimales). Ej: para $1,000, pasar 1_000 * 1e6",
							"_limiteRetiroWei": "Límite por retiro para ETH (wei). Retiros ERC20 están limitados por saldo y lógica del token.",
							"admin": "Admin inicial"
						}
					},
					"depositERC20(address,uint256)": {
						"params": {
							"amount": "Cantidad en unidades del token (según sus decimales)",
							"token": "Dirección del token ERC-20 (no usar address(0) para ERC20)"
						}
					},
					"getRoleAdmin(bytes32)": {
						"details": "Returns the admin role that controls `role`. See {grantRole} and {revokeRole}. To change a role's admin, use {_setRoleAdmin}."
					},
					"grantRole(bytes32,address)": {
						"details": "Grants `role` to `account`. If `account` had not been already granted `role`, emits a {RoleGranted} event. Requirements: - the caller must have ``role``'s admin role. May emit a {RoleGranted} event."
					},
					"hasRole(bytes32,address)": {
						"details": "Returns `true` if `account` has been granted `role`."
					},
					"registerToken(address,address,uint8)": {
						"details": "ADMIN_ROLE required"
					},
					"renounceRole(bytes32,address)": {
						"details": "Revokes `role` from the calling account. Roles are often managed via {grantRole} and {revokeRole}: this function's purpose is to provide a mechanism for accounts to lose their privileges if they are compromised (such as when a trusted device is misplaced). If the calling account had been revoked `role`, emits a {RoleRevoked} event. Requirements: - the caller must be `callerConfirmation`. May emit a {RoleRevoked} event."
					},
					"revokeRole(bytes32,address)": {
						"details": "Revokes `role` from `account`. If `account` had been granted `role`, emits a {RoleRevoked} event. Requirements: - the caller must have ``role``'s admin role. May emit a {RoleRevoked} event."
					},
					"supportsInterface(bytes4)": {
						"details": "Returns true if this contract implements the interface defined by `interfaceId`. See the corresponding https://eips.ethereum.org/EIPS/eip-165#how-interfaces-are-identified[ERC section] to learn more about how these ids are created. This function call must use less than 30 000 gas."
					},
					"withdraw(address,uint256)": {
						"params": {
							"amount": "cantidad a retirar (wei para ETH, token-units para ERC20)",
							"token": "token address (address(0) -> ETH)"
						}
					}
				},
				"version": 1
			},
			"evm": {
				"assembly": "    /* \"contracts/kipu-bank-v2.sol\":820:16738  contract KipuBankV2 is AccessControl, ReentrancyGuard {... */\n  mstore(0x40, 0xc0)\n    /* \"contracts/kipu-bank-v2.sol\":4980:5334  constructor(uint256 _limiteBancoUSDC, uint256 _limiteRetiroWei, address admin) {... */\n  callvalue\n  dup1\n  iszero\n  tag_1\n  jumpi\n  0x00\n  dup1\n  revert\ntag_1:\n  pop\n  mload(0x40)\n  sub(codesize, bytecodeSize)\n  dup1\n  bytecodeSize\n  dup4\n  codecopy\n  dup2\n  dup2\n  add\n  0x40\n  mstore\n  dup2\n  add\n  swap1\n  tag_2\n  swap2\n  swap1\n  tag_3\n  jump\t// in\ntag_2:\n    /* \"@openzeppelin/contracts/security/ReentrancyGuard.sol\":1716:1717  1 */\n  0x01\n    /* \"@openzeppelin/contracts/security/ReentrancyGuard.sol\":1821:1828  _status */\n  dup1\n    /* \"@openzeppelin/contracts/security/ReentrancyGuard.sol\":1821:1843  _status = _NOT_ENTERED */\n  dup2\n  swap1\n  sstore\n  pop\n    /* \"contracts/kipu-bank-v2.sol\":5091:5092  0 */\n  0x00\n    /* \"contracts/kipu-bank-v2.sol\":5074:5093  admin == address(0) */\n  0xffffffffffffffffffffffffffffffffffffffff\n  and\n    /* \"contracts/kipu-bank-v2.sol\":5074:5079  admin */\n  dup2\n    /* \"contracts/kipu-bank-v2.sol\":5074:5093  admin == address(0) */\n  0xffffffffffffffffffffffffffffffffffffffff\n  and\n  sub\n    /* \"contracts/kipu-bank-v2.sol\":5070:5113  if (admin == address(0)) revert SoloAdmin() */\n  tag_8\n  jumpi\n    /* \"contracts/kipu-bank-v2.sol\":5102:5113  SoloAdmin() */\n  mload(0x40)\n  0x22179f7800000000000000000000000000000000000000000000000000000000\n  dup2\n  mstore\n  0x04\n  add\n  mload(0x40)\n  dup1\n  swap2\n  sub\n  swap1\n  revert\n    /* \"contracts/kipu-bank-v2.sol\":5070:5113  if (admin == address(0)) revert SoloAdmin() */\ntag_8:\n    /* \"contracts/kipu-bank-v2.sol\":5142:5158  _limiteBancoUSDC */\n  dup3\n    /* \"contracts/kipu-bank-v2.sol\":5124:5158  limiteBancoUSDC = _limiteBancoUSDC */\n  0x80\n  dup2\n  dup2\n  mstore\n  pop\n  pop\n    /* \"contracts/kipu-bank-v2.sol\":5187:5203  _limiteRetiroWei */\n  dup2\n    /* \"contracts/kipu-bank-v2.sol\":5169:5203  limiteRetiroWei = _limiteRetiroWei */\n  0xa0\n  dup2\n  dup2\n  mstore\n  pop\n  pop\n    /* \"contracts/kipu-bank-v2.sol\":5216:5253  _grantRole(DEFAULT_ADMIN_ROLE, admin) */\n  tag_9\n    /* \"@openzeppelin/contracts/access/AccessControl.sol\":2241:2245  0x00 */\n  0x00\n    /* \"contracts/kipu-bank-v2.sol\":5227:5245  DEFAULT_ADMIN_ROLE */\n  dup1\n  shl\n    /* \"contracts/kipu-bank-v2.sol\":5247:5252  admin */\n  dup3\n    /* \"contracts/kipu-bank-v2.sol\":5216:5226  _grantRole */\n  shl(0x20, tag_10)\n    /* \"contracts/kipu-bank-v2.sol\":5216:5253  _grantRole(DEFAULT_ADMIN_ROLE, admin) */\n  0x20\n  shr\n  jump\t// in\ntag_9:\n  pop\n    /* \"contracts/kipu-bank-v2.sol\":5264:5293  _grantRole(ADMIN_ROLE, admin) */\n  tag_11\n    /* \"contracts/kipu-bank-v2.sol\":1730:1753  keccak256(\"ADMIN_ROLE\") */\n  0xa49807205ce4d355092ef5a8a18f56e8913cf4a201fbe287825b095693c21775\n    /* \"contracts/kipu-bank-v2.sol\":5287:5292  admin */\n  dup3\n    /* \"contracts/kipu-bank-v2.sol\":5264:5274  _grantRole */\n  shl(0x20, tag_10)\n    /* \"contracts/kipu-bank-v2.sol\":5264:5293  _grantRole(ADMIN_ROLE, admin) */\n  0x20\n  shr\n  jump\t// in\ntag_11:\n  pop\n    /* \"contracts/kipu-bank-v2.sol\":5320:5325  admin */\n  dup1\n    /* \"contracts/kipu-bank-v2.sol\":5309:5326  AdminAdded(admin) */\n  0xffffffffffffffffffffffffffffffffffffffff\n  and\n  0x44d6d25963f097ad14f29f06854a01f575648a1ef82f30e562ccd3889717e339\n  mload(0x40)\n  mload(0x40)\n  dup1\n  swap2\n  sub\n  swap1\n  log2\n    /* \"contracts/kipu-bank-v2.sol\":4980:5334  constructor(uint256 _limiteBancoUSDC, uint256 _limiteRetiroWei, address admin) {... */\n  pop\n  pop\n  pop\n    /* \"contracts/kipu-bank-v2.sol\":820:16738  contract KipuBankV2 is AccessControl, ReentrancyGuard {... */\n  jump(tag_12)\n    /* \"@openzeppelin/contracts/access/AccessControl.sol\":6155:6471  function _grantRole(bytes32 role, address account) internal virtual returns (bool) {... */\ntag_10:\n    /* \"@openzeppelin/contracts/access/AccessControl.sol\":6232:6236  bool */\n  0x00\n    /* \"@openzeppelin/contracts/access/AccessControl.sol\":6253:6275  hasRole(role, account) */\n  tag_14\n    /* \"@openzeppelin/contracts/access/AccessControl.sol\":6261:6265  role */\n  dup4\n    /* \"@openzeppelin/contracts/access/AccessControl.sol\":6267:6274  account */\n  dup4\n    /* \"@openzeppelin/contracts/access/AccessControl.sol\":6253:6260  hasRole */\n  shl(0x20, tag_15)\n    /* \"@openzeppelin/contracts/access/AccessControl.sol\":6253:6275  hasRole(role, account) */\n  0x20\n  shr\n  jump\t// in\ntag_14:\n    /* \"@openzeppelin/contracts/access/AccessControl.sol\":6248:6465  if (!hasRole(role, account)) {... */\n  tag_16\n  jumpi\n    /* \"@openzeppelin/contracts/access/AccessControl.sol\":6323:6327  true */\n  0x01\n    /* \"@openzeppelin/contracts/access/AccessControl.sol\":6291:6297  _roles */\n  0x00\n    /* \"@openzeppelin/contracts/access/AccessControl.sol\":6291:6303  _roles[role] */\n  dup1\n    /* \"@openzeppelin/contracts/access/AccessControl.sol\":6298:6302  role */\n  dup6\n    /* \"@openzeppelin/contracts/access/AccessControl.sol\":6291:6303  _roles[role] */\n  dup2\n  mstore\n  0x20\n  add\n  swap1\n  dup2\n  mstore\n  0x20\n  add\n  0x00\n  keccak256\n    /* \"@openzeppelin/contracts/access/AccessControl.sol\":6291:6311  _roles[role].hasRole */\n  0x00\n  add\n    /* \"@openzeppelin/contracts/access/AccessControl.sol\":6291:6320  _roles[role].hasRole[account] */\n  0x00\n    /* \"@openzeppelin/contracts/access/AccessControl.sol\":6312:6319  account */\n  dup5\n    /* \"@openzeppelin/contracts/access/AccessControl.sol\":6291:6320  _roles[role].hasRole[account] */\n  0xffffffffffffffffffffffffffffffffffffffff\n  and\n  0xffffffffffffffffffffffffffffffffffffffff\n  and\n  dup2\n  mstore\n  0x20\n  add\n  swap1\n  dup2\n  mstore\n  0x20\n  add\n  0x00\n  keccak256\n  0x00\n    /* \"@openzeppelin/contracts/access/AccessControl.sol\":6291:6327  _roles[role].hasRole[account] = true */\n  0x0100\n  exp\n  dup2\n  sload\n  dup2\n  0xff\n  mul\n  not\n  and\n  swap1\n  dup4\n  iszero\n  iszero\n  mul\n  or\n  swap1\n  sstore\n  pop\n    /* \"@openzeppelin/contracts/access/AccessControl.sol\":6373:6385  _msgSender() */\n  tag_17\n    /* \"@openzeppelin/contracts/access/AccessControl.sol\":6373:6383  _msgSender */\n  shl(0x20, tag_18)\n    /* \"@openzeppelin/contracts/access/AccessControl.sol\":6373:6385  _msgSender() */\n  0x20\n  shr\n  jump\t// in\ntag_17:\n    /* \"@openzeppelin/contracts/access/AccessControl.sol\":6346:6386  RoleGranted(role, account, _msgSender()) */\n  0xffffffffffffffffffffffffffffffffffffffff\n  and\n    /* \"@openzeppelin/contracts/access/AccessControl.sol\":6364:6371  account */\n  dup3\n    /* \"@openzeppelin/contracts/access/AccessControl.sol\":6346:6386  RoleGranted(role, account, _msgSender()) */\n  0xffffffffffffffffffffffffffffffffffffffff\n  and\n    /* \"@openzeppelin/contracts/access/AccessControl.sol\":6358:6362  role */\n  dup5\n    /* \"@openzeppelin/contracts/access/AccessControl.sol\":6346:6386  RoleGranted(role, account, _msgSender()) */\n  0x2f8788117e7eff1d82e926ec794901d17c78024a50270940304540a733656f0d\n  mload(0x40)\n  mload(0x40)\n  dup1\n  swap2\n  sub\n  swap1\n  log4\n    /* \"@openzeppelin/contracts/access/AccessControl.sol\":6407:6411  true */\n  0x01\n    /* \"@openzeppelin/contracts/access/AccessControl.sol\":6400:6411  return true */\n  swap1\n  pop\n  jump(tag_13)\n    /* \"@openzeppelin/contracts/access/AccessControl.sol\":6248:6465  if (!hasRole(role, account)) {... */\ntag_16:\n    /* \"@openzeppelin/contracts/access/AccessControl.sol\":6449:6454  false */\n  0x00\n    /* \"@openzeppelin/contracts/access/AccessControl.sol\":6442:6454  return false */\n  swap1\n  pop\n    /* \"@openzeppelin/contracts/access/AccessControl.sol\":6155:6471  function _grantRole(bytes32 role, address account) internal virtual returns (bool) {... */\ntag_13:\n  swap3\n  swap2\n  pop\n  pop\n  jump\t// out\n    /* \"@openzeppelin/contracts/access/AccessControl.sol\":2830:2966  function hasRole(bytes32 role, address account) public view virtual returns (bool) {... */\ntag_15:\n    /* \"@openzeppelin/contracts/access/AccessControl.sol\":2907:2911  bool */\n  0x00\n    /* \"@openzeppelin/contracts/access/AccessControl.sol\":2930:2936  _roles */\n  dup1\n    /* \"@openzeppelin/contracts/access/AccessControl.sol\":2930:2942  _roles[role] */\n  0x00\n    /* \"@openzeppelin/contracts/access/AccessControl.sol\":2937:2941  role */\n  dup5\n    /* \"@openzeppelin/contracts/access/AccessControl.sol\":2930:2942  _roles[role] */\n  dup2\n  mstore\n  0x20\n  add\n  swap1\n  dup2\n  mstore\n  0x20\n  add\n  0x00\n  keccak256\n    /* \"@openzeppelin/contracts/access/AccessControl.sol\":2930:2950  _roles[role].hasRole */\n  0x00\n  add\n    /* \"@openzeppelin/contracts/access/AccessControl.sol\":2930:2959  _roles[role].hasRole[account] */\n  0x00\n    /* \"@openzeppelin/contracts/access/AccessControl.sol\":2951:2958  account */\n  dup4\n    /* \"@openzeppelin/contracts/access/AccessControl.sol\":2930:2959  _roles[role].hasRole[account] */\n  0xffffffffffffffffffffffffffffffffffffffff\n  and\n  0xffffffffffffffffffffffffffffffffffffffff\n  and\n  dup2\n  mstore\n  0x20\n  add\n  swap1\n  dup2\n  mstore\n  0x20\n  add\n  0x00\n  keccak256\n  0x00\n  swap1\n  sload\n  swap1\n  0x0100\n  exp\n  swap1\n  div\n  0xff\n  and\n    /* \"@openzeppelin/contracts/access/AccessControl.sol\":2923:2959  return _roles[role].hasRole[account] */\n  swap1\n  pop\n    /* \"@openzeppelin/contracts/access/AccessControl.sol\":2830:2966  function hasRole(bytes32 role, address account) public view virtual returns (bool) {... */\n  swap3\n  swap2\n  pop\n  pop\n  jump\t// out\n    /* \"@openzeppelin/contracts/utils/Context.sol\":656:752  function _msgSender() internal view virtual returns (address) {... */\ntag_18:\n    /* \"@openzeppelin/contracts/utils/Context.sol\":709:716  address */\n  0x00\n    /* \"@openzeppelin/contracts/utils/Context.sol\":735:745  msg.sender */\n  caller\n    /* \"@openzeppelin/contracts/utils/Context.sol\":728:745  return msg.sender */\n  swap1\n  pop\n    /* \"@openzeppelin/contracts/utils/Context.sol\":656:752  function _msgSender() internal view virtual returns (address) {... */\n  swap1\n  jump\t// out\n    /* \"#utility.yul\":88:205   */\ntag_23:\n    /* \"#utility.yul\":197:198   */\n  0x00\n    /* \"#utility.yul\":194:195   */\n  dup1\n    /* \"#utility.yul\":187:199   */\n  revert\n    /* \"#utility.yul\":334:411   */\ntag_25:\n    /* \"#utility.yul\":371:378   */\n  0x00\n    /* \"#utility.yul\":400:405   */\n  dup2\n    /* \"#utility.yul\":389:405   */\n  swap1\n  pop\n    /* \"#utility.yul\":334:411   */\n  swap2\n  swap1\n  pop\n  jump\t// out\n    /* \"#utility.yul\":417:539   */\ntag_26:\n    /* \"#utility.yul\":490:514   */\n  tag_38\n    /* \"#utility.yul\":508:513   */\n  dup2\n    /* \"#utility.yul\":490:514   */\n  tag_25\n  jump\t// in\ntag_38:\n    /* \"#utility.yul\":483:488   */\n  dup2\n    /* \"#utility.yul\":480:515   */\n  eq\n    /* \"#utility.yul\":470:533   */\n  tag_39\n  jumpi\n    /* \"#utility.yul\":529:530   */\n  0x00\n    /* \"#utility.yul\":526:527   */\n  dup1\n    /* \"#utility.yul\":519:531   */\n  revert\n    /* \"#utility.yul\":470:533   */\ntag_39:\n    /* \"#utility.yul\":417:539   */\n  pop\n  jump\t// out\n    /* \"#utility.yul\":545:688   */\ntag_27:\n    /* \"#utility.yul\":602:607   */\n  0x00\n    /* \"#utility.yul\":633:639   */\n  dup2\n    /* \"#utility.yul\":627:640   */\n  mload\n    /* \"#utility.yul\":618:640   */\n  swap1\n  pop\n    /* \"#utility.yul\":649:682   */\n  tag_41\n    /* \"#utility.yul\":676:681   */\n  dup2\n    /* \"#utility.yul\":649:682   */\n  tag_26\n  jump\t// in\ntag_41:\n    /* \"#utility.yul\":545:688   */\n  swap3\n  swap2\n  pop\n  pop\n  jump\t// out\n    /* \"#utility.yul\":694:820   */\ntag_28:\n    /* \"#utility.yul\":731:738   */\n  0x00\n    /* \"#utility.yul\":771:813   */\n  0xffffffffffffffffffffffffffffffffffffffff\n    /* \"#utility.yul\":764:769   */\n  dup3\n    /* \"#utility.yul\":760:814   */\n  and\n    /* \"#utility.yul\":749:814   */\n  swap1\n  pop\n    /* \"#utility.yul\":694:820   */\n  swap2\n  swap1\n  pop\n  jump\t// out\n    /* \"#utility.yul\":826:922   */\ntag_29:\n    /* \"#utility.yul\":863:870   */\n  0x00\n    /* \"#utility.yul\":892:916   */\n  tag_44\n    /* \"#utility.yul\":910:915   */\n  dup3\n    /* \"#utility.yul\":892:916   */\n  tag_28\n  jump\t// in\ntag_44:\n    /* \"#utility.yul\":881:916   */\n  swap1\n  pop\n    /* \"#utility.yul\":826:922   */\n  swap2\n  swap1\n  pop\n  jump\t// out\n    /* \"#utility.yul\":928:1050   */\ntag_30:\n    /* \"#utility.yul\":1001:1025   */\n  tag_46\n    /* \"#utility.yul\":1019:1024   */\n  dup2\n    /* \"#utility.yul\":1001:1025   */\n  tag_29\n  jump\t// in\ntag_46:\n    /* \"#utility.yul\":994:999   */\n  dup2\n    /* \"#utility.yul\":991:1026   */\n  eq\n    /* \"#utility.yul\":981:1044   */\n  tag_47\n  jumpi\n    /* \"#utility.yul\":1040:1041   */\n  0x00\n    /* \"#utility.yul\":1037:1038   */\n  dup1\n    /* \"#utility.yul\":1030:1042   */\n  revert\n    /* \"#utility.yul\":981:1044   */\ntag_47:\n    /* \"#utility.yul\":928:1050   */\n  pop\n  jump\t// out\n    /* \"#utility.yul\":1056:1199   */\ntag_31:\n    /* \"#utility.yul\":1113:1118   */\n  0x00\n    /* \"#utility.yul\":1144:1150   */\n  dup2\n    /* \"#utility.yul\":1138:1151   */\n  mload\n    /* \"#utility.yul\":1129:1151   */\n  swap1\n  pop\n    /* \"#utility.yul\":1160:1193   */\n  tag_49\n    /* \"#utility.yul\":1187:1192   */\n  dup2\n    /* \"#utility.yul\":1160:1193   */\n  tag_30\n  jump\t// in\ntag_49:\n    /* \"#utility.yul\":1056:1199   */\n  swap3\n  swap2\n  pop\n  pop\n  jump\t// out\n    /* \"#utility.yul\":1205:1868   */\ntag_3:\n    /* \"#utility.yul\":1293:1299   */\n  0x00\n    /* \"#utility.yul\":1301:1307   */\n  dup1\n    /* \"#utility.yul\":1309:1315   */\n  0x00\n    /* \"#utility.yul\":1358:1360   */\n  0x60\n    /* \"#utility.yul\":1346:1355   */\n  dup5\n    /* \"#utility.yul\":1337:1344   */\n  dup7\n    /* \"#utility.yul\":1333:1356   */\n  sub\n    /* \"#utility.yul\":1329:1361   */\n  slt\n    /* \"#utility.yul\":1326:1445   */\n  iszero\n  tag_51\n  jumpi\n    /* \"#utility.yul\":1364:1443   */\n  tag_52\n  tag_23\n  jump\t// in\ntag_52:\n    /* \"#utility.yul\":1326:1445   */\ntag_51:\n    /* \"#utility.yul\":1484:1485   */\n  0x00\n    /* \"#utility.yul\":1509:1573   */\n  tag_53\n    /* \"#utility.yul\":1565:1572   */\n  dup7\n    /* \"#utility.yul\":1556:1562   */\n  dup3\n    /* \"#utility.yul\":1545:1554   */\n  dup8\n    /* \"#utility.yul\":1541:1563   */\n  add\n    /* \"#utility.yul\":1509:1573   */\n  tag_27\n  jump\t// in\ntag_53:\n    /* \"#utility.yul\":1499:1573   */\n  swap4\n  pop\n    /* \"#utility.yul\":1455:1583   */\n  pop\n    /* \"#utility.yul\":1622:1624   */\n  0x20\n    /* \"#utility.yul\":1648:1712   */\n  tag_54\n    /* \"#utility.yul\":1704:1711   */\n  dup7\n    /* \"#utility.yul\":1695:1701   */\n  dup3\n    /* \"#utility.yul\":1684:1693   */\n  dup8\n    /* \"#utility.yul\":1680:1702   */\n  add\n    /* \"#utility.yul\":1648:1712   */\n  tag_27\n  jump\t// in\ntag_54:\n    /* \"#utility.yul\":1638:1712   */\n  swap3\n  pop\n    /* \"#utility.yul\":1593:1722   */\n  pop\n    /* \"#utility.yul\":1761:1763   */\n  0x40\n    /* \"#utility.yul\":1787:1851   */\n  tag_55\n    /* \"#utility.yul\":1843:1850   */\n  dup7\n    /* \"#utility.yul\":1834:1840   */\n  dup3\n    /* \"#utility.yul\":1823:1832   */\n  dup8\n    /* \"#utility.yul\":1819:1841   */\n  add\n    /* \"#utility.yul\":1787:1851   */\n  tag_31\n  jump\t// in\ntag_55:\n    /* \"#utility.yul\":1777:1851   */\n  swap2\n  pop\n    /* \"#utility.yul\":1732:1861   */\n  pop\n    /* \"#utility.yul\":1205:1868   */\n  swap3\n  pop\n  swap3\n  pop\n  swap3\n  jump\t// out\n    /* \"contracts/kipu-bank-v2.sol\":820:16738  contract KipuBankV2 is AccessControl, ReentrancyGuard {... */\ntag_12:\n  mload(0x80)\n  mload(0xa0)\n  codecopy(0x00, dataOffset(sub_0), dataSize(sub_0))\n  0x00\n  assignImmutable(\"0x6899d1fa68cf48634632762f4cd0ec59d591ccbdd349962c4ae5d93ddad42969\")\n  0x00\n  assignImmutable(\"0x9c2c9f4d8409fa4d6fe2a06869e9740854d67207dd241ab564cc1f1f3dcdc081\")\n  return(0x00, dataSize(sub_0))\nstop\n\nsub_0: assembly {\n        /* \"contracts/kipu-bank-v2.sol\":820:16738  contract KipuBankV2 is AccessControl, ReentrancyGuard {... */\n      mstore(0x40, 0x80)\n      jumpi(tag_1, lt(calldatasize, 0x04))\n      shr(0xe0, calldataload(0x00))\n      dup1\n      0x91d14854\n      gt\n      tag_33\n      jumpi\n      dup1\n      0xe62bac56\n      gt\n      tag_34\n      jumpi\n      dup1\n      0xf3fef3a3\n      gt\n      tag_35\n      jumpi\n      dup1\n      0xf3fef3a3\n      eq\n      tag_29\n      jumpi\n      dup1\n      0xf5dab711\n      eq\n      tag_30\n      jumpi\n      dup1\n      0xf6326fb3\n      eq\n      tag_31\n      jumpi\n      dup1\n      0xf7888aec\n      eq\n      tag_32\n      jumpi\n      jump(tag_2)\n    tag_35:\n      dup1\n      0xe62bac56\n      eq\n      tag_25\n      jumpi\n      dup1\n      0xec826ff6\n      eq\n      tag_26\n      jumpi\n      dup1\n      0xedda71ed\n      eq\n      tag_27\n      jumpi\n      dup1\n      0xefe5e7d6\n      eq\n      tag_28\n      jumpi\n      jump(tag_2)\n    tag_34:\n      dup1\n      0xa217fddf\n      gt\n      tag_36\n      jumpi\n      dup1\n      0xa217fddf\n      eq\n      tag_21\n      jumpi\n      dup1\n      0xc1419def\n      eq\n      tag_22\n      jumpi\n      dup1\n      0xd2f33427\n      eq\n      tag_23\n      jumpi\n      dup1\n      0xd547741f\n      eq\n      tag_24\n      jumpi\n      jump(tag_2)\n    tag_36:\n      dup1\n      0x91d14854\n      eq\n      tag_18\n      jumpi\n      dup1\n      0x97feb926\n      eq\n      tag_19\n      jumpi\n      dup1\n      0x9aebfef2\n      eq\n      tag_20\n      jumpi\n      jump(tag_2)\n    tag_33:\n      dup1\n      0x2dfdf0b5\n      gt\n      tag_37\n      jumpi\n      dup1\n      0x4cc05a71\n      gt\n      tag_38\n      jumpi\n      dup1\n      0x4cc05a71\n      eq\n      tag_14\n      jumpi\n      dup1\n      0x70480275\n      eq\n      tag_15\n      jumpi\n      dup1\n      0x75b238fc\n      eq\n      tag_16\n      jumpi\n      dup1\n      0x77860cdd\n      eq\n      tag_17\n      jumpi\n      jump(tag_2)\n    tag_38:\n      dup1\n      0x2dfdf0b5\n      eq\n      tag_10\n      jumpi\n      dup1\n      0x2f2ff15d\n      eq\n      tag_11\n      jumpi\n      dup1\n      0x36568abe\n      eq\n      tag_12\n      jumpi\n      dup1\n      0x4bebc5a8\n      eq\n      tag_13\n      jumpi\n      jump(tag_2)\n    tag_37:\n      dup1\n      0x248a9ca3\n      gt\n      tag_39\n      jumpi\n      dup1\n      0x248a9ca3\n      eq\n      tag_6\n      jumpi\n      dup1\n      0x26aa101f\n      eq\n      tag_7\n      jumpi\n      dup1\n      0x27175b23\n      eq\n      tag_8\n      jumpi\n      dup1\n      0x288e4e1e\n      eq\n      tag_9\n      jumpi\n      jump(tag_2)\n    tag_39:\n      dup1\n      0x01ffc9a7\n      eq\n      tag_3\n      jumpi\n      dup1\n      0x12984b0b\n      eq\n      tag_4\n      jumpi\n      dup1\n      0x1785f53c\n      eq\n      tag_5\n      jumpi\n      jump(tag_2)\n    tag_1:\n      jumpi(tag_2, calldatasize)\n        /* \"contracts/kipu-bank-v2.sol\":16589:16590  0 */\n      0x00\n        /* \"contracts/kipu-bank-v2.sol\":16576:16585  msg.value */\n      callvalue\n        /* \"contracts/kipu-bank-v2.sol\":16576:16590  msg.value == 0 */\n      sub\n        /* \"contracts/kipu-bank-v2.sol\":16572:16610  if (msg.value == 0) revert MontoCero() */\n      tag_42\n      jumpi\n        /* \"contracts/kipu-bank-v2.sol\":16599:16610  MontoCero() */\n      mload(0x40)\n      0x85ea51af00000000000000000000000000000000000000000000000000000000\n      dup2\n      mstore\n      0x04\n      add\n      mload(0x40)\n      dup1\n      swap2\n      sub\n      swap1\n      revert\n        /* \"contracts/kipu-bank-v2.sol\":16572:16610  if (msg.value == 0) revert MontoCero() */\n    tag_42:\n        /* \"contracts/kipu-bank-v2.sol\":16621:16664  _deposit(address(0), msg.sender, msg.value) */\n      tag_43\n        /* \"contracts/kipu-bank-v2.sol\":16638:16639  0 */\n      0x00\n        /* \"contracts/kipu-bank-v2.sol\":16642:16652  msg.sender */\n      caller\n        /* \"contracts/kipu-bank-v2.sol\":16654:16663  msg.value */\n      callvalue\n        /* \"contracts/kipu-bank-v2.sol\":16621:16629  _deposit */\n      tag_44\n        /* \"contracts/kipu-bank-v2.sol\":16621:16664  _deposit(address(0), msg.sender, msg.value) */\n      jump\t// in\n    tag_43:\n        /* \"contracts/kipu-bank-v2.sol\":820:16738  contract KipuBankV2 is AccessControl, ReentrancyGuard {... */\n      stop\n    tag_2:\n        /* \"contracts/kipu-bank-v2.sol\":16719:16727  revert() */\n      0x00\n      dup1\n      revert\n        /* \"@openzeppelin/contracts/access/AccessControl.sol\":2541:2743  function supportsInterface(bytes4 interfaceId) public view virtual override returns (bool) {... */\n    tag_3:\n      callvalue\n      dup1\n      iszero\n      tag_47\n      jumpi\n      0x00\n      dup1\n      revert\n    tag_47:\n      pop\n      tag_48\n      0x04\n      dup1\n      calldatasize\n      sub\n      dup2\n      add\n      swap1\n      tag_49\n      swap2\n      swap1\n      tag_50\n      jump\t// in\n    tag_49:\n      tag_51\n      jump\t// in\n    tag_48:\n      mload(0x40)\n      tag_52\n      swap2\n      swap1\n      tag_53\n      jump\t// in\n    tag_52:\n      mload(0x40)\n      dup1\n      swap2\n      sub\n      swap1\n      return\n        /* \"contracts/kipu-bank-v2.sol\":15460:15589  function getPriceFeedForToken(address token) external view returns (address) {... */\n    tag_4:\n      callvalue\n      dup1\n      iszero\n      tag_54\n      jumpi\n      0x00\n      dup1\n      revert\n    tag_54:\n      pop\n      tag_55\n      0x04\n      dup1\n      calldatasize\n      sub\n      dup2\n      add\n      swap1\n      tag_56\n      swap2\n      swap1\n      tag_57\n      jump\t// in\n    tag_56:\n      tag_58\n      jump\t// in\n    tag_55:\n      mload(0x40)\n      tag_59\n      swap2\n      swap1\n      tag_60\n      jump\t// in\n    tag_59:\n      mload(0x40)\n      dup1\n      swap2\n      sub\n      swap1\n      return\n        /* \"contracts/kipu-bank-v2.sol\":7034:7197  function removeAdmin(address account) external onlyRole(DEFAULT_ADMIN_ROLE) {... */\n    tag_5:\n      callvalue\n      dup1\n      iszero\n      tag_61\n      jumpi\n      0x00\n      dup1\n      revert\n    tag_61:\n      pop\n      tag_62\n      0x04\n      dup1\n      calldatasize\n      sub\n      dup2\n      add\n      swap1\n      tag_63\n      swap2\n      swap1\n      tag_57\n      jump\t// in\n    tag_63:\n      tag_64\n      jump\t// in\n    tag_62:\n      stop\n        /* \"@openzeppelin/contracts/access/AccessControl.sol\":3786:3906  function getRoleAdmin(bytes32 role) public view virtual returns (bytes32) {... */\n    tag_6:\n      callvalue\n      dup1\n      iszero\n      tag_65\n      jumpi\n      0x00\n      dup1\n      revert\n    tag_65:\n      pop\n      tag_66\n      0x04\n      dup1\n      calldatasize\n      sub\n      dup2\n      add\n      swap1\n      tag_67\n      swap2\n      swap1\n      tag_68\n      jump\t// in\n    tag_67:\n      tag_69\n      jump\t// in\n    tag_66:\n      mload(0x40)\n      tag_70\n      swap2\n      swap1\n      tag_71\n      jump\t// in\n    tag_70:\n      mload(0x40)\n      dup1\n      swap2\n      sub\n      swap1\n      return\n        /* \"contracts/kipu-bank-v2.sol\":15689:15812  function isTokenRegistered(address token) external view returns (bool) {... */\n    tag_7:\n      callvalue\n      dup1\n      iszero\n      tag_72\n      jumpi\n      0x00\n      dup1\n      revert\n    tag_72:\n      pop\n      tag_73\n      0x04\n      dup1\n      calldatasize\n      sub\n      dup2\n      add\n      swap1\n      tag_74\n      swap2\n      swap1\n      tag_57\n      jump\t// in\n    tag_74:\n      tag_75\n      jump\t// in\n    tag_73:\n      mload(0x40)\n      tag_76\n      swap2\n      swap1\n      tag_53\n      jump\t// in\n    tag_76:\n      mload(0x40)\n      dup1\n      swap2\n      sub\n      swap1\n      return\n        /* \"contracts/kipu-bank-v2.sol\":3735:3768  uint256 public totalDepositedUSDC */\n    tag_8:\n      callvalue\n      dup1\n      iszero\n      tag_77\n      jumpi\n      0x00\n      dup1\n      revert\n    tag_77:\n      pop\n      tag_78\n      tag_79\n      jump\t// in\n    tag_78:\n      mload(0x40)\n      tag_80\n      swap2\n      swap1\n      tag_81\n      jump\t// in\n    tag_80:\n      mload(0x40)\n      dup1\n      swap2\n      sub\n      swap1\n      return\n        /* \"contracts/kipu-bank-v2.sol\":15945:16189  function tryTokenDecimals(address token) external view returns (uint8) {... */\n    tag_9:\n      callvalue\n      dup1\n      iszero\n      tag_82\n      jumpi\n      0x00\n      dup1\n      revert\n    tag_82:\n      pop\n      tag_83\n      0x04\n      dup1\n      calldatasize\n      sub\n      dup2\n      add\n      swap1\n      tag_84\n      swap2\n      swap1\n      tag_57\n      jump\t// in\n    tag_84:\n      tag_85\n      jump\t// in\n    tag_83:\n      mload(0x40)\n      tag_86\n      swap2\n      swap1\n      tag_87\n      jump\t// in\n    tag_86:\n      mload(0x40)\n      dup1\n      swap2\n      sub\n      swap1\n      return\n        /* \"contracts/kipu-bank-v2.sol\":3813:3840  uint256 public depositCount */\n    tag_10:\n      callvalue\n      dup1\n      iszero\n      tag_88\n      jumpi\n      0x00\n      dup1\n      revert\n    tag_88:\n      pop\n      tag_89\n      tag_90\n      jump\t// in\n    tag_89:\n      mload(0x40)\n      tag_91\n      swap2\n      swap1\n      tag_81\n      jump\t// in\n    tag_91:\n      mload(0x40)\n      dup1\n      swap2\n      sub\n      swap1\n      return\n        /* \"@openzeppelin/contracts/access/AccessControl.sol\":4202:4338  function grantRole(bytes32 role, address account) public virtual onlyRole(getRoleAdmin(role)) {... */\n    tag_11:\n      callvalue\n      dup1\n      iszero\n      tag_92\n      jumpi\n      0x00\n      dup1\n      revert\n    tag_92:\n      pop\n      tag_93\n      0x04\n      dup1\n      calldatasize\n      sub\n      dup2\n      add\n      swap1\n      tag_94\n      swap2\n      swap1\n      tag_95\n      jump\t// in\n    tag_94:\n      tag_96\n      jump\t// in\n    tag_93:\n      stop\n        /* \"@openzeppelin/contracts/access/AccessControl.sol\":5304:5549  function renounceRole(bytes32 role, address callerConfirmation) public virtual {... */\n    tag_12:\n      callvalue\n      dup1\n      iszero\n      tag_97\n      jumpi\n      0x00\n      dup1\n      revert\n    tag_97:\n      pop\n      tag_98\n      0x04\n      dup1\n      calldatasize\n      sub\n      dup2\n      add\n      swap1\n      tag_99\n      swap2\n      swap1\n      tag_95\n      jump\t// in\n    tag_99:\n      tag_100\n      jump\t// in\n    tag_98:\n      stop\n        /* \"contracts/kipu-bank-v2.sol\":6195:6572  function registerToken(address token, address priceFeed, uint8 decimals) external onlyRole(ADMIN_ROLE) {... */\n    tag_13:\n      callvalue\n      dup1\n      iszero\n      tag_101\n      jumpi\n      0x00\n      dup1\n      revert\n    tag_101:\n      pop\n      tag_102\n      0x04\n      dup1\n      calldatasize\n      sub\n      dup2\n      add\n      swap1\n      tag_103\n      swap2\n      swap1\n      tag_104\n      jump\t// in\n    tag_103:\n      tag_105\n      jump\t// in\n    tag_102:\n      stop\n        /* \"contracts/kipu-bank-v2.sol\":3847:3875  uint256 public withdrawCount */\n    tag_14:\n      callvalue\n      dup1\n      iszero\n      tag_106\n      jumpi\n      0x00\n      dup1\n      revert\n    tag_106:\n      pop\n      tag_107\n      tag_108\n      jump\t// in\n    tag_107:\n      mload(0x40)\n      tag_109\n      swap2\n      swap1\n      tag_81\n      jump\t// in\n    tag_109:\n      mload(0x40)\n      dup1\n      swap2\n      sub\n      swap1\n      return\n        /* \"contracts/kipu-bank-v2.sol\":6835:6992  function addAdmin(address account) external onlyRole(DEFAULT_ADMIN_ROLE) {... */\n    tag_15:\n      callvalue\n      dup1\n      iszero\n      tag_110\n      jumpi\n      0x00\n      dup1\n      revert\n    tag_110:\n      pop\n      tag_111\n      0x04\n      dup1\n      calldatasize\n      sub\n      dup2\n      add\n      swap1\n      tag_112\n      swap2\n      swap1\n      tag_57\n      jump\t// in\n    tag_112:\n      tag_113\n      jump\t// in\n    tag_111:\n      stop\n        /* \"contracts/kipu-bank-v2.sol\":1693:1753  bytes32 public constant ADMIN_ROLE = keccak256(\"ADMIN_ROLE\") */\n    tag_16:\n      callvalue\n      dup1\n      iszero\n      tag_114\n      jumpi\n      0x00\n      dup1\n      revert\n    tag_114:\n      pop\n      tag_115\n      tag_116\n      jump\t// in\n    tag_115:\n      mload(0x40)\n      tag_117\n      swap2\n      swap1\n      tag_71\n      jump\t// in\n    tag_117:\n      mload(0x40)\n      dup1\n      swap2\n      sub\n      swap1\n      return\n        /* \"contracts/kipu-bank-v2.sol\":6636:6788  function unregisterToken(address token) external onlyRole(ADMIN_ROLE) {... */\n    tag_17:\n      callvalue\n      dup1\n      iszero\n      tag_118\n      jumpi\n      0x00\n      dup1\n      revert\n    tag_118:\n      pop\n      tag_119\n      0x04\n      dup1\n      calldatasize\n      sub\n      dup2\n      add\n      swap1\n      tag_120\n      swap2\n      swap1\n      tag_57\n      jump\t// in\n    tag_120:\n      tag_121\n      jump\t// in\n    tag_119:\n      stop\n        /* \"@openzeppelin/contracts/access/AccessControl.sol\":2830:2966  function hasRole(bytes32 role, address account) public view virtual returns (bool) {... */\n    tag_18:\n      callvalue\n      dup1\n      iszero\n      tag_122\n      jumpi\n      0x00\n      dup1\n      revert\n    tag_122:\n      pop\n      tag_123\n      0x04\n      dup1\n      calldatasize\n      sub\n      dup2\n      add\n      swap1\n      tag_124\n      swap2\n      swap1\n      tag_95\n      jump\t// in\n    tag_124:\n      tag_125\n      jump\t// in\n    tag_123:\n      mload(0x40)\n      tag_126\n      swap2\n      swap1\n      tag_53\n      jump\t// in\n    tag_126:\n      mload(0x40)\n      dup1\n      swap2\n      sub\n      swap1\n      return\n        /* \"contracts/kipu-bank-v2.sol\":7844:8155  function depositERC20(address token, uint256 amount) external montoNoCero(amount) nonReentrant {... */\n    tag_19:\n      callvalue\n      dup1\n      iszero\n      tag_127\n      jumpi\n      0x00\n      dup1\n      revert\n    tag_127:\n      pop\n      tag_128\n      0x04\n      dup1\n      calldatasize\n      sub\n      dup2\n      add\n      swap1\n      tag_129\n      swap2\n      swap1\n      tag_130\n      jump\t// in\n    tag_129:\n      tag_131\n      jump\t// in\n    tag_128:\n      stop\n        /* \"contracts/kipu-bank-v2.sol\":2916:2956  uint256 public immutable limiteRetiroWei */\n    tag_20:\n      callvalue\n      dup1\n      iszero\n      tag_132\n      jumpi\n      0x00\n      dup1\n      revert\n    tag_132:\n      pop\n      tag_133\n      tag_134\n      jump\t// in\n    tag_133:\n      mload(0x40)\n      tag_135\n      swap2\n      swap1\n      tag_81\n      jump\t// in\n    tag_135:\n      mload(0x40)\n      dup1\n      swap2\n      sub\n      swap1\n      return\n        /* \"@openzeppelin/contracts/access/AccessControl.sol\":2196:2245  bytes32 public constant DEFAULT_ADMIN_ROLE = 0x00 */\n    tag_21:\n      callvalue\n      dup1\n      iszero\n      tag_136\n      jumpi\n      0x00\n      dup1\n      revert\n    tag_136:\n      pop\n      tag_137\n      tag_138\n      jump\t// in\n    tag_137:\n      mload(0x40)\n      tag_139\n      swap2\n      swap1\n      tag_71\n      jump\t// in\n    tag_139:\n      mload(0x40)\n      dup1\n      swap2\n      sub\n      swap1\n      return\n        /* \"contracts/kipu-bank-v2.sol\":2494:2533  uint8 public constant USDC_DECIMALS = 6 */\n    tag_22:\n      callvalue\n      dup1\n      iszero\n      tag_140\n      jumpi\n      0x00\n      dup1\n      revert\n    tag_140:\n      pop\n      tag_141\n      tag_142\n      jump\t// in\n    tag_141:\n      mload(0x40)\n      tag_143\n      swap2\n      swap1\n      tag_87\n      jump\t// in\n    tag_143:\n      mload(0x40)\n      dup1\n      swap2\n      sub\n      swap1\n      return\n        /* \"contracts/kipu-bank-v2.sol\":10612:10745  function totalDepositedForToken(address token) external view returns (uint256) {... */\n    tag_23:\n      callvalue\n      dup1\n      iszero\n      tag_144\n      jumpi\n      0x00\n      dup1\n      revert\n    tag_144:\n      pop\n      tag_145\n      0x04\n      dup1\n      calldatasize\n      sub\n      dup2\n      add\n      swap1\n      tag_146\n      swap2\n      swap1\n      tag_57\n      jump\t// in\n    tag_146:\n      tag_147\n      jump\t// in\n    tag_145:\n      mload(0x40)\n      tag_148\n      swap2\n      swap1\n      tag_81\n      jump\t// in\n    tag_148:\n      mload(0x40)\n      dup1\n      swap2\n      sub\n      swap1\n      return\n        /* \"@openzeppelin/contracts/access/AccessControl.sol\":4618:4756  function revokeRole(bytes32 role, address account) public virtual onlyRole(getRoleAdmin(role)) {... */\n    tag_24:\n      callvalue\n      dup1\n      iszero\n      tag_149\n      jumpi\n      0x00\n      dup1\n      revert\n    tag_149:\n      pop\n      tag_150\n      0x04\n      dup1\n      calldatasize\n      sub\n      dup2\n      add\n      swap1\n      tag_151\n      swap2\n      swap1\n      tag_95\n      jump\t// in\n    tag_151:\n      tag_152\n      jump\t// in\n    tag_150:\n      stop\n        /* \"contracts/kipu-bank-v2.sol\":3538:3594  mapping(address => uint256) public totalDepositedByToken */\n    tag_25:\n      callvalue\n      dup1\n      iszero\n      tag_153\n      jumpi\n      0x00\n      dup1\n      revert\n    tag_153:\n      pop\n      tag_154\n      0x04\n      dup1\n      calldatasize\n      sub\n      dup2\n      add\n      swap1\n      tag_155\n      swap2\n      swap1\n      tag_57\n      jump\t// in\n    tag_155:\n      tag_156\n      jump\t// in\n    tag_154:\n      mload(0x40)\n      tag_157\n      swap2\n      swap1\n      tag_81\n      jump\t// in\n    tag_157:\n      mload(0x40)\n      dup1\n      swap2\n      sub\n      swap1\n      return\n        /* \"contracts/kipu-bank-v2.sol\":10829:10932  function getLimiteBancoUSDC() external view returns (uint256) {... */\n    tag_26:\n      callvalue\n      dup1\n      iszero\n      tag_158\n      jumpi\n      0x00\n      dup1\n      revert\n    tag_158:\n      pop\n      tag_159\n      tag_160\n      jump\t// in\n    tag_159:\n      mload(0x40)\n      tag_161\n      swap2\n      swap1\n      tag_81\n      jump\t// in\n    tag_161:\n      mload(0x40)\n      dup1\n      swap2\n      sub\n      swap1\n      return\n        /* \"contracts/kipu-bank-v2.sol\":11020:11129  function getTotalDepositedUSDC() external view returns (uint256) {... */\n    tag_27:\n      callvalue\n      dup1\n      iszero\n      tag_162\n      jumpi\n      0x00\n      dup1\n      revert\n    tag_162:\n      pop\n      tag_163\n      tag_164\n      jump\t// in\n    tag_163:\n      mload(0x40)\n      tag_165\n      swap2\n      swap1\n      tag_81\n      jump\t// in\n    tag_165:\n      mload(0x40)\n      dup1\n      swap2\n      sub\n      swap1\n      return\n        /* \"contracts/kipu-bank-v2.sol\":2741:2781  uint256 public immutable limiteBancoUSDC */\n    tag_28:\n      callvalue\n      dup1\n      iszero\n      tag_166\n      jumpi\n      0x00\n      dup1\n      revert\n    tag_166:\n      pop\n      tag_167\n      tag_168\n      jump\t// in\n    tag_167:\n      mload(0x40)\n      tag_169\n      swap2\n      swap1\n      tag_81\n      jump\t// in\n    tag_169:\n      mload(0x40)\n      dup1\n      swap2\n      sub\n      swap1\n      return\n        /* \"contracts/kipu-bank-v2.sol\":8372:10320  function withdraw(address token, uint256 amount) external montoNoCero(amount) nonReentrant tokenSoportadoOETH(token) {... */\n    tag_29:\n      callvalue\n      dup1\n      iszero\n      tag_170\n      jumpi\n      0x00\n      dup1\n      revert\n    tag_170:\n      pop\n      tag_171\n      0x04\n      dup1\n      calldatasize\n      sub\n      dup2\n      add\n      swap1\n      tag_172\n      swap2\n      swap1\n      tag_130\n      jump\t// in\n    tag_172:\n      tag_173\n      jump\t// in\n    tag_171:\n      stop\n        /* \"contracts/kipu-bank-v2.sol\":3418:3464  mapping(address => TokenInfo) public tokenInfo */\n    tag_30:\n      callvalue\n      dup1\n      iszero\n      tag_174\n      jumpi\n      0x00\n      dup1\n      revert\n    tag_174:\n      pop\n      tag_175\n      0x04\n      dup1\n      calldatasize\n      sub\n      dup2\n      add\n      swap1\n      tag_176\n      swap2\n      swap1\n      tag_57\n      jump\t// in\n    tag_176:\n      tag_177\n      jump\t// in\n    tag_175:\n      mload(0x40)\n      tag_178\n      swap4\n      swap3\n      swap2\n      swap1\n      tag_179\n      jump\t// in\n    tag_178:\n      mload(0x40)\n      dup1\n      swap2\n      sub\n      swap1\n      return\n        /* \"contracts/kipu-bank-v2.sol\":7465:7602  function depositETH() external payable montoNoCero(msg.value) nonReentrant {... */\n    tag_31:\n      tag_180\n      tag_181\n      jump\t// in\n    tag_180:\n      stop\n        /* \"contracts/kipu-bank-v2.sol\":10400:10527  function balanceOf(address user, address token) external view returns (uint256) {... */\n    tag_32:\n      callvalue\n      dup1\n      iszero\n      tag_182\n      jumpi\n      0x00\n      dup1\n      revert\n    tag_182:\n      pop\n      tag_183\n      0x04\n      dup1\n      calldatasize\n      sub\n      dup2\n      add\n      swap1\n      tag_184\n      swap2\n      swap1\n      tag_185\n      jump\t// in\n    tag_184:\n      tag_186\n      jump\t// in\n    tag_183:\n      mload(0x40)\n      tag_187\n      swap2\n      swap1\n      tag_81\n      jump\t// in\n    tag_187:\n      mload(0x40)\n      dup1\n      swap2\n      sub\n      swap1\n      return\n        /* \"contracts/kipu-bank-v2.sol\":11381:12730  function _deposit(address token, address usuario, uint256 amount) private tokenSoportadoOETH(token) {... */\n    tag_44:\n        /* \"contracts/kipu-bank-v2.sol\":11474:11479  token */\n      dup3\n        /* \"contracts/kipu-bank-v2.sol\":5760:5761  0 */\n      0x00\n        /* \"contracts/kipu-bank-v2.sol\":5743:5762  token != address(0) */\n      0xffffffffffffffffffffffffffffffffffffffff\n      and\n        /* \"contracts/kipu-bank-v2.sol\":5743:5748  token */\n      dup2\n        /* \"contracts/kipu-bank-v2.sol\":5743:5762  token != address(0) */\n      0xffffffffffffffffffffffffffffffffffffffff\n      and\n      eq\n      iszero\n        /* \"contracts/kipu-bank-v2.sol\":5743:5793  token != address(0) && !tokenInfo[token].supported */\n      dup1\n      iszero\n      tag_189\n      jumpi\n      pop\n        /* \"contracts/kipu-bank-v2.sol\":5767:5776  tokenInfo */\n      0x03\n        /* \"contracts/kipu-bank-v2.sol\":5767:5783  tokenInfo[token] */\n      0x00\n        /* \"contracts/kipu-bank-v2.sol\":5777:5782  token */\n      dup3\n        /* \"contracts/kipu-bank-v2.sol\":5767:5783  tokenInfo[token] */\n      0xffffffffffffffffffffffffffffffffffffffff\n      and\n      0xffffffffffffffffffffffffffffffffffffffff\n      and\n      dup2\n      mstore\n      0x20\n      add\n      swap1\n      dup2\n      mstore\n      0x20\n      add\n      0x00\n      keccak256\n        /* \"contracts/kipu-bank-v2.sol\":5767:5793  tokenInfo[token].supported */\n      0x00\n      add\n      0x00\n      swap1\n      sload\n      swap1\n      0x0100\n      exp\n      swap1\n      div\n      0xff\n      and\n        /* \"contracts/kipu-bank-v2.sol\":5766:5793  !tokenInfo[token].supported */\n      iszero\n        /* \"contracts/kipu-bank-v2.sol\":5743:5793  token != address(0) && !tokenInfo[token].supported */\n    tag_189:\n        /* \"contracts/kipu-bank-v2.sol\":5739:5825  if (token != address(0) && !tokenInfo[token].supported) revert TokenNoSoportado(token) */\n      iszero\n      tag_190\n      jumpi\n        /* \"contracts/kipu-bank-v2.sol\":5819:5824  token */\n      dup1\n        /* \"contracts/kipu-bank-v2.sol\":5802:5825  TokenNoSoportado(token) */\n      mload(0x40)\n      0x6713984d00000000000000000000000000000000000000000000000000000000\n      dup2\n      mstore\n      0x04\n      add\n      tag_191\n      swap2\n      swap1\n      tag_60\n      jump\t// in\n    tag_191:\n      mload(0x40)\n      dup1\n      swap2\n      sub\n      swap1\n      revert\n        /* \"contracts/kipu-bank-v2.sol\":5739:5825  if (token != address(0) && !tokenInfo[token].supported) revert TokenNoSoportado(token) */\n    tag_190:\n        /* \"contracts/kipu-bank-v2.sol\":11555:11573  uint256 amountUSDC */\n      0x00\n        /* \"contracts/kipu-bank-v2.sol\":11588:11609  bool contributesToCap */\n      dup1\n        /* \"contracts/kipu-bank-v2.sol\":11651:11652  0 */\n      0x00\n        /* \"contracts/kipu-bank-v2.sol\":11634:11653  token == address(0) */\n      0xffffffffffffffffffffffffffffffffffffffff\n      and\n        /* \"contracts/kipu-bank-v2.sol\":11634:11639  token */\n      dup7\n        /* \"contracts/kipu-bank-v2.sol\":11634:11653  token == address(0) */\n      0xffffffffffffffffffffffffffffffffffffffff\n      and\n      sub\n        /* \"contracts/kipu-bank-v2.sol\":11630:12096  if (token == address(0)) {... */\n      tag_193\n      jumpi\n        /* \"contracts/kipu-bank-v2.sol\":11674:11683  tokenInfo */\n      0x03\n        /* \"contracts/kipu-bank-v2.sol\":11674:11695  tokenInfo[address(0)] */\n      0x00\n        /* \"contracts/kipu-bank-v2.sol\":11692:11693  0 */\n      dup1\n        /* \"contracts/kipu-bank-v2.sol\":11674:11695  tokenInfo[address(0)] */\n      0xffffffffffffffffffffffffffffffffffffffff\n      and\n      0xffffffffffffffffffffffffffffffffffffffff\n      and\n      dup2\n      mstore\n      0x20\n      add\n      swap1\n      dup2\n      mstore\n      0x20\n      add\n      0x00\n      keccak256\n        /* \"contracts/kipu-bank-v2.sol\":11674:11705  tokenInfo[address(0)].supported */\n      0x00\n      add\n      0x00\n      swap1\n      sload\n      swap1\n      0x0100\n      exp\n      swap1\n      div\n      0xff\n      and\n        /* \"contracts/kipu-bank-v2.sol\":11674:11754  tokenInfo[address(0)].supported || tokenInfo[address(0)].priceFeed != address(0) */\n      dup1\n      tag_194\n      jumpi\n      pop\n        /* \"contracts/kipu-bank-v2.sol\":11752:11753  0 */\n      0x00\n        /* \"contracts/kipu-bank-v2.sol\":11709:11754  tokenInfo[address(0)].priceFeed != address(0) */\n      0xffffffffffffffffffffffffffffffffffffffff\n      and\n        /* \"contracts/kipu-bank-v2.sol\":11709:11718  tokenInfo */\n      0x03\n        /* \"contracts/kipu-bank-v2.sol\":11709:11730  tokenInfo[address(0)] */\n      0x00\n        /* \"contracts/kipu-bank-v2.sol\":11727:11728  0 */\n      dup1\n        /* \"contracts/kipu-bank-v2.sol\":11709:11730  tokenInfo[address(0)] */\n      0xffffffffffffffffffffffffffffffffffffffff\n      and\n      0xffffffffffffffffffffffffffffffffffffffff\n      and\n      dup2\n      mstore\n      0x20\n      add\n      swap1\n      dup2\n      mstore\n      0x20\n      add\n      0x00\n      keccak256\n        /* \"contracts/kipu-bank-v2.sol\":11709:11740  tokenInfo[address(0)].priceFeed */\n      0x00\n      add\n      0x01\n      swap1\n      sload\n      swap1\n      0x0100\n      exp\n      swap1\n      div\n      0xffffffffffffffffffffffffffffffffffffffff\n      and\n        /* \"contracts/kipu-bank-v2.sol\":11709:11754  tokenInfo[address(0)].priceFeed != address(0) */\n      0xffffffffffffffffffffffffffffffffffffffff\n      and\n      eq\n      iszero\n        /* \"contracts/kipu-bank-v2.sol\":11674:11754  tokenInfo[address(0)].supported || tokenInfo[address(0)].priceFeed != address(0) */\n    tag_194:\n        /* \"contracts/kipu-bank-v2.sol\":11670:11891  if (tokenInfo[address(0)].supported || tokenInfo[address(0)].priceFeed != address(0)) {... */\n      iszero\n      tag_195\n      jumpi\n        /* \"contracts/kipu-bank-v2.sol\":11788:11833  _convertTokenAmountToUSDC(address(0), amount) */\n      tag_196\n        /* \"contracts/kipu-bank-v2.sol\":11822:11823  0 */\n      0x00\n        /* \"contracts/kipu-bank-v2.sol\":11826:11832  amount */\n      dup6\n        /* \"contracts/kipu-bank-v2.sol\":11788:11813  _convertTokenAmountToUSDC */\n      tag_197\n        /* \"contracts/kipu-bank-v2.sol\":11788:11833  _convertTokenAmountToUSDC(address(0), amount) */\n      jump\t// in\n    tag_196:\n        /* \"contracts/kipu-bank-v2.sol\":11775:11833  amountUSDC = _convertTokenAmountToUSDC(address(0), amount) */\n      swap2\n      pop\n        /* \"contracts/kipu-bank-v2.sol\":11871:11875  true */\n      0x01\n        /* \"contracts/kipu-bank-v2.sol\":11852:11875  contributesToCap = true */\n      swap1\n      pop\n        /* \"contracts/kipu-bank-v2.sol\":11670:11891  if (tokenInfo[address(0)].supported || tokenInfo[address(0)].priceFeed != address(0)) {... */\n    tag_195:\n        /* \"contracts/kipu-bank-v2.sol\":11630:12096  if (token == address(0)) {... */\n      jump(tag_198)\n    tag_193:\n        /* \"contracts/kipu-bank-v2.sol\":11927:11936  tokenInfo */\n      0x03\n        /* \"contracts/kipu-bank-v2.sol\":11927:11943  tokenInfo[token] */\n      0x00\n        /* \"contracts/kipu-bank-v2.sol\":11937:11942  token */\n      dup8\n        /* \"contracts/kipu-bank-v2.sol\":11927:11943  tokenInfo[token] */\n      0xffffffffffffffffffffffffffffffffffffffff\n      and\n      0xffffffffffffffffffffffffffffffffffffffff\n      and\n      dup2\n      mstore\n      0x20\n      add\n      swap1\n      dup2\n      mstore\n      0x20\n      add\n      0x00\n      keccak256\n        /* \"contracts/kipu-bank-v2.sol\":11927:11953  tokenInfo[token].supported */\n      0x00\n      add\n      0x00\n      swap1\n      sload\n      swap1\n      0x0100\n      exp\n      swap1\n      div\n      0xff\n      and\n        /* \"contracts/kipu-bank-v2.sol\":11923:12085  if (tokenInfo[token].supported) {... */\n      iszero\n      tag_199\n      jumpi\n        /* \"contracts/kipu-bank-v2.sol\":11987:12027  _convertTokenAmountToUSDC(token, amount) */\n      tag_200\n        /* \"contracts/kipu-bank-v2.sol\":12013:12018  token */\n      dup7\n        /* \"contracts/kipu-bank-v2.sol\":12020:12026  amount */\n      dup6\n        /* \"contracts/kipu-bank-v2.sol\":11987:12012  _convertTokenAmountToUSDC */\n      tag_197\n        /* \"contracts/kipu-bank-v2.sol\":11987:12027  _convertTokenAmountToUSDC(token, amount) */\n      jump\t// in\n    tag_200:\n        /* \"contracts/kipu-bank-v2.sol\":11974:12027  amountUSDC = _convertTokenAmountToUSDC(token, amount) */\n      swap2\n      pop\n        /* \"contracts/kipu-bank-v2.sol\":12065:12069  true */\n      0x01\n        /* \"contracts/kipu-bank-v2.sol\":12046:12069  contributesToCap = true */\n      swap1\n      pop\n        /* \"contracts/kipu-bank-v2.sol\":11923:12085  if (tokenInfo[token].supported) {... */\n    tag_199:\n        /* \"contracts/kipu-bank-v2.sol\":11630:12096  if (token == address(0)) {... */\n    tag_198:\n        /* \"contracts/kipu-bank-v2.sol\":12186:12202  contributesToCap */\n      dup1\n        /* \"contracts/kipu-bank-v2.sol\":12182:12507  if (contributesToCap) {... */\n      iszero\n      tag_201\n      jumpi\n        /* \"contracts/kipu-bank-v2.sol\":12219:12241  uint256 nuevoTotalUSDC */\n      0x00\n        /* \"contracts/kipu-bank-v2.sol\":12265:12275  amountUSDC */\n      dup3\n        /* \"contracts/kipu-bank-v2.sol\":12244:12262  totalDepositedUSDC */\n      sload(0x05)\n        /* \"contracts/kipu-bank-v2.sol\":12244:12275  totalDepositedUSDC + amountUSDC */\n      tag_202\n      swap2\n      swap1\n      tag_203\n      jump\t// in\n    tag_202:\n        /* \"contracts/kipu-bank-v2.sol\":12219:12275  uint256 nuevoTotalUSDC = totalDepositedUSDC + amountUSDC */\n      swap1\n      pop\n        /* \"contracts/kipu-bank-v2.sol\":12311:12326  limiteBancoUSDC */\n      immutable(\"0x9c2c9f4d8409fa4d6fe2a06869e9740854d67207dd241ab564cc1f1f3dcdc081\")\n        /* \"contracts/kipu-bank-v2.sol\":12294:12308  nuevoTotalUSDC */\n      dup2\n        /* \"contracts/kipu-bank-v2.sol\":12294:12326  nuevoTotalUSDC > limiteBancoUSDC */\n      gt\n        /* \"contracts/kipu-bank-v2.sol\":12290:12446  if (nuevoTotalUSDC > limiteBancoUSDC) {... */\n      iszero\n      tag_204\n      jumpi\n        /* \"contracts/kipu-bank-v2.sol\":12377:12391  nuevoTotalUSDC */\n      dup1\n        /* \"contracts/kipu-bank-v2.sol\":12411:12429  totalDepositedUSDC */\n      sload(0x05)\n        /* \"contracts/kipu-bank-v2.sol\":12393:12408  limiteBancoUSDC */\n      immutable(\"0x9c2c9f4d8409fa4d6fe2a06869e9740854d67207dd241ab564cc1f1f3dcdc081\")\n        /* \"contracts/kipu-bank-v2.sol\":12393:12429  limiteBancoUSDC - totalDepositedUSDC */\n      tag_205\n      swap2\n      swap1\n      tag_206\n      jump\t// in\n    tag_205:\n        /* \"contracts/kipu-bank-v2.sol\":12354:12430  LimiteBancoExcedidoUSD(nuevoTotalUSDC, limiteBancoUSDC - totalDepositedUSDC) */\n      mload(0x40)\n      0x133d180e00000000000000000000000000000000000000000000000000000000\n      dup2\n      mstore\n      0x04\n      add\n      tag_207\n      swap3\n      swap2\n      swap1\n      tag_208\n      jump\t// in\n    tag_207:\n      mload(0x40)\n      dup1\n      swap2\n      sub\n      swap1\n      revert\n        /* \"contracts/kipu-bank-v2.sol\":12290:12446  if (nuevoTotalUSDC > limiteBancoUSDC) {... */\n    tag_204:\n        /* \"contracts/kipu-bank-v2.sol\":12481:12495  nuevoTotalUSDC */\n      dup1\n        /* \"contracts/kipu-bank-v2.sol\":12460:12478  totalDepositedUSDC */\n      0x05\n        /* \"contracts/kipu-bank-v2.sol\":12460:12495  totalDepositedUSDC = nuevoTotalUSDC */\n      dup2\n      swap1\n      sstore\n      pop\n        /* \"contracts/kipu-bank-v2.sol\":12204:12507  {... */\n      pop\n        /* \"contracts/kipu-bank-v2.sol\":12182:12507  if (contributesToCap) {... */\n    tag_201:\n        /* \"contracts/kipu-bank-v2.sol\":12567:12573  amount */\n      dup4\n        /* \"contracts/kipu-bank-v2.sol\":12539:12547  balances */\n      0x02\n        /* \"contracts/kipu-bank-v2.sol\":12539:12556  balances[usuario] */\n      0x00\n        /* \"contracts/kipu-bank-v2.sol\":12548:12555  usuario */\n      dup8\n        /* \"contracts/kipu-bank-v2.sol\":12539:12556  balances[usuario] */\n      0xffffffffffffffffffffffffffffffffffffffff\n      and\n      0xffffffffffffffffffffffffffffffffffffffff\n      and\n      dup2\n      mstore\n      0x20\n      add\n      swap1\n      dup2\n      mstore\n      0x20\n      add\n      0x00\n      keccak256\n        /* \"contracts/kipu-bank-v2.sol\":12539:12563  balances[usuario][token] */\n      0x00\n        /* \"contracts/kipu-bank-v2.sol\":12557:12562  token */\n      dup9\n        /* \"contracts/kipu-bank-v2.sol\":12539:12563  balances[usuario][token] */\n      0xffffffffffffffffffffffffffffffffffffffff\n      and\n      0xffffffffffffffffffffffffffffffffffffffff\n      and\n      dup2\n      mstore\n      0x20\n      add\n      swap1\n      dup2\n      mstore\n      0x20\n      add\n      0x00\n      keccak256\n      0x00\n        /* \"contracts/kipu-bank-v2.sol\":12539:12573  balances[usuario][token] += amount */\n      dup3\n      dup3\n      sload\n      tag_209\n      swap2\n      swap1\n      tag_203\n      jump\t// in\n    tag_209:\n      swap3\n      pop\n      pop\n      dup2\n      swap1\n      sstore\n      pop\n        /* \"contracts/kipu-bank-v2.sol\":12616:12622  amount */\n      dup4\n        /* \"contracts/kipu-bank-v2.sol\":12584:12605  totalDepositedByToken */\n      0x04\n        /* \"contracts/kipu-bank-v2.sol\":12584:12612  totalDepositedByToken[token] */\n      0x00\n        /* \"contracts/kipu-bank-v2.sol\":12606:12611  token */\n      dup9\n        /* \"contracts/kipu-bank-v2.sol\":12584:12612  totalDepositedByToken[token] */\n      0xffffffffffffffffffffffffffffffffffffffff\n      and\n      0xffffffffffffffffffffffffffffffffffffffff\n      and\n      dup2\n      mstore\n      0x20\n      add\n      swap1\n      dup2\n      mstore\n      0x20\n      add\n      0x00\n      keccak256\n      0x00\n        /* \"contracts/kipu-bank-v2.sol\":12584:12622  totalDepositedByToken[token] += amount */\n      dup3\n      dup3\n      sload\n      tag_210\n      swap2\n      swap1\n      tag_203\n      jump\t// in\n    tag_210:\n      swap3\n      pop\n      pop\n      dup2\n      swap1\n      sstore\n      pop\n        /* \"contracts/kipu-bank-v2.sol\":12645:12657  depositCount */\n      0x06\n      0x00\n        /* \"contracts/kipu-bank-v2.sol\":12645:12659  depositCount++ */\n      dup2\n      sload\n      dup1\n      swap3\n      swap2\n      swap1\n      0x01\n      add\n      swap2\n      swap1\n      pop\n      sstore\n      pop\n        /* \"contracts/kipu-bank-v2.sol\":12696:12701  token */\n      dup6\n        /* \"contracts/kipu-bank-v2.sol\":12679:12722  Deposit(usuario, token, amount, amountUSDC) */\n      0xffffffffffffffffffffffffffffffffffffffff\n      and\n        /* \"contracts/kipu-bank-v2.sol\":12687:12694  usuario */\n      dup6\n        /* \"contracts/kipu-bank-v2.sol\":12679:12722  Deposit(usuario, token, amount, amountUSDC) */\n      0xffffffffffffffffffffffffffffffffffffffff\n      and\n      0xdcbc1c05240f31ff3ad067ef1ee35ce4997762752e3a095284754544f4c709d7\n        /* \"contracts/kipu-bank-v2.sol\":12703:12709  amount */\n      dup7\n        /* \"contracts/kipu-bank-v2.sol\":12711:12721  amountUSDC */\n      dup6\n        /* \"contracts/kipu-bank-v2.sol\":12679:12722  Deposit(usuario, token, amount, amountUSDC) */\n      mload(0x40)\n      tag_211\n      swap3\n      swap2\n      swap1\n      tag_208\n      jump\t// in\n    tag_211:\n      mload(0x40)\n      dup1\n      swap2\n      sub\n      swap1\n      log3\n        /* \"contracts/kipu-bank-v2.sol\":11481:12730  {... */\n      pop\n      pop\n        /* \"contracts/kipu-bank-v2.sol\":11381:12730  function _deposit(address token, address usuario, uint256 amount) private tokenSoportadoOETH(token) {... */\n      pop\n      pop\n      pop\n      pop\n      jump\t// out\n        /* \"@openzeppelin/contracts/access/AccessControl.sol\":2541:2743  function supportsInterface(bytes4 interfaceId) public view virtual override returns (bool) {... */\n    tag_51:\n        /* \"@openzeppelin/contracts/access/AccessControl.sol\":2626:2630  bool */\n      0x00\n        /* \"@openzeppelin/contracts/access/AccessControl.sol\":2664:2696  type(IAccessControl).interfaceId */\n      0x7965db0b00000000000000000000000000000000000000000000000000000000\n        /* \"@openzeppelin/contracts/access/AccessControl.sol\":2649:2696  interfaceId == type(IAccessControl).interfaceId */\n      not(0xffffffffffffffffffffffffffffffffffffffffffffffffffffffff)\n      and\n        /* \"@openzeppelin/contracts/access/AccessControl.sol\":2649:2660  interfaceId */\n      dup3\n        /* \"@openzeppelin/contracts/access/AccessControl.sol\":2649:2696  interfaceId == type(IAccessControl).interfaceId */\n      not(0xffffffffffffffffffffffffffffffffffffffffffffffffffffffff)\n      and\n      eq\n        /* \"@openzeppelin/contracts/access/AccessControl.sol\":2649:2736  interfaceId == type(IAccessControl).interfaceId || super.supportsInterface(interfaceId) */\n      dup1\n      tag_213\n      jumpi\n      pop\n        /* \"@openzeppelin/contracts/access/AccessControl.sol\":2700:2736  super.supportsInterface(interfaceId) */\n      tag_214\n        /* \"@openzeppelin/contracts/access/AccessControl.sol\":2724:2735  interfaceId */\n      dup3\n        /* \"@openzeppelin/contracts/access/AccessControl.sol\":2700:2723  super.supportsInterface */\n      tag_215\n        /* \"@openzeppelin/contracts/access/AccessControl.sol\":2700:2736  super.supportsInterface(interfaceId) */\n      jump\t// in\n    tag_214:\n        /* \"@openzeppelin/contracts/access/AccessControl.sol\":2649:2736  interfaceId == type(IAccessControl).interfaceId || super.supportsInterface(interfaceId) */\n    tag_213:\n        /* \"@openzeppelin/contracts/access/AccessControl.sol\":2642:2736  return interfaceId == type(IAccessControl).interfaceId || super.supportsInterface(interfaceId) */\n      swap1\n      pop\n        /* \"@openzeppelin/contracts/access/AccessControl.sol\":2541:2743  function supportsInterface(bytes4 interfaceId) public view virtual override returns (bool) {... */\n      swap2\n      swap1\n      pop\n      jump\t// out\n        /* \"contracts/kipu-bank-v2.sol\":15460:15589  function getPriceFeedForToken(address token) external view returns (address) {... */\n    tag_58:\n        /* \"contracts/kipu-bank-v2.sol\":15528:15535  address */\n      0x00\n        /* \"contracts/kipu-bank-v2.sol\":15555:15564  tokenInfo */\n      0x03\n        /* \"contracts/kipu-bank-v2.sol\":15555:15571  tokenInfo[token] */\n      0x00\n        /* \"contracts/kipu-bank-v2.sol\":15565:15570  token */\n      dup4\n        /* \"contracts/kipu-bank-v2.sol\":15555:15571  tokenInfo[token] */\n      0xffffffffffffffffffffffffffffffffffffffff\n      and\n      0xffffffffffffffffffffffffffffffffffffffff\n      and\n      dup2\n      mstore\n      0x20\n      add\n      swap1\n      dup2\n      mstore\n      0x20\n      add\n      0x00\n      keccak256\n        /* \"contracts/kipu-bank-v2.sol\":15555:15581  tokenInfo[token].priceFeed */\n      0x00\n      add\n      0x01\n      swap1\n      sload\n      swap1\n      0x0100\n      exp\n      swap1\n      div\n      0xffffffffffffffffffffffffffffffffffffffff\n      and\n        /* \"contracts/kipu-bank-v2.sol\":15548:15581  return tokenInfo[token].priceFeed */\n      swap1\n      pop\n        /* \"contracts/kipu-bank-v2.sol\":15460:15589  function getPriceFeedForToken(address token) external view returns (address) {... */\n      swap2\n      swap1\n      pop\n      jump\t// out\n        /* \"contracts/kipu-bank-v2.sol\":7034:7197  function removeAdmin(address account) external onlyRole(DEFAULT_ADMIN_ROLE) {... */\n    tag_64:\n        /* \"@openzeppelin/contracts/access/AccessControl.sol\":2241:2245  0x00 */\n      0x00\n        /* \"contracts/kipu-bank-v2.sol\":7090:7108  DEFAULT_ADMIN_ROLE */\n      dup1\n      shl\n        /* \"@openzeppelin/contracts/access/AccessControl.sol\":2473:2489  _checkRole(role) */\n      tag_218\n        /* \"@openzeppelin/contracts/access/AccessControl.sol\":2484:2488  role */\n      dup2\n        /* \"@openzeppelin/contracts/access/AccessControl.sol\":2473:2483  _checkRole */\n      tag_219\n        /* \"@openzeppelin/contracts/access/AccessControl.sol\":2473:2489  _checkRole(role) */\n      jump\t// in\n    tag_218:\n        /* \"contracts/kipu-bank-v2.sol\":7121:7152  revokeRole(ADMIN_ROLE, account) */\n      tag_221\n        /* \"contracts/kipu-bank-v2.sol\":1730:1753  keccak256(\"ADMIN_ROLE\") */\n      0xa49807205ce4d355092ef5a8a18f56e8913cf4a201fbe287825b095693c21775\n        /* \"contracts/kipu-bank-v2.sol\":7144:7151  account */\n      dup4\n        /* \"contracts/kipu-bank-v2.sol\":7121:7131  revokeRole */\n      tag_152\n        /* \"contracts/kipu-bank-v2.sol\":7121:7152  revokeRole(ADMIN_ROLE, account) */\n      jump\t// in\n    tag_221:\n        /* \"contracts/kipu-bank-v2.sol\":7181:7188  account */\n      dup2\n        /* \"contracts/kipu-bank-v2.sol\":7168:7189  AdminRemoved(account) */\n      0xffffffffffffffffffffffffffffffffffffffff\n      and\n      0xa3b62bc36326052d97ea62d63c3d60308ed4c3ea8ac079dd8499f1e9c4f80c0f\n      mload(0x40)\n      mload(0x40)\n      dup1\n      swap2\n      sub\n      swap1\n      log2\n        /* \"contracts/kipu-bank-v2.sol\":7034:7197  function removeAdmin(address account) external onlyRole(DEFAULT_ADMIN_ROLE) {... */\n      pop\n      pop\n      jump\t// out\n        /* \"@openzeppelin/contracts/access/AccessControl.sol\":3786:3906  function getRoleAdmin(bytes32 role) public view virtual returns (bytes32) {... */\n    tag_69:\n        /* \"@openzeppelin/contracts/access/AccessControl.sol\":3851:3858  bytes32 */\n      0x00\n        /* \"@openzeppelin/contracts/access/AccessControl.sol\":3877:3883  _roles */\n      dup1\n        /* \"@openzeppelin/contracts/access/AccessControl.sol\":3877:3889  _roles[role] */\n      0x00\n        /* \"@openzeppelin/contracts/access/AccessControl.sol\":3884:3888  role */\n      dup4\n        /* \"@openzeppelin/contracts/access/AccessControl.sol\":3877:3889  _roles[role] */\n      dup2\n      mstore\n      0x20\n      add\n      swap1\n      dup2\n      mstore\n      0x20\n      add\n      0x00\n      keccak256\n        /* \"@openzeppelin/contracts/access/AccessControl.sol\":3877:3899  _roles[role].adminRole */\n      0x01\n      add\n      sload\n        /* \"@openzeppelin/contracts/access/AccessControl.sol\":3870:3899  return _roles[role].adminRole */\n      swap1\n      pop\n        /* \"@openzeppelin/contracts/access/AccessControl.sol\":3786:3906  function getRoleAdmin(bytes32 role) public view virtual returns (bytes32) {... */\n      swap2\n      swap1\n      pop\n      jump\t// out\n        /* \"contracts/kipu-bank-v2.sol\":15689:15812  function isTokenRegistered(address token) external view returns (bool) {... */\n    tag_75:\n        /* \"contracts/kipu-bank-v2.sol\":15754:15758  bool */\n      0x00\n        /* \"contracts/kipu-bank-v2.sol\":15778:15787  tokenInfo */\n      0x03\n        /* \"contracts/kipu-bank-v2.sol\":15778:15794  tokenInfo[token] */\n      0x00\n        /* \"contracts/kipu-bank-v2.sol\":15788:15793  token */\n      dup4\n        /* \"contracts/kipu-bank-v2.sol\":15778:15794  tokenInfo[token] */\n      0xffffffffffffffffffffffffffffffffffffffff\n      and\n      0xffffffffffffffffffffffffffffffffffffffff\n      and\n      dup2\n      mstore\n      0x20\n      add\n      swap1\n      dup2\n      mstore\n      0x20\n      add\n      0x00\n      keccak256\n        /* \"contracts/kipu-bank-v2.sol\":15778:15804  tokenInfo[token].supported */\n      0x00\n      add\n      0x00\n      swap1\n      sload\n      swap1\n      0x0100\n      exp\n      swap1\n      div\n      0xff\n      and\n        /* \"contracts/kipu-bank-v2.sol\":15771:15804  return tokenInfo[token].supported */\n      swap1\n      pop\n        /* \"contracts/kipu-bank-v2.sol\":15689:15812  function isTokenRegistered(address token) external view returns (bool) {... */\n      swap2\n      swap1\n      pop\n      jump\t// out\n        /* \"contracts/kipu-bank-v2.sol\":3735:3768  uint256 public totalDepositedUSDC */\n    tag_79:\n      sload(0x05)\n      dup2\n      jump\t// out\n        /* \"contracts/kipu-bank-v2.sol\":15945:16189  function tryTokenDecimals(address token) external view returns (uint8) {... */\n    tag_85:\n        /* \"contracts/kipu-bank-v2.sol\":16009:16014  uint8 */\n      0x00\n        /* \"contracts/kipu-bank-v2.sol\":16046:16051  token */\n      dup2\n        /* \"contracts/kipu-bank-v2.sol\":16031:16061  IERC20Metadata(token).decimals */\n      0xffffffffffffffffffffffffffffffffffffffff\n      and\n      0x313ce567\n        /* \"contracts/kipu-bank-v2.sol\":16031:16063  IERC20Metadata(token).decimals() */\n      mload(0x40)\n      dup2\n      0xffffffff\n      and\n      0xe0\n      shl\n      dup2\n      mstore\n      0x04\n      add\n      0x20\n      mload(0x40)\n      dup1\n      dup4\n      sub\n      dup2\n      dup7\n      gas\n      staticcall\n      swap3\n      pop\n      pop\n      pop\n      dup1\n      iszero\n      tag_225\n      jumpi\n      pop\n      mload(0x40)\n      returndatasize\n      not(0x1f)\n      0x1f\n      dup3\n      add\n      and\n      dup3\n      add\n      dup1\n      0x40\n      mstore\n      pop\n      dup2\n      add\n      swap1\n      tag_226\n      swap2\n      swap1\n      tag_227\n      jump\t// in\n    tag_226:\n      0x01\n    tag_225:\n        /* \"contracts/kipu-bank-v2.sol\":16027:16182  try IERC20Metadata(token).decimals() returns (uint8 d) {... */\n      tag_228\n      jumpi\n        /* \"contracts/kipu-bank-v2.sol\":16146:16148  18 */\n      0x12\n        /* \"contracts/kipu-bank-v2.sol\":16139:16148  return 18 */\n      swap1\n      pop\n      jump(tag_224)\n        /* \"contracts/kipu-bank-v2.sol\":16027:16182  try IERC20Metadata(token).decimals() returns (uint8 d) {... */\n    tag_228:\n        /* \"contracts/kipu-bank-v2.sol\":16104:16105  d */\n      dup1\n        /* \"contracts/kipu-bank-v2.sol\":16097:16105  return d */\n      swap2\n      pop\n      pop\n        /* \"contracts/kipu-bank-v2.sol\":15945:16189  function tryTokenDecimals(address token) external view returns (uint8) {... */\n    tag_224:\n      swap2\n      swap1\n      pop\n      jump\t// out\n        /* \"contracts/kipu-bank-v2.sol\":3813:3840  uint256 public depositCount */\n    tag_90:\n      sload(0x06)\n      dup2\n      jump\t// out\n        /* \"@openzeppelin/contracts/access/AccessControl.sol\":4202:4338  function grantRole(bytes32 role, address account) public virtual onlyRole(getRoleAdmin(role)) {... */\n    tag_96:\n        /* \"@openzeppelin/contracts/access/AccessControl.sol\":4276:4294  getRoleAdmin(role) */\n      tag_233\n        /* \"@openzeppelin/contracts/access/AccessControl.sol\":4289:4293  role */\n      dup3\n        /* \"@openzeppelin/contracts/access/AccessControl.sol\":4276:4288  getRoleAdmin */\n      tag_69\n        /* \"@openzeppelin/contracts/access/AccessControl.sol\":4276:4294  getRoleAdmin(role) */\n      jump\t// in\n    tag_233:\n        /* \"@openzeppelin/contracts/access/AccessControl.sol\":2473:2489  _checkRole(role) */\n      tag_235\n        /* \"@openzeppelin/contracts/access/AccessControl.sol\":2484:2488  role */\n      dup2\n        /* \"@openzeppelin/contracts/access/AccessControl.sol\":2473:2483  _checkRole */\n      tag_219\n        /* \"@openzeppelin/contracts/access/AccessControl.sol\":2473:2489  _checkRole(role) */\n      jump\t// in\n    tag_235:\n        /* \"@openzeppelin/contracts/access/AccessControl.sol\":4306:4331  _grantRole(role, account) */\n      tag_237\n        /* \"@openzeppelin/contracts/access/AccessControl.sol\":4317:4321  role */\n      dup4\n        /* \"@openzeppelin/contracts/access/AccessControl.sol\":4323:4330  account */\n      dup4\n        /* \"@openzeppelin/contracts/access/AccessControl.sol\":4306:4316  _grantRole */\n      tag_238\n        /* \"@openzeppelin/contracts/access/AccessControl.sol\":4306:4331  _grantRole(role, account) */\n      jump\t// in\n    tag_237:\n      pop\n        /* \"@openzeppelin/contracts/access/AccessControl.sol\":4202:4338  function grantRole(bytes32 role, address account) public virtual onlyRole(getRoleAdmin(role)) {... */\n      pop\n      pop\n      pop\n      jump\t// out\n        /* \"@openzeppelin/contracts/access/AccessControl.sol\":5304:5549  function renounceRole(bytes32 role, address callerConfirmation) public virtual {... */\n    tag_100:\n        /* \"@openzeppelin/contracts/access/AccessControl.sol\":5419:5431  _msgSender() */\n      tag_240\n        /* \"@openzeppelin/contracts/access/AccessControl.sol\":5419:5429  _msgSender */\n      tag_241\n        /* \"@openzeppelin/contracts/access/AccessControl.sol\":5419:5431  _msgSender() */\n      jump\t// in\n    tag_240:\n        /* \"@openzeppelin/contracts/access/AccessControl.sol\":5397:5431  callerConfirmation != _msgSender() */\n      0xffffffffffffffffffffffffffffffffffffffff\n      and\n        /* \"@openzeppelin/contracts/access/AccessControl.sol\":5397:5415  callerConfirmation */\n      dup2\n        /* \"@openzeppelin/contracts/access/AccessControl.sol\":5397:5431  callerConfirmation != _msgSender() */\n      0xffffffffffffffffffffffffffffffffffffffff\n      and\n      eq\n        /* \"@openzeppelin/contracts/access/AccessControl.sol\":5393:5495  if (callerConfirmation != _msgSender()) {... */\n      tag_242\n      jumpi\n        /* \"@openzeppelin/contracts/access/AccessControl.sol\":5454:5484  AccessControlBadConfirmation() */\n      mload(0x40)\n      0x6697b23200000000000000000000000000000000000000000000000000000000\n      dup2\n      mstore\n      0x04\n      add\n      mload(0x40)\n      dup1\n      swap2\n      sub\n      swap1\n      revert\n        /* \"@openzeppelin/contracts/access/AccessControl.sol\":5393:5495  if (callerConfirmation != _msgSender()) {... */\n    tag_242:\n        /* \"@openzeppelin/contracts/access/AccessControl.sol\":5505:5542  _revokeRole(role, callerConfirmation) */\n      tag_243\n        /* \"@openzeppelin/contracts/access/AccessControl.sol\":5517:5521  role */\n      dup3\n        /* \"@openzeppelin/contracts/access/AccessControl.sol\":5523:5541  callerConfirmation */\n      dup3\n        /* \"@openzeppelin/contracts/access/AccessControl.sol\":5505:5516  _revokeRole */\n      tag_244\n        /* \"@openzeppelin/contracts/access/AccessControl.sol\":5505:5542  _revokeRole(role, callerConfirmation) */\n      jump\t// in\n    tag_243:\n      pop\n        /* \"@openzeppelin/contracts/access/AccessControl.sol\":5304:5549  function renounceRole(bytes32 role, address callerConfirmation) public virtual {... */\n      pop\n      pop\n      jump\t// out\n        /* \"contracts/kipu-bank-v2.sol\":6195:6572  function registerToken(address token, address priceFeed, uint8 decimals) external onlyRole(ADMIN_ROLE) {... */\n    tag_105:\n        /* \"contracts/kipu-bank-v2.sol\":1730:1753  keccak256(\"ADMIN_ROLE\") */\n      0xa49807205ce4d355092ef5a8a18f56e8913cf4a201fbe287825b095693c21775\n        /* \"@openzeppelin/contracts/access/AccessControl.sol\":2473:2489  _checkRole(role) */\n      tag_246\n        /* \"@openzeppelin/contracts/access/AccessControl.sol\":2484:2488  role */\n      dup2\n        /* \"@openzeppelin/contracts/access/AccessControl.sol\":2473:2483  _checkRole */\n      tag_219\n        /* \"@openzeppelin/contracts/access/AccessControl.sol\":2473:2489  _checkRole(role) */\n      jump\t// in\n    tag_246:\n        /* \"contracts/kipu-bank-v2.sol\":6325:6326  0 */\n      0x00\n        /* \"contracts/kipu-bank-v2.sol\":6313:6321  decimals */\n      dup3\n        /* \"contracts/kipu-bank-v2.sol\":6313:6326  decimals == 0 */\n      0xff\n      and\n      sub\n        /* \"contracts/kipu-bank-v2.sol\":6309:6355  if (decimals == 0) revert DecimalesInvalidos() */\n      tag_248\n      jumpi\n        /* \"contracts/kipu-bank-v2.sol\":6335:6355  DecimalesInvalidos() */\n      mload(0x40)\n      0x4fd5a4e600000000000000000000000000000000000000000000000000000000\n      dup2\n      mstore\n      0x04\n      add\n      mload(0x40)\n      dup1\n      swap2\n      sub\n      swap1\n      revert\n        /* \"contracts/kipu-bank-v2.sol\":6309:6355  if (decimals == 0) revert DecimalesInvalidos() */\n    tag_248:\n        /* \"contracts/kipu-bank-v2.sol\":6385:6505  TokenInfo({... */\n      mload(0x40)\n      dup1\n      0x60\n      add\n      0x40\n      mstore\n      dup1\n        /* \"contracts/kipu-bank-v2.sol\":6421:6425  true */\n      0x01\n        /* \"contracts/kipu-bank-v2.sol\":6385:6505  TokenInfo({... */\n      iszero\n      iszero\n      dup2\n      mstore\n      0x20\n      add\n        /* \"contracts/kipu-bank-v2.sol\":6451:6460  priceFeed */\n      dup5\n        /* \"contracts/kipu-bank-v2.sol\":6385:6505  TokenInfo({... */\n      0xffffffffffffffffffffffffffffffffffffffff\n      and\n      dup2\n      mstore\n      0x20\n      add\n        /* \"contracts/kipu-bank-v2.sol\":6485:6493  decimals */\n      dup4\n        /* \"contracts/kipu-bank-v2.sol\":6385:6505  TokenInfo({... */\n      0xff\n      and\n      dup2\n      mstore\n      pop\n        /* \"contracts/kipu-bank-v2.sol\":6366:6375  tokenInfo */\n      0x03\n        /* \"contracts/kipu-bank-v2.sol\":6366:6382  tokenInfo[token] */\n      0x00\n        /* \"contracts/kipu-bank-v2.sol\":6376:6381  token */\n      dup7\n        /* \"contracts/kipu-bank-v2.sol\":6366:6382  tokenInfo[token] */\n      0xffffffffffffffffffffffffffffffffffffffff\n      and\n      0xffffffffffffffffffffffffffffffffffffffff\n      and\n      dup2\n      mstore\n      0x20\n      add\n      swap1\n      dup2\n      mstore\n      0x20\n      add\n      0x00\n      keccak256\n        /* \"contracts/kipu-bank-v2.sol\":6366:6505  tokenInfo[token] = TokenInfo({... */\n      0x00\n      dup3\n      add\n      mload\n      dup2\n      0x00\n      add\n      exp(0x0100, 0x00)\n      dup2\n      sload\n      dup2\n      0xff\n      mul\n      not\n      and\n      swap1\n      dup4\n      iszero\n      iszero\n      mul\n      or\n      swap1\n      sstore\n      pop\n      0x20\n      dup3\n      add\n      mload\n      dup2\n      0x00\n      add\n      exp(0x0100, 0x01)\n      dup2\n      sload\n      dup2\n      0xffffffffffffffffffffffffffffffffffffffff\n      mul\n      not\n      and\n      swap1\n      dup4\n      0xffffffffffffffffffffffffffffffffffffffff\n      and\n      mul\n      or\n      swap1\n      sstore\n      pop\n      0x40\n      dup3\n      add\n      mload\n      dup2\n      0x00\n      add\n      exp(0x0100, 0x15)\n      dup2\n      sload\n      dup2\n      0xff\n      mul\n      not\n      and\n      swap1\n      dup4\n      0xff\n      and\n      mul\n      or\n      swap1\n      sstore\n      pop\n      swap1\n      pop\n      pop\n        /* \"contracts/kipu-bank-v2.sol\":6537:6542  token */\n      dup4\n        /* \"contracts/kipu-bank-v2.sol\":6521:6564  TokenRegistered(token, priceFeed, decimals) */\n      0xffffffffffffffffffffffffffffffffffffffff\n      and\n      0x0103f8026567c8396aa1dcd479b6c7d0eaab4b19f5d3d83adc242716987d6d0a\n        /* \"contracts/kipu-bank-v2.sol\":6544:6553  priceFeed */\n      dup5\n        /* \"contracts/kipu-bank-v2.sol\":6555:6563  decimals */\n      dup5\n        /* \"contracts/kipu-bank-v2.sol\":6521:6564  TokenRegistered(token, priceFeed, decimals) */\n      mload(0x40)\n      tag_249\n      swap3\n      swap2\n      swap1\n      tag_250\n      jump\t// in\n    tag_249:\n      mload(0x40)\n      dup1\n      swap2\n      sub\n      swap1\n      log2\n        /* \"contracts/kipu-bank-v2.sol\":6195:6572  function registerToken(address token, address priceFeed, uint8 decimals) external onlyRole(ADMIN_ROLE) {... */\n      pop\n      pop\n      pop\n      pop\n      jump\t// out\n        /* \"contracts/kipu-bank-v2.sol\":3847:3875  uint256 public withdrawCount */\n    tag_108:\n      sload(0x07)\n      dup2\n      jump\t// out\n        /* \"contracts/kipu-bank-v2.sol\":6835:6992  function addAdmin(address account) external onlyRole(DEFAULT_ADMIN_ROLE) {... */\n    tag_113:\n        /* \"@openzeppelin/contracts/access/AccessControl.sol\":2241:2245  0x00 */\n      0x00\n        /* \"contracts/kipu-bank-v2.sol\":6888:6906  DEFAULT_ADMIN_ROLE */\n      dup1\n      shl\n        /* \"@openzeppelin/contracts/access/AccessControl.sol\":2473:2489  _checkRole(role) */\n      tag_252\n        /* \"@openzeppelin/contracts/access/AccessControl.sol\":2484:2488  role */\n      dup2\n        /* \"@openzeppelin/contracts/access/AccessControl.sol\":2473:2483  _checkRole */\n      tag_219\n        /* \"@openzeppelin/contracts/access/AccessControl.sol\":2473:2489  _checkRole(role) */\n      jump\t// in\n    tag_252:\n        /* \"contracts/kipu-bank-v2.sol\":6919:6949  grantRole(ADMIN_ROLE, account) */\n      tag_254\n        /* \"contracts/kipu-bank-v2.sol\":1730:1753  keccak256(\"ADMIN_ROLE\") */\n      0xa49807205ce4d355092ef5a8a18f56e8913cf4a201fbe287825b095693c21775\n        /* \"contracts/kipu-bank-v2.sol\":6941:6948  account */\n      dup4\n        /* \"contracts/kipu-bank-v2.sol\":6919:6928  grantRole */\n      tag_96\n        /* \"contracts/kipu-bank-v2.sol\":6919:6949  grantRole(ADMIN_ROLE, account) */\n      jump\t// in\n    tag_254:\n        /* \"contracts/kipu-bank-v2.sol\":6976:6983  account */\n      dup2\n        /* \"contracts/kipu-bank-v2.sol\":6965:6984  AdminAdded(account) */\n      0xffffffffffffffffffffffffffffffffffffffff\n      and\n      0x44d6d25963f097ad14f29f06854a01f575648a1ef82f30e562ccd3889717e339\n      mload(0x40)\n      mload(0x40)\n      dup1\n      swap2\n      sub\n      swap1\n      log2\n        /* \"contracts/kipu-bank-v2.sol\":6835:6992  function addAdmin(address account) external onlyRole(DEFAULT_ADMIN_ROLE) {... */\n      pop\n      pop\n      jump\t// out\n        /* \"contracts/kipu-bank-v2.sol\":1693:1753  bytes32 public constant ADMIN_ROLE = keccak256(\"ADMIN_ROLE\") */\n    tag_116:\n        /* \"contracts/kipu-bank-v2.sol\":1730:1753  keccak256(\"ADMIN_ROLE\") */\n      0xa49807205ce4d355092ef5a8a18f56e8913cf4a201fbe287825b095693c21775\n        /* \"contracts/kipu-bank-v2.sol\":1693:1753  bytes32 public constant ADMIN_ROLE = keccak256(\"ADMIN_ROLE\") */\n      dup2\n      jump\t// out\n        /* \"contracts/kipu-bank-v2.sol\":6636:6788  function unregisterToken(address token) external onlyRole(ADMIN_ROLE) {... */\n    tag_121:\n        /* \"contracts/kipu-bank-v2.sol\":1730:1753  keccak256(\"ADMIN_ROLE\") */\n      0xa49807205ce4d355092ef5a8a18f56e8913cf4a201fbe287825b095693c21775\n        /* \"@openzeppelin/contracts/access/AccessControl.sol\":2473:2489  _checkRole(role) */\n      tag_256\n        /* \"@openzeppelin/contracts/access/AccessControl.sol\":2484:2488  role */\n      dup2\n        /* \"@openzeppelin/contracts/access/AccessControl.sol\":2473:2483  _checkRole */\n      tag_219\n        /* \"@openzeppelin/contracts/access/AccessControl.sol\":2473:2489  _checkRole(role) */\n      jump\t// in\n    tag_256:\n        /* \"contracts/kipu-bank-v2.sol\":6724:6733  tokenInfo */\n      0x03\n        /* \"contracts/kipu-bank-v2.sol\":6724:6740  tokenInfo[token] */\n      0x00\n        /* \"contracts/kipu-bank-v2.sol\":6734:6739  token */\n      dup4\n        /* \"contracts/kipu-bank-v2.sol\":6724:6740  tokenInfo[token] */\n      0xffffffffffffffffffffffffffffffffffffffff\n      and\n      0xffffffffffffffffffffffffffffffffffffffff\n      and\n      dup2\n      mstore\n      0x20\n      add\n      swap1\n      dup2\n      mstore\n      0x20\n      add\n      0x00\n      keccak256\n      0x00\n        /* \"contracts/kipu-bank-v2.sol\":6717:6740  delete tokenInfo[token] */\n      dup1\n      dup3\n      add\n      exp(0x0100, 0x00)\n      dup2\n      sload\n      swap1\n      0xff\n      mul\n      not\n      and\n      swap1\n      sstore\n      0x00\n      dup3\n      add\n      exp(0x0100, 0x01)\n      dup2\n      sload\n      swap1\n      0xffffffffffffffffffffffffffffffffffffffff\n      mul\n      not\n      and\n      swap1\n      sstore\n      0x00\n      dup3\n      add\n      exp(0x0100, 0x15)\n      dup2\n      sload\n      swap1\n      0xff\n      mul\n      not\n      and\n      swap1\n      sstore\n      pop\n      pop\n        /* \"contracts/kipu-bank-v2.sol\":6774:6779  token */\n      dup2\n        /* \"contracts/kipu-bank-v2.sol\":6756:6780  TokenUnregistered(token) */\n      0xffffffffffffffffffffffffffffffffffffffff\n      and\n      0xb02d270f645215800cec778b856004c753ad0c8c6ca520a91a8399acf4c63d4b\n      mload(0x40)\n      mload(0x40)\n      dup1\n      swap2\n      sub\n      swap1\n      log2\n        /* \"contracts/kipu-bank-v2.sol\":6636:6788  function unregisterToken(address token) external onlyRole(ADMIN_ROLE) {... */\n      pop\n      pop\n      jump\t// out\n        /* \"@openzeppelin/contracts/access/AccessControl.sol\":2830:2966  function hasRole(bytes32 role, address account) public view virtual returns (bool) {... */\n    tag_125:\n        /* \"@openzeppelin/contracts/access/AccessControl.sol\":2907:2911  bool */\n      0x00\n        /* \"@openzeppelin/contracts/access/AccessControl.sol\":2930:2936  _roles */\n      dup1\n        /* \"@openzeppelin/contracts/access/AccessControl.sol\":2930:2942  _roles[role] */\n      0x00\n        /* \"@openzeppelin/contracts/access/AccessControl.sol\":2937:2941  role */\n      dup5\n        /* \"@openzeppelin/contracts/access/AccessControl.sol\":2930:2942  _roles[role] */\n      dup2\n      mstore\n      0x20\n      add\n      swap1\n      dup2\n      mstore\n      0x20\n      add\n      0x00\n      keccak256\n        /* \"@openzeppelin/contracts/access/AccessControl.sol\":2930:2950  _roles[role].hasRole */\n      0x00\n      add\n        /* \"@openzeppelin/contracts/access/AccessControl.sol\":2930:2959  _roles[role].hasRole[account] */\n      0x00\n        /* \"@openzeppelin/contracts/access/AccessControl.sol\":2951:2958  account */\n      dup4\n        /* \"@openzeppelin/contracts/access/AccessControl.sol\":2930:2959  _roles[role].hasRole[account] */\n      0xffffffffffffffffffffffffffffffffffffffff\n      and\n      0xffffffffffffffffffffffffffffffffffffffff\n      and\n      dup2\n      mstore\n      0x20\n      add\n      swap1\n      dup2\n      mstore\n      0x20\n      add\n      0x00\n      keccak256\n      0x00\n      swap1\n      sload\n      swap1\n      0x0100\n      exp\n      swap1\n      div\n      0xff\n      and\n        /* \"@openzeppelin/contracts/access/AccessControl.sol\":2923:2959  return _roles[role].hasRole[account] */\n      swap1\n      pop\n        /* \"@openzeppelin/contracts/access/AccessControl.sol\":2830:2966  function hasRole(bytes32 role, address account) public view virtual returns (bool) {... */\n      swap3\n      swap2\n      pop\n      pop\n      jump\t// out\n        /* \"contracts/kipu-bank-v2.sol\":7844:8155  function depositERC20(address token, uint256 amount) external montoNoCero(amount) nonReentrant {... */\n    tag_131:\n        /* \"contracts/kipu-bank-v2.sol\":7918:7924  amount */\n      dup1\n        /* \"contracts/kipu-bank-v2.sol\":5586:5587  0 */\n      0x00\n        /* \"contracts/kipu-bank-v2.sol\":5577:5582  valor */\n      dup2\n        /* \"contracts/kipu-bank-v2.sol\":5577:5587  valor == 0 */\n      sub\n        /* \"contracts/kipu-bank-v2.sol\":5573:5607  if (valor == 0) revert MontoCero() */\n      tag_260\n      jumpi\n        /* \"contracts/kipu-bank-v2.sol\":5596:5607  MontoCero() */\n      mload(0x40)\n      0x85ea51af00000000000000000000000000000000000000000000000000000000\n      dup2\n      mstore\n      0x04\n      add\n      mload(0x40)\n      dup1\n      swap2\n      sub\n      swap1\n      revert\n        /* \"contracts/kipu-bank-v2.sol\":5573:5607  if (valor == 0) revert MontoCero() */\n    tag_260:\n        /* \"@openzeppelin/contracts/security/ReentrancyGuard.sol\":2261:2282  _nonReentrantBefore() */\n      tag_262\n        /* \"@openzeppelin/contracts/security/ReentrancyGuard.sol\":2261:2280  _nonReentrantBefore */\n      tag_263\n        /* \"@openzeppelin/contracts/security/ReentrancyGuard.sol\":2261:2282  _nonReentrantBefore() */\n      jump\t// in\n    tag_262:\n        /* \"contracts/kipu-bank-v2.sol\":7971:7972  0 */\n      0x00\n        /* \"contracts/kipu-bank-v2.sol\":7954:7973  token == address(0) */\n      0xffffffffffffffffffffffffffffffffffffffff\n      and\n        /* \"contracts/kipu-bank-v2.sol\":7954:7959  token */\n      dup4\n        /* \"contracts/kipu-bank-v2.sol\":7954:7973  token == address(0) */\n      0xffffffffffffffffffffffffffffffffffffffff\n      and\n      sub\n        /* \"contracts/kipu-bank-v2.sol\":7950:8005  if (token == address(0)) revert TokenNoSoportado(token) */\n      tag_265\n      jumpi\n        /* \"contracts/kipu-bank-v2.sol\":7999:8004  token */\n      dup3\n        /* \"contracts/kipu-bank-v2.sol\":7982:8005  TokenNoSoportado(token) */\n      mload(0x40)\n      0x6713984d00000000000000000000000000000000000000000000000000000000\n      dup2\n      mstore\n      0x04\n      add\n      tag_266\n      swap2\n      swap1\n      tag_60\n      jump\t// in\n    tag_266:\n      mload(0x40)\n      dup1\n      swap2\n      sub\n      swap1\n      revert\n        /* \"contracts/kipu-bank-v2.sol\":7950:8005  if (token == address(0)) revert TokenNoSoportado(token) */\n    tag_265:\n        /* \"contracts/kipu-bank-v2.sol\":8047:8052  token */\n      dup3\n        /* \"contracts/kipu-bank-v2.sol\":8040:8066  IERC20(token).transferFrom */\n      0xffffffffffffffffffffffffffffffffffffffff\n      and\n      0x23b872dd\n        /* \"contracts/kipu-bank-v2.sol\":8067:8077  msg.sender */\n      caller\n        /* \"contracts/kipu-bank-v2.sol\":8087:8091  this */\n      address\n        /* \"contracts/kipu-bank-v2.sol\":8094:8100  amount */\n      dup6\n        /* \"contracts/kipu-bank-v2.sol\":8040:8101  IERC20(token).transferFrom(msg.sender, address(this), amount) */\n      mload(0x40)\n      dup5\n      0xffffffff\n      and\n      0xe0\n      shl\n      dup2\n      mstore\n      0x04\n      add\n      tag_267\n      swap4\n      swap3\n      swap2\n      swap1\n      tag_268\n      jump\t// in\n    tag_267:\n      0x20\n      mload(0x40)\n      dup1\n      dup4\n      sub\n      dup2\n      0x00\n      dup8\n      gas\n      call\n      iszero\n      dup1\n      iszero\n      tag_270\n      jumpi\n      returndatasize\n      0x00\n      dup1\n      returndatacopy\n      revert(0x00, returndatasize)\n    tag_270:\n      pop\n      pop\n      pop\n      pop\n      mload(0x40)\n      returndatasize\n      not(0x1f)\n      0x1f\n      dup3\n      add\n      and\n      dup3\n      add\n      dup1\n      0x40\n      mstore\n      pop\n      dup2\n      add\n      swap1\n      tag_271\n      swap2\n      swap1\n      tag_272\n      jump\t// in\n    tag_271:\n      pop\n        /* \"contracts/kipu-bank-v2.sol\":8112:8147  _deposit(token, msg.sender, amount) */\n      tag_273\n        /* \"contracts/kipu-bank-v2.sol\":8121:8126  token */\n      dup4\n        /* \"contracts/kipu-bank-v2.sol\":8128:8138  msg.sender */\n      caller\n        /* \"contracts/kipu-bank-v2.sol\":8140:8146  amount */\n      dup5\n        /* \"contracts/kipu-bank-v2.sol\":8112:8120  _deposit */\n      tag_44\n        /* \"contracts/kipu-bank-v2.sol\":8112:8147  _deposit(token, msg.sender, amount) */\n      jump\t// in\n    tag_273:\n        /* \"@openzeppelin/contracts/security/ReentrancyGuard.sol\":2303:2323  _nonReentrantAfter() */\n      tag_274\n        /* \"@openzeppelin/contracts/security/ReentrancyGuard.sol\":2303:2321  _nonReentrantAfter */\n      tag_275\n        /* \"@openzeppelin/contracts/security/ReentrancyGuard.sol\":2303:2323  _nonReentrantAfter() */\n      jump\t// in\n    tag_274:\n        /* \"contracts/kipu-bank-v2.sol\":7844:8155  function depositERC20(address token, uint256 amount) external montoNoCero(amount) nonReentrant {... */\n      pop\n      pop\n      pop\n      jump\t// out\n        /* \"contracts/kipu-bank-v2.sol\":2916:2956  uint256 public immutable limiteRetiroWei */\n    tag_134:\n      immutable(\"0x6899d1fa68cf48634632762f4cd0ec59d591ccbdd349962c4ae5d93ddad42969\")\n      dup2\n      jump\t// out\n        /* \"@openzeppelin/contracts/access/AccessControl.sol\":2196:2245  bytes32 public constant DEFAULT_ADMIN_ROLE = 0x00 */\n    tag_138:\n        /* \"@openzeppelin/contracts/access/AccessControl.sol\":2241:2245  0x00 */\n      0x00\n        /* \"@openzeppelin/contracts/access/AccessControl.sol\":2196:2245  bytes32 public constant DEFAULT_ADMIN_ROLE = 0x00 */\n      dup1\n      shl\n      dup2\n      jump\t// out\n        /* \"contracts/kipu-bank-v2.sol\":2494:2533  uint8 public constant USDC_DECIMALS = 6 */\n    tag_142:\n        /* \"contracts/kipu-bank-v2.sol\":2532:2533  6 */\n      0x06\n        /* \"contracts/kipu-bank-v2.sol\":2494:2533  uint8 public constant USDC_DECIMALS = 6 */\n      dup2\n      jump\t// out\n        /* \"contracts/kipu-bank-v2.sol\":10612:10745  function totalDepositedForToken(address token) external view returns (uint256) {... */\n    tag_147:\n        /* \"contracts/kipu-bank-v2.sol\":10682:10689  uint256 */\n      0x00\n        /* \"contracts/kipu-bank-v2.sol\":10709:10730  totalDepositedByToken */\n      0x04\n        /* \"contracts/kipu-bank-v2.sol\":10709:10737  totalDepositedByToken[token] */\n      0x00\n        /* \"contracts/kipu-bank-v2.sol\":10731:10736  token */\n      dup4\n        /* \"contracts/kipu-bank-v2.sol\":10709:10737  totalDepositedByToken[token] */\n      0xffffffffffffffffffffffffffffffffffffffff\n      and\n      0xffffffffffffffffffffffffffffffffffffffff\n      and\n      dup2\n      mstore\n      0x20\n      add\n      swap1\n      dup2\n      mstore\n      0x20\n      add\n      0x00\n      keccak256\n      sload\n        /* \"contracts/kipu-bank-v2.sol\":10702:10737  return totalDepositedByToken[token] */\n      swap1\n      pop\n        /* \"contracts/kipu-bank-v2.sol\":10612:10745  function totalDepositedForToken(address token) external view returns (uint256) {... */\n      swap2\n      swap1\n      pop\n      jump\t// out\n        /* \"@openzeppelin/contracts/access/AccessControl.sol\":4618:4756  function revokeRole(bytes32 role, address account) public virtual onlyRole(getRoleAdmin(role)) {... */\n    tag_152:\n        /* \"@openzeppelin/contracts/access/AccessControl.sol\":4693:4711  getRoleAdmin(role) */\n      tag_277\n        /* \"@openzeppelin/contracts/access/AccessControl.sol\":4706:4710  role */\n      dup3\n        /* \"@openzeppelin/contracts/access/AccessControl.sol\":4693:4705  getRoleAdmin */\n      tag_69\n        /* \"@openzeppelin/contracts/access/AccessControl.sol\":4693:4711  getRoleAdmin(role) */\n      jump\t// in\n    tag_277:\n        /* \"@openzeppelin/contracts/access/AccessControl.sol\":2473:2489  _checkRole(role) */\n      tag_279\n        /* \"@openzeppelin/contracts/access/AccessControl.sol\":2484:2488  role */\n      dup2\n        /* \"@openzeppelin/contracts/access/AccessControl.sol\":2473:2483  _checkRole */\n      tag_219\n        /* \"@openzeppelin/contracts/access/AccessControl.sol\":2473:2489  _checkRole(role) */\n      jump\t// in\n    tag_279:\n        /* \"@openzeppelin/contracts/access/AccessControl.sol\":4723:4749  _revokeRole(role, account) */\n      tag_281\n        /* \"@openzeppelin/contracts/access/AccessControl.sol\":4735:4739  role */\n      dup4\n        /* \"@openzeppelin/contracts/access/AccessControl.sol\":4741:4748  account */\n      dup4\n        /* \"@openzeppelin/contracts/access/AccessControl.sol\":4723:4734  _revokeRole */\n      tag_244\n        /* \"@openzeppelin/contracts/access/AccessControl.sol\":4723:4749  _revokeRole(role, account) */\n      jump\t// in\n    tag_281:\n      pop\n        /* \"@openzeppelin/contracts/access/AccessControl.sol\":4618:4756  function revokeRole(bytes32 role, address account) public virtual onlyRole(getRoleAdmin(role)) {... */\n      pop\n      pop\n      pop\n      jump\t// out\n        /* \"contracts/kipu-bank-v2.sol\":3538:3594  mapping(address => uint256) public totalDepositedByToken */\n    tag_156:\n      mstore(0x20, 0x04)\n      dup1\n      0x00\n      mstore\n      keccak256(0x00, 0x40)\n      0x00\n      swap2\n      pop\n      swap1\n      pop\n      sload\n      dup2\n      jump\t// out\n        /* \"contracts/kipu-bank-v2.sol\":10829:10932  function getLimiteBancoUSDC() external view returns (uint256) {... */\n    tag_160:\n        /* \"contracts/kipu-bank-v2.sol\":10882:10889  uint256 */\n      0x00\n        /* \"contracts/kipu-bank-v2.sol\":10909:10924  limiteBancoUSDC */\n      immutable(\"0x9c2c9f4d8409fa4d6fe2a06869e9740854d67207dd241ab564cc1f1f3dcdc081\")\n        /* \"contracts/kipu-bank-v2.sol\":10902:10924  return limiteBancoUSDC */\n      swap1\n      pop\n        /* \"contracts/kipu-bank-v2.sol\":10829:10932  function getLimiteBancoUSDC() external view returns (uint256) {... */\n      swap1\n      jump\t// out\n        /* \"contracts/kipu-bank-v2.sol\":11020:11129  function getTotalDepositedUSDC() external view returns (uint256) {... */\n    tag_164:\n        /* \"contracts/kipu-bank-v2.sol\":11076:11083  uint256 */\n      0x00\n        /* \"contracts/kipu-bank-v2.sol\":11103:11121  totalDepositedUSDC */\n      sload(0x05)\n        /* \"contracts/kipu-bank-v2.sol\":11096:11121  return totalDepositedUSDC */\n      swap1\n      pop\n        /* \"contracts/kipu-bank-v2.sol\":11020:11129  function getTotalDepositedUSDC() external view returns (uint256) {... */\n      swap1\n      jump\t// out\n        /* \"contracts/kipu-bank-v2.sol\":2741:2781  uint256 public immutable limiteBancoUSDC */\n    tag_168:\n      immutable(\"0x9c2c9f4d8409fa4d6fe2a06869e9740854d67207dd241ab564cc1f1f3dcdc081\")\n      dup2\n      jump\t// out\n        /* \"contracts/kipu-bank-v2.sol\":8372:10320  function withdraw(address token, uint256 amount) external montoNoCero(amount) nonReentrant tokenSoportadoOETH(token) {... */\n    tag_173:\n        /* \"contracts/kipu-bank-v2.sol\":8442:8448  amount */\n      dup1\n        /* \"contracts/kipu-bank-v2.sol\":5586:5587  0 */\n      0x00\n        /* \"contracts/kipu-bank-v2.sol\":5577:5582  valor */\n      dup2\n        /* \"contracts/kipu-bank-v2.sol\":5577:5587  valor == 0 */\n      sub\n        /* \"contracts/kipu-bank-v2.sol\":5573:5607  if (valor == 0) revert MontoCero() */\n      tag_285\n      jumpi\n        /* \"contracts/kipu-bank-v2.sol\":5596:5607  MontoCero() */\n      mload(0x40)\n      0x85ea51af00000000000000000000000000000000000000000000000000000000\n      dup2\n      mstore\n      0x04\n      add\n      mload(0x40)\n      dup1\n      swap2\n      sub\n      swap1\n      revert\n        /* \"contracts/kipu-bank-v2.sol\":5573:5607  if (valor == 0) revert MontoCero() */\n    tag_285:\n        /* \"@openzeppelin/contracts/security/ReentrancyGuard.sol\":2261:2282  _nonReentrantBefore() */\n      tag_287\n        /* \"@openzeppelin/contracts/security/ReentrancyGuard.sol\":2261:2280  _nonReentrantBefore */\n      tag_263\n        /* \"@openzeppelin/contracts/security/ReentrancyGuard.sol\":2261:2282  _nonReentrantBefore() */\n      jump\t// in\n    tag_287:\n        /* \"contracts/kipu-bank-v2.sol\":8482:8487  token */\n      dup3\n        /* \"contracts/kipu-bank-v2.sol\":5760:5761  0 */\n      0x00\n        /* \"contracts/kipu-bank-v2.sol\":5743:5762  token != address(0) */\n      0xffffffffffffffffffffffffffffffffffffffff\n      and\n        /* \"contracts/kipu-bank-v2.sol\":5743:5748  token */\n      dup2\n        /* \"contracts/kipu-bank-v2.sol\":5743:5762  token != address(0) */\n      0xffffffffffffffffffffffffffffffffffffffff\n      and\n      eq\n      iszero\n        /* \"contracts/kipu-bank-v2.sol\":5743:5793  token != address(0) && !tokenInfo[token].supported */\n      dup1\n      iszero\n      tag_289\n      jumpi\n      pop\n        /* \"contracts/kipu-bank-v2.sol\":5767:5776  tokenInfo */\n      0x03\n        /* \"contracts/kipu-bank-v2.sol\":5767:5783  tokenInfo[token] */\n      0x00\n        /* \"contracts/kipu-bank-v2.sol\":5777:5782  token */\n      dup3\n        /* \"contracts/kipu-bank-v2.sol\":5767:5783  tokenInfo[token] */\n      0xffffffffffffffffffffffffffffffffffffffff\n      and\n      0xffffffffffffffffffffffffffffffffffffffff\n      and\n      dup2\n      mstore\n      0x20\n      add\n      swap1\n      dup2\n      mstore\n      0x20\n      add\n      0x00\n      keccak256\n        /* \"contracts/kipu-bank-v2.sol\":5767:5793  tokenInfo[token].supported */\n      0x00\n      add\n      0x00\n      swap1\n      sload\n      swap1\n      0x0100\n      exp\n      swap1\n      div\n      0xff\n      and\n        /* \"contracts/kipu-bank-v2.sol\":5766:5793  !tokenInfo[token].supported */\n      iszero\n        /* \"contracts/kipu-bank-v2.sol\":5743:5793  token != address(0) && !tokenInfo[token].supported */\n    tag_289:\n        /* \"contracts/kipu-bank-v2.sol\":5739:5825  if (token != address(0) && !tokenInfo[token].supported) revert TokenNoSoportado(token) */\n      iszero\n      tag_290\n      jumpi\n        /* \"contracts/kipu-bank-v2.sol\":5819:5824  token */\n      dup1\n        /* \"contracts/kipu-bank-v2.sol\":5802:5825  TokenNoSoportado(token) */\n      mload(0x40)\n      0x6713984d00000000000000000000000000000000000000000000000000000000\n      dup2\n      mstore\n      0x04\n      add\n      tag_291\n      swap2\n      swap1\n      tag_60\n      jump\t// in\n    tag_291:\n      mload(0x40)\n      dup1\n      swap2\n      sub\n      swap1\n      revert\n        /* \"contracts/kipu-bank-v2.sol\":5739:5825  if (token != address(0) && !tokenInfo[token].supported) revert TokenNoSoportado(token) */\n    tag_290:\n        /* \"contracts/kipu-bank-v2.sol\":8500:8519  uint256 userBalance */\n      0x00\n        /* \"contracts/kipu-bank-v2.sol\":8522:8530  balances */\n      0x02\n        /* \"contracts/kipu-bank-v2.sol\":8522:8542  balances[msg.sender] */\n      0x00\n        /* \"contracts/kipu-bank-v2.sol\":8531:8541  msg.sender */\n      caller\n        /* \"contracts/kipu-bank-v2.sol\":8522:8542  balances[msg.sender] */\n      0xffffffffffffffffffffffffffffffffffffffff\n      and\n      0xffffffffffffffffffffffffffffffffffffffff\n      and\n      dup2\n      mstore\n      0x20\n      add\n      swap1\n      dup2\n      mstore\n      0x20\n      add\n      0x00\n      keccak256\n        /* \"contracts/kipu-bank-v2.sol\":8522:8549  balances[msg.sender][token] */\n      0x00\n        /* \"contracts/kipu-bank-v2.sol\":8543:8548  token */\n      dup7\n        /* \"contracts/kipu-bank-v2.sol\":8522:8549  balances[msg.sender][token] */\n      0xffffffffffffffffffffffffffffffffffffffff\n      and\n      0xffffffffffffffffffffffffffffffffffffffff\n      and\n      dup2\n      mstore\n      0x20\n      add\n      swap1\n      dup2\n      mstore\n      0x20\n      add\n      0x00\n      keccak256\n      sload\n        /* \"contracts/kipu-bank-v2.sol\":8500:8549  uint256 userBalance = balances[msg.sender][token] */\n      swap1\n      pop\n        /* \"contracts/kipu-bank-v2.sol\":8573:8584  userBalance */\n      dup1\n        /* \"contracts/kipu-bank-v2.sol\":8564:8570  amount */\n      dup5\n        /* \"contracts/kipu-bank-v2.sol\":8564:8584  amount > userBalance */\n      gt\n        /* \"contracts/kipu-bank-v2.sol\":8560:8650  if (amount > userBalance) revert SaldoInsuficiente(msg.sender, token, userBalance, amount) */\n      iszero\n      tag_293\n      jumpi\n        /* \"contracts/kipu-bank-v2.sol\":8611:8621  msg.sender */\n      caller\n        /* \"contracts/kipu-bank-v2.sol\":8623:8628  token */\n      dup6\n        /* \"contracts/kipu-bank-v2.sol\":8630:8641  userBalance */\n      dup3\n        /* \"contracts/kipu-bank-v2.sol\":8643:8649  amount */\n      dup7\n        /* \"contracts/kipu-bank-v2.sol\":8593:8650  SaldoInsuficiente(msg.sender, token, userBalance, amount) */\n      mload(0x40)\n      0x909eafb200000000000000000000000000000000000000000000000000000000\n      dup2\n      mstore\n      0x04\n      add\n      tag_294\n      swap5\n      swap4\n      swap3\n      swap2\n      swap1\n      tag_295\n      jump\t// in\n    tag_294:\n      mload(0x40)\n      dup1\n      swap2\n      sub\n      swap1\n      revert\n        /* \"contracts/kipu-bank-v2.sol\":8560:8650  if (amount > userBalance) revert SaldoInsuficiente(msg.sender, token, userBalance, amount) */\n    tag_293:\n        /* \"contracts/kipu-bank-v2.sol\":8746:8747  0 */\n      0x00\n        /* \"contracts/kipu-bank-v2.sol\":8729:8748  token == address(0) */\n      0xffffffffffffffffffffffffffffffffffffffff\n      and\n        /* \"contracts/kipu-bank-v2.sol\":8729:8734  token */\n      dup6\n        /* \"contracts/kipu-bank-v2.sol\":8729:8748  token == address(0) */\n      0xffffffffffffffffffffffffffffffffffffffff\n      and\n      eq\n        /* \"contracts/kipu-bank-v2.sol\":8729:8776  token == address(0) && amount > limiteRetiroWei */\n      dup1\n      iszero\n      tag_296\n      jumpi\n      pop\n        /* \"contracts/kipu-bank-v2.sol\":8761:8776  limiteRetiroWei */\n      immutable(\"0x6899d1fa68cf48634632762f4cd0ec59d591ccbdd349962c4ae5d93ddad42969\")\n        /* \"contracts/kipu-bank-v2.sol\":8752:8758  amount */\n      dup5\n        /* \"contracts/kipu-bank-v2.sol\":8752:8776  amount > limiteRetiroWei */\n      gt\n        /* \"contracts/kipu-bank-v2.sol\":8729:8776  token == address(0) && amount > limiteRetiroWei */\n    tag_296:\n        /* \"contracts/kipu-bank-v2.sol\":8725:8828  if (token == address(0) && amount > limiteRetiroWei) revert RetiroExcedeLimite(amount, limiteRetiroWei) */\n      iszero\n      tag_297\n      jumpi\n        /* \"contracts/kipu-bank-v2.sol\":8804:8810  amount */\n      dup4\n        /* \"contracts/kipu-bank-v2.sol\":8812:8827  limiteRetiroWei */\n      immutable(\"0x6899d1fa68cf48634632762f4cd0ec59d591ccbdd349962c4ae5d93ddad42969\")\n        /* \"contracts/kipu-bank-v2.sol\":8785:8828  RetiroExcedeLimite(amount, limiteRetiroWei) */\n      mload(0x40)\n      0xd021cb2f00000000000000000000000000000000000000000000000000000000\n      dup2\n      mstore\n      0x04\n      add\n      tag_298\n      swap3\n      swap2\n      swap1\n      tag_208\n      jump\t// in\n    tag_298:\n      mload(0x40)\n      dup1\n      swap2\n      sub\n      swap1\n      revert\n        /* \"contracts/kipu-bank-v2.sol\":8725:8828  if (token == address(0) && amount > limiteRetiroWei) revert RetiroExcedeLimite(amount, limiteRetiroWei) */\n    tag_297:\n        /* \"contracts/kipu-bank-v2.sol\":8952:8970  uint256 amountUSDC */\n      0x00\n        /* \"contracts/kipu-bank-v2.sol\":9006:9007  0 */\n      dup1\n        /* \"contracts/kipu-bank-v2.sol\":8989:9008  token == address(0) */\n      0xffffffffffffffffffffffffffffffffffffffff\n      and\n        /* \"contracts/kipu-bank-v2.sol\":8989:8994  token */\n      dup7\n        /* \"contracts/kipu-bank-v2.sol\":8989:9008  token == address(0) */\n      0xffffffffffffffffffffffffffffffffffffffff\n      and\n      sub\n        /* \"contracts/kipu-bank-v2.sol\":8985:9443  if (token == address(0)) {... */\n      tag_299\n      jumpi\n        /* \"contracts/kipu-bank-v2.sol\":9049:9058  tokenInfo */\n      0x03\n        /* \"contracts/kipu-bank-v2.sol\":9049:9070  tokenInfo[address(0)] */\n      0x00\n        /* \"contracts/kipu-bank-v2.sol\":9067:9068  0 */\n      dup1\n        /* \"contracts/kipu-bank-v2.sol\":9049:9070  tokenInfo[address(0)] */\n      0xffffffffffffffffffffffffffffffffffffffff\n      and\n      0xffffffffffffffffffffffffffffffffffffffff\n      and\n      dup2\n      mstore\n      0x20\n      add\n      swap1\n      dup2\n      mstore\n      0x20\n      add\n      0x00\n      keccak256\n        /* \"contracts/kipu-bank-v2.sol\":9049:9080  tokenInfo[address(0)].supported */\n      0x00\n      add\n      0x00\n      swap1\n      sload\n      swap1\n      0x0100\n      exp\n      swap1\n      div\n      0xff\n      and\n        /* \"contracts/kipu-bank-v2.sol\":9049:9129  tokenInfo[address(0)].supported || tokenInfo[address(0)].priceFeed != address(0) */\n      dup1\n      tag_300\n      jumpi\n      pop\n        /* \"contracts/kipu-bank-v2.sol\":9127:9128  0 */\n      0x00\n        /* \"contracts/kipu-bank-v2.sol\":9084:9129  tokenInfo[address(0)].priceFeed != address(0) */\n      0xffffffffffffffffffffffffffffffffffffffff\n      and\n        /* \"contracts/kipu-bank-v2.sol\":9084:9093  tokenInfo */\n      0x03\n        /* \"contracts/kipu-bank-v2.sol\":9084:9105  tokenInfo[address(0)] */\n      0x00\n        /* \"contracts/kipu-bank-v2.sol\":9102:9103  0 */\n      dup1\n        /* \"contracts/kipu-bank-v2.sol\":9084:9105  tokenInfo[address(0)] */\n      0xffffffffffffffffffffffffffffffffffffffff\n      and\n      0xffffffffffffffffffffffffffffffffffffffff\n      and\n      dup2\n      mstore\n      0x20\n      add\n      swap1\n      dup2\n      mstore\n      0x20\n      add\n      0x00\n      keccak256\n        /* \"contracts/kipu-bank-v2.sol\":9084:9115  tokenInfo[address(0)].priceFeed */\n      0x00\n      add\n      0x01\n      swap1\n      sload\n      swap1\n      0x0100\n      exp\n      swap1\n      div\n      0xffffffffffffffffffffffffffffffffffffffff\n      and\n        /* \"contracts/kipu-bank-v2.sol\":9084:9129  tokenInfo[address(0)].priceFeed != address(0) */\n      0xffffffffffffffffffffffffffffffffffffffff\n      and\n      eq\n      iszero\n        /* \"contracts/kipu-bank-v2.sol\":9049:9129  tokenInfo[address(0)].supported || tokenInfo[address(0)].priceFeed != address(0) */\n    tag_300:\n        /* \"contracts/kipu-bank-v2.sol\":9045:9280  if (tokenInfo[address(0)].supported || tokenInfo[address(0)].priceFeed != address(0)) {... */\n      iszero\n      tag_301\n      jumpi\n        /* \"contracts/kipu-bank-v2.sol\":9163:9208  _convertTokenAmountToUSDC(address(0), amount) */\n      tag_302\n        /* \"contracts/kipu-bank-v2.sol\":9197:9198  0 */\n      0x00\n        /* \"contracts/kipu-bank-v2.sol\":9201:9207  amount */\n      dup7\n        /* \"contracts/kipu-bank-v2.sol\":9163:9188  _convertTokenAmountToUSDC */\n      tag_197\n        /* \"contracts/kipu-bank-v2.sol\":9163:9208  _convertTokenAmountToUSDC(address(0), amount) */\n      jump\t// in\n    tag_302:\n        /* \"contracts/kipu-bank-v2.sol\":9150:9208  amountUSDC = _convertTokenAmountToUSDC(address(0), amount) */\n      swap1\n      pop\n        /* \"contracts/kipu-bank-v2.sol\":9045:9280  if (tokenInfo[address(0)].supported || tokenInfo[address(0)].priceFeed != address(0)) {... */\n    tag_301:\n        /* \"contracts/kipu-bank-v2.sol\":8985:9443  if (token == address(0)) {... */\n      jump(tag_303)\n    tag_299:\n        /* \"contracts/kipu-bank-v2.sol\":9316:9325  tokenInfo */\n      0x03\n        /* \"contracts/kipu-bank-v2.sol\":9316:9332  tokenInfo[token] */\n      0x00\n        /* \"contracts/kipu-bank-v2.sol\":9326:9331  token */\n      dup8\n        /* \"contracts/kipu-bank-v2.sol\":9316:9332  tokenInfo[token] */\n      0xffffffffffffffffffffffffffffffffffffffff\n      and\n      0xffffffffffffffffffffffffffffffffffffffff\n      and\n      dup2\n      mstore\n      0x20\n      add\n      swap1\n      dup2\n      mstore\n      0x20\n      add\n      0x00\n      keccak256\n        /* \"contracts/kipu-bank-v2.sol\":9316:9342  tokenInfo[token].supported */\n      0x00\n      add\n      0x00\n      swap1\n      sload\n      swap1\n      0x0100\n      exp\n      swap1\n      div\n      0xff\n      and\n        /* \"contracts/kipu-bank-v2.sol\":9312:9432  if (tokenInfo[token].supported) {... */\n      iszero\n      tag_304\n      jumpi\n        /* \"contracts/kipu-bank-v2.sol\":9376:9416  _convertTokenAmountToUSDC(token, amount) */\n      tag_305\n        /* \"contracts/kipu-bank-v2.sol\":9402:9407  token */\n      dup7\n        /* \"contracts/kipu-bank-v2.sol\":9409:9415  amount */\n      dup7\n        /* \"contracts/kipu-bank-v2.sol\":9376:9401  _convertTokenAmountToUSDC */\n      tag_197\n        /* \"contracts/kipu-bank-v2.sol\":9376:9416  _convertTokenAmountToUSDC(token, amount) */\n      jump\t// in\n    tag_305:\n        /* \"contracts/kipu-bank-v2.sol\":9363:9416  amountUSDC = _convertTokenAmountToUSDC(token, amount) */\n      swap1\n      pop\n        /* \"contracts/kipu-bank-v2.sol\":9312:9432  if (tokenInfo[token].supported) {... */\n    tag_304:\n        /* \"contracts/kipu-bank-v2.sol\":8985:9443  if (token == address(0)) {... */\n    tag_303:\n        /* \"contracts/kipu-bank-v2.sol\":9553:9559  amount */\n      dup5\n        /* \"contracts/kipu-bank-v2.sol\":9539:9550  userBalance */\n      dup3\n        /* \"contracts/kipu-bank-v2.sol\":9539:9559  userBalance - amount */\n      tag_306\n      swap2\n      swap1\n      tag_206\n      jump\t// in\n    tag_306:\n        /* \"contracts/kipu-bank-v2.sol\":9509:9517  balances */\n      0x02\n        /* \"contracts/kipu-bank-v2.sol\":9509:9529  balances[msg.sender] */\n      0x00\n        /* \"contracts/kipu-bank-v2.sol\":9518:9528  msg.sender */\n      caller\n        /* \"contracts/kipu-bank-v2.sol\":9509:9529  balances[msg.sender] */\n      0xffffffffffffffffffffffffffffffffffffffff\n      and\n      0xffffffffffffffffffffffffffffffffffffffff\n      and\n      dup2\n      mstore\n      0x20\n      add\n      swap1\n      dup2\n      mstore\n      0x20\n      add\n      0x00\n      keccak256\n        /* \"contracts/kipu-bank-v2.sol\":9509:9536  balances[msg.sender][token] */\n      0x00\n        /* \"contracts/kipu-bank-v2.sol\":9530:9535  token */\n      dup9\n        /* \"contracts/kipu-bank-v2.sol\":9509:9536  balances[msg.sender][token] */\n      0xffffffffffffffffffffffffffffffffffffffff\n      and\n      0xffffffffffffffffffffffffffffffffffffffff\n      and\n      dup2\n      mstore\n      0x20\n      add\n      swap1\n      dup2\n      mstore\n      0x20\n      add\n      0x00\n      keccak256\n        /* \"contracts/kipu-bank-v2.sol\":9509:9559  balances[msg.sender][token] = userBalance - amount */\n      dup2\n      swap1\n      sstore\n      pop\n        /* \"contracts/kipu-bank-v2.sol\":9602:9608  amount */\n      dup5\n        /* \"contracts/kipu-bank-v2.sol\":9570:9591  totalDepositedByToken */\n      0x04\n        /* \"contracts/kipu-bank-v2.sol\":9570:9598  totalDepositedByToken[token] */\n      0x00\n        /* \"contracts/kipu-bank-v2.sol\":9592:9597  token */\n      dup9\n        /* \"contracts/kipu-bank-v2.sol\":9570:9598  totalDepositedByToken[token] */\n      0xffffffffffffffffffffffffffffffffffffffff\n      and\n      0xffffffffffffffffffffffffffffffffffffffff\n      and\n      dup2\n      mstore\n      0x20\n      add\n      swap1\n      dup2\n      mstore\n      0x20\n      add\n      0x00\n      keccak256\n      0x00\n        /* \"contracts/kipu-bank-v2.sol\":9570:9608  totalDepositedByToken[token] -= amount */\n      dup3\n      dup3\n      sload\n      tag_307\n      swap2\n      swap1\n      tag_206\n      jump\t// in\n    tag_307:\n      swap3\n      pop\n      pop\n      dup2\n      swap1\n      sstore\n      pop\n        /* \"contracts/kipu-bank-v2.sol\":9636:9637  0 */\n      0x00\n        /* \"contracts/kipu-bank-v2.sol\":9623:9633  amountUSDC */\n      dup2\n        /* \"contracts/kipu-bank-v2.sol\":9623:9637  amountUSDC > 0 */\n      gt\n        /* \"contracts/kipu-bank-v2.sol\":9619:9840  if (amountUSDC > 0) {... */\n      iszero\n      tag_308\n      jumpi\n        /* \"contracts/kipu-bank-v2.sol\":9780:9790  amountUSDC */\n      dup1\n        /* \"contracts/kipu-bank-v2.sol\":9759:9777  totalDepositedUSDC */\n      sload(0x05)\n        /* \"contracts/kipu-bank-v2.sol\":9759:9790  totalDepositedUSDC > amountUSDC */\n      gt\n        /* \"contracts/kipu-bank-v2.sol\":9759:9828  totalDepositedUSDC > amountUSDC ? totalDepositedUSDC - amountUSDC : 0 */\n      tag_309\n      jumpi\n        /* \"contracts/kipu-bank-v2.sol\":9827:9828  0 */\n      0x00\n        /* \"contracts/kipu-bank-v2.sol\":9759:9828  totalDepositedUSDC > amountUSDC ? totalDepositedUSDC - amountUSDC : 0 */\n      jump(tag_310)\n    tag_309:\n        /* \"contracts/kipu-bank-v2.sol\":9814:9824  amountUSDC */\n      dup1\n        /* \"contracts/kipu-bank-v2.sol\":9793:9811  totalDepositedUSDC */\n      sload(0x05)\n        /* \"contracts/kipu-bank-v2.sol\":9793:9824  totalDepositedUSDC - amountUSDC */\n      tag_311\n      swap2\n      swap1\n      tag_206\n      jump\t// in\n    tag_311:\n        /* \"contracts/kipu-bank-v2.sol\":9759:9828  totalDepositedUSDC > amountUSDC ? totalDepositedUSDC - amountUSDC : 0 */\n    tag_310:\n        /* \"contracts/kipu-bank-v2.sol\":9738:9756  totalDepositedUSDC */\n      0x05\n        /* \"contracts/kipu-bank-v2.sol\":9738:9828  totalDepositedUSDC = totalDepositedUSDC > amountUSDC ? totalDepositedUSDC - amountUSDC : 0 */\n      dup2\n      swap1\n      sstore\n      pop\n        /* \"contracts/kipu-bank-v2.sol\":9619:9840  if (amountUSDC > 0) {... */\n    tag_308:\n        /* \"contracts/kipu-bank-v2.sol\":9862:9875  withdrawCount */\n      0x07\n      0x00\n        /* \"contracts/kipu-bank-v2.sol\":9862:9877  withdrawCount++ */\n      dup2\n      sload\n      dup1\n      swap3\n      swap2\n      swap1\n      0x01\n      add\n      swap2\n      swap1\n      pop\n      sstore\n      pop\n        /* \"contracts/kipu-bank-v2.sol\":9938:9939  0 */\n      0x00\n        /* \"contracts/kipu-bank-v2.sol\":9921:9940  token == address(0) */\n      0xffffffffffffffffffffffffffffffffffffffff\n      and\n        /* \"contracts/kipu-bank-v2.sol\":9921:9926  token */\n      dup7\n        /* \"contracts/kipu-bank-v2.sol\":9921:9940  token == address(0) */\n      0xffffffffffffffffffffffffffffffffffffffff\n      and\n      sub\n        /* \"contracts/kipu-bank-v2.sol\":9917:10248  if (token == address(0)) {... */\n      tag_312\n      jumpi\n        /* \"contracts/kipu-bank-v2.sol\":9958:9965  bool ok */\n      0x00\n        /* \"contracts/kipu-bank-v2.sol\":9971:9981  msg.sender */\n      caller\n        /* \"contracts/kipu-bank-v2.sol\":9971:9986  msg.sender.call */\n      0xffffffffffffffffffffffffffffffffffffffff\n      and\n        /* \"contracts/kipu-bank-v2.sol\":9994:10000  amount */\n      dup7\n        /* \"contracts/kipu-bank-v2.sol\":9971:10005  msg.sender.call{value: amount}(\"\") */\n      mload(0x40)\n      tag_313\n      swap1\n      tag_314\n      jump\t// in\n    tag_313:\n      0x00\n      mload(0x40)\n      dup1\n      dup4\n      sub\n      dup2\n      dup6\n      dup8\n      gas\n      call\n      swap3\n      pop\n      pop\n      pop\n      returndatasize\n      dup1\n      0x00\n      dup2\n      eq\n      tag_317\n      jumpi\n      mload(0x40)\n      swap2\n      pop\n      and(add(returndatasize, 0x3f), not(0x1f))\n      dup3\n      add\n      0x40\n      mstore\n      returndatasize\n      dup3\n      mstore\n      returndatasize\n      0x00\n      0x20\n      dup5\n      add\n      returndatacopy\n      jump(tag_316)\n    tag_317:\n      0x60\n      swap2\n      pop\n    tag_316:\n      pop\n        /* \"contracts/kipu-bank-v2.sol\":9957:10005  (bool ok, ) = msg.sender.call{value: amount}(\"\") */\n      pop\n      swap1\n      pop\n        /* \"contracts/kipu-bank-v2.sol\":10025:10027  ok */\n      dup1\n        /* \"contracts/kipu-bank-v2.sol\":10020:10076  if (!ok) revert TransferenciaFallida(msg.sender, amount) */\n      tag_318\n      jumpi\n        /* \"contracts/kipu-bank-v2.sol\":10057:10067  msg.sender */\n      caller\n        /* \"contracts/kipu-bank-v2.sol\":10069:10075  amount */\n      dup7\n        /* \"contracts/kipu-bank-v2.sol\":10036:10076  TransferenciaFallida(msg.sender, amount) */\n      mload(0x40)\n      0xc66cee3800000000000000000000000000000000000000000000000000000000\n      dup2\n      mstore\n      0x04\n      add\n      tag_319\n      swap3\n      swap2\n      swap1\n      tag_320\n      jump\t// in\n    tag_319:\n      mload(0x40)\n      dup1\n      swap2\n      sub\n      swap1\n      revert\n        /* \"contracts/kipu-bank-v2.sol\":10020:10076  if (!ok) revert TransferenciaFallida(msg.sender, amount) */\n    tag_318:\n        /* \"contracts/kipu-bank-v2.sol\":9942:10088  {... */\n      pop\n        /* \"contracts/kipu-bank-v2.sol\":9917:10248  if (token == address(0)) {... */\n      jump(tag_321)\n    tag_312:\n        /* \"contracts/kipu-bank-v2.sol\":10109:10118  bool sent */\n      0x00\n        /* \"contracts/kipu-bank-v2.sol\":10128:10133  token */\n      dup7\n        /* \"contracts/kipu-bank-v2.sol\":10121:10143  IERC20(token).transfer */\n      0xffffffffffffffffffffffffffffffffffffffff\n      and\n      0xa9059cbb\n        /* \"contracts/kipu-bank-v2.sol\":10144:10154  msg.sender */\n      caller\n        /* \"contracts/kipu-bank-v2.sol\":10156:10162  amount */\n      dup9\n        /* \"contracts/kipu-bank-v2.sol\":10121:10163  IERC20(token).transfer(msg.sender, amount) */\n      mload(0x40)\n      dup4\n      0xffffffff\n      and\n      0xe0\n      shl\n      dup2\n      mstore\n      0x04\n      add\n      tag_322\n      swap3\n      swap2\n      swap1\n      tag_320\n      jump\t// in\n    tag_322:\n      0x20\n      mload(0x40)\n      dup1\n      dup4\n      sub\n      dup2\n      0x00\n      dup8\n      gas\n      call\n      iszero\n      dup1\n      iszero\n      tag_324\n      jumpi\n      returndatasize\n      0x00\n      dup1\n      returndatacopy\n      revert(0x00, returndatasize)\n    tag_324:\n      pop\n      pop\n      pop\n      pop\n      mload(0x40)\n      returndatasize\n      not(0x1f)\n      0x1f\n      dup3\n      add\n      and\n      dup3\n      add\n      dup1\n      0x40\n      mstore\n      pop\n      dup2\n      add\n      swap1\n      tag_325\n      swap2\n      swap1\n      tag_272\n      jump\t// in\n    tag_325:\n        /* \"contracts/kipu-bank-v2.sol\":10109:10163  bool sent = IERC20(token).transfer(msg.sender, amount) */\n      swap1\n      pop\n        /* \"contracts/kipu-bank-v2.sol\":10183:10187  sent */\n      dup1\n        /* \"contracts/kipu-bank-v2.sol\":10178:10236  if (!sent) revert TransferenciaFallida(msg.sender, amount) */\n      tag_326\n      jumpi\n        /* \"contracts/kipu-bank-v2.sol\":10217:10227  msg.sender */\n      caller\n        /* \"contracts/kipu-bank-v2.sol\":10229:10235  amount */\n      dup7\n        /* \"contracts/kipu-bank-v2.sol\":10196:10236  TransferenciaFallida(msg.sender, amount) */\n      mload(0x40)\n      0xc66cee3800000000000000000000000000000000000000000000000000000000\n      dup2\n      mstore\n      0x04\n      add\n      tag_327\n      swap3\n      swap2\n      swap1\n      tag_320\n      jump\t// in\n    tag_327:\n      mload(0x40)\n      dup1\n      swap2\n      sub\n      swap1\n      revert\n        /* \"contracts/kipu-bank-v2.sol\":10178:10236  if (!sent) revert TransferenciaFallida(msg.sender, amount) */\n    tag_326:\n        /* \"contracts/kipu-bank-v2.sol\":10094:10248  {... */\n      pop\n        /* \"contracts/kipu-bank-v2.sol\":9917:10248  if (token == address(0)) {... */\n    tag_321:\n        /* \"contracts/kipu-bank-v2.sol\":10286:10291  token */\n      dup6\n        /* \"contracts/kipu-bank-v2.sol\":10265:10312  Withdraw(msg.sender, token, amount, amountUSDC) */\n      0xffffffffffffffffffffffffffffffffffffffff\n      and\n        /* \"contracts/kipu-bank-v2.sol\":10274:10284  msg.sender */\n      caller\n        /* \"contracts/kipu-bank-v2.sol\":10265:10312  Withdraw(msg.sender, token, amount, amountUSDC) */\n      0xffffffffffffffffffffffffffffffffffffffff\n      and\n      0xf341246adaac6f497bc2a656f546ab9e182111d630394f0c57c710a59a2cb567\n        /* \"contracts/kipu-bank-v2.sol\":10293:10299  amount */\n      dup8\n        /* \"contracts/kipu-bank-v2.sol\":10301:10311  amountUSDC */\n      dup5\n        /* \"contracts/kipu-bank-v2.sol\":10265:10312  Withdraw(msg.sender, token, amount, amountUSDC) */\n      mload(0x40)\n      tag_328\n      swap3\n      swap2\n      swap1\n      tag_208\n      jump\t// in\n    tag_328:\n      mload(0x40)\n      dup1\n      swap2\n      sub\n      swap1\n      log3\n        /* \"contracts/kipu-bank-v2.sol\":8489:10320  {... */\n      pop\n      pop\n        /* \"@openzeppelin/contracts/security/ReentrancyGuard.sol\":2292:2293  _ */\n      pop\n        /* \"@openzeppelin/contracts/security/ReentrancyGuard.sol\":2303:2323  _nonReentrantAfter() */\n      tag_329\n        /* \"@openzeppelin/contracts/security/ReentrancyGuard.sol\":2303:2321  _nonReentrantAfter */\n      tag_275\n        /* \"@openzeppelin/contracts/security/ReentrancyGuard.sol\":2303:2323  _nonReentrantAfter() */\n      jump\t// in\n    tag_329:\n        /* \"contracts/kipu-bank-v2.sol\":8372:10320  function withdraw(address token, uint256 amount) external montoNoCero(amount) nonReentrant tokenSoportadoOETH(token) {... */\n      pop\n      pop\n      pop\n      jump\t// out\n        /* \"contracts/kipu-bank-v2.sol\":3418:3464  mapping(address => TokenInfo) public tokenInfo */\n    tag_177:\n      mstore(0x20, 0x03)\n      dup1\n      0x00\n      mstore\n      keccak256(0x00, 0x40)\n      0x00\n      swap2\n      pop\n      swap1\n      pop\n      dup1\n      0x00\n      add\n      0x00\n      swap1\n      sload\n      swap1\n      0x0100\n      exp\n      swap1\n      div\n      0xff\n      and\n      swap1\n      dup1\n      0x00\n      add\n      0x01\n      swap1\n      sload\n      swap1\n      0x0100\n      exp\n      swap1\n      div\n      0xffffffffffffffffffffffffffffffffffffffff\n      and\n      swap1\n      dup1\n      0x00\n      add\n      0x15\n      swap1\n      sload\n      swap1\n      0x0100\n      exp\n      swap1\n      div\n      0xff\n      and\n      swap1\n      pop\n      dup4\n      jump\t// out\n        /* \"contracts/kipu-bank-v2.sol\":7465:7602  function depositETH() external payable montoNoCero(msg.value) nonReentrant {... */\n    tag_181:\n        /* \"contracts/kipu-bank-v2.sol\":7516:7525  msg.value */\n      callvalue\n        /* \"contracts/kipu-bank-v2.sol\":5586:5587  0 */\n      0x00\n        /* \"contracts/kipu-bank-v2.sol\":5577:5582  valor */\n      dup2\n        /* \"contracts/kipu-bank-v2.sol\":5577:5587  valor == 0 */\n      sub\n        /* \"contracts/kipu-bank-v2.sol\":5573:5607  if (valor == 0) revert MontoCero() */\n      tag_331\n      jumpi\n        /* \"contracts/kipu-bank-v2.sol\":5596:5607  MontoCero() */\n      mload(0x40)\n      0x85ea51af00000000000000000000000000000000000000000000000000000000\n      dup2\n      mstore\n      0x04\n      add\n      mload(0x40)\n      dup1\n      swap2\n      sub\n      swap1\n      revert\n        /* \"contracts/kipu-bank-v2.sol\":5573:5607  if (valor == 0) revert MontoCero() */\n    tag_331:\n        /* \"@openzeppelin/contracts/security/ReentrancyGuard.sol\":2261:2282  _nonReentrantBefore() */\n      tag_333\n        /* \"@openzeppelin/contracts/security/ReentrancyGuard.sol\":2261:2280  _nonReentrantBefore */\n      tag_263\n        /* \"@openzeppelin/contracts/security/ReentrancyGuard.sol\":2261:2282  _nonReentrantBefore() */\n      jump\t// in\n    tag_333:\n        /* \"contracts/kipu-bank-v2.sol\":7551:7594  _deposit(address(0), msg.sender, msg.value) */\n      tag_335\n        /* \"contracts/kipu-bank-v2.sol\":7568:7569  0 */\n      0x00\n        /* \"contracts/kipu-bank-v2.sol\":7572:7582  msg.sender */\n      caller\n        /* \"contracts/kipu-bank-v2.sol\":7584:7593  msg.value */\n      callvalue\n        /* \"contracts/kipu-bank-v2.sol\":7551:7559  _deposit */\n      tag_44\n        /* \"contracts/kipu-bank-v2.sol\":7551:7594  _deposit(address(0), msg.sender, msg.value) */\n      jump\t// in\n    tag_335:\n        /* \"@openzeppelin/contracts/security/ReentrancyGuard.sol\":2303:2323  _nonReentrantAfter() */\n      tag_336\n        /* \"@openzeppelin/contracts/security/ReentrancyGuard.sol\":2303:2321  _nonReentrantAfter */\n      tag_275\n        /* \"@openzeppelin/contracts/security/ReentrancyGuard.sol\":2303:2323  _nonReentrantAfter() */\n      jump\t// in\n    tag_336:\n        /* \"contracts/kipu-bank-v2.sol\":7465:7602  function depositETH() external payable montoNoCero(msg.value) nonReentrant {... */\n      pop\n      jump\t// out\n        /* \"contracts/kipu-bank-v2.sol\":10400:10527  function balanceOf(address user, address token) external view returns (uint256) {... */\n    tag_186:\n        /* \"contracts/kipu-bank-v2.sol\":10471:10478  uint256 */\n      0x00\n        /* \"contracts/kipu-bank-v2.sol\":10498:10506  balances */\n      0x02\n        /* \"contracts/kipu-bank-v2.sol\":10498:10512  balances[user] */\n      0x00\n        /* \"contracts/kipu-bank-v2.sol\":10507:10511  user */\n      dup5\n        /* \"contracts/kipu-bank-v2.sol\":10498:10512  balances[user] */\n      0xffffffffffffffffffffffffffffffffffffffff\n      and\n      0xffffffffffffffffffffffffffffffffffffffff\n      and\n      dup2\n      mstore\n      0x20\n      add\n      swap1\n      dup2\n      mstore\n      0x20\n      add\n      0x00\n      keccak256\n        /* \"contracts/kipu-bank-v2.sol\":10498:10519  balances[user][token] */\n      0x00\n        /* \"contracts/kipu-bank-v2.sol\":10513:10518  token */\n      dup4\n        /* \"contracts/kipu-bank-v2.sol\":10498:10519  balances[user][token] */\n      0xffffffffffffffffffffffffffffffffffffffff\n      and\n      0xffffffffffffffffffffffffffffffffffffffff\n      and\n      dup2\n      mstore\n      0x20\n      add\n      swap1\n      dup2\n      mstore\n      0x20\n      add\n      0x00\n      keccak256\n      sload\n        /* \"contracts/kipu-bank-v2.sol\":10491:10519  return balances[user][token] */\n      swap1\n      pop\n        /* \"contracts/kipu-bank-v2.sol\":10400:10527  function balanceOf(address user, address token) external view returns (uint256) {... */\n      swap3\n      swap2\n      pop\n      pop\n      jump\t// out\n        /* \"contracts/kipu-bank-v2.sol\":13048:15164  function _convertTokenAmountToUSDC(address token, uint256 amount) internal view returns (uint256) {... */\n    tag_197:\n        /* \"contracts/kipu-bank-v2.sol\":13137:13144  uint256 */\n      0x00\n        /* \"contracts/kipu-bank-v2.sol\":13157:13173  address feedAddr */\n      dup1\n        /* \"contracts/kipu-bank-v2.sol\":13184:13203  uint8 tokenDecimals */\n      0x00\n        /* \"contracts/kipu-bank-v2.sol\":13237:13238  0 */\n      dup1\n        /* \"contracts/kipu-bank-v2.sol\":13220:13239  token == address(0) */\n      0xffffffffffffffffffffffffffffffffffffffff\n      and\n        /* \"contracts/kipu-bank-v2.sol\":13220:13225  token */\n      dup6\n        /* \"contracts/kipu-bank-v2.sol\":13220:13239  token == address(0) */\n      0xffffffffffffffffffffffffffffffffffffffff\n      and\n      sub\n        /* \"contracts/kipu-bank-v2.sol\":13216:13823  if (token == address(0)) {... */\n      tag_339\n      jumpi\n        /* \"contracts/kipu-bank-v2.sol\":13339:13360  TokenInfo memory info */\n      0x00\n        /* \"contracts/kipu-bank-v2.sol\":13363:13372  tokenInfo */\n      0x03\n        /* \"contracts/kipu-bank-v2.sol\":13363:13384  tokenInfo[address(0)] */\n      0x00\n        /* \"contracts/kipu-bank-v2.sol\":13381:13382  0 */\n      dup1\n        /* \"contracts/kipu-bank-v2.sol\":13363:13384  tokenInfo[address(0)] */\n      0xffffffffffffffffffffffffffffffffffffffff\n      and\n      0xffffffffffffffffffffffffffffffffffffffff\n      and\n      dup2\n      mstore\n      0x20\n      add\n      swap1\n      dup2\n      mstore\n      0x20\n      add\n      0x00\n      keccak256\n        /* \"contracts/kipu-bank-v2.sol\":13339:13384  TokenInfo memory info = tokenInfo[address(0)] */\n      mload(0x40)\n      dup1\n      0x60\n      add\n      0x40\n      mstore\n      swap1\n      dup2\n      0x00\n      dup3\n      add\n      0x00\n      swap1\n      sload\n      swap1\n      0x0100\n      exp\n      swap1\n      div\n      0xff\n      and\n      iszero\n      iszero\n      iszero\n      iszero\n      dup2\n      mstore\n      0x20\n      add\n      0x00\n      dup3\n      add\n      0x01\n      swap1\n      sload\n      swap1\n      0x0100\n      exp\n      swap1\n      div\n      0xffffffffffffffffffffffffffffffffffffffff\n      and\n      0xffffffffffffffffffffffffffffffffffffffff\n      and\n      0xffffffffffffffffffffffffffffffffffffffff\n      and\n      dup2\n      mstore\n      0x20\n      add\n      0x00\n      dup3\n      add\n      0x15\n      swap1\n      sload\n      swap1\n      0x0100\n      exp\n      swap1\n      div\n      0xff\n      and\n      0xff\n      and\n      0xff\n      and\n      dup2\n      mstore\n      pop\n      pop\n      swap1\n      pop\n        /* \"contracts/kipu-bank-v2.sol\":13410:13414  info */\n      dup1\n        /* \"contracts/kipu-bank-v2.sol\":13410:13424  info.priceFeed */\n      0x20\n      add\n      mload\n        /* \"contracts/kipu-bank-v2.sol\":13399:13424  feedAddr = info.priceFeed */\n      swap3\n      pop\n        /* \"contracts/kipu-bank-v2.sol\":13455:13457  18 */\n      0x12\n        /* \"contracts/kipu-bank-v2.sol\":13439:13457  tokenDecimals = 18 */\n      swap2\n      pop\n        /* \"contracts/kipu-bank-v2.sol\":13522:13523  0 */\n      0x00\n        /* \"contracts/kipu-bank-v2.sol\":13502:13524  feedAddr == address(0) */\n      0xffffffffffffffffffffffffffffffffffffffff\n      and\n        /* \"contracts/kipu-bank-v2.sol\":13502:13510  feedAddr */\n      dup4\n        /* \"contracts/kipu-bank-v2.sol\":13502:13524  feedAddr == address(0) */\n      0xffffffffffffffffffffffffffffffffffffffff\n      and\n      sub\n        /* \"contracts/kipu-bank-v2.sol\":13498:13556  if (feedAddr == address(0)) revert TokenNoSoportado(token) */\n      tag_340\n      jumpi\n        /* \"contracts/kipu-bank-v2.sol\":13550:13555  token */\n      dup6\n        /* \"contracts/kipu-bank-v2.sol\":13533:13556  TokenNoSoportado(token) */\n      mload(0x40)\n      0x6713984d00000000000000000000000000000000000000000000000000000000\n      dup2\n      mstore\n      0x04\n      add\n      tag_341\n      swap2\n      swap1\n      tag_60\n      jump\t// in\n    tag_341:\n      mload(0x40)\n      dup1\n      swap2\n      sub\n      swap1\n      revert\n        /* \"contracts/kipu-bank-v2.sol\":13498:13556  if (feedAddr == address(0)) revert TokenNoSoportado(token) */\n    tag_340:\n        /* \"contracts/kipu-bank-v2.sol\":13241:13568  {... */\n      pop\n        /* \"contracts/kipu-bank-v2.sol\":13216:13823  if (token == address(0)) {... */\n      jump(tag_342)\n    tag_339:\n        /* \"contracts/kipu-bank-v2.sol\":13589:13610  TokenInfo memory info */\n      0x00\n        /* \"contracts/kipu-bank-v2.sol\":13613:13622  tokenInfo */\n      0x03\n        /* \"contracts/kipu-bank-v2.sol\":13613:13629  tokenInfo[token] */\n      0x00\n        /* \"contracts/kipu-bank-v2.sol\":13623:13628  token */\n      dup8\n        /* \"contracts/kipu-bank-v2.sol\":13613:13629  tokenInfo[token] */\n      0xffffffffffffffffffffffffffffffffffffffff\n      and\n      0xffffffffffffffffffffffffffffffffffffffff\n      and\n      dup2\n      mstore\n      0x20\n      add\n      swap1\n      dup2\n      mstore\n      0x20\n      add\n      0x00\n      keccak256\n        /* \"contracts/kipu-bank-v2.sol\":13589:13629  TokenInfo memory info = tokenInfo[token] */\n      mload(0x40)\n      dup1\n      0x60\n      add\n      0x40\n      mstore\n      swap1\n      dup2\n      0x00\n      dup3\n      add\n      0x00\n      swap1\n      sload\n      swap1\n      0x0100\n      exp\n      swap1\n      div\n      0xff\n      and\n      iszero\n      iszero\n      iszero\n      iszero\n      dup2\n      mstore\n      0x20\n      add\n      0x00\n      dup3\n      add\n      0x01\n      swap1\n      sload\n      swap1\n      0x0100\n      exp\n      swap1\n      div\n      0xffffffffffffffffffffffffffffffffffffffff\n      and\n      0xffffffffffffffffffffffffffffffffffffffff\n      and\n      0xffffffffffffffffffffffffffffffffffffffff\n      and\n      dup2\n      mstore\n      0x20\n      add\n      0x00\n      dup3\n      add\n      0x15\n      swap1\n      sload\n      swap1\n      0x0100\n      exp\n      swap1\n      div\n      0xff\n      and\n      0xff\n      and\n      0xff\n      and\n      dup2\n      mstore\n      pop\n      pop\n      swap1\n      pop\n        /* \"contracts/kipu-bank-v2.sol\":13649:13653  info */\n      dup1\n        /* \"contracts/kipu-bank-v2.sol\":13649:13663  info.supported */\n      0x00\n      add\n      mload\n        /* \"contracts/kipu-bank-v2.sol\":13648:13663  !info.supported */\n      iszero\n        /* \"contracts/kipu-bank-v2.sol\":13648:13695  !info.supported || info.priceFeed == address(0) */\n      dup1\n      tag_343\n      jumpi\n      pop\n        /* \"contracts/kipu-bank-v2.sol\":13693:13694  0 */\n      0x00\n        /* \"contracts/kipu-bank-v2.sol\":13667:13695  info.priceFeed == address(0) */\n      0xffffffffffffffffffffffffffffffffffffffff\n      and\n        /* \"contracts/kipu-bank-v2.sol\":13667:13671  info */\n      dup2\n        /* \"contracts/kipu-bank-v2.sol\":13667:13681  info.priceFeed */\n      0x20\n      add\n      mload\n        /* \"contracts/kipu-bank-v2.sol\":13667:13695  info.priceFeed == address(0) */\n      0xffffffffffffffffffffffffffffffffffffffff\n      and\n      eq\n        /* \"contracts/kipu-bank-v2.sol\":13648:13695  !info.supported || info.priceFeed == address(0) */\n    tag_343:\n        /* \"contracts/kipu-bank-v2.sol\":13644:13727  if (!info.supported || info.priceFeed == address(0)) revert TokenNoSoportado(token) */\n      iszero\n      tag_344\n      jumpi\n        /* \"contracts/kipu-bank-v2.sol\":13721:13726  token */\n      dup6\n        /* \"contracts/kipu-bank-v2.sol\":13704:13727  TokenNoSoportado(token) */\n      mload(0x40)\n      0x6713984d00000000000000000000000000000000000000000000000000000000\n      dup2\n      mstore\n      0x04\n      add\n      tag_345\n      swap2\n      swap1\n      tag_60\n      jump\t// in\n    tag_345:\n      mload(0x40)\n      dup1\n      swap2\n      sub\n      swap1\n      revert\n        /* \"contracts/kipu-bank-v2.sol\":13644:13727  if (!info.supported || info.priceFeed == address(0)) revert TokenNoSoportado(token) */\n    tag_344:\n        /* \"contracts/kipu-bank-v2.sol\":13753:13757  info */\n      dup1\n        /* \"contracts/kipu-bank-v2.sol\":13753:13767  info.priceFeed */\n      0x20\n      add\n      mload\n        /* \"contracts/kipu-bank-v2.sol\":13742:13767  feedAddr = info.priceFeed */\n      swap3\n      pop\n        /* \"contracts/kipu-bank-v2.sol\":13798:13802  info */\n      dup1\n        /* \"contracts/kipu-bank-v2.sol\":13798:13811  info.decimals */\n      0x40\n      add\n      mload\n        /* \"contracts/kipu-bank-v2.sol\":13782:13811  tokenDecimals = info.decimals */\n      swap2\n      pop\n        /* \"contracts/kipu-bank-v2.sol\":13574:13823  {... */\n      pop\n        /* \"contracts/kipu-bank-v2.sol\":13216:13823  if (token == address(0)) {... */\n    tag_342:\n        /* \"contracts/kipu-bank-v2.sol\":13835:13866  AggregatorV3Interface priceFeed */\n      0x00\n        /* \"contracts/kipu-bank-v2.sol\":13891:13899  feedAddr */\n      dup3\n        /* \"contracts/kipu-bank-v2.sol\":13835:13900  AggregatorV3Interface priceFeed = AggregatorV3Interface(feedAddr) */\n      swap1\n      pop\n        /* \"contracts/kipu-bank-v2.sol\":13914:13929  int256 priceInt */\n      0x00\n        /* \"contracts/kipu-bank-v2.sol\":13939:13948  priceFeed */\n      dup2\n        /* \"contracts/kipu-bank-v2.sol\":13939:13964  priceFeed.latestRoundData */\n      0xffffffffffffffffffffffffffffffffffffffff\n      and\n      0xfeaf968c\n        /* \"contracts/kipu-bank-v2.sol\":13939:13966  priceFeed.latestRoundData() */\n      mload(0x40)\n      dup2\n      0xffffffff\n      and\n      0xe0\n      shl\n      dup2\n      mstore\n      0x04\n      add\n      0xa0\n      mload(0x40)\n      dup1\n      dup4\n      sub\n      dup2\n      dup7\n      gas\n      staticcall\n      iszero\n      dup1\n      iszero\n      tag_347\n      jumpi\n      returndatasize\n      0x00\n      dup1\n      returndatacopy\n      revert(0x00, returndatasize)\n    tag_347:\n      pop\n      pop\n      pop\n      pop\n      mload(0x40)\n      returndatasize\n      not(0x1f)\n      0x1f\n      dup3\n      add\n      and\n      dup3\n      add\n      dup1\n      0x40\n      mstore\n      pop\n      dup2\n      add\n      swap1\n      tag_348\n      swap2\n      swap1\n      tag_349\n      jump\t// in\n    tag_348:\n        /* \"contracts/kipu-bank-v2.sol\":13911:13966  (, int256 priceInt, , , ) = priceFeed.latestRoundData() */\n      pop\n      pop\n      pop\n      swap2\n      pop\n      pop\n        /* \"contracts/kipu-bank-v2.sol\":13996:13997  0 */\n      0x00\n        /* \"contracts/kipu-bank-v2.sol\":13985:13993  priceInt */\n      dup2\n        /* \"contracts/kipu-bank-v2.sol\":13985:13997  priceInt > 0 */\n      sgt\n        /* \"contracts/kipu-bank-v2.sol\":13977:14020  require(priceInt > 0, \"Price feed invalid\") */\n      tag_350\n      jumpi\n      mload(0x40)\n      0x08c379a000000000000000000000000000000000000000000000000000000000\n      dup2\n      mstore\n      0x04\n      add\n      tag_351\n      swap1\n      tag_352\n      jump\t// in\n    tag_351:\n      mload(0x40)\n      dup1\n      swap2\n      sub\n      swap1\n      revert\n    tag_350:\n        /* \"contracts/kipu-bank-v2.sol\":14031:14044  uint256 price */\n      0x00\n        /* \"contracts/kipu-bank-v2.sol\":14055:14063  priceInt */\n      dup2\n        /* \"contracts/kipu-bank-v2.sol\":14031:14064  uint256 price = uint256(priceInt) */\n      swap1\n      pop\n        /* \"contracts/kipu-bank-v2.sol\":14392:14410  uint8 feedDecimals */\n      0x00\n        /* \"contracts/kipu-bank-v2.sol\":14413:14414  8 */\n      0x08\n        /* \"contracts/kipu-bank-v2.sol\":14392:14414  uint8 feedDecimals = 8 */\n      swap1\n      pop\n        /* \"contracts/kipu-bank-v2.sol\":14463:14480  uint256 numerator */\n      0x00\n        /* \"contracts/kipu-bank-v2.sol\":14492:14497  price */\n      dup3\n        /* \"contracts/kipu-bank-v2.sol\":14483:14489  amount */\n      dup10\n        /* \"contracts/kipu-bank-v2.sol\":14483:14497  amount * price */\n      tag_353\n      swap2\n      swap1\n      tag_354\n      jump\t// in\n    tag_353:\n        /* \"contracts/kipu-bank-v2.sol\":14463:14497  uint256 numerator = amount * price */\n      swap1\n      pop\n        /* \"contracts/kipu-bank-v2.sol\":14617:14644  uint256 usdWithFeedDecimals */\n      0x00\n        /* \"contracts/kipu-bank-v2.sol\":14666:14679  tokenDecimals */\n      dup7\n        /* \"contracts/kipu-bank-v2.sol\":14660:14662  10 */\n      0x0a\n        /* \"contracts/kipu-bank-v2.sol\":14660:14679  10 ** tokenDecimals */\n      tag_355\n      swap2\n      swap1\n      tag_356\n      jump\t// in\n    tag_355:\n        /* \"contracts/kipu-bank-v2.sol\":14647:14656  numerator */\n      dup3\n        /* \"contracts/kipu-bank-v2.sol\":14647:14680  numerator / (10 ** tokenDecimals) */\n      tag_357\n      swap2\n      swap1\n      tag_358\n      jump\t// in\n    tag_357:\n        /* \"contracts/kipu-bank-v2.sol\":14617:14680  uint256 usdWithFeedDecimals = numerator / (10 ** tokenDecimals) */\n      swap1\n      pop\n        /* \"contracts/kipu-bank-v2.sol\":2532:2533  6 */\n      0x06\n        /* \"contracts/kipu-bank-v2.sol\":14767:14796  feedDecimals >= USDC_DECIMALS */\n      0xff\n      and\n        /* \"contracts/kipu-bank-v2.sol\":14767:14779  feedDecimals */\n      dup4\n        /* \"contracts/kipu-bank-v2.sol\":14767:14796  feedDecimals >= USDC_DECIMALS */\n      0xff\n      and\n      lt\n        /* \"contracts/kipu-bank-v2.sol\":14763:15157  if (feedDecimals >= USDC_DECIMALS) {... */\n      tag_359\n      jumpi\n        /* \"contracts/kipu-bank-v2.sol\":14813:14827  uint256 factor */\n      0x00\n        /* \"contracts/kipu-bank-v2.sol\":2532:2533  6 */\n      0x06\n        /* \"contracts/kipu-bank-v2.sol\":14844:14856  feedDecimals */\n      dup5\n        /* \"contracts/kipu-bank-v2.sol\":14844:14872  feedDecimals - USDC_DECIMALS */\n      tag_360\n      swap2\n      swap1\n      tag_361\n      jump\t// in\n    tag_360:\n        /* \"contracts/kipu-bank-v2.sol\":14836:14873  uint256(feedDecimals - USDC_DECIMALS) */\n      0xff\n      and\n        /* \"contracts/kipu-bank-v2.sol\":14830:14832  10 */\n      0x0a\n        /* \"contracts/kipu-bank-v2.sol\":14830:14873  10 ** uint256(feedDecimals - USDC_DECIMALS) */\n      tag_362\n      swap2\n      swap1\n      tag_363\n      jump\t// in\n    tag_362:\n        /* \"contracts/kipu-bank-v2.sol\":14813:14873  uint256 factor = 10 ** uint256(feedDecimals - USDC_DECIMALS) */\n      swap1\n      pop\n        /* \"contracts/kipu-bank-v2.sol\":14917:14923  factor */\n      dup1\n        /* \"contracts/kipu-bank-v2.sol\":14895:14914  usdWithFeedDecimals */\n      dup3\n        /* \"contracts/kipu-bank-v2.sol\":14895:14923  usdWithFeedDecimals / factor */\n      tag_364\n      swap2\n      swap1\n      tag_358\n      jump\t// in\n    tag_364:\n        /* \"contracts/kipu-bank-v2.sol\":14888:14923  return usdWithFeedDecimals / factor */\n      swap10\n      pop\n      pop\n      pop\n      pop\n      pop\n      pop\n      pop\n      pop\n      pop\n      pop\n      jump(tag_338)\n        /* \"contracts/kipu-bank-v2.sol\":14763:15157  if (feedDecimals >= USDC_DECIMALS) {... */\n    tag_359:\n        /* \"contracts/kipu-bank-v2.sol\":15035:15049  uint256 factor */\n      0x00\n        /* \"contracts/kipu-bank-v2.sol\":15082:15094  feedDecimals */\n      dup4\n        /* \"contracts/kipu-bank-v2.sol\":2532:2533  6 */\n      0x06\n        /* \"contracts/kipu-bank-v2.sol\":15066:15094  USDC_DECIMALS - feedDecimals */\n      tag_366\n      swap2\n      swap1\n      tag_361\n      jump\t// in\n    tag_366:\n        /* \"contracts/kipu-bank-v2.sol\":15058:15095  uint256(USDC_DECIMALS - feedDecimals) */\n      0xff\n      and\n        /* \"contracts/kipu-bank-v2.sol\":15052:15054  10 */\n      0x0a\n        /* \"contracts/kipu-bank-v2.sol\":15052:15095  10 ** uint256(USDC_DECIMALS - feedDecimals) */\n      tag_367\n      swap2\n      swap1\n      tag_363\n      jump\t// in\n    tag_367:\n        /* \"contracts/kipu-bank-v2.sol\":15035:15095  uint256 factor = 10 ** uint256(USDC_DECIMALS - feedDecimals) */\n      swap1\n      pop\n        /* \"contracts/kipu-bank-v2.sol\":15139:15145  factor */\n      dup1\n        /* \"contracts/kipu-bank-v2.sol\":15117:15136  usdWithFeedDecimals */\n      dup3\n        /* \"contracts/kipu-bank-v2.sol\":15117:15145  usdWithFeedDecimals * factor */\n      tag_368\n      swap2\n      swap1\n      tag_354\n      jump\t// in\n    tag_368:\n        /* \"contracts/kipu-bank-v2.sol\":15110:15145  return usdWithFeedDecimals * factor */\n      swap10\n      pop\n      pop\n      pop\n      pop\n      pop\n      pop\n      pop\n      pop\n      pop\n      pop\n        /* \"contracts/kipu-bank-v2.sol\":13048:15164  function _convertTokenAmountToUSDC(address token, uint256 amount) internal view returns (uint256) {... */\n    tag_338:\n      swap3\n      swap2\n      pop\n      pop\n      jump\t// out\n        /* \"@openzeppelin/contracts/utils/introspection/ERC165.sol\":730:876  function supportsInterface(bytes4 interfaceId) public view virtual returns (bool) {... */\n    tag_215:\n        /* \"@openzeppelin/contracts/utils/introspection/ERC165.sol\":806:810  bool */\n      0x00\n        /* \"@openzeppelin/contracts/utils/introspection/ERC165.sol\":844:869  type(IERC165).interfaceId */\n      0x01ffc9a700000000000000000000000000000000000000000000000000000000\n        /* \"@openzeppelin/contracts/utils/introspection/ERC165.sol\":829:869  interfaceId == type(IERC165).interfaceId */\n      not(0xffffffffffffffffffffffffffffffffffffffffffffffffffffffff)\n      and\n        /* \"@openzeppelin/contracts/utils/introspection/ERC165.sol\":829:840  interfaceId */\n      dup3\n        /* \"@openzeppelin/contracts/utils/introspection/ERC165.sol\":829:869  interfaceId == type(IERC165).interfaceId */\n      not(0xffffffffffffffffffffffffffffffffffffffffffffffffffffffff)\n      and\n      eq\n        /* \"@openzeppelin/contracts/utils/introspection/ERC165.sol\":822:869  return interfaceId == type(IERC165).interfaceId */\n      swap1\n      pop\n        /* \"@openzeppelin/contracts/utils/introspection/ERC165.sol\":730:876  function supportsInterface(bytes4 interfaceId) public view virtual returns (bool) {... */\n      swap2\n      swap1\n      pop\n      jump\t// out\n        /* \"@openzeppelin/contracts/access/AccessControl.sol\":3175:3278  function _checkRole(bytes32 role) internal view virtual {... */\n    tag_219:\n        /* \"@openzeppelin/contracts/access/AccessControl.sol\":3241:3271  _checkRole(role, _msgSender()) */\n      tag_371\n        /* \"@openzeppelin/contracts/access/AccessControl.sol\":3252:3256  role */\n      dup2\n        /* \"@openzeppelin/contracts/access/AccessControl.sol\":3258:3270  _msgSender() */\n      tag_372\n        /* \"@openzeppelin/contracts/access/AccessControl.sol\":3258:3268  _msgSender */\n      tag_241\n        /* \"@openzeppelin/contracts/access/AccessControl.sol\":3258:3270  _msgSender() */\n      jump\t// in\n    tag_372:\n        /* \"@openzeppelin/contracts/access/AccessControl.sol\":3241:3251  _checkRole */\n      tag_373\n        /* \"@openzeppelin/contracts/access/AccessControl.sol\":3241:3271  _checkRole(role, _msgSender()) */\n      jump\t// in\n    tag_371:\n        /* \"@openzeppelin/contracts/access/AccessControl.sol\":3175:3278  function _checkRole(bytes32 role) internal view virtual {... */\n      pop\n      jump\t// out\n        /* \"@openzeppelin/contracts/access/AccessControl.sol\":6155:6471  function _grantRole(bytes32 role, address account) internal virtual returns (bool) {... */\n    tag_238:\n        /* \"@openzeppelin/contracts/access/AccessControl.sol\":6232:6236  bool */\n      0x00\n        /* \"@openzeppelin/contracts/access/AccessControl.sol\":6253:6275  hasRole(role, account) */\n      tag_375\n        /* \"@openzeppelin/contracts/access/AccessControl.sol\":6261:6265  role */\n      dup4\n        /* \"@openzeppelin/contracts/access/AccessControl.sol\":6267:6274  account */\n      dup4\n        /* \"@openzeppelin/contracts/access/AccessControl.sol\":6253:6260  hasRole */\n      tag_125\n        /* \"@openzeppelin/contracts/access/AccessControl.sol\":6253:6275  hasRole(role, account) */\n      jump\t// in\n    tag_375:\n        /* \"@openzeppelin/contracts/access/AccessControl.sol\":6248:6465  if (!hasRole(role, account)) {... */\n      tag_376\n      jumpi\n        /* \"@openzeppelin/contracts/access/AccessControl.sol\":6323:6327  true */\n      0x01\n        /* \"@openzeppelin/contracts/access/AccessControl.sol\":6291:6297  _roles */\n      0x00\n        /* \"@openzeppelin/contracts/access/AccessControl.sol\":6291:6303  _roles[role] */\n      dup1\n        /* \"@openzeppelin/contracts/access/AccessControl.sol\":6298:6302  role */\n      dup6\n        /* \"@openzeppelin/contracts/access/AccessControl.sol\":6291:6303  _roles[role] */\n      dup2\n      mstore\n      0x20\n      add\n      swap1\n      dup2\n      mstore\n      0x20\n      add\n      0x00\n      keccak256\n        /* \"@openzeppelin/contracts/access/AccessControl.sol\":6291:6311  _roles[role].hasRole */\n      0x00\n      add\n        /* \"@openzeppelin/contracts/access/AccessControl.sol\":6291:6320  _roles[role].hasRole[account] */\n      0x00\n        /* \"@openzeppelin/contracts/access/AccessControl.sol\":6312:6319  account */\n      dup5\n        /* \"@openzeppelin/contracts/access/AccessControl.sol\":6291:6320  _roles[role].hasRole[account] */\n      0xffffffffffffffffffffffffffffffffffffffff\n      and\n      0xffffffffffffffffffffffffffffffffffffffff\n      and\n      dup2\n      mstore\n      0x20\n      add\n      swap1\n      dup2\n      mstore\n      0x20\n      add\n      0x00\n      keccak256\n      0x00\n        /* \"@openzeppelin/contracts/access/AccessControl.sol\":6291:6327  _roles[role].hasRole[account] = true */\n      0x0100\n      exp\n      dup2\n      sload\n      dup2\n      0xff\n      mul\n      not\n      and\n      swap1\n      dup4\n      iszero\n      iszero\n      mul\n      or\n      swap1\n      sstore\n      pop\n        /* \"@openzeppelin/contracts/access/AccessControl.sol\":6373:6385  _msgSender() */\n      tag_377\n        /* \"@openzeppelin/contracts/access/AccessControl.sol\":6373:6383  _msgSender */\n      tag_241\n        /* \"@openzeppelin/contracts/access/AccessControl.sol\":6373:6385  _msgSender() */\n      jump\t// in\n    tag_377:\n        /* \"@openzeppelin/contracts/access/AccessControl.sol\":6346:6386  RoleGranted(role, account, _msgSender()) */\n      0xffffffffffffffffffffffffffffffffffffffff\n      and\n        /* \"@openzeppelin/contracts/access/AccessControl.sol\":6364:6371  account */\n      dup3\n        /* \"@openzeppelin/contracts/access/AccessControl.sol\":6346:6386  RoleGranted(role, account, _msgSender()) */\n      0xffffffffffffffffffffffffffffffffffffffff\n      and\n        /* \"@openzeppelin/contracts/access/AccessControl.sol\":6358:6362  role */\n      dup5\n        /* \"@openzeppelin/contracts/access/AccessControl.sol\":6346:6386  RoleGranted(role, account, _msgSender()) */\n      0x2f8788117e7eff1d82e926ec794901d17c78024a50270940304540a733656f0d\n      mload(0x40)\n      mload(0x40)\n      dup1\n      swap2\n      sub\n      swap1\n      log4\n        /* \"@openzeppelin/contracts/access/AccessControl.sol\":6407:6411  true */\n      0x01\n        /* \"@openzeppelin/contracts/access/AccessControl.sol\":6400:6411  return true */\n      swap1\n      pop\n      jump(tag_374)\n        /* \"@openzeppelin/contracts/access/AccessControl.sol\":6248:6465  if (!hasRole(role, account)) {... */\n    tag_376:\n        /* \"@openzeppelin/contracts/access/AccessControl.sol\":6449:6454  false */\n      0x00\n        /* \"@openzeppelin/contracts/access/AccessControl.sol\":6442:6454  return false */\n      swap1\n      pop\n        /* \"@openzeppelin/contracts/access/AccessControl.sol\":6155:6471  function _grantRole(bytes32 role, address account) internal virtual returns (bool) {... */\n    tag_374:\n      swap3\n      swap2\n      pop\n      pop\n      jump\t// out\n        /* \"@openzeppelin/contracts/utils/Context.sol\":656:752  function _msgSender() internal view virtual returns (address) {... */\n    tag_241:\n        /* \"@openzeppelin/contracts/utils/Context.sol\":709:716  address */\n      0x00\n        /* \"@openzeppelin/contracts/utils/Context.sol\":735:745  msg.sender */\n      caller\n        /* \"@openzeppelin/contracts/utils/Context.sol\":728:745  return msg.sender */\n      swap1\n      pop\n        /* \"@openzeppelin/contracts/utils/Context.sol\":656:752  function _msgSender() internal view virtual returns (address) {... */\n      swap1\n      jump\t// out\n        /* \"@openzeppelin/contracts/access/AccessControl.sol\":6708:7025  function _revokeRole(bytes32 role, address account) internal virtual returns (bool) {... */\n    tag_244:\n        /* \"@openzeppelin/contracts/access/AccessControl.sol\":6786:6790  bool */\n      0x00\n        /* \"@openzeppelin/contracts/access/AccessControl.sol\":6806:6828  hasRole(role, account) */\n      tag_381\n        /* \"@openzeppelin/contracts/access/AccessControl.sol\":6814:6818  role */\n      dup4\n        /* \"@openzeppelin/contracts/access/AccessControl.sol\":6820:6827  account */\n      dup4\n        /* \"@openzeppelin/contracts/access/AccessControl.sol\":6806:6813  hasRole */\n      tag_125\n        /* \"@openzeppelin/contracts/access/AccessControl.sol\":6806:6828  hasRole(role, account) */\n      jump\t// in\n    tag_381:\n        /* \"@openzeppelin/contracts/access/AccessControl.sol\":6802:7019  if (hasRole(role, account)) {... */\n      iszero\n      tag_382\n      jumpi\n        /* \"@openzeppelin/contracts/access/AccessControl.sol\":6876:6881  false */\n      0x00\n        /* \"@openzeppelin/contracts/access/AccessControl.sol\":6844:6850  _roles */\n      dup1\n        /* \"@openzeppelin/contracts/access/AccessControl.sol\":6844:6856  _roles[role] */\n      0x00\n        /* \"@openzeppelin/contracts/access/AccessControl.sol\":6851:6855  role */\n      dup6\n        /* \"@openzeppelin/contracts/access/AccessControl.sol\":6844:6856  _roles[role] */\n      dup2\n      mstore\n      0x20\n      add\n      swap1\n      dup2\n      mstore\n      0x20\n      add\n      0x00\n      keccak256\n        /* \"@openzeppelin/contracts/access/AccessControl.sol\":6844:6864  _roles[role].hasRole */\n      0x00\n      add\n        /* \"@openzeppelin/contracts/access/AccessControl.sol\":6844:6873  _roles[role].hasRole[account] */\n      0x00\n        /* \"@openzeppelin/contracts/access/AccessControl.sol\":6865:6872  account */\n      dup5\n        /* \"@openzeppelin/contracts/access/AccessControl.sol\":6844:6873  _roles[role].hasRole[account] */\n      0xffffffffffffffffffffffffffffffffffffffff\n      and\n      0xffffffffffffffffffffffffffffffffffffffff\n      and\n      dup2\n      mstore\n      0x20\n      add\n      swap1\n      dup2\n      mstore\n      0x20\n      add\n      0x00\n      keccak256\n      0x00\n        /* \"@openzeppelin/contracts/access/AccessControl.sol\":6844:6881  _roles[role].hasRole[account] = false */\n      0x0100\n      exp\n      dup2\n      sload\n      dup2\n      0xff\n      mul\n      not\n      and\n      swap1\n      dup4\n      iszero\n      iszero\n      mul\n      or\n      swap1\n      sstore\n      pop\n        /* \"@openzeppelin/contracts/access/AccessControl.sol\":6927:6939  _msgSender() */\n      tag_383\n        /* \"@openzeppelin/contracts/access/AccessControl.sol\":6927:6937  _msgSender */\n      tag_241\n        /* \"@openzeppelin/contracts/access/AccessControl.sol\":6927:6939  _msgSender() */\n      jump\t// in\n    tag_383:\n        /* \"@openzeppelin/contracts/access/AccessControl.sol\":6900:6940  RoleRevoked(role, account, _msgSender()) */\n      0xffffffffffffffffffffffffffffffffffffffff\n      and\n        /* \"@openzeppelin/contracts/access/AccessControl.sol\":6918:6925  account */\n      dup3\n        /* \"@openzeppelin/contracts/access/AccessControl.sol\":6900:6940  RoleRevoked(role, account, _msgSender()) */\n      0xffffffffffffffffffffffffffffffffffffffff\n      and\n        /* \"@openzeppelin/contracts/access/AccessControl.sol\":6912:6916  role */\n      dup5\n        /* \"@openzeppelin/contracts/access/AccessControl.sol\":6900:6940  RoleRevoked(role, account, _msgSender()) */\n      0xf6391f5c32d9c69d2a47ea670b442974b53935d1edc7fd64eb21e047a839171b\n      mload(0x40)\n      mload(0x40)\n      dup1\n      swap2\n      sub\n      swap1\n      log4\n        /* \"@openzeppelin/contracts/access/AccessControl.sol\":6961:6965  true */\n      0x01\n        /* \"@openzeppelin/contracts/access/AccessControl.sol\":6954:6965  return true */\n      swap1\n      pop\n      jump(tag_380)\n        /* \"@openzeppelin/contracts/access/AccessControl.sol\":6802:7019  if (hasRole(role, account)) {... */\n    tag_382:\n        /* \"@openzeppelin/contracts/access/AccessControl.sol\":7003:7008  false */\n      0x00\n        /* \"@openzeppelin/contracts/access/AccessControl.sol\":6996:7008  return false */\n      swap1\n      pop\n        /* \"@openzeppelin/contracts/access/AccessControl.sol\":6708:7025  function _revokeRole(bytes32 role, address account) internal virtual returns (bool) {... */\n    tag_380:\n      swap3\n      swap2\n      pop\n      pop\n      jump\t// out\n        /* \"@openzeppelin/contracts/security/ReentrancyGuard.sol\":2336:2623  function _nonReentrantBefore() private {... */\n    tag_263:\n        /* \"@openzeppelin/contracts/security/ReentrancyGuard.sol\":1759:1760  2 */\n      0x02\n        /* \"@openzeppelin/contracts/security/ReentrancyGuard.sol\":2468:2475  _status */\n      sload(0x01)\n        /* \"@openzeppelin/contracts/security/ReentrancyGuard.sol\":2468:2487  _status != _ENTERED */\n      sub\n        /* \"@openzeppelin/contracts/security/ReentrancyGuard.sol\":2460:2523  require(_status != _ENTERED, \"ReentrancyGuard: reentrant call\") */\n      tag_386\n      jumpi\n      mload(0x40)\n      0x08c379a000000000000000000000000000000000000000000000000000000000\n      dup2\n      mstore\n      0x04\n      add\n      tag_387\n      swap1\n      tag_388\n      jump\t// in\n    tag_387:\n      mload(0x40)\n      dup1\n      swap2\n      sub\n      swap1\n      revert\n    tag_386:\n        /* \"@openzeppelin/contracts/security/ReentrancyGuard.sol\":1759:1760  2 */\n      0x02\n        /* \"@openzeppelin/contracts/security/ReentrancyGuard.sol\":2598:2605  _status */\n      0x01\n        /* \"@openzeppelin/contracts/security/ReentrancyGuard.sol\":2598:2616  _status = _ENTERED */\n      dup2\n      swap1\n      sstore\n      pop\n        /* \"@openzeppelin/contracts/security/ReentrancyGuard.sol\":2336:2623  function _nonReentrantBefore() private {... */\n      jump\t// out\n        /* \"@openzeppelin/contracts/security/ReentrancyGuard.sol\":2629:2838  function _nonReentrantAfter() private {... */\n    tag_275:\n        /* \"@openzeppelin/contracts/security/ReentrancyGuard.sol\":1716:1717  1 */\n      0x01\n        /* \"@openzeppelin/contracts/security/ReentrancyGuard.sol\":2809:2816  _status */\n      dup1\n        /* \"@openzeppelin/contracts/security/ReentrancyGuard.sol\":2809:2831  _status = _NOT_ENTERED */\n      dup2\n      swap1\n      sstore\n      pop\n        /* \"@openzeppelin/contracts/security/ReentrancyGuard.sol\":2629:2838  function _nonReentrantAfter() private {... */\n      jump\t// out\n        /* \"@openzeppelin/contracts/access/AccessControl.sol\":3408:3605  function _checkRole(bytes32 role, address account) internal view virtual {... */\n    tag_373:\n        /* \"@openzeppelin/contracts/access/AccessControl.sol\":3496:3518  hasRole(role, account) */\n      tag_391\n        /* \"@openzeppelin/contracts/access/AccessControl.sol\":3504:3508  role */\n      dup3\n        /* \"@openzeppelin/contracts/access/AccessControl.sol\":3510:3517  account */\n      dup3\n        /* \"@openzeppelin/contracts/access/AccessControl.sol\":3496:3503  hasRole */\n      tag_125\n        /* \"@openzeppelin/contracts/access/AccessControl.sol\":3496:3518  hasRole(role, account) */\n      jump\t// in\n    tag_391:\n        /* \"@openzeppelin/contracts/access/AccessControl.sol\":3491:3599  if (!hasRole(role, account)) {... */\n      tag_392\n      jumpi\n        /* \"@openzeppelin/contracts/access/AccessControl.sol\":3574:3581  account */\n      dup1\n        /* \"@openzeppelin/contracts/access/AccessControl.sol\":3583:3587  role */\n      dup3\n        /* \"@openzeppelin/contracts/access/AccessControl.sol\":3541:3588  AccessControlUnauthorizedAccount(account, role) */\n      mload(0x40)\n      0xe2517d3f00000000000000000000000000000000000000000000000000000000\n      dup2\n      mstore\n      0x04\n      add\n      tag_393\n      swap3\n      swap2\n      swap1\n      tag_394\n      jump\t// in\n    tag_393:\n      mload(0x40)\n      dup1\n      swap2\n      sub\n      swap1\n      revert\n        /* \"@openzeppelin/contracts/access/AccessControl.sol\":3491:3599  if (!hasRole(role, account)) {... */\n    tag_392:\n        /* \"@openzeppelin/contracts/access/AccessControl.sol\":3408:3605  function _checkRole(bytes32 role, address account) internal view virtual {... */\n      pop\n      pop\n      jump\t// out\n        /* \"#utility.yul\":88:205   */\n    tag_396:\n        /* \"#utility.yul\":197:198   */\n      0x00\n        /* \"#utility.yul\":194:195   */\n      dup1\n        /* \"#utility.yul\":187:199   */\n      revert\n        /* \"#utility.yul\":334:483   */\n    tag_398:\n        /* \"#utility.yul\":370:377   */\n      0x00\n        /* \"#utility.yul\":410:476   */\n      0xffffffff00000000000000000000000000000000000000000000000000000000\n        /* \"#utility.yul\":403:408   */\n      dup3\n        /* \"#utility.yul\":399:477   */\n      and\n        /* \"#utility.yul\":388:477   */\n      swap1\n      pop\n        /* \"#utility.yul\":334:483   */\n      swap2\n      swap1\n      pop\n      jump\t// out\n        /* \"#utility.yul\":489:609   */\n    tag_399:\n        /* \"#utility.yul\":561:584   */\n      tag_449\n        /* \"#utility.yul\":578:583   */\n      dup2\n        /* \"#utility.yul\":561:584   */\n      tag_398\n      jump\t// in\n    tag_449:\n        /* \"#utility.yul\":554:559   */\n      dup2\n        /* \"#utility.yul\":551:585   */\n      eq\n        /* \"#utility.yul\":541:603   */\n      tag_450\n      jumpi\n        /* \"#utility.yul\":599:600   */\n      0x00\n        /* \"#utility.yul\":596:597   */\n      dup1\n        /* \"#utility.yul\":589:601   */\n      revert\n        /* \"#utility.yul\":541:603   */\n    tag_450:\n        /* \"#utility.yul\":489:609   */\n      pop\n      jump\t// out\n        /* \"#utility.yul\":615:752   */\n    tag_400:\n        /* \"#utility.yul\":660:665   */\n      0x00\n        /* \"#utility.yul\":698:704   */\n      dup2\n        /* \"#utility.yul\":685:705   */\n      calldataload\n        /* \"#utility.yul\":676:705   */\n      swap1\n      pop\n        /* \"#utility.yul\":714:746   */\n      tag_452\n        /* \"#utility.yul\":740:745   */\n      dup2\n        /* \"#utility.yul\":714:746   */\n      tag_399\n      jump\t// in\n    tag_452:\n        /* \"#utility.yul\":615:752   */\n      swap3\n      swap2\n      pop\n      pop\n      jump\t// out\n        /* \"#utility.yul\":758:1085   */\n    tag_50:\n        /* \"#utility.yul\":816:822   */\n      0x00\n        /* \"#utility.yul\":865:867   */\n      0x20\n        /* \"#utility.yul\":853:862   */\n      dup3\n        /* \"#utility.yul\":844:851   */\n      dup5\n        /* \"#utility.yul\":840:863   */\n      sub\n        /* \"#utility.yul\":836:868   */\n      slt\n        /* \"#utility.yul\":833:952   */\n      iszero\n      tag_454\n      jumpi\n        /* \"#utility.yul\":871:950   */\n      tag_455\n      tag_396\n      jump\t// in\n    tag_455:\n        /* \"#utility.yul\":833:952   */\n    tag_454:\n        /* \"#utility.yul\":991:992   */\n      0x00\n        /* \"#utility.yul\":1016:1068   */\n      tag_456\n        /* \"#utility.yul\":1060:1067   */\n      dup5\n        /* \"#utility.yul\":1051:1057   */\n      dup3\n        /* \"#utility.yul\":1040:1049   */\n      dup6\n        /* \"#utility.yul\":1036:1058   */\n      add\n        /* \"#utility.yul\":1016:1068   */\n      tag_400\n      jump\t// in\n    tag_456:\n        /* \"#utility.yul\":1006:1068   */\n      swap2\n      pop\n        /* \"#utility.yul\":962:1078   */\n      pop\n        /* \"#utility.yul\":758:1085   */\n      swap3\n      swap2\n      pop\n      pop\n      jump\t// out\n        /* \"#utility.yul\":1091:1181   */\n    tag_401:\n        /* \"#utility.yul\":1125:1132   */\n      0x00\n        /* \"#utility.yul\":1168:1173   */\n      dup2\n        /* \"#utility.yul\":1161:1174   */\n      iszero\n        /* \"#utility.yul\":1154:1175   */\n      iszero\n        /* \"#utility.yul\":1143:1175   */\n      swap1\n      pop\n        /* \"#utility.yul\":1091:1181   */\n      swap2\n      swap1\n      pop\n      jump\t// out\n        /* \"#utility.yul\":1187:1296   */\n    tag_402:\n        /* \"#utility.yul\":1268:1289   */\n      tag_459\n        /* \"#utility.yul\":1283:1288   */\n      dup2\n        /* \"#utility.yul\":1268:1289   */\n      tag_401\n      jump\t// in\n    tag_459:\n        /* \"#utility.yul\":1263:1266   */\n      dup3\n        /* \"#utility.yul\":1256:1290   */\n      mstore\n        /* \"#utility.yul\":1187:1296   */\n      pop\n      pop\n      jump\t// out\n        /* \"#utility.yul\":1302:1512   */\n    tag_53:\n        /* \"#utility.yul\":1389:1393   */\n      0x00\n        /* \"#utility.yul\":1427:1429   */\n      0x20\n        /* \"#utility.yul\":1416:1425   */\n      dup3\n        /* \"#utility.yul\":1412:1430   */\n      add\n        /* \"#utility.yul\":1404:1430   */\n      swap1\n      pop\n        /* \"#utility.yul\":1440:1505   */\n      tag_461\n        /* \"#utility.yul\":1502:1503   */\n      0x00\n        /* \"#utility.yul\":1491:1500   */\n      dup4\n        /* \"#utility.yul\":1487:1504   */\n      add\n        /* \"#utility.yul\":1478:1484   */\n      dup5\n        /* \"#utility.yul\":1440:1505   */\n      tag_402\n      jump\t// in\n    tag_461:\n        /* \"#utility.yul\":1302:1512   */\n      swap3\n      swap2\n      pop\n      pop\n      jump\t// out\n        /* \"#utility.yul\":1518:1644   */\n    tag_403:\n        /* \"#utility.yul\":1555:1562   */\n      0x00\n        /* \"#utility.yul\":1595:1637   */\n      0xffffffffffffffffffffffffffffffffffffffff\n        /* \"#utility.yul\":1588:1593   */\n      dup3\n        /* \"#utility.yul\":1584:1638   */\n      and\n        /* \"#utility.yul\":1573:1638   */\n      swap1\n      pop\n        /* \"#utility.yul\":1518:1644   */\n      swap2\n      swap1\n      pop\n      jump\t// out\n        /* \"#utility.yul\":1650:1746   */\n    tag_404:\n        /* \"#utility.yul\":1687:1694   */\n      0x00\n        /* \"#utility.yul\":1716:1740   */\n      tag_464\n        /* \"#utility.yul\":1734:1739   */\n      dup3\n        /* \"#utility.yul\":1716:1740   */\n      tag_403\n      jump\t// in\n    tag_464:\n        /* \"#utility.yul\":1705:1740   */\n      swap1\n      pop\n        /* \"#utility.yul\":1650:1746   */\n      swap2\n      swap1\n      pop\n      jump\t// out\n        /* \"#utility.yul\":1752:1874   */\n    tag_405:\n        /* \"#utility.yul\":1825:1849   */\n      tag_466\n        /* \"#utility.yul\":1843:1848   */\n      dup2\n        /* \"#utility.yul\":1825:1849   */\n      tag_404\n      jump\t// in\n    tag_466:\n        /* \"#utility.yul\":1818:1823   */\n      dup2\n        /* \"#utility.yul\":1815:1850   */\n      eq\n        /* \"#utility.yul\":1805:1868   */\n      tag_467\n      jumpi\n        /* \"#utility.yul\":1864:1865   */\n      0x00\n        /* \"#utility.yul\":1861:1862   */\n      dup1\n        /* \"#utility.yul\":1854:1866   */\n      revert\n        /* \"#utility.yul\":1805:1868   */\n    tag_467:\n        /* \"#utility.yul\":1752:1874   */\n      pop\n      jump\t// out\n        /* \"#utility.yul\":1880:2019   */\n    tag_406:\n        /* \"#utility.yul\":1926:1931   */\n      0x00\n        /* \"#utility.yul\":1964:1970   */\n      dup2\n        /* \"#utility.yul\":1951:1971   */\n      calldataload\n        /* \"#utility.yul\":1942:1971   */\n      swap1\n      pop\n        /* \"#utility.yul\":1980:2013   */\n      tag_469\n        /* \"#utility.yul\":2007:2012   */\n      dup2\n        /* \"#utility.yul\":1980:2013   */\n      tag_405\n      jump\t// in\n    tag_469:\n        /* \"#utility.yul\":1880:2019   */\n      swap3\n      swap2\n      pop\n      pop\n      jump\t// out\n        /* \"#utility.yul\":2025:2354   */\n    tag_57:\n        /* \"#utility.yul\":2084:2090   */\n      0x00\n        /* \"#utility.yul\":2133:2135   */\n      0x20\n        /* \"#utility.yul\":2121:2130   */\n      dup3\n        /* \"#utility.yul\":2112:2119   */\n      dup5\n        /* \"#utility.yul\":2108:2131   */\n      sub\n        /* \"#utility.yul\":2104:2136   */\n      slt\n        /* \"#utility.yul\":2101:2220   */\n      iszero\n      tag_471\n      jumpi\n        /* \"#utility.yul\":2139:2218   */\n      tag_472\n      tag_396\n      jump\t// in\n    tag_472:\n        /* \"#utility.yul\":2101:2220   */\n    tag_471:\n        /* \"#utility.yul\":2259:2260   */\n      0x00\n        /* \"#utility.yul\":2284:2337   */\n      tag_473\n        /* \"#utility.yul\":2329:2336   */\n      dup5\n        /* \"#utility.yul\":2320:2326   */\n      dup3\n        /* \"#utility.yul\":2309:2318   */\n      dup6\n        /* \"#utility.yul\":2305:2327   */\n      add\n        /* \"#utility.yul\":2284:2337   */\n      tag_406\n      jump\t// in\n    tag_473:\n        /* \"#utility.yul\":2274:2337   */\n      swap2\n      pop\n        /* \"#utility.yul\":2230:2347   */\n      pop\n        /* \"#utility.yul\":2025:2354   */\n      swap3\n      swap2\n      pop\n      pop\n      jump\t// out\n        /* \"#utility.yul\":2360:2478   */\n    tag_407:\n        /* \"#utility.yul\":2447:2471   */\n      tag_475\n        /* \"#utility.yul\":2465:2470   */\n      dup2\n        /* \"#utility.yul\":2447:2471   */\n      tag_404\n      jump\t// in\n    tag_475:\n        /* \"#utility.yul\":2442:2445   */\n      dup3\n        /* \"#utility.yul\":2435:2472   */\n      mstore\n        /* \"#utility.yul\":2360:2478   */\n      pop\n      pop\n      jump\t// out\n        /* \"#utility.yul\":2484:2706   */\n    tag_60:\n        /* \"#utility.yul\":2577:2581   */\n      0x00\n        /* \"#utility.yul\":2615:2617   */\n      0x20\n        /* \"#utility.yul\":2604:2613   */\n      dup3\n        /* \"#utility.yul\":2600:2618   */\n      add\n        /* \"#utility.yul\":2592:2618   */\n      swap1\n      pop\n        /* \"#utility.yul\":2628:2699   */\n      tag_477\n        /* \"#utility.yul\":2696:2697   */\n      0x00\n        /* \"#utility.yul\":2685:2694   */\n      dup4\n        /* \"#utility.yul\":2681:2698   */\n      add\n        /* \"#utility.yul\":2672:2678   */\n      dup5\n        /* \"#utility.yul\":2628:2699   */\n      tag_407\n      jump\t// in\n    tag_477:\n        /* \"#utility.yul\":2484:2706   */\n      swap3\n      swap2\n      pop\n      pop\n      jump\t// out\n        /* \"#utility.yul\":2712:2789   */\n    tag_408:\n        /* \"#utility.yul\":2749:2756   */\n      0x00\n        /* \"#utility.yul\":2778:2783   */\n      dup2\n        /* \"#utility.yul\":2767:2783   */\n      swap1\n      pop\n        /* \"#utility.yul\":2712:2789   */\n      swap2\n      swap1\n      pop\n      jump\t// out\n        /* \"#utility.yul\":2795:2917   */\n    tag_409:\n        /* \"#utility.yul\":2868:2892   */\n      tag_480\n        /* \"#utility.yul\":2886:2891   */\n      dup2\n        /* \"#utility.yul\":2868:2892   */\n      tag_408\n      jump\t// in\n    tag_480:\n        /* \"#utility.yul\":2861:2866   */\n      dup2\n        /* \"#utility.yul\":2858:2893   */\n      eq\n        /* \"#utility.yul\":2848:2911   */\n      tag_481\n      jumpi\n        /* \"#utility.yul\":2907:2908   */\n      0x00\n        /* \"#utility.yul\":2904:2905   */\n      dup1\n        /* \"#utility.yul\":2897:2909   */\n      revert\n        /* \"#utility.yul\":2848:2911   */\n    tag_481:\n        /* \"#utility.yul\":2795:2917   */\n      pop\n      jump\t// out\n        /* \"#utility.yul\":2923:3062   */\n    tag_410:\n        /* \"#utility.yul\":2969:2974   */\n      0x00\n        /* \"#utility.yul\":3007:3013   */\n      dup2\n        /* \"#utility.yul\":2994:3014   */\n      calldataload\n        /* \"#utility.yul\":2985:3014   */\n      swap1\n      pop\n        /* \"#utility.yul\":3023:3056   */\n      tag_483\n        /* \"#utility.yul\":3050:3055   */\n      dup2\n        /* \"#utility.yul\":3023:3056   */\n      tag_409\n      jump\t// in\n    tag_483:\n        /* \"#utility.yul\":2923:3062   */\n      swap3\n      swap2\n      pop\n      pop\n      jump\t// out\n        /* \"#utility.yul\":3068:3397   */\n    tag_68:\n        /* \"#utility.yul\":3127:3133   */\n      0x00\n        /* \"#utility.yul\":3176:3178   */\n      0x20\n        /* \"#utility.yul\":3164:3173   */\n      dup3\n        /* \"#utility.yul\":3155:3162   */\n      dup5\n        /* \"#utility.yul\":3151:3174   */\n      sub\n        /* \"#utility.yul\":3147:3179   */\n      slt\n        /* \"#utility.yul\":3144:3263   */\n      iszero\n      tag_485\n      jumpi\n        /* \"#utility.yul\":3182:3261   */\n      tag_486\n      tag_396\n      jump\t// in\n    tag_486:\n        /* \"#utility.yul\":3144:3263   */\n    tag_485:\n        /* \"#utility.yul\":3302:3303   */\n      0x00\n        /* \"#utility.yul\":3327:3380   */\n      tag_487\n        /* \"#utility.yul\":3372:3379   */\n      dup5\n        /* \"#utility.yul\":3363:3369   */\n      dup3\n        /* \"#utility.yul\":3352:3361   */\n      dup6\n        /* \"#utility.yul\":3348:3370   */\n      add\n        /* \"#utility.yul\":3327:3380   */\n      tag_410\n      jump\t// in\n    tag_487:\n        /* \"#utility.yul\":3317:3380   */\n      swap2\n      pop\n        /* \"#utility.yul\":3273:3390   */\n      pop\n        /* \"#utility.yul\":3068:3397   */\n      swap3\n      swap2\n      pop\n      pop\n      jump\t// out\n        /* \"#utility.yul\":3403:3521   */\n    tag_411:\n        /* \"#utility.yul\":3490:3514   */\n      tag_489\n        /* \"#utility.yul\":3508:3513   */\n      dup2\n        /* \"#utility.yul\":3490:3514   */\n      tag_408\n      jump\t// in\n    tag_489:\n        /* \"#utility.yul\":3485:3488   */\n      dup3\n        /* \"#utility.yul\":3478:3515   */\n      mstore\n        /* \"#utility.yul\":3403:3521   */\n      pop\n      pop\n      jump\t// out\n        /* \"#utility.yul\":3527:3749   */\n    tag_71:\n        /* \"#utility.yul\":3620:3624   */\n      0x00\n        /* \"#utility.yul\":3658:3660   */\n      0x20\n        /* \"#utility.yul\":3647:3656   */\n      dup3\n        /* \"#utility.yul\":3643:3661   */\n      add\n        /* \"#utility.yul\":3635:3661   */\n      swap1\n      pop\n        /* \"#utility.yul\":3671:3742   */\n      tag_491\n        /* \"#utility.yul\":3739:3740   */\n      0x00\n        /* \"#utility.yul\":3728:3737   */\n      dup4\n        /* \"#utility.yul\":3724:3741   */\n      add\n        /* \"#utility.yul\":3715:3721   */\n      dup5\n        /* \"#utility.yul\":3671:3742   */\n      tag_411\n      jump\t// in\n    tag_491:\n        /* \"#utility.yul\":3527:3749   */\n      swap3\n      swap2\n      pop\n      pop\n      jump\t// out\n        /* \"#utility.yul\":3755:3832   */\n    tag_412:\n        /* \"#utility.yul\":3792:3799   */\n      0x00\n        /* \"#utility.yul\":3821:3826   */\n      dup2\n        /* \"#utility.yul\":3810:3826   */\n      swap1\n      pop\n        /* \"#utility.yul\":3755:3832   */\n      swap2\n      swap1\n      pop\n      jump\t// out\n        /* \"#utility.yul\":3838:3956   */\n    tag_413:\n        /* \"#utility.yul\":3925:3949   */\n      tag_494\n        /* \"#utility.yul\":3943:3948   */\n      dup2\n        /* \"#utility.yul\":3925:3949   */\n      tag_412\n      jump\t// in\n    tag_494:\n        /* \"#utility.yul\":3920:3923   */\n      dup3\n        /* \"#utility.yul\":3913:3950   */\n      mstore\n        /* \"#utility.yul\":3838:3956   */\n      pop\n      pop\n      jump\t// out\n        /* \"#utility.yul\":3962:4184   */\n    tag_81:\n        /* \"#utility.yul\":4055:4059   */\n      0x00\n        /* \"#utility.yul\":4093:4095   */\n      0x20\n        /* \"#utility.yul\":4082:4091   */\n      dup3\n        /* \"#utility.yul\":4078:4096   */\n      add\n        /* \"#utility.yul\":4070:4096   */\n      swap1\n      pop\n        /* \"#utility.yul\":4106:4177   */\n      tag_496\n        /* \"#utility.yul\":4174:4175   */\n      0x00\n        /* \"#utility.yul\":4163:4172   */\n      dup4\n        /* \"#utility.yul\":4159:4176   */\n      add\n        /* \"#utility.yul\":4150:4156   */\n      dup5\n        /* \"#utility.yul\":4106:4177   */\n      tag_413\n      jump\t// in\n    tag_496:\n        /* \"#utility.yul\":3962:4184   */\n      swap3\n      swap2\n      pop\n      pop\n      jump\t// out\n        /* \"#utility.yul\":4190:4276   */\n    tag_414:\n        /* \"#utility.yul\":4225:4232   */\n      0x00\n        /* \"#utility.yul\":4265:4269   */\n      0xff\n        /* \"#utility.yul\":4258:4263   */\n      dup3\n        /* \"#utility.yul\":4254:4270   */\n      and\n        /* \"#utility.yul\":4243:4270   */\n      swap1\n      pop\n        /* \"#utility.yul\":4190:4276   */\n      swap2\n      swap1\n      pop\n      jump\t// out\n        /* \"#utility.yul\":4282:4394   */\n    tag_415:\n        /* \"#utility.yul\":4365:4387   */\n      tag_499\n        /* \"#utility.yul\":4381:4386   */\n      dup2\n        /* \"#utility.yul\":4365:4387   */\n      tag_414\n      jump\t// in\n    tag_499:\n        /* \"#utility.yul\":4360:4363   */\n      dup3\n        /* \"#utility.yul\":4353:4388   */\n      mstore\n        /* \"#utility.yul\":4282:4394   */\n      pop\n      pop\n      jump\t// out\n        /* \"#utility.yul\":4400:4614   */\n    tag_87:\n        /* \"#utility.yul\":4489:4493   */\n      0x00\n        /* \"#utility.yul\":4527:4529   */\n      0x20\n        /* \"#utility.yul\":4516:4525   */\n      dup3\n        /* \"#utility.yul\":4512:4530   */\n      add\n        /* \"#utility.yul\":4504:4530   */\n      swap1\n      pop\n        /* \"#utility.yul\":4540:4607   */\n      tag_501\n        /* \"#utility.yul\":4604:4605   */\n      0x00\n        /* \"#utility.yul\":4593:4602   */\n      dup4\n        /* \"#utility.yul\":4589:4606   */\n      add\n        /* \"#utility.yul\":4580:4586   */\n      dup5\n        /* \"#utility.yul\":4540:4607   */\n      tag_415\n      jump\t// in\n    tag_501:\n        /* \"#utility.yul\":4400:4614   */\n      swap3\n      swap2\n      pop\n      pop\n      jump\t// out\n        /* \"#utility.yul\":4620:5094   */\n    tag_95:\n        /* \"#utility.yul\":4688:4694   */\n      0x00\n        /* \"#utility.yul\":4696:4702   */\n      dup1\n        /* \"#utility.yul\":4745:4747   */\n      0x40\n        /* \"#utility.yul\":4733:4742   */\n      dup4\n        /* \"#utility.yul\":4724:4731   */\n      dup6\n        /* \"#utility.yul\":4720:4743   */\n      sub\n        /* \"#utility.yul\":4716:4748   */\n      slt\n        /* \"#utility.yul\":4713:4832   */\n      iszero\n      tag_503\n      jumpi\n        /* \"#utility.yul\":4751:4830   */\n      tag_504\n      tag_396\n      jump\t// in\n    tag_504:\n        /* \"#utility.yul\":4713:4832   */\n    tag_503:\n        /* \"#utility.yul\":4871:4872   */\n      0x00\n        /* \"#utility.yul\":4896:4949   */\n      tag_505\n        /* \"#utility.yul\":4941:4948   */\n      dup6\n        /* \"#utility.yul\":4932:4938   */\n      dup3\n        /* \"#utility.yul\":4921:4930   */\n      dup7\n        /* \"#utility.yul\":4917:4939   */\n      add\n        /* \"#utility.yul\":4896:4949   */\n      tag_410\n      jump\t// in\n    tag_505:\n        /* \"#utility.yul\":4886:4949   */\n      swap3\n      pop\n        /* \"#utility.yul\":4842:4959   */\n      pop\n        /* \"#utility.yul\":4998:5000   */\n      0x20\n        /* \"#utility.yul\":5024:5077   */\n      tag_506\n        /* \"#utility.yul\":5069:5076   */\n      dup6\n        /* \"#utility.yul\":5060:5066   */\n      dup3\n        /* \"#utility.yul\":5049:5058   */\n      dup7\n        /* \"#utility.yul\":5045:5067   */\n      add\n        /* \"#utility.yul\":5024:5077   */\n      tag_406\n      jump\t// in\n    tag_506:\n        /* \"#utility.yul\":5014:5077   */\n      swap2\n      pop\n        /* \"#utility.yul\":4969:5087   */\n      pop\n        /* \"#utility.yul\":4620:5094   */\n      swap3\n      pop\n      swap3\n      swap1\n      pop\n      jump\t// out\n        /* \"#utility.yul\":5100:5218   */\n    tag_416:\n        /* \"#utility.yul\":5171:5193   */\n      tag_508\n        /* \"#utility.yul\":5187:5192   */\n      dup2\n        /* \"#utility.yul\":5171:5193   */\n      tag_414\n      jump\t// in\n    tag_508:\n        /* \"#utility.yul\":5164:5169   */\n      dup2\n        /* \"#utility.yul\":5161:5194   */\n      eq\n        /* \"#utility.yul\":5151:5212   */\n      tag_509\n      jumpi\n        /* \"#utility.yul\":5208:5209   */\n      0x00\n        /* \"#utility.yul\":5205:5206   */\n      dup1\n        /* \"#utility.yul\":5198:5210   */\n      revert\n        /* \"#utility.yul\":5151:5212   */\n    tag_509:\n        /* \"#utility.yul\":5100:5218   */\n      pop\n      jump\t// out\n        /* \"#utility.yul\":5224:5359   */\n    tag_417:\n        /* \"#utility.yul\":5268:5273   */\n      0x00\n        /* \"#utility.yul\":5306:5312   */\n      dup2\n        /* \"#utility.yul\":5293:5313   */\n      calldataload\n        /* \"#utility.yul\":5284:5313   */\n      swap1\n      pop\n        /* \"#utility.yul\":5322:5353   */\n      tag_511\n        /* \"#utility.yul\":5347:5352   */\n      dup2\n        /* \"#utility.yul\":5322:5353   */\n      tag_416\n      jump\t// in\n    tag_511:\n        /* \"#utility.yul\":5224:5359   */\n      swap3\n      swap2\n      pop\n      pop\n      jump\t// out\n        /* \"#utility.yul\":5365:5980   */\n    tag_104:\n        /* \"#utility.yul\":5440:5446   */\n      0x00\n        /* \"#utility.yul\":5448:5454   */\n      dup1\n        /* \"#utility.yul\":5456:5462   */\n      0x00\n        /* \"#utility.yul\":5505:5507   */\n      0x60\n        /* \"#utility.yul\":5493:5502   */\n      dup5\n        /* \"#utility.yul\":5484:5491   */\n      dup7\n        /* \"#utility.yul\":5480:5503   */\n      sub\n        /* \"#utility.yul\":5476:5508   */\n      slt\n        /* \"#utility.yul\":5473:5592   */\n      iszero\n      tag_513\n      jumpi\n        /* \"#utility.yul\":5511:5590   */\n      tag_514\n      tag_396\n      jump\t// in\n    tag_514:\n        /* \"#utility.yul\":5473:5592   */\n    tag_513:\n        /* \"#utility.yul\":5631:5632   */\n      0x00\n        /* \"#utility.yul\":5656:5709   */\n      tag_515\n        /* \"#utility.yul\":5701:5708   */\n      dup7\n        /* \"#utility.yul\":5692:5698   */\n      dup3\n        /* \"#utility.yul\":5681:5690   */\n      dup8\n        /* \"#utility.yul\":5677:5699   */\n      add\n        /* \"#utility.yul\":5656:5709   */\n      tag_406\n      jump\t// in\n    tag_515:\n        /* \"#utility.yul\":5646:5709   */\n      swap4\n      pop\n        /* \"#utility.yul\":5602:5719   */\n      pop\n        /* \"#utility.yul\":5758:5760   */\n      0x20\n        /* \"#utility.yul\":5784:5837   */\n      tag_516\n        /* \"#utility.yul\":5829:5836   */\n      dup7\n        /* \"#utility.yul\":5820:5826   */\n      dup3\n        /* \"#utility.yul\":5809:5818   */\n      dup8\n        /* \"#utility.yul\":5805:5827   */\n      add\n        /* \"#utility.yul\":5784:5837   */\n      tag_406\n      jump\t// in\n    tag_516:\n        /* \"#utility.yul\":5774:5837   */\n      swap3\n      pop\n        /* \"#utility.yul\":5729:5847   */\n      pop\n        /* \"#utility.yul\":5886:5888   */\n      0x40\n        /* \"#utility.yul\":5912:5963   */\n      tag_517\n        /* \"#utility.yul\":5955:5962   */\n      dup7\n        /* \"#utility.yul\":5946:5952   */\n      dup3\n        /* \"#utility.yul\":5935:5944   */\n      dup8\n        /* \"#utility.yul\":5931:5953   */\n      add\n        /* \"#utility.yul\":5912:5963   */\n      tag_417\n      jump\t// in\n    tag_517:\n        /* \"#utility.yul\":5902:5963   */\n      swap2\n      pop\n        /* \"#utility.yul\":5857:5973   */\n      pop\n        /* \"#utility.yul\":5365:5980   */\n      swap3\n      pop\n      swap3\n      pop\n      swap3\n      jump\t// out\n        /* \"#utility.yul\":5986:6108   */\n    tag_418:\n        /* \"#utility.yul\":6059:6083   */\n      tag_519\n        /* \"#utility.yul\":6077:6082   */\n      dup2\n        /* \"#utility.yul\":6059:6083   */\n      tag_412\n      jump\t// in\n    tag_519:\n        /* \"#utility.yul\":6052:6057   */\n      dup2\n        /* \"#utility.yul\":6049:6084   */\n      eq\n        /* \"#utility.yul\":6039:6102   */\n      tag_520\n      jumpi\n        /* \"#utility.yul\":6098:6099   */\n      0x00\n        /* \"#utility.yul\":6095:6096   */\n      dup1\n        /* \"#utility.yul\":6088:6100   */\n      revert\n        /* \"#utility.yul\":6039:6102   */\n    tag_520:\n        /* \"#utility.yul\":5986:6108   */\n      pop\n      jump\t// out\n        /* \"#utility.yul\":6114:6253   */\n    tag_419:\n        /* \"#utility.yul\":6160:6165   */\n      0x00\n        /* \"#utility.yul\":6198:6204   */\n      dup2\n        /* \"#utility.yul\":6185:6205   */\n      calldataload\n        /* \"#utility.yul\":6176:6205   */\n      swap1\n      pop\n        /* \"#utility.yul\":6214:6247   */\n      tag_522\n        /* \"#utility.yul\":6241:6246   */\n      dup2\n        /* \"#utility.yul\":6214:6247   */\n      tag_418\n      jump\t// in\n    tag_522:\n        /* \"#utility.yul\":6114:6253   */\n      swap3\n      swap2\n      pop\n      pop\n      jump\t// out\n        /* \"#utility.yul\":6259:6733   */\n    tag_130:\n        /* \"#utility.yul\":6327:6333   */\n      0x00\n        /* \"#utility.yul\":6335:6341   */\n      dup1\n        /* \"#utility.yul\":6384:6386   */\n      0x40\n        /* \"#utility.yul\":6372:6381   */\n      dup4\n        /* \"#utility.yul\":6363:6370   */\n      dup6\n        /* \"#utility.yul\":6359:6382   */\n      sub\n        /* \"#utility.yul\":6355:6387   */\n      slt\n        /* \"#utility.yul\":6352:6471   */\n      iszero\n      tag_524\n      jumpi\n        /* \"#utility.yul\":6390:6469   */\n      tag_525\n      tag_396\n      jump\t// in\n    tag_525:\n        /* \"#utility.yul\":6352:6471   */\n    tag_524:\n        /* \"#utility.yul\":6510:6511   */\n      0x00\n        /* \"#utility.yul\":6535:6588   */\n      tag_526\n        /* \"#utility.yul\":6580:6587   */\n      dup6\n        /* \"#utility.yul\":6571:6577   */\n      dup3\n        /* \"#utility.yul\":6560:6569   */\n      dup7\n        /* \"#utility.yul\":6556:6578   */\n      add\n        /* \"#utility.yul\":6535:6588   */\n      tag_406\n      jump\t// in\n    tag_526:\n        /* \"#utility.yul\":6525:6588   */\n      swap3\n      pop\n        /* \"#utility.yul\":6481:6598   */\n      pop\n        /* \"#utility.yul\":6637:6639   */\n      0x20\n        /* \"#utility.yul\":6663:6716   */\n      tag_527\n        /* \"#utility.yul\":6708:6715   */\n      dup6\n        /* \"#utility.yul\":6699:6705   */\n      dup3\n        /* \"#utility.yul\":6688:6697   */\n      dup7\n        /* \"#utility.yul\":6684:6706   */\n      add\n        /* \"#utility.yul\":6663:6716   */\n      tag_419\n      jump\t// in\n    tag_527:\n        /* \"#utility.yul\":6653:6716   */\n      swap2\n      pop\n        /* \"#utility.yul\":6608:6726   */\n      pop\n        /* \"#utility.yul\":6259:6733   */\n      swap3\n      pop\n      swap3\n      swap1\n      pop\n      jump\t// out\n        /* \"#utility.yul\":6739:7161   */\n    tag_179:\n        /* \"#utility.yul\":6878:6882   */\n      0x00\n        /* \"#utility.yul\":6916:6918   */\n      0x60\n        /* \"#utility.yul\":6905:6914   */\n      dup3\n        /* \"#utility.yul\":6901:6919   */\n      add\n        /* \"#utility.yul\":6893:6919   */\n      swap1\n      pop\n        /* \"#utility.yul\":6929:6994   */\n      tag_529\n        /* \"#utility.yul\":6991:6992   */\n      0x00\n        /* \"#utility.yul\":6980:6989   */\n      dup4\n        /* \"#utility.yul\":6976:6993   */\n      add\n        /* \"#utility.yul\":6967:6973   */\n      dup7\n        /* \"#utility.yul\":6929:6994   */\n      tag_402\n      jump\t// in\n    tag_529:\n        /* \"#utility.yul\":7004:7076   */\n      tag_530\n        /* \"#utility.yul\":7072:7074   */\n      0x20\n        /* \"#utility.yul\":7061:7070   */\n      dup4\n        /* \"#utility.yul\":7057:7075   */\n      add\n        /* \"#utility.yul\":7048:7054   */\n      dup6\n        /* \"#utility.yul\":7004:7076   */\n      tag_407\n      jump\t// in\n    tag_530:\n        /* \"#utility.yul\":7086:7154   */\n      tag_531\n        /* \"#utility.yul\":7150:7152   */\n      0x40\n        /* \"#utility.yul\":7139:7148   */\n      dup4\n        /* \"#utility.yul\":7135:7153   */\n      add\n        /* \"#utility.yul\":7126:7132   */\n      dup5\n        /* \"#utility.yul\":7086:7154   */\n      tag_415\n      jump\t// in\n    tag_531:\n        /* \"#utility.yul\":6739:7161   */\n      swap5\n      swap4\n      pop\n      pop\n      pop\n      pop\n      jump\t// out\n        /* \"#utility.yul\":7167:7641   */\n    tag_185:\n        /* \"#utility.yul\":7235:7241   */\n      0x00\n        /* \"#utility.yul\":7243:7249   */\n      dup1\n        /* \"#utility.yul\":7292:7294   */\n      0x40\n        /* \"#utility.yul\":7280:7289   */\n      dup4\n        /* \"#utility.yul\":7271:7278   */\n      dup6\n        /* \"#utility.yul\":7267:7290   */\n      sub\n        /* \"#utility.yul\":7263:7295   */\n      slt\n        /* \"#utility.yul\":7260:7379   */\n      iszero\n      tag_533\n      jumpi\n        /* \"#utility.yul\":7298:7377   */\n      tag_534\n      tag_396\n      jump\t// in\n    tag_534:\n        /* \"#utility.yul\":7260:7379   */\n    tag_533:\n        /* \"#utility.yul\":7418:7419   */\n      0x00\n        /* \"#utility.yul\":7443:7496   */\n      tag_535\n        /* \"#utility.yul\":7488:7495   */\n      dup6\n        /* \"#utility.yul\":7479:7485   */\n      dup3\n        /* \"#utility.yul\":7468:7477   */\n      dup7\n        /* \"#utility.yul\":7464:7486   */\n      add\n        /* \"#utility.yul\":7443:7496   */\n      tag_406\n      jump\t// in\n    tag_535:\n        /* \"#utility.yul\":7433:7496   */\n      swap3\n      pop\n        /* \"#utility.yul\":7389:7506   */\n      pop\n        /* \"#utility.yul\":7545:7547   */\n      0x20\n        /* \"#utility.yul\":7571:7624   */\n      tag_536\n        /* \"#utility.yul\":7616:7623   */\n      dup6\n        /* \"#utility.yul\":7607:7613   */\n      dup3\n        /* \"#utility.yul\":7596:7605   */\n      dup7\n        /* \"#utility.yul\":7592:7614   */\n      add\n        /* \"#utility.yul\":7571:7624   */\n      tag_406\n      jump\t// in\n    tag_536:\n        /* \"#utility.yul\":7561:7624   */\n      swap2\n      pop\n        /* \"#utility.yul\":7516:7634   */\n      pop\n        /* \"#utility.yul\":7167:7641   */\n      swap3\n      pop\n      swap3\n      swap1\n      pop\n      jump\t// out\n        /* \"#utility.yul\":7647:7827   */\n    tag_420:\n        /* \"#utility.yul\":7695:7772   */\n      0x4e487b7100000000000000000000000000000000000000000000000000000000\n        /* \"#utility.yul\":7692:7693   */\n      0x00\n        /* \"#utility.yul\":7685:7773   */\n      mstore\n        /* \"#utility.yul\":7792:7796   */\n      0x11\n        /* \"#utility.yul\":7789:7790   */\n      0x04\n        /* \"#utility.yul\":7782:7797   */\n      mstore\n        /* \"#utility.yul\":7816:7820   */\n      0x24\n        /* \"#utility.yul\":7813:7814   */\n      0x00\n        /* \"#utility.yul\":7806:7821   */\n      revert\n        /* \"#utility.yul\":7833:8024   */\n    tag_203:\n        /* \"#utility.yul\":7873:7876   */\n      0x00\n        /* \"#utility.yul\":7892:7912   */\n      tag_539\n        /* \"#utility.yul\":7910:7911   */\n      dup3\n        /* \"#utility.yul\":7892:7912   */\n      tag_412\n      jump\t// in\n    tag_539:\n        /* \"#utility.yul\":7887:7912   */\n      swap2\n      pop\n        /* \"#utility.yul\":7926:7946   */\n      tag_540\n        /* \"#utility.yul\":7944:7945   */\n      dup4\n        /* \"#utility.yul\":7926:7946   */\n      tag_412\n      jump\t// in\n    tag_540:\n        /* \"#utility.yul\":7921:7946   */\n      swap3\n      pop\n        /* \"#utility.yul\":7969:7970   */\n      dup3\n        /* \"#utility.yul\":7966:7967   */\n      dup3\n        /* \"#utility.yul\":7962:7971   */\n      add\n        /* \"#utility.yul\":7955:7971   */\n      swap1\n      pop\n        /* \"#utility.yul\":7990:7993   */\n      dup1\n        /* \"#utility.yul\":7987:7988   */\n      dup3\n        /* \"#utility.yul\":7984:7994   */\n      gt\n        /* \"#utility.yul\":7981:8017   */\n      iszero\n      tag_541\n      jumpi\n        /* \"#utility.yul\":7997:8015   */\n      tag_542\n      tag_420\n      jump\t// in\n    tag_542:\n        /* \"#utility.yul\":7981:8017   */\n    tag_541:\n        /* \"#utility.yul\":7833:8024   */\n      swap3\n      swap2\n      pop\n      pop\n      jump\t// out\n        /* \"#utility.yul\":8030:8224   */\n    tag_206:\n        /* \"#utility.yul\":8070:8074   */\n      0x00\n        /* \"#utility.yul\":8090:8110   */\n      tag_544\n        /* \"#utility.yul\":8108:8109   */\n      dup3\n        /* \"#utility.yul\":8090:8110   */\n      tag_412\n      jump\t// in\n    tag_544:\n        /* \"#utility.yul\":8085:8110   */\n      swap2\n      pop\n        /* \"#utility.yul\":8124:8144   */\n      tag_545\n        /* \"#utility.yul\":8142:8143   */\n      dup4\n        /* \"#utility.yul\":8124:8144   */\n      tag_412\n      jump\t// in\n    tag_545:\n        /* \"#utility.yul\":8119:8144   */\n      swap3\n      pop\n        /* \"#utility.yul\":8168:8169   */\n      dup3\n        /* \"#utility.yul\":8165:8166   */\n      dup3\n        /* \"#utility.yul\":8161:8170   */\n      sub\n        /* \"#utility.yul\":8153:8170   */\n      swap1\n      pop\n        /* \"#utility.yul\":8192:8193   */\n      dup2\n        /* \"#utility.yul\":8186:8190   */\n      dup2\n        /* \"#utility.yul\":8183:8194   */\n      gt\n        /* \"#utility.yul\":8180:8217   */\n      iszero\n      tag_546\n      jumpi\n        /* \"#utility.yul\":8197:8215   */\n      tag_547\n      tag_420\n      jump\t// in\n    tag_547:\n        /* \"#utility.yul\":8180:8217   */\n    tag_546:\n        /* \"#utility.yul\":8030:8224   */\n      swap3\n      swap2\n      pop\n      pop\n      jump\t// out\n        /* \"#utility.yul\":8230:8562   */\n    tag_208:\n        /* \"#utility.yul\":8351:8355   */\n      0x00\n        /* \"#utility.yul\":8389:8391   */\n      0x40\n        /* \"#utility.yul\":8378:8387   */\n      dup3\n        /* \"#utility.yul\":8374:8392   */\n      add\n        /* \"#utility.yul\":8366:8392   */\n      swap1\n      pop\n        /* \"#utility.yul\":8402:8473   */\n      tag_549\n        /* \"#utility.yul\":8470:8471   */\n      0x00\n        /* \"#utility.yul\":8459:8468   */\n      dup4\n        /* \"#utility.yul\":8455:8472   */\n      add\n        /* \"#utility.yul\":8446:8452   */\n      dup6\n        /* \"#utility.yul\":8402:8473   */\n      tag_413\n      jump\t// in\n    tag_549:\n        /* \"#utility.yul\":8483:8555   */\n      tag_550\n        /* \"#utility.yul\":8551:8553   */\n      0x20\n        /* \"#utility.yul\":8540:8549   */\n      dup4\n        /* \"#utility.yul\":8536:8554   */\n      add\n        /* \"#utility.yul\":8527:8533   */\n      dup5\n        /* \"#utility.yul\":8483:8555   */\n      tag_413\n      jump\t// in\n    tag_550:\n        /* \"#utility.yul\":8230:8562   */\n      swap4\n      swap3\n      pop\n      pop\n      pop\n      jump\t// out\n        /* \"#utility.yul\":8568:8707   */\n    tag_421:\n        /* \"#utility.yul\":8623:8628   */\n      0x00\n        /* \"#utility.yul\":8654:8660   */\n      dup2\n        /* \"#utility.yul\":8648:8661   */\n      mload\n        /* \"#utility.yul\":8639:8661   */\n      swap1\n      pop\n        /* \"#utility.yul\":8670:8701   */\n      tag_552\n        /* \"#utility.yul\":8695:8700   */\n      dup2\n        /* \"#utility.yul\":8670:8701   */\n      tag_416\n      jump\t// in\n    tag_552:\n        /* \"#utility.yul\":8568:8707   */\n      swap3\n      swap2\n      pop\n      pop\n      jump\t// out\n        /* \"#utility.yul\":8713:9060   */\n    tag_227:\n        /* \"#utility.yul\":8781:8787   */\n      0x00\n        /* \"#utility.yul\":8830:8832   */\n      0x20\n        /* \"#utility.yul\":8818:8827   */\n      dup3\n        /* \"#utility.yul\":8809:8816   */\n      dup5\n        /* \"#utility.yul\":8805:8828   */\n      sub\n        /* \"#utility.yul\":8801:8833   */\n      slt\n        /* \"#utility.yul\":8798:8917   */\n      iszero\n      tag_554\n      jumpi\n        /* \"#utility.yul\":8836:8915   */\n      tag_555\n      tag_396\n      jump\t// in\n    tag_555:\n        /* \"#utility.yul\":8798:8917   */\n    tag_554:\n        /* \"#utility.yul\":8956:8957   */\n      0x00\n        /* \"#utility.yul\":8981:9043   */\n      tag_556\n        /* \"#utility.yul\":9035:9042   */\n      dup5\n        /* \"#utility.yul\":9026:9032   */\n      dup3\n        /* \"#utility.yul\":9015:9024   */\n      dup6\n        /* \"#utility.yul\":9011:9033   */\n      add\n        /* \"#utility.yul\":8981:9043   */\n      tag_421\n      jump\t// in\n    tag_556:\n        /* \"#utility.yul\":8971:9043   */\n      swap2\n      pop\n        /* \"#utility.yul\":8927:9053   */\n      pop\n        /* \"#utility.yul\":8713:9060   */\n      swap3\n      swap2\n      pop\n      pop\n      jump\t// out\n        /* \"#utility.yul\":9066:9390   */\n    tag_250:\n        /* \"#utility.yul\":9183:9187   */\n      0x00\n        /* \"#utility.yul\":9221:9223   */\n      0x40\n        /* \"#utility.yul\":9210:9219   */\n      dup3\n        /* \"#utility.yul\":9206:9224   */\n      add\n        /* \"#utility.yul\":9198:9224   */\n      swap1\n      pop\n        /* \"#utility.yul\":9234:9305   */\n      tag_558\n        /* \"#utility.yul\":9302:9303   */\n      0x00\n        /* \"#utility.yul\":9291:9300   */\n      dup4\n        /* \"#utility.yul\":9287:9304   */\n      add\n        /* \"#utility.yul\":9278:9284   */\n      dup6\n        /* \"#utility.yul\":9234:9305   */\n      tag_407\n      jump\t// in\n    tag_558:\n        /* \"#utility.yul\":9315:9383   */\n      tag_559\n        /* \"#utility.yul\":9379:9381   */\n      0x20\n        /* \"#utility.yul\":9368:9377   */\n      dup4\n        /* \"#utility.yul\":9364:9382   */\n      add\n        /* \"#utility.yul\":9355:9361   */\n      dup5\n        /* \"#utility.yul\":9315:9383   */\n      tag_415\n      jump\t// in\n    tag_559:\n        /* \"#utility.yul\":9066:9390   */\n      swap4\n      swap3\n      pop\n      pop\n      pop\n      jump\t// out\n        /* \"#utility.yul\":9396:9838   */\n    tag_268:\n        /* \"#utility.yul\":9545:9549   */\n      0x00\n        /* \"#utility.yul\":9583:9585   */\n      0x60\n        /* \"#utility.yul\":9572:9581   */\n      dup3\n        /* \"#utility.yul\":9568:9586   */\n      add\n        /* \"#utility.yul\":9560:9586   */\n      swap1\n      pop\n        /* \"#utility.yul\":9596:9667   */\n      tag_561\n        /* \"#utility.yul\":9664:9665   */\n      0x00\n        /* \"#utility.yul\":9653:9662   */\n      dup4\n        /* \"#utility.yul\":9649:9666   */\n      add\n        /* \"#utility.yul\":9640:9646   */\n      dup7\n        /* \"#utility.yul\":9596:9667   */\n      tag_407\n      jump\t// in\n    tag_561:\n        /* \"#utility.yul\":9677:9749   */\n      tag_562\n        /* \"#utility.yul\":9745:9747   */\n      0x20\n        /* \"#utility.yul\":9734:9743   */\n      dup4\n        /* \"#utility.yul\":9730:9748   */\n      add\n        /* \"#utility.yul\":9721:9727   */\n      dup6\n        /* \"#utility.yul\":9677:9749   */\n      tag_407\n      jump\t// in\n    tag_562:\n        /* \"#utility.yul\":9759:9831   */\n      tag_563\n        /* \"#utility.yul\":9827:9829   */\n      0x40\n        /* \"#utility.yul\":9816:9825   */\n      dup4\n        /* \"#utility.yul\":9812:9830   */\n      add\n        /* \"#utility.yul\":9803:9809   */\n      dup5\n        /* \"#utility.yul\":9759:9831   */\n      tag_413\n      jump\t// in\n    tag_563:\n        /* \"#utility.yul\":9396:9838   */\n      swap5\n      swap4\n      pop\n      pop\n      pop\n      pop\n      jump\t// out\n        /* \"#utility.yul\":9844:9960   */\n    tag_422:\n        /* \"#utility.yul\":9914:9935   */\n      tag_565\n        /* \"#utility.yul\":9929:9934   */\n      dup2\n        /* \"#utility.yul\":9914:9935   */\n      tag_401\n      jump\t// in\n    tag_565:\n        /* \"#utility.yul\":9907:9912   */\n      dup2\n        /* \"#utility.yul\":9904:9936   */\n      eq\n        /* \"#utility.yul\":9894:9954   */\n      tag_566\n      jumpi\n        /* \"#utility.yul\":9950:9951   */\n      0x00\n        /* \"#utility.yul\":9947:9948   */\n      dup1\n        /* \"#utility.yul\":9940:9952   */\n      revert\n        /* \"#utility.yul\":9894:9954   */\n    tag_566:\n        /* \"#utility.yul\":9844:9960   */\n      pop\n      jump\t// out\n        /* \"#utility.yul\":9966:10103   */\n    tag_423:\n        /* \"#utility.yul\":10020:10025   */\n      0x00\n        /* \"#utility.yul\":10051:10057   */\n      dup2\n        /* \"#utility.yul\":10045:10058   */\n      mload\n        /* \"#utility.yul\":10036:10058   */\n      swap1\n      pop\n        /* \"#utility.yul\":10067:10097   */\n      tag_568\n        /* \"#utility.yul\":10091:10096   */\n      dup2\n        /* \"#utility.yul\":10067:10097   */\n      tag_422\n      jump\t// in\n    tag_568:\n        /* \"#utility.yul\":9966:10103   */\n      swap3\n      swap2\n      pop\n      pop\n      jump\t// out\n        /* \"#utility.yul\":10109:10454   */\n    tag_272:\n        /* \"#utility.yul\":10176:10182   */\n      0x00\n        /* \"#utility.yul\":10225:10227   */\n      0x20\n        /* \"#utility.yul\":10213:10222   */\n      dup3\n        /* \"#utility.yul\":10204:10211   */\n      dup5\n        /* \"#utility.yul\":10200:10223   */\n      sub\n        /* \"#utility.yul\":10196:10228   */\n      slt\n        /* \"#utility.yul\":10193:10312   */\n      iszero\n      tag_570\n      jumpi\n        /* \"#utility.yul\":10231:10310   */\n      tag_571\n      tag_396\n      jump\t// in\n    tag_571:\n        /* \"#utility.yul\":10193:10312   */\n    tag_570:\n        /* \"#utility.yul\":10351:10352   */\n      0x00\n        /* \"#utility.yul\":10376:10437   */\n      tag_572\n        /* \"#utility.yul\":10429:10436   */\n      dup5\n        /* \"#utility.yul\":10420:10426   */\n      dup3\n        /* \"#utility.yul\":10409:10418   */\n      dup6\n        /* \"#utility.yul\":10405:10427   */\n      add\n        /* \"#utility.yul\":10376:10437   */\n      tag_423\n      jump\t// in\n    tag_572:\n        /* \"#utility.yul\":10366:10437   */\n      swap2\n      pop\n        /* \"#utility.yul\":10322:10447   */\n      pop\n        /* \"#utility.yul\":10109:10454   */\n      swap3\n      swap2\n      pop\n      pop\n      jump\t// out\n        /* \"#utility.yul\":10460:11013   */\n    tag_295:\n        /* \"#utility.yul\":10637:10641   */\n      0x00\n        /* \"#utility.yul\":10675:10678   */\n      0x80\n        /* \"#utility.yul\":10664:10673   */\n      dup3\n        /* \"#utility.yul\":10660:10679   */\n      add\n        /* \"#utility.yul\":10652:10679   */\n      swap1\n      pop\n        /* \"#utility.yul\":10689:10760   */\n      tag_574\n        /* \"#utility.yul\":10757:10758   */\n      0x00\n        /* \"#utility.yul\":10746:10755   */\n      dup4\n        /* \"#utility.yul\":10742:10759   */\n      add\n        /* \"#utility.yul\":10733:10739   */\n      dup8\n        /* \"#utility.yul\":10689:10760   */\n      tag_407\n      jump\t// in\n    tag_574:\n        /* \"#utility.yul\":10770:10842   */\n      tag_575\n        /* \"#utility.yul\":10838:10840   */\n      0x20\n        /* \"#utility.yul\":10827:10836   */\n      dup4\n        /* \"#utility.yul\":10823:10841   */\n      add\n        /* \"#utility.yul\":10814:10820   */\n      dup7\n        /* \"#utility.yul\":10770:10842   */\n      tag_407\n      jump\t// in\n    tag_575:\n        /* \"#utility.yul\":10852:10924   */\n      tag_576\n        /* \"#utility.yul\":10920:10922   */\n      0x40\n        /* \"#utility.yul\":10909:10918   */\n      dup4\n        /* \"#utility.yul\":10905:10923   */\n      add\n        /* \"#utility.yul\":10896:10902   */\n      dup6\n        /* \"#utility.yul\":10852:10924   */\n      tag_413\n      jump\t// in\n    tag_576:\n        /* \"#utility.yul\":10934:11006   */\n      tag_577\n        /* \"#utility.yul\":11002:11004   */\n      0x60\n        /* \"#utility.yul\":10991:11000   */\n      dup4\n        /* \"#utility.yul\":10987:11005   */\n      add\n        /* \"#utility.yul\":10978:10984   */\n      dup5\n        /* \"#utility.yul\":10934:11006   */\n      tag_413\n      jump\t// in\n    tag_577:\n        /* \"#utility.yul\":10460:11013   */\n      swap6\n      swap5\n      pop\n      pop\n      pop\n      pop\n      pop\n      jump\t// out\n        /* \"#utility.yul\":11019:11166   */\n    tag_424:\n        /* \"#utility.yul\":11120:11131   */\n      0x00\n        /* \"#utility.yul\":11157:11160   */\n      dup2\n        /* \"#utility.yul\":11142:11160   */\n      swap1\n      pop\n        /* \"#utility.yul\":11019:11166   */\n      swap3\n      swap2\n      pop\n      pop\n      jump\t// out\n        /* \"#utility.yul\":11172:11286   */\n    tag_425:\n      pop\n      jump\t// out\n        /* \"#utility.yul\":11292:11690   */\n    tag_426:\n        /* \"#utility.yul\":11451:11454   */\n      0x00\n        /* \"#utility.yul\":11472:11555   */\n      tag_581\n        /* \"#utility.yul\":11553:11554   */\n      0x00\n        /* \"#utility.yul\":11548:11551   */\n      dup4\n        /* \"#utility.yul\":11472:11555   */\n      tag_424\n      jump\t// in\n    tag_581:\n        /* \"#utility.yul\":11465:11555   */\n      swap2\n      pop\n        /* \"#utility.yul\":11564:11657   */\n      tag_582\n        /* \"#utility.yul\":11653:11656   */\n      dup3\n        /* \"#utility.yul\":11564:11657   */\n      tag_425\n      jump\t// in\n    tag_582:\n        /* \"#utility.yul\":11682:11683   */\n      0x00\n        /* \"#utility.yul\":11677:11680   */\n      dup3\n        /* \"#utility.yul\":11673:11684   */\n      add\n        /* \"#utility.yul\":11666:11684   */\n      swap1\n      pop\n        /* \"#utility.yul\":11292:11690   */\n      swap2\n      swap1\n      pop\n      jump\t// out\n        /* \"#utility.yul\":11696:12075   */\n    tag_314:\n        /* \"#utility.yul\":11880:11883   */\n      0x00\n        /* \"#utility.yul\":11902:12049   */\n      tag_584\n        /* \"#utility.yul\":12045:12048   */\n      dup3\n        /* \"#utility.yul\":11902:12049   */\n      tag_426\n      jump\t// in\n    tag_584:\n        /* \"#utility.yul\":11895:12049   */\n      swap2\n      pop\n        /* \"#utility.yul\":12066:12069   */\n      dup2\n        /* \"#utility.yul\":12059:12069   */\n      swap1\n      pop\n        /* \"#utility.yul\":11696:12075   */\n      swap2\n      swap1\n      pop\n      jump\t// out\n        /* \"#utility.yul\":12081:12413   */\n    tag_320:\n        /* \"#utility.yul\":12202:12206   */\n      0x00\n        /* \"#utility.yul\":12240:12242   */\n      0x40\n        /* \"#utility.yul\":12229:12238   */\n      dup3\n        /* \"#utility.yul\":12225:12243   */\n      add\n        /* \"#utility.yul\":12217:12243   */\n      swap1\n      pop\n        /* \"#utility.yul\":12253:12324   */\n      tag_586\n        /* \"#utility.yul\":12321:12322   */\n      0x00\n        /* \"#utility.yul\":12310:12319   */\n      dup4\n        /* \"#utility.yul\":12306:12323   */\n      add\n        /* \"#utility.yul\":12297:12303   */\n      dup6\n        /* \"#utility.yul\":12253:12324   */\n      tag_407\n      jump\t// in\n    tag_586:\n        /* \"#utility.yul\":12334:12406   */\n      tag_587\n        /* \"#utility.yul\":12402:12404   */\n      0x20\n        /* \"#utility.yul\":12391:12400   */\n      dup4\n        /* \"#utility.yul\":12387:12405   */\n      add\n        /* \"#utility.yul\":12378:12384   */\n      dup5\n        /* \"#utility.yul\":12334:12406   */\n      tag_413\n      jump\t// in\n    tag_587:\n        /* \"#utility.yul\":12081:12413   */\n      swap4\n      swap3\n      pop\n      pop\n      pop\n      jump\t// out\n        /* \"#utility.yul\":12419:12524   */\n    tag_427:\n        /* \"#utility.yul\":12455:12462   */\n      0x00\n        /* \"#utility.yul\":12495:12517   */\n      0xffffffffffffffffffff\n        /* \"#utility.yul\":12488:12493   */\n      dup3\n        /* \"#utility.yul\":12484:12518   */\n      and\n        /* \"#utility.yul\":12473:12518   */\n      swap1\n      pop\n        /* \"#utility.yul\":12419:12524   */\n      swap2\n      swap1\n      pop\n      jump\t// out\n        /* \"#utility.yul\":12530:12650   */\n    tag_428:\n        /* \"#utility.yul\":12602:12625   */\n      tag_590\n        /* \"#utility.yul\":12619:12624   */\n      dup2\n        /* \"#utility.yul\":12602:12625   */\n      tag_427\n      jump\t// in\n    tag_590:\n        /* \"#utility.yul\":12595:12600   */\n      dup2\n        /* \"#utility.yul\":12592:12626   */\n      eq\n        /* \"#utility.yul\":12582:12644   */\n      tag_591\n      jumpi\n        /* \"#utility.yul\":12640:12641   */\n      0x00\n        /* \"#utility.yul\":12637:12638   */\n      dup1\n        /* \"#utility.yul\":12630:12642   */\n      revert\n        /* \"#utility.yul\":12582:12644   */\n    tag_591:\n        /* \"#utility.yul\":12530:12650   */\n      pop\n      jump\t// out\n        /* \"#utility.yul\":12656:12797   */\n    tag_429:\n        /* \"#utility.yul\":12712:12717   */\n      0x00\n        /* \"#utility.yul\":12743:12749   */\n      dup2\n        /* \"#utility.yul\":12737:12750   */\n      mload\n        /* \"#utility.yul\":12728:12750   */\n      swap1\n      pop\n        /* \"#utility.yul\":12759:12791   */\n      tag_593\n        /* \"#utility.yul\":12785:12790   */\n      dup2\n        /* \"#utility.yul\":12759:12791   */\n      tag_428\n      jump\t// in\n    tag_593:\n        /* \"#utility.yul\":12656:12797   */\n      swap3\n      swap2\n      pop\n      pop\n      jump\t// out\n        /* \"#utility.yul\":12803:12879   */\n    tag_430:\n        /* \"#utility.yul\":12839:12846   */\n      0x00\n        /* \"#utility.yul\":12868:12873   */\n      dup2\n        /* \"#utility.yul\":12857:12873   */\n      swap1\n      pop\n        /* \"#utility.yul\":12803:12879   */\n      swap2\n      swap1\n      pop\n      jump\t// out\n        /* \"#utility.yul\":12885:13005   */\n    tag_431:\n        /* \"#utility.yul\":12957:12980   */\n      tag_596\n        /* \"#utility.yul\":12974:12979   */\n      dup2\n        /* \"#utility.yul\":12957:12980   */\n      tag_430\n      jump\t// in\n    tag_596:\n        /* \"#utility.yul\":12950:12955   */\n      dup2\n        /* \"#utility.yul\":12947:12981   */\n      eq\n        /* \"#utility.yul\":12937:12999   */\n      tag_597\n      jumpi\n        /* \"#utility.yul\":12995:12996   */\n      0x00\n        /* \"#utility.yul\":12992:12993   */\n      dup1\n        /* \"#utility.yul\":12985:12997   */\n      revert\n        /* \"#utility.yul\":12937:12999   */\n    tag_597:\n        /* \"#utility.yul\":12885:13005   */\n      pop\n      jump\t// out\n        /* \"#utility.yul\":13011:13152   */\n    tag_432:\n        /* \"#utility.yul\":13067:13072   */\n      0x00\n        /* \"#utility.yul\":13098:13104   */\n      dup2\n        /* \"#utility.yul\":13092:13105   */\n      mload\n        /* \"#utility.yul\":13083:13105   */\n      swap1\n      pop\n        /* \"#utility.yul\":13114:13146   */\n      tag_599\n        /* \"#utility.yul\":13140:13145   */\n      dup2\n        /* \"#utility.yul\":13114:13146   */\n      tag_431\n      jump\t// in\n    tag_599:\n        /* \"#utility.yul\":13011:13152   */\n      swap3\n      swap2\n      pop\n      pop\n      jump\t// out\n        /* \"#utility.yul\":13158:13301   */\n    tag_433:\n        /* \"#utility.yul\":13215:13220   */\n      0x00\n        /* \"#utility.yul\":13246:13252   */\n      dup2\n        /* \"#utility.yul\":13240:13253   */\n      mload\n        /* \"#utility.yul\":13231:13253   */\n      swap1\n      pop\n        /* \"#utility.yul\":13262:13295   */\n      tag_601\n        /* \"#utility.yul\":13289:13294   */\n      dup2\n        /* \"#utility.yul\":13262:13295   */\n      tag_418\n      jump\t// in\n    tag_601:\n        /* \"#utility.yul\":13158:13301   */\n      swap3\n      swap2\n      pop\n      pop\n      jump\t// out\n        /* \"#utility.yul\":13307:14278   */\n    tag_349:\n        /* \"#utility.yul\":13410:13416   */\n      0x00\n        /* \"#utility.yul\":13418:13424   */\n      dup1\n        /* \"#utility.yul\":13426:13432   */\n      0x00\n        /* \"#utility.yul\":13434:13440   */\n      dup1\n        /* \"#utility.yul\":13442:13448   */\n      0x00\n        /* \"#utility.yul\":13491:13494   */\n      0xa0\n        /* \"#utility.yul\":13479:13488   */\n      dup7\n        /* \"#utility.yul\":13470:13477   */\n      dup9\n        /* \"#utility.yul\":13466:13489   */\n      sub\n        /* \"#utility.yul\":13462:13495   */\n      slt\n        /* \"#utility.yul\":13459:13579   */\n      iszero\n      tag_603\n      jumpi\n        /* \"#utility.yul\":13498:13577   */\n      tag_604\n      tag_396\n      jump\t// in\n    tag_604:\n        /* \"#utility.yul\":13459:13579   */\n    tag_603:\n        /* \"#utility.yul\":13618:13619   */\n      0x00\n        /* \"#utility.yul\":13643:13706   */\n      tag_605\n        /* \"#utility.yul\":13698:13705   */\n      dup9\n        /* \"#utility.yul\":13689:13695   */\n      dup3\n        /* \"#utility.yul\":13678:13687   */\n      dup10\n        /* \"#utility.yul\":13674:13696   */\n      add\n        /* \"#utility.yul\":13643:13706   */\n      tag_429\n      jump\t// in\n    tag_605:\n        /* \"#utility.yul\":13633:13706   */\n      swap6\n      pop\n        /* \"#utility.yul\":13589:13716   */\n      pop\n        /* \"#utility.yul\":13755:13757   */\n      0x20\n        /* \"#utility.yul\":13781:13844   */\n      tag_606\n        /* \"#utility.yul\":13836:13843   */\n      dup9\n        /* \"#utility.yul\":13827:13833   */\n      dup3\n        /* \"#utility.yul\":13816:13825   */\n      dup10\n        /* \"#utility.yul\":13812:13834   */\n      add\n        /* \"#utility.yul\":13781:13844   */\n      tag_432\n      jump\t// in\n    tag_606:\n        /* \"#utility.yul\":13771:13844   */\n      swap5\n      pop\n        /* \"#utility.yul\":13726:13854   */\n      pop\n        /* \"#utility.yul\":13893:13895   */\n      0x40\n        /* \"#utility.yul\":13919:13983   */\n      tag_607\n        /* \"#utility.yul\":13975:13982   */\n      dup9\n        /* \"#utility.yul\":13966:13972   */\n      dup3\n        /* \"#utility.yul\":13955:13964   */\n      dup10\n        /* \"#utility.yul\":13951:13973   */\n      add\n        /* \"#utility.yul\":13919:13983   */\n      tag_433\n      jump\t// in\n    tag_607:\n        /* \"#utility.yul\":13909:13983   */\n      swap4\n      pop\n        /* \"#utility.yul\":13864:13993   */\n      pop\n        /* \"#utility.yul\":14032:14034   */\n      0x60\n        /* \"#utility.yul\":14058:14122   */\n      tag_608\n        /* \"#utility.yul\":14114:14121   */\n      dup9\n        /* \"#utility.yul\":14105:14111   */\n      dup3\n        /* \"#utility.yul\":14094:14103   */\n      dup10\n        /* \"#utility.yul\":14090:14112   */\n      add\n        /* \"#utility.yul\":14058:14122   */\n      tag_433\n      jump\t// in\n    tag_608:\n        /* \"#utility.yul\":14048:14122   */\n      swap3\n      pop\n        /* \"#utility.yul\":14003:14132   */\n      pop\n        /* \"#utility.yul\":14171:14174   */\n      0x80\n        /* \"#utility.yul\":14198:14261   */\n      tag_609\n        /* \"#utility.yul\":14253:14260   */\n      dup9\n        /* \"#utility.yul\":14244:14250   */\n      dup3\n        /* \"#utility.yul\":14233:14242   */\n      dup10\n        /* \"#utility.yul\":14229:14251   */\n      add\n        /* \"#utility.yul\":14198:14261   */\n      tag_429\n      jump\t// in\n    tag_609:\n        /* \"#utility.yul\":14188:14261   */\n      swap2\n      pop\n        /* \"#utility.yul\":14142:14271   */\n      pop\n        /* \"#utility.yul\":13307:14278   */\n      swap3\n      swap6\n      pop\n      swap3\n      swap6\n      swap1\n      swap4\n      pop\n      jump\t// out\n        /* \"#utility.yul\":14284:14453   */\n    tag_434:\n        /* \"#utility.yul\":14368:14379   */\n      0x00\n        /* \"#utility.yul\":14402:14408   */\n      dup3\n        /* \"#utility.yul\":14397:14400   */\n      dup3\n        /* \"#utility.yul\":14390:14409   */\n      mstore\n        /* \"#utility.yul\":14442:14446   */\n      0x20\n        /* \"#utility.yul\":14437:14440   */\n      dup3\n        /* \"#utility.yul\":14433:14447   */\n      add\n        /* \"#utility.yul\":14418:14447   */\n      swap1\n      pop\n        /* \"#utility.yul\":14284:14453   */\n      swap3\n      swap2\n      pop\n      pop\n      jump\t// out\n        /* \"#utility.yul\":14459:14627   */\n    tag_435:\n        /* \"#utility.yul\":14599:14619   */\n      0x5072696365206665656420696e76616c69640000000000000000000000000000\n        /* \"#utility.yul\":14595:14596   */\n      0x00\n        /* \"#utility.yul\":14587:14593   */\n      dup3\n        /* \"#utility.yul\":14583:14597   */\n      add\n        /* \"#utility.yul\":14576:14620   */\n      mstore\n        /* \"#utility.yul\":14459:14627   */\n      pop\n      jump\t// out\n        /* \"#utility.yul\":14633:14999   */\n    tag_436:\n        /* \"#utility.yul\":14775:14778   */\n      0x00\n        /* \"#utility.yul\":14796:14863   */\n      tag_613\n        /* \"#utility.yul\":14860:14862   */\n      0x12\n        /* \"#utility.yul\":14855:14858   */\n      dup4\n        /* \"#utility.yul\":14796:14863   */\n      tag_434\n      jump\t// in\n    tag_613:\n        /* \"#utility.yul\":14789:14863   */\n      swap2\n      pop\n        /* \"#utility.yul\":14872:14965   */\n      tag_614\n        /* \"#utility.yul\":14961:14964   */\n      dup3\n        /* \"#utility.yul\":14872:14965   */\n      tag_435\n      jump\t// in\n    tag_614:\n        /* \"#utility.yul\":14990:14992   */\n      0x20\n        /* \"#utility.yul\":14985:14988   */\n      dup3\n        /* \"#utility.yul\":14981:14993   */\n      add\n        /* \"#utility.yul\":14974:14993   */\n      swap1\n      pop\n        /* \"#utility.yul\":14633:14999   */\n      swap2\n      swap1\n      pop\n      jump\t// out\n        /* \"#utility.yul\":15005:15424   */\n    tag_352:\n        /* \"#utility.yul\":15171:15175   */\n      0x00\n        /* \"#utility.yul\":15209:15211   */\n      0x20\n        /* \"#utility.yul\":15198:15207   */\n      dup3\n        /* \"#utility.yul\":15194:15212   */\n      add\n        /* \"#utility.yul\":15186:15212   */\n      swap1\n      pop\n        /* \"#utility.yul\":15258:15267   */\n      dup2\n        /* \"#utility.yul\":15252:15256   */\n      dup2\n        /* \"#utility.yul\":15248:15268   */\n      sub\n        /* \"#utility.yul\":15244:15245   */\n      0x00\n        /* \"#utility.yul\":15233:15242   */\n      dup4\n        /* \"#utility.yul\":15229:15246   */\n      add\n        /* \"#utility.yul\":15222:15269   */\n      mstore\n        /* \"#utility.yul\":15286:15417   */\n      tag_616\n        /* \"#utility.yul\":15412:15416   */\n      dup2\n        /* \"#utility.yul\":15286:15417   */\n      tag_436\n      jump\t// in\n    tag_616:\n        /* \"#utility.yul\":15278:15417   */\n      swap1\n      pop\n        /* \"#utility.yul\":15005:15424   */\n      swap2\n      swap1\n      pop\n      jump\t// out\n        /* \"#utility.yul\":15430:15840   */\n    tag_354:\n        /* \"#utility.yul\":15470:15477   */\n      0x00\n        /* \"#utility.yul\":15493:15513   */\n      tag_618\n        /* \"#utility.yul\":15511:15512   */\n      dup3\n        /* \"#utility.yul\":15493:15513   */\n      tag_412\n      jump\t// in\n    tag_618:\n        /* \"#utility.yul\":15488:15513   */\n      swap2\n      pop\n        /* \"#utility.yul\":15527:15547   */\n      tag_619\n        /* \"#utility.yul\":15545:15546   */\n      dup4\n        /* \"#utility.yul\":15527:15547   */\n      tag_412\n      jump\t// in\n    tag_619:\n        /* \"#utility.yul\":15522:15547   */\n      swap3\n      pop\n        /* \"#utility.yul\":15582:15583   */\n      dup3\n        /* \"#utility.yul\":15579:15580   */\n      dup3\n        /* \"#utility.yul\":15575:15584   */\n      mul\n        /* \"#utility.yul\":15604:15634   */\n      tag_620\n        /* \"#utility.yul\":15622:15633   */\n      dup2\n        /* \"#utility.yul\":15604:15634   */\n      tag_412\n      jump\t// in\n    tag_620:\n        /* \"#utility.yul\":15593:15634   */\n      swap2\n      pop\n        /* \"#utility.yul\":15783:15784   */\n      dup3\n        /* \"#utility.yul\":15774:15781   */\n      dup3\n        /* \"#utility.yul\":15770:15785   */\n      div\n        /* \"#utility.yul\":15767:15768   */\n      dup5\n        /* \"#utility.yul\":15764:15786   */\n      eq\n        /* \"#utility.yul\":15744:15745   */\n      dup4\n        /* \"#utility.yul\":15737:15746   */\n      iszero\n        /* \"#utility.yul\":15717:15800   */\n      or\n        /* \"#utility.yul\":15694:15833   */\n      tag_621\n      jumpi\n        /* \"#utility.yul\":15813:15831   */\n      tag_622\n      tag_420\n      jump\t// in\n    tag_622:\n        /* \"#utility.yul\":15694:15833   */\n    tag_621:\n        /* \"#utility.yul\":15478:15840   */\n      pop\n        /* \"#utility.yul\":15430:15840   */\n      swap3\n      swap2\n      pop\n      pop\n      jump\t// out\n        /* \"#utility.yul\":15846:15948   */\n    tag_437:\n        /* \"#utility.yul\":15888:15896   */\n      0x00\n        /* \"#utility.yul\":15935:15940   */\n      dup2\n        /* \"#utility.yul\":15932:15933   */\n      0x01\n        /* \"#utility.yul\":15928:15941   */\n      shr\n        /* \"#utility.yul\":15907:15941   */\n      swap1\n      pop\n        /* \"#utility.yul\":15846:15948   */\n      swap2\n      swap1\n      pop\n      jump\t// out\n        /* \"#utility.yul\":15954:16802   */\n    tag_438:\n        /* \"#utility.yul\":16015:16020   */\n      0x00\n        /* \"#utility.yul\":16022:16026   */\n      dup1\n        /* \"#utility.yul\":16046:16052   */\n      dup3\n        /* \"#utility.yul\":16037:16052   */\n      swap2\n      pop\n        /* \"#utility.yul\":16070:16075   */\n      dup4\n        /* \"#utility.yul\":16061:16075   */\n      swap1\n      pop\n        /* \"#utility.yul\":16084:16796   */\n    tag_625:\n        /* \"#utility.yul\":16105:16106   */\n      0x01\n        /* \"#utility.yul\":16095:16103   */\n      dup6\n        /* \"#utility.yul\":16092:16107   */\n      gt\n        /* \"#utility.yul\":16084:16796   */\n      iszero\n      tag_627\n      jumpi\n        /* \"#utility.yul\":16200:16204   */\n      dup1\n        /* \"#utility.yul\":16195:16198   */\n      dup7\n        /* \"#utility.yul\":16191:16205   */\n      div\n        /* \"#utility.yul\":16185:16189   */\n      dup2\n        /* \"#utility.yul\":16182:16206   */\n      gt\n        /* \"#utility.yul\":16179:16229   */\n      iszero\n      tag_628\n      jumpi\n        /* \"#utility.yul\":16209:16227   */\n      tag_629\n      tag_420\n      jump\t// in\n    tag_629:\n        /* \"#utility.yul\":16179:16229   */\n    tag_628:\n        /* \"#utility.yul\":16259:16260   */\n      0x01\n        /* \"#utility.yul\":16249:16257   */\n      dup6\n        /* \"#utility.yul\":16245:16261   */\n      and\n        /* \"#utility.yul\":16242:16693   */\n      iszero\n      tag_630\n      jumpi\n        /* \"#utility.yul\":16674:16678   */\n      dup1\n        /* \"#utility.yul\":16667:16672   */\n      dup3\n        /* \"#utility.yul\":16663:16679   */\n      mul\n        /* \"#utility.yul\":16654:16679   */\n      swap2\n      pop\n        /* \"#utility.yul\":16242:16693   */\n    tag_630:\n        /* \"#utility.yul\":16724:16728   */\n      dup1\n        /* \"#utility.yul\":16718:16722   */\n      dup2\n        /* \"#utility.yul\":16714:16729   */\n      mul\n        /* \"#utility.yul\":16706:16729   */\n      swap1\n      pop\n        /* \"#utility.yul\":16754:16786   */\n      tag_631\n        /* \"#utility.yul\":16777:16785   */\n      dup6\n        /* \"#utility.yul\":16754:16786   */\n      tag_437\n      jump\t// in\n    tag_631:\n        /* \"#utility.yul\":16742:16786   */\n      swap5\n      pop\n        /* \"#utility.yul\":16084:16796   */\n      jump(tag_625)\n    tag_627:\n        /* \"#utility.yul\":15954:16802   */\n      swap5\n      pop\n      swap5\n      swap3\n      pop\n      pop\n      pop\n      jump\t// out\n        /* \"#utility.yul\":16808:17881   */\n    tag_439:\n        /* \"#utility.yul\":16862:16867   */\n      0x00\n        /* \"#utility.yul\":17053:17061   */\n      dup3\n        /* \"#utility.yul\":17043:17083   */\n      tag_633\n      jumpi\n        /* \"#utility.yul\":17074:17075   */\n      0x01\n        /* \"#utility.yul\":17065:17075   */\n      swap1\n      pop\n        /* \"#utility.yul\":17076:17081   */\n      jump(tag_632)\n        /* \"#utility.yul\":17043:17083   */\n    tag_633:\n        /* \"#utility.yul\":17102:17106   */\n      dup2\n        /* \"#utility.yul\":17092:17128   */\n      tag_634\n      jumpi\n        /* \"#utility.yul\":17119:17120   */\n      0x00\n        /* \"#utility.yul\":17110:17120   */\n      swap1\n      pop\n        /* \"#utility.yul\":17121:17126   */\n      jump(tag_632)\n        /* \"#utility.yul\":17092:17128   */\n    tag_634:\n        /* \"#utility.yul\":17188:17192   */\n      dup2\n        /* \"#utility.yul\":17236:17237   */\n      0x01\n        /* \"#utility.yul\":17231:17258   */\n      dup2\n      eq\n      tag_636\n      jumpi\n        /* \"#utility.yul\":17272:17273   */\n      0x02\n        /* \"#utility.yul\":17267:17458   */\n      dup2\n      eq\n      tag_637\n      jumpi\n        /* \"#utility.yul\":17181:17458   */\n      jump(tag_635)\n        /* \"#utility.yul\":17231:17258   */\n    tag_636:\n        /* \"#utility.yul\":17249:17250   */\n      0x01\n        /* \"#utility.yul\":17240:17250   */\n      swap2\n      pop\n        /* \"#utility.yul\":17251:17256   */\n      pop\n      jump(tag_632)\n        /* \"#utility.yul\":17267:17458   */\n    tag_637:\n        /* \"#utility.yul\":17312:17315   */\n      0xff\n        /* \"#utility.yul\":17302:17310   */\n      dup5\n        /* \"#utility.yul\":17299:17316   */\n      gt\n        /* \"#utility.yul\":17296:17339   */\n      iszero\n      tag_638\n      jumpi\n        /* \"#utility.yul\":17319:17337   */\n      tag_639\n      tag_420\n      jump\t// in\n    tag_639:\n        /* \"#utility.yul\":17296:17339   */\n    tag_638:\n        /* \"#utility.yul\":17368:17376   */\n      dup4\n        /* \"#utility.yul\":17365:17366   */\n      0x02\n        /* \"#utility.yul\":17361:17377   */\n      exp\n        /* \"#utility.yul\":17352:17377   */\n      swap2\n      pop\n        /* \"#utility.yul\":17403:17406   */\n      dup5\n        /* \"#utility.yul\":17396:17401   */\n      dup3\n        /* \"#utility.yul\":17393:17407   */\n      gt\n        /* \"#utility.yul\":17390:17430   */\n      iszero\n      tag_640\n      jumpi\n        /* \"#utility.yul\":17410:17428   */\n      tag_641\n      tag_420\n      jump\t// in\n    tag_641:\n        /* \"#utility.yul\":17390:17430   */\n    tag_640:\n        /* \"#utility.yul\":17443:17448   */\n      pop\n      jump(tag_632)\n        /* \"#utility.yul\":17181:17458   */\n    tag_635:\n      pop\n        /* \"#utility.yul\":17567:17569   */\n      0x20\n        /* \"#utility.yul\":17557:17565   */\n      dup4\n        /* \"#utility.yul\":17554:17570   */\n      lt\n        /* \"#utility.yul\":17548:17551   */\n      0x0133\n        /* \"#utility.yul\":17542:17546   */\n      dup4\n        /* \"#utility.yul\":17539:17552   */\n      lt\n        /* \"#utility.yul\":17535:17571   */\n      and\n        /* \"#utility.yul\":17517:17519   */\n      0x4e\n        /* \"#utility.yul\":17507:17515   */\n      dup5\n        /* \"#utility.yul\":17504:17520   */\n      lt\n        /* \"#utility.yul\":17499:17501   */\n      0x0b\n        /* \"#utility.yul\":17493:17497   */\n      dup5\n        /* \"#utility.yul\":17490:17502   */\n      lt\n        /* \"#utility.yul\":17486:17521   */\n      and\n        /* \"#utility.yul\":17470:17581   */\n      or\n        /* \"#utility.yul\":17467:17713   */\n      iszero\n      tag_642\n      jumpi\n        /* \"#utility.yul\":17623:17631   */\n      dup3\n        /* \"#utility.yul\":17617:17621   */\n      dup3\n        /* \"#utility.yul\":17613:17632   */\n      exp\n        /* \"#utility.yul\":17604:17632   */\n      swap1\n      pop\n        /* \"#utility.yul\":17658:17661   */\n      dup4\n        /* \"#utility.yul\":17651:17656   */\n      dup2\n        /* \"#utility.yul\":17648:17662   */\n      gt\n        /* \"#utility.yul\":17645:17685   */\n      iszero\n      tag_643\n      jumpi\n        /* \"#utility.yul\":17665:17683   */\n      tag_644\n      tag_420\n      jump\t// in\n    tag_644:\n        /* \"#utility.yul\":17645:17685   */\n    tag_643:\n        /* \"#utility.yul\":17698:17703   */\n      jump(tag_632)\n        /* \"#utility.yul\":17467:17713   */\n    tag_642:\n        /* \"#utility.yul\":17738:17780   */\n      tag_645\n        /* \"#utility.yul\":17776:17779   */\n      dup5\n        /* \"#utility.yul\":17766:17774   */\n      dup5\n        /* \"#utility.yul\":17760:17764   */\n      dup5\n        /* \"#utility.yul\":17757:17758   */\n      0x01\n        /* \"#utility.yul\":17738:17780   */\n      tag_438\n      jump\t// in\n    tag_645:\n        /* \"#utility.yul\":17723:17780   */\n      swap3\n      pop\n      swap1\n      pop\n        /* \"#utility.yul\":17812:17816   */\n      dup2\n        /* \"#utility.yul\":17807:17810   */\n      dup5\n        /* \"#utility.yul\":17803:17817   */\n      div\n        /* \"#utility.yul\":17796:17801   */\n      dup2\n        /* \"#utility.yul\":17793:17818   */\n      gt\n        /* \"#utility.yul\":17790:17841   */\n      iszero\n      tag_646\n      jumpi\n        /* \"#utility.yul\":17821:17839   */\n      tag_647\n      tag_420\n      jump\t// in\n    tag_647:\n        /* \"#utility.yul\":17790:17841   */\n    tag_646:\n        /* \"#utility.yul\":17870:17874   */\n      dup2\n        /* \"#utility.yul\":17863:17868   */\n      dup2\n        /* \"#utility.yul\":17859:17875   */\n      mul\n        /* \"#utility.yul\":17850:17875   */\n      swap1\n      pop\n        /* \"#utility.yul\":16808:17881   */\n    tag_632:\n      swap4\n      swap3\n      pop\n      pop\n      pop\n      jump\t// out\n        /* \"#utility.yul\":17887:18168   */\n    tag_356:\n        /* \"#utility.yul\":17945:17950   */\n      0x00\n        /* \"#utility.yul\":17969:17992   */\n      tag_649\n        /* \"#utility.yul\":17987:17991   */\n      dup3\n        /* \"#utility.yul\":17969:17992   */\n      tag_412\n      jump\t// in\n    tag_649:\n        /* \"#utility.yul\":17961:17992   */\n      swap2\n      pop\n        /* \"#utility.yul\":18013:18038   */\n      tag_650\n        /* \"#utility.yul\":18029:18037   */\n      dup4\n        /* \"#utility.yul\":18013:18038   */\n      tag_414\n      jump\t// in\n    tag_650:\n        /* \"#utility.yul\":18001:18038   */\n      swap3\n      pop\n        /* \"#utility.yul\":18057:18161   */\n      tag_651\n        /* \"#utility.yul\":18094:18160   */\n      0xffffffffffffffffffffffffffffffffffffffffffffffffffffffffffffffff\n        /* \"#utility.yul\":18084:18092   */\n      dup5\n        /* \"#utility.yul\":18078:18082   */\n      dup5\n        /* \"#utility.yul\":18057:18161   */\n      tag_439\n      jump\t// in\n    tag_651:\n        /* \"#utility.yul\":18048:18161   */\n      swap1\n      pop\n        /* \"#utility.yul\":17887:18168   */\n      swap3\n      swap2\n      pop\n      pop\n      jump\t// out\n        /* \"#utility.yul\":18174:18354   */\n    tag_440:\n        /* \"#utility.yul\":18222:18299   */\n      0x4e487b7100000000000000000000000000000000000000000000000000000000\n        /* \"#utility.yul\":18219:18220   */\n      0x00\n        /* \"#utility.yul\":18212:18300   */\n      mstore\n        /* \"#utility.yul\":18319:18323   */\n      0x12\n        /* \"#utility.yul\":18316:18317   */\n      0x04\n        /* \"#utility.yul\":18309:18324   */\n      mstore\n        /* \"#utility.yul\":18343:18347   */\n      0x24\n        /* \"#utility.yul\":18340:18341   */\n      0x00\n        /* \"#utility.yul\":18333:18348   */\n      revert\n        /* \"#utility.yul\":18360:18545   */\n    tag_358:\n        /* \"#utility.yul\":18400:18401   */\n      0x00\n        /* \"#utility.yul\":18417:18437   */\n      tag_654\n        /* \"#utility.yul\":18435:18436   */\n      dup3\n        /* \"#utility.yul\":18417:18437   */\n      tag_412\n      jump\t// in\n    tag_654:\n        /* \"#utility.yul\":18412:18437   */\n      swap2\n      pop\n        /* \"#utility.yul\":18451:18471   */\n      tag_655\n        /* \"#utility.yul\":18469:18470   */\n      dup4\n        /* \"#utility.yul\":18451:18471   */\n      tag_412\n      jump\t// in\n    tag_655:\n        /* \"#utility.yul\":18446:18471   */\n      swap3\n      pop\n        /* \"#utility.yul\":18490:18491   */\n      dup3\n        /* \"#utility.yul\":18480:18515   */\n      tag_656\n      jumpi\n        /* \"#utility.yul\":18495:18513   */\n      tag_657\n      tag_440\n      jump\t// in\n    tag_657:\n        /* \"#utility.yul\":18480:18515   */\n    tag_656:\n        /* \"#utility.yul\":18537:18538   */\n      dup3\n        /* \"#utility.yul\":18534:18535   */\n      dup3\n        /* \"#utility.yul\":18530:18539   */\n      div\n        /* \"#utility.yul\":18525:18539   */\n      swap1\n      pop\n        /* \"#utility.yul\":18360:18545   */\n      swap3\n      swap2\n      pop\n      pop\n      jump\t// out\n        /* \"#utility.yul\":18551:18742   */\n    tag_361:\n        /* \"#utility.yul\":18589:18593   */\n      0x00\n        /* \"#utility.yul\":18609:18627   */\n      tag_659\n        /* \"#utility.yul\":18625:18626   */\n      dup3\n        /* \"#utility.yul\":18609:18627   */\n      tag_414\n      jump\t// in\n    tag_659:\n        /* \"#utility.yul\":18604:18627   */\n      swap2\n      pop\n        /* \"#utility.yul\":18641:18659   */\n      tag_660\n        /* \"#utility.yul\":18657:18658   */\n      dup4\n        /* \"#utility.yul\":18641:18659   */\n      tag_414\n      jump\t// in\n    tag_660:\n        /* \"#utility.yul\":18636:18659   */\n      swap3\n      pop\n        /* \"#utility.yul\":18683:18684   */\n      dup3\n        /* \"#utility.yul\":18680:18681   */\n      dup3\n        /* \"#utility.yul\":18676:18685   */\n      sub\n        /* \"#utility.yul\":18668:18685   */\n      swap1\n      pop\n        /* \"#utility.yul\":18707:18711   */\n      0xff\n        /* \"#utility.yul\":18701:18705   */\n      dup2\n        /* \"#utility.yul\":18698:18712   */\n      gt\n        /* \"#utility.yul\":18695:18735   */\n      iszero\n      tag_661\n      jumpi\n        /* \"#utility.yul\":18715:18733   */\n      tag_662\n      tag_420\n      jump\t// in\n    tag_662:\n        /* \"#utility.yul\":18695:18735   */\n    tag_661:\n        /* \"#utility.yul\":18551:18742   */\n      swap3\n      swap2\n      pop\n      pop\n      jump\t// out\n        /* \"#utility.yul\":18748:19033   */\n    tag_363:\n        /* \"#utility.yul\":18808:18813   */\n      0x00\n        /* \"#utility.yul\":18832:18855   */\n      tag_664\n        /* \"#utility.yul\":18850:18854   */\n      dup3\n        /* \"#utility.yul\":18832:18855   */\n      tag_412\n      jump\t// in\n    tag_664:\n        /* \"#utility.yul\":18824:18855   */\n      swap2\n      pop\n        /* \"#utility.yul\":18876:18903   */\n      tag_665\n        /* \"#utility.yul\":18894:18902   */\n      dup4\n        /* \"#utility.yul\":18876:18903   */\n      tag_412\n      jump\t// in\n    tag_665:\n        /* \"#utility.yul\":18864:18903   */\n      swap3\n      pop\n        /* \"#utility.yul\":18922:19026   */\n      tag_666\n        /* \"#utility.yul\":18959:19025   */\n      0xffffffffffffffffffffffffffffffffffffffffffffffffffffffffffffffff\n        /* \"#utility.yul\":18949:18957   */\n      dup5\n        /* \"#utility.yul\":18943:18947   */\n      dup5\n        /* \"#utility.yul\":18922:19026   */\n      tag_439\n      jump\t// in\n    tag_666:\n        /* \"#utility.yul\":18913:19026   */\n      swap1\n      pop\n        /* \"#utility.yul\":18748:19033   */\n      swap3\n      swap2\n      pop\n      pop\n      jump\t// out\n        /* \"#utility.yul\":19039:19220   */\n    tag_441:\n        /* \"#utility.yul\":19179:19212   */\n      0x5265656e7472616e637947756172643a207265656e7472616e742063616c6c00\n        /* \"#utility.yul\":19175:19176   */\n      0x00\n        /* \"#utility.yul\":19167:19173   */\n      dup3\n        /* \"#utility.yul\":19163:19177   */\n      add\n        /* \"#utility.yul\":19156:19213   */\n      mstore\n        /* \"#utility.yul\":19039:19220   */\n      pop\n      jump\t// out\n        /* \"#utility.yul\":19226:19592   */\n    tag_442:\n        /* \"#utility.yul\":19368:19371   */\n      0x00\n        /* \"#utility.yul\":19389:19456   */\n      tag_669\n        /* \"#utility.yul\":19453:19455   */\n      0x1f\n        /* \"#utility.yul\":19448:19451   */\n      dup4\n        /* \"#utility.yul\":19389:19456   */\n      tag_434\n      jump\t// in\n    tag_669:\n        /* \"#utility.yul\":19382:19456   */\n      swap2\n      pop\n        /* \"#utility.yul\":19465:19558   */\n      tag_670\n        /* \"#utility.yul\":19554:19557   */\n      dup3\n        /* \"#utility.yul\":19465:19558   */\n      tag_441\n      jump\t// in\n    tag_670:\n        /* \"#utility.yul\":19583:19585   */\n      0x20\n        /* \"#utility.yul\":19578:19581   */\n      dup3\n        /* \"#utility.yul\":19574:19586   */\n      add\n        /* \"#utility.yul\":19567:19586   */\n      swap1\n      pop\n        /* \"#utility.yul\":19226:19592   */\n      swap2\n      swap1\n      pop\n      jump\t// out\n        /* \"#utility.yul\":19598:20017   */\n    tag_388:\n        /* \"#utility.yul\":19764:19768   */\n      0x00\n        /* \"#utility.yul\":19802:19804   */\n      0x20\n        /* \"#utility.yul\":19791:19800   */\n      dup3\n        /* \"#utility.yul\":19787:19805   */\n      add\n        /* \"#utility.yul\":19779:19805   */\n      swap1\n      pop\n        /* \"#utility.yul\":19851:19860   */\n      dup2\n        /* \"#utility.yul\":19845:19849   */\n      dup2\n        /* \"#utility.yul\":19841:19861   */\n      sub\n        /* \"#utility.yul\":19837:19838   */\n      0x00\n        /* \"#utility.yul\":19826:19835   */\n      dup4\n        /* \"#utility.yul\":19822:19839   */\n      add\n        /* \"#utility.yul\":19815:19862   */\n      mstore\n        /* \"#utility.yul\":19879:20010   */\n      tag_672\n        /* \"#utility.yul\":20005:20009   */\n      dup2\n        /* \"#utility.yul\":19879:20010   */\n      tag_442\n      jump\t// in\n    tag_672:\n        /* \"#utility.yul\":19871:20010   */\n      swap1\n      pop\n        /* \"#utility.yul\":19598:20017   */\n      swap2\n      swap1\n      pop\n      jump\t// out\n        /* \"#utility.yul\":20023:20355   */\n    tag_394:\n        /* \"#utility.yul\":20144:20148   */\n      0x00\n        /* \"#utility.yul\":20182:20184   */\n      0x40\n        /* \"#utility.yul\":20171:20180   */\n      dup3\n        /* \"#utility.yul\":20167:20185   */\n      add\n        /* \"#utility.yul\":20159:20185   */\n      swap1\n      pop\n        /* \"#utility.yul\":20195:20266   */\n      tag_674\n        /* \"#utility.yul\":20263:20264   */\n      0x00\n        /* \"#utility.yul\":20252:20261   */\n      dup4\n        /* \"#utility.yul\":20248:20265   */\n      add\n        /* \"#utility.yul\":20239:20245   */\n      dup6\n        /* \"#utility.yul\":20195:20266   */\n      tag_407\n      jump\t// in\n    tag_674:\n        /* \"#utility.yul\":20276:20348   */\n      tag_675\n        /* \"#utility.yul\":20344:20346   */\n      0x20\n        /* \"#utility.yul\":20333:20342   */\n      dup4\n        /* \"#utility.yul\":20329:20347   */\n      add\n        /* \"#utility.yul\":20320:20326   */\n      dup5\n        /* \"#utility.yul\":20276:20348   */\n      tag_411\n      jump\t// in\n    tag_675:\n        /* \"#utility.yul\":20023:20355   */\n      swap4\n      swap3\n      pop\n      pop\n      pop\n      jump\t// out\n\n    auxdata: 0xa2646970667358221220cfe9fd2933e507937ddbe26cdb67c48ab11c6967f6070fa416b7cb48ef4517f264736f6c634300081a0033\n}\n",
				"bytecode": {
					"linkReferences": {},
					"object": "60c060405234801561000f575f80fd5b506040516133b13803806133b18339818101604052810190610031919061032c565b600180819055505f73ffffffffffffffffffffffffffffffffffffffff168173ffffffffffffffffffffffffffffffffffffffff160361009d576040517f22179f7800000000000000000000000000000000000000000000000000000000815260040160405180910390fd5b82608081815250508160a081815250506100bf5f801b8261013c60201b60201c565b506100f07fa49807205ce4d355092ef5a8a18f56e8913cf4a201fbe287825b095693c217758261013c60201b60201c565b508073ffffffffffffffffffffffffffffffffffffffff167f44d6d25963f097ad14f29f06854a01f575648a1ef82f30e562ccd3889717e33960405160405180910390a250505061037c565b5f61014d838361023160201b60201c565b6102275760015f808581526020019081526020015f205f015f8473ffffffffffffffffffffffffffffffffffffffff1673ffffffffffffffffffffffffffffffffffffffff1681526020019081526020015f205f6101000a81548160ff0219169083151502179055506101c461029460201b60201c565b73ffffffffffffffffffffffffffffffffffffffff168273ffffffffffffffffffffffffffffffffffffffff16847f2f8788117e7eff1d82e926ec794901d17c78024a50270940304540a733656f0d60405160405180910390a46001905061022b565b5f90505b92915050565b5f805f8481526020019081526020015f205f015f8373ffffffffffffffffffffffffffffffffffffffff1673ffffffffffffffffffffffffffffffffffffffff1681526020019081526020015f205f9054906101000a900460ff16905092915050565b5f33905090565b5f80fd5b5f819050919050565b6102b18161029f565b81146102bb575f80fd5b50565b5f815190506102cc816102a8565b92915050565b5f73ffffffffffffffffffffffffffffffffffffffff82169050919050565b5f6102fb826102d2565b9050919050565b61030b816102f1565b8114610315575f80fd5b50565b5f8151905061032681610302565b92915050565b5f805f606084860312156103435761034261029b565b5b5f610350868287016102be565b9350506020610361868287016102be565b925050604061037286828701610318565b9150509250925092565b60805160a051612ff16103c05f395f81816113fe01528181611705015261172f01525f8181610a0501528181610a31015281816114ab01526114da0152612ff15ff3fe6080604052600436106101d0575f3560e01c806391d14854116100f6578063e62bac5611610094578063f3fef3a311610063578063f3fef3a3146106e3578063f5dab7111461070b578063f6326fb314610749578063f7888aec146107535761021b565b8063e62bac5614610629578063ec826ff614610665578063edda71ed1461068f578063efe5e7d6146106b95761021b565b8063a217fddf116100d0578063a217fddf14610571578063c1419def1461059b578063d2f33427146105c5578063d547741f146106015761021b565b806391d14854146104e357806397feb9261461051f5780639aebfef2146105475761021b565b80632dfdf0b51161016e5780634cc05a711161013d5780634cc05a711461043f578063704802751461046957806375b238fc1461049157806377860cdd146104bb5761021b565b80632dfdf0b51461039d5780632f2ff15d146103c757806336568abe146103ef5780634bebc5a8146104175761021b565b8063248a9ca3116101aa578063248a9ca3146102bf57806326aa101f146102fb57806327175b2314610337578063288e4e1e146103615761021b565b806301ffc9a71461021f57806312984b0b1461025b5780631785f53c146102975761021b565b3661021b575f340361020e576040517f85ea51af00000000000000000000000000000000000000000000000000000000815260040160405180910390fd5b6102195f333461078f565b005b5f80fd5b34801561022a575f80fd5b5061024560048036038101906102409190612544565b610c01565b6040516102529190612589565b60405180910390f35b348015610266575f80fd5b50610281600480360381019061027c91906125fc565b610c7a565b60405161028e9190612636565b60405180910390f35b3480156102a2575f80fd5b506102bd60048036038101906102b891906125fc565b610ce2565b005b3480156102ca575f80fd5b506102e560048036038101906102e09190612682565b610d5f565b6040516102f291906126bc565b60405180910390f35b348015610306575f80fd5b50610321600480360381019061031c91906125fc565b610d7b565b60405161032e9190612589565b60405180910390f35b348015610342575f80fd5b5061034b610dcf565b60405161035891906126ed565b60405180910390f35b34801561036c575f80fd5b50610387600480360381019061038291906125fc565b610dd5565b6040516103949190612721565b60405180910390f35b3480156103a8575f80fd5b506103b1610e55565b6040516103be91906126ed565b60405180910390f35b3480156103d2575f80fd5b506103ed60048036038101906103e8919061273a565b610e5b565b005b3480156103fa575f80fd5b506104156004803603810190610410919061273a565b610e7d565b005b348015610422575f80fd5b5061043d600480360381019061043891906127a2565b610ef8565b005b34801561044a575f80fd5b506104536110ae565b60405161046091906126ed565b60405180910390f35b348015610474575f80fd5b5061048f600480360381019061048a91906125fc565b6110b4565b005b34801561049c575f80fd5b506104a5611131565b6040516104b291906126bc565b60405180910390f35b3480156104c6575f80fd5b506104e160048036038101906104dc91906125fc565b611155565b005b3480156104ee575f80fd5b506105096004803603810190610504919061273a565b611251565b6040516105169190612589565b60405180910390f35b34801561052a575f80fd5b506105456004803603810190610540919061281c565b6112b4565b005b348015610552575f80fd5b5061055b6113fc565b60405161056891906126ed565b60405180910390f35b34801561057c575f80fd5b50610585611420565b60405161059291906126bc565b60405180910390f35b3480156105a6575f80fd5b506105af611426565b6040516105bc9190612721565b60405180910390f35b3480156105d0575f80fd5b506105eb60048036038101906105e691906125fc565b61142b565b6040516105f891906126ed565b60405180910390f35b34801561060c575f80fd5b506106276004803603810190610622919061273a565b611471565b005b348015610634575f80fd5b5061064f600480360381019061064a91906125fc565b611493565b60405161065c91906126ed565b60405180910390f35b348015610670575f80fd5b506106796114a8565b60405161068691906126ed565b60405180910390f35b34801561069a575f80fd5b506106a36114cf565b6040516106b091906126ed565b60405180910390f35b3480156106c4575f80fd5b506106cd6114d8565b6040516106da91906126ed565b60405180910390f35b3480156106ee575f80fd5b506107096004803603810190610704919061281c565b6114fc565b005b348015610716575f80fd5b50610731600480360381019061072c91906125fc565b611c50565b6040516107409392919061285a565b60405180910390f35b610751611cad565b005b34801561075e575f80fd5b506107796004803603810190610774919061288f565b611d05565b60405161078691906126ed565b60405180910390f35b825f73ffffffffffffffffffffffffffffffffffffffff168173ffffffffffffffffffffffffffffffffffffffff1614158015610815575060035f8273ffffffffffffffffffffffffffffffffffffffff1673ffffffffffffffffffffffffffffffffffffffff1681526020019081526020015f205f015f9054906101000a900460ff16155b1561085757806040517f6713984d00000000000000000000000000000000000000000000000000000000815260040161084e9190612636565b60405180910390fd5b5f805f73ffffffffffffffffffffffffffffffffffffffff168673ffffffffffffffffffffffffffffffffffffffff16036109895760035f8073ffffffffffffffffffffffffffffffffffffffff1673ffffffffffffffffffffffffffffffffffffffff1681526020019081526020015f205f015f9054906101000a900460ff168061096e57505f73ffffffffffffffffffffffffffffffffffffffff1660035f8073ffffffffffffffffffffffffffffffffffffffff1673ffffffffffffffffffffffffffffffffffffffff1681526020019081526020015f205f0160019054906101000a900473ffffffffffffffffffffffffffffffffffffffff1673ffffffffffffffffffffffffffffffffffffffff1614155b156109845761097d5f85611d87565b9150600190505b6109ec565b60035f8773ffffffffffffffffffffffffffffffffffffffff1673ffffffffffffffffffffffffffffffffffffffff1681526020019081526020015f205f015f9054906101000a900460ff16156109eb576109e48685611d87565b9150600190505b5b8015610aa0575f82600554610a0191906128fa565b90507f0000000000000000000000000000000000000000000000000000000000000000811115610a9757806005547f0000000000000000000000000000000000000000000000000000000000000000610a5a919061292d565b6040517f133d180e000000000000000000000000000000000000000000000000000000008152600401610a8e929190612960565b60405180910390fd5b80600581905550505b8360025f8773ffffffffffffffffffffffffffffffffffffffff1673ffffffffffffffffffffffffffffffffffffffff1681526020019081526020015f205f8873ffffffffffffffffffffffffffffffffffffffff1673ffffffffffffffffffffffffffffffffffffffff1681526020019081526020015f205f828254610b2791906128fa565b925050819055508360045f8873ffffffffffffffffffffffffffffffffffffffff1673ffffffffffffffffffffffffffffffffffffffff1681526020019081526020015f205f828254610b7a91906128fa565b9250508190555060065f81548092919060010191905055508573ffffffffffffffffffffffffffffffffffffffff168573ffffffffffffffffffffffffffffffffffffffff167fdcbc1c05240f31ff3ad067ef1ee35ce4997762752e3a095284754544f4c709d78685604051610bf1929190612960565b60405180910390a3505050505050565b5f7f7965db0b000000000000000000000000000000000000000000000000000000007bffffffffffffffffffffffffffffffffffffffffffffffffffffffff1916827bffffffffffffffffffffffffffffffffffffffffffffffffffffffff19161480610c735750610c72826121ec565b5b9050919050565b5f60035f8373ffffffffffffffffffffffffffffffffffffffff1673ffffffffffffffffffffffffffffffffffffffff1681526020019081526020015f205f0160019054906101000a900473ffffffffffffffffffffffffffffffffffffffff169050919050565b5f801b610cee81612255565b610d187fa49807205ce4d355092ef5a8a18f56e8913cf4a201fbe287825b095693c2177583611471565b8173ffffffffffffffffffffffffffffffffffffffff167fa3b62bc36326052d97ea62d63c3d60308ed4c3ea8ac079dd8499f1e9c4f80c0f60405160405180910390a25050565b5f805f8381526020019081526020015f20600101549050919050565b5f60035f8373ffffffffffffffffffffffffffffffffffffffff1673ffffffffffffffffffffffffffffffffffffffff1681526020019081526020015f205f015f9054906101000a900460ff169050919050565b60055481565b5f8173ffffffffffffffffffffffffffffffffffffffff1663313ce5676040518163ffffffff1660e01b8152600401602060405180830381865afa925050508015610e3e57506040513d601f19601f82011682018060405250810190610e3b919061299b565b60015b610e4b5760129050610e50565b809150505b919050565b60065481565b610e6482610d5f565b610e6d81612255565b610e778383612269565b50505050565b610e85612352565b73ffffffffffffffffffffffffffffffffffffffff168173ffffffffffffffffffffffffffffffffffffffff1614610ee9576040517f6697b23200000000000000000000000000000000000000000000000000000000815260040160405180910390fd5b610ef38282612359565b505050565b7fa49807205ce4d355092ef5a8a18f56e8913cf4a201fbe287825b095693c21775610f2281612255565b5f8260ff1603610f5e576040517f4fd5a4e600000000000000000000000000000000000000000000000000000000815260040160405180910390fd5b60405180606001604052806001151581526020018473ffffffffffffffffffffffffffffffffffffffff1681526020018360ff1681525060035f8673ffffffffffffffffffffffffffffffffffffffff1673ffffffffffffffffffffffffffffffffffffffff1681526020019081526020015f205f820151815f015f6101000a81548160ff0219169083151502179055506020820151815f0160016101000a81548173ffffffffffffffffffffffffffffffffffffffff021916908373ffffffffffffffffffffffffffffffffffffffff1602179055506040820151815f0160156101000a81548160ff021916908360ff1602179055509050508373ffffffffffffffffffffffffffffffffffffffff167f0103f8026567c8396aa1dcd479b6c7d0eaab4b19f5d3d83adc242716987d6d0a84846040516110a09291906129c6565b60405180910390a250505050565b60075481565b5f801b6110c081612255565b6110ea7fa49807205ce4d355092ef5a8a18f56e8913cf4a201fbe287825b095693c2177583610e5b565b8173ffffffffffffffffffffffffffffffffffffffff167f44d6d25963f097ad14f29f06854a01f575648a1ef82f30e562ccd3889717e33960405160405180910390a25050565b7fa49807205ce4d355092ef5a8a18f56e8913cf4a201fbe287825b095693c2177581565b7fa49807205ce4d355092ef5a8a18f56e8913cf4a201fbe287825b095693c2177561117f81612255565b60035f8373ffffffffffffffffffffffffffffffffffffffff1673ffffffffffffffffffffffffffffffffffffffff1681526020019081526020015f205f8082015f6101000a81549060ff02191690555f820160016101000a81549073ffffffffffffffffffffffffffffffffffffffff02191690555f820160156101000a81549060ff021916905550508173ffffffffffffffffffffffffffffffffffffffff167fb02d270f645215800cec778b856004c753ad0c8c6ca520a91a8399acf4c63d4b60405160405180910390a25050565b5f805f8481526020019081526020015f205f015f8373ffffffffffffffffffffffffffffffffffffffff1673ffffffffffffffffffffffffffffffffffffffff1681526020019081526020015f205f9054906101000a900460ff16905092915050565b805f81036112ee576040517f85ea51af00000000000000000000000000000000000000000000000000000000815260040160405180910390fd5b6112f6612442565b5f73ffffffffffffffffffffffffffffffffffffffff168373ffffffffffffffffffffffffffffffffffffffff160361136657826040517f6713984d00000000000000000000000000000000000000000000000000000000815260040161135d9190612636565b60405180910390fd5b8273ffffffffffffffffffffffffffffffffffffffff166323b872dd3330856040518463ffffffff1660e01b81526004016113a3939291906129ed565b6020604051808303815f875af11580156113bf573d5f803e3d5ffd5b505050506040513d601f19601f820116820180604052508101906113e39190612a4c565b506113ef83338461078f565b6113f7612491565b505050565b7f000000000000000000000000000000000000000000000000000000000000000081565b5f801b81565b600681565b5f60045f8373ffffffffffffffffffffffffffffffffffffffff1673ffffffffffffffffffffffffffffffffffffffff1681526020019081526020015f20549050919050565b61147a82610d5f565b61148381612255565b61148d8383612359565b50505050565b6004602052805f5260405f205f915090505481565b5f7f0000000000000000000000000000000000000000000000000000000000000000905090565b5f600554905090565b7f000000000000000000000000000000000000000000000000000000000000000081565b805f8103611536576040517f85ea51af00000000000000000000000000000000000000000000000000000000815260040160405180910390fd5b61153e612442565b825f73ffffffffffffffffffffffffffffffffffffffff168173ffffffffffffffffffffffffffffffffffffffff16141580156115c4575060035f8273ffffffffffffffffffffffffffffffffffffffff1673ffffffffffffffffffffffffffffffffffffffff1681526020019081526020015f205f015f9054906101000a900460ff16155b1561160657806040517f6713984d0000000000000000000000000000000000000000000000000000000081526004016115fd9190612636565b60405180910390fd5b5f60025f3373ffffffffffffffffffffffffffffffffffffffff1673ffffffffffffffffffffffffffffffffffffffff1681526020019081526020015f205f8673ffffffffffffffffffffffffffffffffffffffff1673ffffffffffffffffffffffffffffffffffffffff1681526020019081526020015f20549050808411156116cd57338582866040517f909eafb20000000000000000000000000000000000000000000000000000000081526004016116c49493929190612a77565b60405180910390fd5b5f73ffffffffffffffffffffffffffffffffffffffff168573ffffffffffffffffffffffffffffffffffffffff1614801561172757507f000000000000000000000000000000000000000000000000000000000000000084115b1561178b57837f00000000000000000000000000000000000000000000000000000000000000006040517fd021cb2f000000000000000000000000000000000000000000000000000000008152600401611782929190612960565b60405180910390fd5b5f8073ffffffffffffffffffffffffffffffffffffffff168673ffffffffffffffffffffffffffffffffffffffff16036118b85760035f8073ffffffffffffffffffffffffffffffffffffffff1673ffffffffffffffffffffffffffffffffffffffff1681526020019081526020015f205f015f9054906101000a900460ff16806118a157505f73ffffffffffffffffffffffffffffffffffffffff1660035f8073ffffffffffffffffffffffffffffffffffffffff1673ffffffffffffffffffffffffffffffffffffffff1681526020019081526020015f205f0160019054906101000a900473ffffffffffffffffffffffffffffffffffffffff1673ffffffffffffffffffffffffffffffffffffffff1614155b156118b3576118b05f86611d87565b90505b611917565b60035f8773ffffffffffffffffffffffffffffffffffffffff1673ffffffffffffffffffffffffffffffffffffffff1681526020019081526020015f205f015f9054906101000a900460ff1615611916576119138686611d87565b90505b5b8482611923919061292d565b60025f3373ffffffffffffffffffffffffffffffffffffffff1673ffffffffffffffffffffffffffffffffffffffff1681526020019081526020015f205f8873ffffffffffffffffffffffffffffffffffffffff1673ffffffffffffffffffffffffffffffffffffffff1681526020019081526020015f20819055508460045f8873ffffffffffffffffffffffffffffffffffffffff1673ffffffffffffffffffffffffffffffffffffffff1681526020019081526020015f205f8282546119eb919061292d565b925050819055505f811115611a1f578060055411611a09575f611a18565b80600554611a17919061292d565b5b6005819055505b60075f81548092919060010191905055505f73ffffffffffffffffffffffffffffffffffffffff168673ffffffffffffffffffffffffffffffffffffffff1603611b15575f3373ffffffffffffffffffffffffffffffffffffffff1686604051611a8890612ae7565b5f6040518083038185875af1925050503d805f8114611ac2576040519150601f19603f3d011682016040523d82523d5f602084013e611ac7565b606091505b5050905080611b0f5733866040517fc66cee38000000000000000000000000000000000000000000000000000000008152600401611b06929190612afb565b60405180910390fd5b50611bd9565b5f8673ffffffffffffffffffffffffffffffffffffffff1663a9059cbb33886040518363ffffffff1660e01b8152600401611b51929190612afb565b6020604051808303815f875af1158015611b6d573d5f803e3d5ffd5b505050506040513d601f19601f82011682018060405250810190611b919190612a4c565b905080611bd75733866040517fc66cee38000000000000000000000000000000000000000000000000000000008152600401611bce929190612afb565b60405180910390fd5b505b8573ffffffffffffffffffffffffffffffffffffffff163373ffffffffffffffffffffffffffffffffffffffff167ff341246adaac6f497bc2a656f546ab9e182111d630394f0c57c710a59a2cb5678784604051611c38929190612960565b60405180910390a3505050611c4b612491565b505050565b6003602052805f5260405f205f91509050805f015f9054906101000a900460ff1690805f0160019054906101000a900473ffffffffffffffffffffffffffffffffffffffff1690805f0160159054906101000a900460ff16905083565b345f8103611ce7576040517f85ea51af00000000000000000000000000000000000000000000000000000000815260040160405180910390fd5b611cef612442565b611cfa5f333461078f565b611d02612491565b50565b5f60025f8473ffffffffffffffffffffffffffffffffffffffff1673ffffffffffffffffffffffffffffffffffffffff1681526020019081526020015f205f8373ffffffffffffffffffffffffffffffffffffffff1673ffffffffffffffffffffffffffffffffffffffff1681526020019081526020015f2054905092915050565b5f805f8073ffffffffffffffffffffffffffffffffffffffff168573ffffffffffffffffffffffffffffffffffffffff1603611f13575f60035f8073ffffffffffffffffffffffffffffffffffffffff1673ffffffffffffffffffffffffffffffffffffffff1681526020019081526020015f206040518060600160405290815f82015f9054906101000a900460ff161515151581526020015f820160019054906101000a900473ffffffffffffffffffffffffffffffffffffffff1673ffffffffffffffffffffffffffffffffffffffff1673ffffffffffffffffffffffffffffffffffffffff1681526020015f820160159054906101000a900460ff1660ff1660ff1681525050905080602001519250601291505f73ffffffffffffffffffffffffffffffffffffffff168373ffffffffffffffffffffffffffffffffffffffff1603611f0d57856040517f6713984d000000000000000000000000000000000000000000000000000000008152600401611f049190612636565b60405180910390fd5b50612079565b5f60035f8773ffffffffffffffffffffffffffffffffffffffff1673ffffffffffffffffffffffffffffffffffffffff1681526020019081526020015f206040518060600160405290815f82015f9054906101000a900460ff161515151581526020015f820160019054906101000a900473ffffffffffffffffffffffffffffffffffffffff1673ffffffffffffffffffffffffffffffffffffffff1673ffffffffffffffffffffffffffffffffffffffff1681526020015f820160159054906101000a900460ff1660ff1660ff16815250509050805f0151158061202757505f73ffffffffffffffffffffffffffffffffffffffff16816020015173ffffffffffffffffffffffffffffffffffffffff16145b1561206957856040517f6713984d0000000000000000000000000000000000000000000000000000000081526004016120609190612636565b60405180910390fd5b8060200151925080604001519150505b5f8290505f8173ffffffffffffffffffffffffffffffffffffffff1663feaf968c6040518163ffffffff1660e01b815260040160a060405180830381865afa1580156120c7573d5f803e3d5ffd5b505050506040513d601f19601f820116820180604052508101906120eb9190612ba8565b5050509150505f8113612133576040517f08c379a000000000000000000000000000000000000000000000000000000000815260040161212a90612c79565b60405180910390fd5b5f8190505f600890505f82896121499190612c97565b90505f86600a6121599190612e07565b826121649190612e7e565b9050600660ff168360ff16106121af575f6006846121829190612eae565b60ff16600a6121919190612ee2565b9050808261219f9190612e7e565b99505050505050505050506121e6565b5f8360066121bd9190612eae565b60ff16600a6121cc9190612ee2565b905080826121da9190612c97565b99505050505050505050505b92915050565b5f7f01ffc9a7000000000000000000000000000000000000000000000000000000007bffffffffffffffffffffffffffffffffffffffffffffffffffffffff1916827bffffffffffffffffffffffffffffffffffffffffffffffffffffffff1916149050919050565b61226681612261612352565b61249a565b50565b5f6122748383611251565b6123485760015f808581526020019081526020015f205f015f8473ffffffffffffffffffffffffffffffffffffffff1673ffffffffffffffffffffffffffffffffffffffff1681526020019081526020015f205f6101000a81548160ff0219169083151502179055506122e5612352565b73ffffffffffffffffffffffffffffffffffffffff168273ffffffffffffffffffffffffffffffffffffffff16847f2f8788117e7eff1d82e926ec794901d17c78024a50270940304540a733656f0d60405160405180910390a46001905061234c565b5f90505b92915050565b5f33905090565b5f6123648383611251565b15612438575f805f8581526020019081526020015f205f015f8473ffffffffffffffffffffffffffffffffffffffff1673ffffffffffffffffffffffffffffffffffffffff1681526020019081526020015f205f6101000a81548160ff0219169083151502179055506123d5612352565b73ffffffffffffffffffffffffffffffffffffffff168273ffffffffffffffffffffffffffffffffffffffff16847ff6391f5c32d9c69d2a47ea670b442974b53935d1edc7fd64eb21e047a839171b60405160405180910390a46001905061243c565b5f90505b92915050565b600260015403612487576040517f08c379a000000000000000000000000000000000000000000000000000000000815260040161247e90612f76565b60405180910390fd5b6002600181905550565b60018081905550565b6124a48282611251565b6124e75780826040517fe2517d3f0000000000000000000000000000000000000000000000000000000081526004016124de929190612f94565b60405180910390fd5b5050565b5f80fd5b5f7fffffffff0000000000000000000000000000000000000000000000000000000082169050919050565b612523816124ef565b811461252d575f80fd5b50565b5f8135905061253e8161251a565b92915050565b5f60208284031215612559576125586124eb565b5b5f61256684828501612530565b91505092915050565b5f8115159050919050565b6125838161256f565b82525050565b5f60208201905061259c5f83018461257a565b92915050565b5f73ffffffffffffffffffffffffffffffffffffffff82169050919050565b5f6125cb826125a2565b9050919050565b6125db816125c1565b81146125e5575f80fd5b50565b5f813590506125f6816125d2565b92915050565b5f60208284031215612611576126106124eb565b5b5f61261e848285016125e8565b91505092915050565b612630816125c1565b82525050565b5f6020820190506126495f830184612627565b92915050565b5f819050919050565b6126618161264f565b811461266b575f80fd5b50565b5f8135905061267c81612658565b92915050565b5f60208284031215612697576126966124eb565b5b5f6126a48482850161266e565b91505092915050565b6126b68161264f565b82525050565b5f6020820190506126cf5f8301846126ad565b92915050565b5f819050919050565b6126e7816126d5565b82525050565b5f6020820190506127005f8301846126de565b92915050565b5f60ff82169050919050565b61271b81612706565b82525050565b5f6020820190506127345f830184612712565b92915050565b5f80604083850312156127505761274f6124eb565b5b5f61275d8582860161266e565b925050602061276e858286016125e8565b9150509250929050565b61278181612706565b811461278b575f80fd5b50565b5f8135905061279c81612778565b92915050565b5f805f606084860312156127b9576127b86124eb565b5b5f6127c6868287016125e8565b93505060206127d7868287016125e8565b92505060406127e88682870161278e565b9150509250925092565b6127fb816126d5565b8114612805575f80fd5b50565b5f81359050612816816127f2565b92915050565b5f8060408385031215612832576128316124eb565b5b5f61283f858286016125e8565b925050602061285085828601612808565b9150509250929050565b5f60608201905061286d5f83018661257a565b61287a6020830185612627565b6128876040830184612712565b949350505050565b5f80604083850312156128a5576128a46124eb565b5b5f6128b2858286016125e8565b92505060206128c3858286016125e8565b9150509250929050565b7f4e487b71000000000000000000000000000000000000000000000000000000005f52601160045260245ffd5b5f612904826126d5565b915061290f836126d5565b9250828201905080821115612927576129266128cd565b5b92915050565b5f612937826126d5565b9150612942836126d5565b925082820390508181111561295a576129596128cd565b5b92915050565b5f6040820190506129735f8301856126de565b61298060208301846126de565b9392505050565b5f8151905061299581612778565b92915050565b5f602082840312156129b0576129af6124eb565b5b5f6129bd84828501612987565b91505092915050565b5f6040820190506129d95f830185612627565b6129e66020830184612712565b9392505050565b5f606082019050612a005f830186612627565b612a0d6020830185612627565b612a1a60408301846126de565b949350505050565b612a2b8161256f565b8114612a35575f80fd5b50565b5f81519050612a4681612a22565b92915050565b5f60208284031215612a6157612a606124eb565b5b5f612a6e84828501612a38565b91505092915050565b5f608082019050612a8a5f830187612627565b612a976020830186612627565b612aa460408301856126de565b612ab160608301846126de565b95945050505050565b5f81905092915050565b50565b5f612ad25f83612aba565b9150612add82612ac4565b5f82019050919050565b5f612af182612ac7565b9150819050919050565b5f604082019050612b0e5f830185612627565b612b1b60208301846126de565b9392505050565b5f69ffffffffffffffffffff82169050919050565b612b4081612b22565b8114612b4a575f80fd5b50565b5f81519050612b5b81612b37565b92915050565b5f819050919050565b612b7381612b61565b8114612b7d575f80fd5b50565b5f81519050612b8e81612b6a565b92915050565b5f81519050612ba2816127f2565b92915050565b5f805f805f60a08688031215612bc157612bc06124eb565b5b5f612bce88828901612b4d565b9550506020612bdf88828901612b80565b9450506040612bf088828901612b94565b9350506060612c0188828901612b94565b9250506080612c1288828901612b4d565b9150509295509295909350565b5f82825260208201905092915050565b7f5072696365206665656420696e76616c696400000000000000000000000000005f82015250565b5f612c63601283612c1f565b9150612c6e82612c2f565b602082019050919050565b5f6020820190508181035f830152612c9081612c57565b9050919050565b5f612ca1826126d5565b9150612cac836126d5565b9250828202612cba816126d5565b91508282048414831517612cd157612cd06128cd565b5b5092915050565b5f8160011c9050919050565b5f808291508390505b6001851115612d2d57808604811115612d0957612d086128cd565b5b6001851615612d185780820291505b8081029050612d2685612cd8565b9450612ced565b94509492505050565b5f82612d455760019050612e00565b81612d52575f9050612e00565b8160018114612d685760028114612d7257612da1565b6001915050612e00565b60ff841115612d8457612d836128cd565b5b8360020a915084821115612d9b57612d9a6128cd565b5b50612e00565b5060208310610133831016604e8410600b8410161715612dd65782820a905083811115612dd157612dd06128cd565b5b612e00565b612de38484846001612ce4565b92509050818404811115612dfa57612df96128cd565b5b81810290505b9392505050565b5f612e11826126d5565b9150612e1c83612706565b9250612e497fffffffffffffffffffffffffffffffffffffffffffffffffffffffffffffffff8484612d36565b905092915050565b7f4e487b71000000000000000000000000000000000000000000000000000000005f52601260045260245ffd5b5f612e88826126d5565b9150612e93836126d5565b925082612ea357612ea2612e51565b5b828204905092915050565b5f612eb882612706565b9150612ec383612706565b9250828203905060ff811115612edc57612edb6128cd565b5b92915050565b5f612eec826126d5565b9150612ef7836126d5565b9250612f247fffffffffffffffffffffffffffffffffffffffffffffffffffffffffffffffff8484612d36565b905092915050565b7f5265656e7472616e637947756172643a207265656e7472616e742063616c6c005f82015250565b5f612f60601f83612c1f565b9150612f6b82612f2c565b602082019050919050565b5f6020820190508181035f830152612f8d81612f54565b9050919050565b5f604082019050612fa75f830185612627565b612fb460208301846126ad565b939250505056fea2646970667358221220cfe9fd2933e507937ddbe26cdb67c48ab11c6967f6070fa416b7cb48ef4517f264736f6c634300081a0033",
					"opcodes": "PUSH1 0xC0 PUSH1 0x40 MSTORE CALLVALUE DUP1 ISZERO PUSH2 0xF JUMPI PUSH0 DUP1 REVERT JUMPDEST POP PUSH1 0x40 MLOAD PUSH2 0x33B1 CODESIZE SUB DUP1 PUSH2 0x33B1 DUP4 CODECOPY DUP2 DUP2 ADD PUSH1 0x40 MSTORE DUP2 ADD SWAP1 PUSH2 0x31 SWAP2 SWAP1 PUSH2 0x32C JUMP JUMPDEST PUSH1 0x1 DUP1 DUP2 SWAP1 SSTORE POP PUSH0 PUSH20 0xFFFFFFFFFFFFFFFFFFFFFFFFFFFFFFFFFFFFFFFF AND DUP2 PUSH20 0xFFFFFFFFFFFFFFFFFFFFFFFFFFFFFFFFFFFFFFFF AND SUB PUSH2 0x9D JUMPI PUSH1 0x40 MLOAD PUSH32 0x22179F7800000000000000000000000000000000000000000000000000000000 DUP2 MSTORE PUSH1 0x4 ADD PUSH1 0x40 MLOAD DUP1 SWAP2 SUB SWAP1 REVERT JUMPDEST DUP3 PUSH1 0x80 DUP2 DUP2 MSTORE POP POP DUP2 PUSH1 0xA0 DUP2 DUP2 MSTORE POP POP PUSH2 0xBF PUSH0 DUP1 SHL DUP3 PUSH2 0x13C PUSH1 0x20 SHL PUSH1 0x20 SHR JUMP JUMPDEST POP PUSH2 0xF0 PUSH32 0xA49807205CE4D355092EF5A8A18F56E8913CF4A201FBE287825B095693C21775 DUP3 PUSH2 0x13C PUSH1 0x20 SHL PUSH1 0x20 SHR JUMP JUMPDEST POP DUP1 PUSH20 0xFFFFFFFFFFFFFFFFFFFFFFFFFFFFFFFFFFFFFFFF AND PUSH32 0x44D6D25963F097AD14F29F06854A01F575648A1EF82F30E562CCD3889717E339 PUSH1 0x40 MLOAD PUSH1 0x40 MLOAD DUP1 SWAP2 SUB SWAP1 LOG2 POP POP POP PUSH2 0x37C JUMP JUMPDEST PUSH0 PUSH2 0x14D DUP4 DUP4 PUSH2 0x231 PUSH1 0x20 SHL PUSH1 0x20 SHR JUMP JUMPDEST PUSH2 0x227 JUMPI PUSH1 0x1 PUSH0 DUP1 DUP6 DUP2 MSTORE PUSH1 0x20 ADD SWAP1 DUP2 MSTORE PUSH1 0x20 ADD PUSH0 KECCAK256 PUSH0 ADD PUSH0 DUP5 PUSH20 0xFFFFFFFFFFFFFFFFFFFFFFFFFFFFFFFFFFFFFFFF AND PUSH20 0xFFFFFFFFFFFFFFFFFFFFFFFFFFFFFFFFFFFFFFFF AND DUP2 MSTORE PUSH1 0x20 ADD SWAP1 DUP2 MSTORE PUSH1 0x20 ADD PUSH0 KECCAK256 PUSH0 PUSH2 0x100 EXP DUP2 SLOAD DUP2 PUSH1 0xFF MUL NOT AND SWAP1 DUP4 ISZERO ISZERO MUL OR SWAP1 SSTORE POP PUSH2 0x1C4 PUSH2 0x294 PUSH1 0x20 SHL PUSH1 0x20 SHR JUMP JUMPDEST PUSH20 0xFFFFFFFFFFFFFFFFFFFFFFFFFFFFFFFFFFFFFFFF AND DUP3 PUSH20 0xFFFFFFFFFFFFFFFFFFFFFFFFFFFFFFFFFFFFFFFF AND DUP5 PUSH32 0x2F8788117E7EFF1D82E926EC794901D17C78024A50270940304540A733656F0D PUSH1 0x40 MLOAD PUSH1 0x40 MLOAD DUP1 SWAP2 SUB SWAP1 LOG4 PUSH1 0x1 SWAP1 POP PUSH2 0x22B JUMP JUMPDEST PUSH0 SWAP1 POP JUMPDEST SWAP3 SWAP2 POP POP JUMP JUMPDEST PUSH0 DUP1 PUSH0 DUP5 DUP2 MSTORE PUSH1 0x20 ADD SWAP1 DUP2 MSTORE PUSH1 0x20 ADD PUSH0 KECCAK256 PUSH0 ADD PUSH0 DUP4 PUSH20 0xFFFFFFFFFFFFFFFFFFFFFFFFFFFFFFFFFFFFFFFF AND PUSH20 0xFFFFFFFFFFFFFFFFFFFFFFFFFFFFFFFFFFFFFFFF AND DUP2 MSTORE PUSH1 0x20 ADD SWAP1 DUP2 MSTORE PUSH1 0x20 ADD PUSH0 KECCAK256 PUSH0 SWAP1 SLOAD SWAP1 PUSH2 0x100 EXP SWAP1 DIV PUSH1 0xFF AND SWAP1 POP SWAP3 SWAP2 POP POP JUMP JUMPDEST PUSH0 CALLER SWAP1 POP SWAP1 JUMP JUMPDEST PUSH0 DUP1 REVERT JUMPDEST PUSH0 DUP2 SWAP1 POP SWAP2 SWAP1 POP JUMP JUMPDEST PUSH2 0x2B1 DUP2 PUSH2 0x29F JUMP JUMPDEST DUP2 EQ PUSH2 0x2BB JUMPI PUSH0 DUP1 REVERT JUMPDEST POP JUMP JUMPDEST PUSH0 DUP2 MLOAD SWAP1 POP PUSH2 0x2CC DUP2 PUSH2 0x2A8 JUMP JUMPDEST SWAP3 SWAP2 POP POP JUMP JUMPDEST PUSH0 PUSH20 0xFFFFFFFFFFFFFFFFFFFFFFFFFFFFFFFFFFFFFFFF DUP3 AND SWAP1 POP SWAP2 SWAP1 POP JUMP JUMPDEST PUSH0 PUSH2 0x2FB DUP3 PUSH2 0x2D2 JUMP JUMPDEST SWAP1 POP SWAP2 SWAP1 POP JUMP JUMPDEST PUSH2 0x30B DUP2 PUSH2 0x2F1 JUMP JUMPDEST DUP2 EQ PUSH2 0x315 JUMPI PUSH0 DUP1 REVERT JUMPDEST POP JUMP JUMPDEST PUSH0 DUP2 MLOAD SWAP1 POP PUSH2 0x326 DUP2 PUSH2 0x302 JUMP JUMPDEST SWAP3 SWAP2 POP POP JUMP JUMPDEST PUSH0 DUP1 PUSH0 PUSH1 0x60 DUP5 DUP7 SUB SLT ISZERO PUSH2 0x343 JUMPI PUSH2 0x342 PUSH2 0x29B JUMP JUMPDEST JUMPDEST PUSH0 PUSH2 0x350 DUP7 DUP3 DUP8 ADD PUSH2 0x2BE JUMP JUMPDEST SWAP4 POP POP PUSH1 0x20 PUSH2 0x361 DUP7 DUP3 DUP8 ADD PUSH2 0x2BE JUMP JUMPDEST SWAP3 POP POP PUSH1 0x40 PUSH2 0x372 DUP7 DUP3 DUP8 ADD PUSH2 0x318 JUMP JUMPDEST SWAP2 POP POP SWAP3 POP SWAP3 POP SWAP3 JUMP JUMPDEST PUSH1 0x80 MLOAD PUSH1 0xA0 MLOAD PUSH2 0x2FF1 PUSH2 0x3C0 PUSH0 CODECOPY PUSH0 DUP2 DUP2 PUSH2 0x13FE ADD MSTORE DUP2 DUP2 PUSH2 0x1705 ADD MSTORE PUSH2 0x172F ADD MSTORE PUSH0 DUP2 DUP2 PUSH2 0xA05 ADD MSTORE DUP2 DUP2 PUSH2 0xA31 ADD MSTORE DUP2 DUP2 PUSH2 0x14AB ADD MSTORE PUSH2 0x14DA ADD MSTORE PUSH2 0x2FF1 PUSH0 RETURN INVALID PUSH1 0x80 PUSH1 0x40 MSTORE PUSH1 0x4 CALLDATASIZE LT PUSH2 0x1D0 JUMPI PUSH0 CALLDATALOAD PUSH1 0xE0 SHR DUP1 PUSH4 0x91D14854 GT PUSH2 0xF6 JUMPI DUP1 PUSH4 0xE62BAC56 GT PUSH2 0x94 JUMPI DUP1 PUSH4 0xF3FEF3A3 GT PUSH2 0x63 JUMPI DUP1 PUSH4 0xF3FEF3A3 EQ PUSH2 0x6E3 JUMPI DUP1 PUSH4 0xF5DAB711 EQ PUSH2 0x70B JUMPI DUP1 PUSH4 0xF6326FB3 EQ PUSH2 0x749 JUMPI DUP1 PUSH4 0xF7888AEC EQ PUSH2 0x753 JUMPI PUSH2 0x21B JUMP JUMPDEST DUP1 PUSH4 0xE62BAC56 EQ PUSH2 0x629 JUMPI DUP1 PUSH4 0xEC826FF6 EQ PUSH2 0x665 JUMPI DUP1 PUSH4 0xEDDA71ED EQ PUSH2 0x68F JUMPI DUP1 PUSH4 0xEFE5E7D6 EQ PUSH2 0x6B9 JUMPI PUSH2 0x21B JUMP JUMPDEST DUP1 PUSH4 0xA217FDDF GT PUSH2 0xD0 JUMPI DUP1 PUSH4 0xA217FDDF EQ PUSH2 0x571 JUMPI DUP1 PUSH4 0xC1419DEF EQ PUSH2 0x59B JUMPI DUP1 PUSH4 0xD2F33427 EQ PUSH2 0x5C5 JUMPI DUP1 PUSH4 0xD547741F EQ PUSH2 0x601 JUMPI PUSH2 0x21B JUMP JUMPDEST DUP1 PUSH4 0x91D14854 EQ PUSH2 0x4E3 JUMPI DUP1 PUSH4 0x97FEB926 EQ PUSH2 0x51F JUMPI DUP1 PUSH4 0x9AEBFEF2 EQ PUSH2 0x547 JUMPI PUSH2 0x21B JUMP JUMPDEST DUP1 PUSH4 0x2DFDF0B5 GT PUSH2 0x16E JUMPI DUP1 PUSH4 0x4CC05A71 GT PUSH2 0x13D JUMPI DUP1 PUSH4 0x4CC05A71 EQ PUSH2 0x43F JUMPI DUP1 PUSH4 0x70480275 EQ PUSH2 0x469 JUMPI DUP1 PUSH4 0x75B238FC EQ PUSH2 0x491 JUMPI DUP1 PUSH4 0x77860CDD EQ PUSH2 0x4BB JUMPI PUSH2 0x21B JUMP JUMPDEST DUP1 PUSH4 0x2DFDF0B5 EQ PUSH2 0x39D JUMPI DUP1 PUSH4 0x2F2FF15D EQ PUSH2 0x3C7 JUMPI DUP1 PUSH4 0x36568ABE EQ PUSH2 0x3EF JUMPI DUP1 PUSH4 0x4BEBC5A8 EQ PUSH2 0x417 JUMPI PUSH2 0x21B JUMP JUMPDEST DUP1 PUSH4 0x248A9CA3 GT PUSH2 0x1AA JUMPI DUP1 PUSH4 0x248A9CA3 EQ PUSH2 0x2BF JUMPI DUP1 PUSH4 0x26AA101F EQ PUSH2 0x2FB JUMPI DUP1 PUSH4 0x27175B23 EQ PUSH2 0x337 JUMPI DUP1 PUSH4 0x288E4E1E EQ PUSH2 0x361 JUMPI PUSH2 0x21B JUMP JUMPDEST DUP1 PUSH4 0x1FFC9A7 EQ PUSH2 0x21F JUMPI DUP1 PUSH4 0x12984B0B EQ PUSH2 0x25B JUMPI DUP1 PUSH4 0x1785F53C EQ PUSH2 0x297 JUMPI PUSH2 0x21B JUMP JUMPDEST CALLDATASIZE PUSH2 0x21B JUMPI PUSH0 CALLVALUE SUB PUSH2 0x20E JUMPI PUSH1 0x40 MLOAD PUSH32 0x85EA51AF00000000000000000000000000000000000000000000000000000000 DUP2 MSTORE PUSH1 0x4 ADD PUSH1 0x40 MLOAD DUP1 SWAP2 SUB SWAP1 REVERT JUMPDEST PUSH2 0x219 PUSH0 CALLER CALLVALUE PUSH2 0x78F JUMP JUMPDEST STOP JUMPDEST PUSH0 DUP1 REVERT JUMPDEST CALLVALUE DUP1 ISZERO PUSH2 0x22A JUMPI PUSH0 DUP1 REVERT JUMPDEST POP PUSH2 0x245 PUSH1 0x4 DUP1 CALLDATASIZE SUB DUP2 ADD SWAP1 PUSH2 0x240 SWAP2 SWAP1 PUSH2 0x2544 JUMP JUMPDEST PUSH2 0xC01 JUMP JUMPDEST PUSH1 0x40 MLOAD PUSH2 0x252 SWAP2 SWAP1 PUSH2 0x2589 JUMP JUMPDEST PUSH1 0x40 MLOAD DUP1 SWAP2 SUB SWAP1 RETURN JUMPDEST CALLVALUE DUP1 ISZERO PUSH2 0x266 JUMPI PUSH0 DUP1 REVERT JUMPDEST POP PUSH2 0x281 PUSH1 0x4 DUP1 CALLDATASIZE SUB DUP2 ADD SWAP1 PUSH2 0x27C SWAP2 SWAP1 PUSH2 0x25FC JUMP JUMPDEST PUSH2 0xC7A JUMP JUMPDEST PUSH1 0x40 MLOAD PUSH2 0x28E SWAP2 SWAP1 PUSH2 0x2636 JUMP JUMPDEST PUSH1 0x40 MLOAD DUP1 SWAP2 SUB SWAP1 RETURN JUMPDEST CALLVALUE DUP1 ISZERO PUSH2 0x2A2 JUMPI PUSH0 DUP1 REVERT JUMPDEST POP PUSH2 0x2BD PUSH1 0x4 DUP1 CALLDATASIZE SUB DUP2 ADD SWAP1 PUSH2 0x2B8 SWAP2 SWAP1 PUSH2 0x25FC JUMP JUMPDEST PUSH2 0xCE2 JUMP JUMPDEST STOP JUMPDEST CALLVALUE DUP1 ISZERO PUSH2 0x2CA JUMPI PUSH0 DUP1 REVERT JUMPDEST POP PUSH2 0x2E5 PUSH1 0x4 DUP1 CALLDATASIZE SUB DUP2 ADD SWAP1 PUSH2 0x2E0 SWAP2 SWAP1 PUSH2 0x2682 JUMP JUMPDEST PUSH2 0xD5F JUMP JUMPDEST PUSH1 0x40 MLOAD PUSH2 0x2F2 SWAP2 SWAP1 PUSH2 0x26BC JUMP JUMPDEST PUSH1 0x40 MLOAD DUP1 SWAP2 SUB SWAP1 RETURN JUMPDEST CALLVALUE DUP1 ISZERO PUSH2 0x306 JUMPI PUSH0 DUP1 REVERT JUMPDEST POP PUSH2 0x321 PUSH1 0x4 DUP1 CALLDATASIZE SUB DUP2 ADD SWAP1 PUSH2 0x31C SWAP2 SWAP1 PUSH2 0x25FC JUMP JUMPDEST PUSH2 0xD7B JUMP JUMPDEST PUSH1 0x40 MLOAD PUSH2 0x32E SWAP2 SWAP1 PUSH2 0x2589 JUMP JUMPDEST PUSH1 0x40 MLOAD DUP1 SWAP2 SUB SWAP1 RETURN JUMPDEST CALLVALUE DUP1 ISZERO PUSH2 0x342 JUMPI PUSH0 DUP1 REVERT JUMPDEST POP PUSH2 0x34B PUSH2 0xDCF JUMP JUMPDEST PUSH1 0x40 MLOAD PUSH2 0x358 SWAP2 SWAP1 PUSH2 0x26ED JUMP JUMPDEST PUSH1 0x40 MLOAD DUP1 SWAP2 SUB SWAP1 RETURN JUMPDEST CALLVALUE DUP1 ISZERO PUSH2 0x36C JUMPI PUSH0 DUP1 REVERT JUMPDEST POP PUSH2 0x387 PUSH1 0x4 DUP1 CALLDATASIZE SUB DUP2 ADD SWAP1 PUSH2 0x382 SWAP2 SWAP1 PUSH2 0x25FC JUMP JUMPDEST PUSH2 0xDD5 JUMP JUMPDEST PUSH1 0x40 MLOAD PUSH2 0x394 SWAP2 SWAP1 PUSH2 0x2721 JUMP JUMPDEST PUSH1 0x40 MLOAD DUP1 SWAP2 SUB SWAP1 RETURN JUMPDEST CALLVALUE DUP1 ISZERO PUSH2 0x3A8 JUMPI PUSH0 DUP1 REVERT JUMPDEST POP PUSH2 0x3B1 PUSH2 0xE55 JUMP JUMPDEST PUSH1 0x40 MLOAD PUSH2 0x3BE SWAP2 SWAP1 PUSH2 0x26ED JUMP JUMPDEST PUSH1 0x40 MLOAD DUP1 SWAP2 SUB SWAP1 RETURN JUMPDEST CALLVALUE DUP1 ISZERO PUSH2 0x3D2 JUMPI PUSH0 DUP1 REVERT JUMPDEST POP PUSH2 0x3ED PUSH1 0x4 DUP1 CALLDATASIZE SUB DUP2 ADD SWAP1 PUSH2 0x3E8 SWAP2 SWAP1 PUSH2 0x273A JUMP JUMPDEST PUSH2 0xE5B JUMP JUMPDEST STOP JUMPDEST CALLVALUE DUP1 ISZERO PUSH2 0x3FA JUMPI PUSH0 DUP1 REVERT JUMPDEST POP PUSH2 0x415 PUSH1 0x4 DUP1 CALLDATASIZE SUB DUP2 ADD SWAP1 PUSH2 0x410 SWAP2 SWAP1 PUSH2 0x273A JUMP JUMPDEST PUSH2 0xE7D JUMP JUMPDEST STOP JUMPDEST CALLVALUE DUP1 ISZERO PUSH2 0x422 JUMPI PUSH0 DUP1 REVERT JUMPDEST POP PUSH2 0x43D PUSH1 0x4 DUP1 CALLDATASIZE SUB DUP2 ADD SWAP1 PUSH2 0x438 SWAP2 SWAP1 PUSH2 0x27A2 JUMP JUMPDEST PUSH2 0xEF8 JUMP JUMPDEST STOP JUMPDEST CALLVALUE DUP1 ISZERO PUSH2 0x44A JUMPI PUSH0 DUP1 REVERT JUMPDEST POP PUSH2 0x453 PUSH2 0x10AE JUMP JUMPDEST PUSH1 0x40 MLOAD PUSH2 0x460 SWAP2 SWAP1 PUSH2 0x26ED JUMP JUMPDEST PUSH1 0x40 MLOAD DUP1 SWAP2 SUB SWAP1 RETURN JUMPDEST CALLVALUE DUP1 ISZERO PUSH2 0x474 JUMPI PUSH0 DUP1 REVERT JUMPDEST POP PUSH2 0x48F PUSH1 0x4 DUP1 CALLDATASIZE SUB DUP2 ADD SWAP1 PUSH2 0x48A SWAP2 SWAP1 PUSH2 0x25FC JUMP JUMPDEST PUSH2 0x10B4 JUMP JUMPDEST STOP JUMPDEST CALLVALUE DUP1 ISZERO PUSH2 0x49C JUMPI PUSH0 DUP1 REVERT JUMPDEST POP PUSH2 0x4A5 PUSH2 0x1131 JUMP JUMPDEST PUSH1 0x40 MLOAD PUSH2 0x4B2 SWAP2 SWAP1 PUSH2 0x26BC JUMP JUMPDEST PUSH1 0x40 MLOAD DUP1 SWAP2 SUB SWAP1 RETURN JUMPDEST CALLVALUE DUP1 ISZERO PUSH2 0x4C6 JUMPI PUSH0 DUP1 REVERT JUMPDEST POP PUSH2 0x4E1 PUSH1 0x4 DUP1 CALLDATASIZE SUB DUP2 ADD SWAP1 PUSH2 0x4DC SWAP2 SWAP1 PUSH2 0x25FC JUMP JUMPDEST PUSH2 0x1155 JUMP JUMPDEST STOP JUMPDEST CALLVALUE DUP1 ISZERO PUSH2 0x4EE JUMPI PUSH0 DUP1 REVERT JUMPDEST POP PUSH2 0x509 PUSH1 0x4 DUP1 CALLDATASIZE SUB DUP2 ADD SWAP1 PUSH2 0x504 SWAP2 SWAP1 PUSH2 0x273A JUMP JUMPDEST PUSH2 0x1251 JUMP JUMPDEST PUSH1 0x40 MLOAD PUSH2 0x516 SWAP2 SWAP1 PUSH2 0x2589 JUMP JUMPDEST PUSH1 0x40 MLOAD DUP1 SWAP2 SUB SWAP1 RETURN JUMPDEST CALLVALUE DUP1 ISZERO PUSH2 0x52A JUMPI PUSH0 DUP1 REVERT JUMPDEST POP PUSH2 0x545 PUSH1 0x4 DUP1 CALLDATASIZE SUB DUP2 ADD SWAP1 PUSH2 0x540 SWAP2 SWAP1 PUSH2 0x281C JUMP JUMPDEST PUSH2 0x12B4 JUMP JUMPDEST STOP JUMPDEST CALLVALUE DUP1 ISZERO PUSH2 0x552 JUMPI PUSH0 DUP1 REVERT JUMPDEST POP PUSH2 0x55B PUSH2 0x13FC JUMP JUMPDEST PUSH1 0x40 MLOAD PUSH2 0x568 SWAP2 SWAP1 PUSH2 0x26ED JUMP JUMPDEST PUSH1 0x40 MLOAD DUP1 SWAP2 SUB SWAP1 RETURN JUMPDEST CALLVALUE DUP1 ISZERO PUSH2 0x57C JUMPI PUSH0 DUP1 REVERT JUMPDEST POP PUSH2 0x585 PUSH2 0x1420 JUMP JUMPDEST PUSH1 0x40 MLOAD PUSH2 0x592 SWAP2 SWAP1 PUSH2 0x26BC JUMP JUMPDEST PUSH1 0x40 MLOAD DUP1 SWAP2 SUB SWAP1 RETURN JUMPDEST CALLVALUE DUP1 ISZERO PUSH2 0x5A6 JUMPI PUSH0 DUP1 REVERT JUMPDEST POP PUSH2 0x5AF PUSH2 0x1426 JUMP JUMPDEST PUSH1 0x40 MLOAD PUSH2 0x5BC SWAP2 SWAP1 PUSH2 0x2721 JUMP JUMPDEST PUSH1 0x40 MLOAD DUP1 SWAP2 SUB SWAP1 RETURN JUMPDEST CALLVALUE DUP1 ISZERO PUSH2 0x5D0 JUMPI PUSH0 DUP1 REVERT JUMPDEST POP PUSH2 0x5EB PUSH1 0x4 DUP1 CALLDATASIZE SUB DUP2 ADD SWAP1 PUSH2 0x5E6 SWAP2 SWAP1 PUSH2 0x25FC JUMP JUMPDEST PUSH2 0x142B JUMP JUMPDEST PUSH1 0x40 MLOAD PUSH2 0x5F8 SWAP2 SWAP1 PUSH2 0x26ED JUMP JUMPDEST PUSH1 0x40 MLOAD DUP1 SWAP2 SUB SWAP1 RETURN JUMPDEST CALLVALUE DUP1 ISZERO PUSH2 0x60C JUMPI PUSH0 DUP1 REVERT JUMPDEST POP PUSH2 0x627 PUSH1 0x4 DUP1 CALLDATASIZE SUB DUP2 ADD SWAP1 PUSH2 0x622 SWAP2 SWAP1 PUSH2 0x273A JUMP JUMPDEST PUSH2 0x1471 JUMP JUMPDEST STOP JUMPDEST CALLVALUE DUP1 ISZERO PUSH2 0x634 JUMPI PUSH0 DUP1 REVERT JUMPDEST POP PUSH2 0x64F PUSH1 0x4 DUP1 CALLDATASIZE SUB DUP2 ADD SWAP1 PUSH2 0x64A SWAP2 SWAP1 PUSH2 0x25FC JUMP JUMPDEST PUSH2 0x1493 JUMP JUMPDEST PUSH1 0x40 MLOAD PUSH2 0x65C SWAP2 SWAP1 PUSH2 0x26ED JUMP JUMPDEST PUSH1 0x40 MLOAD DUP1 SWAP2 SUB SWAP1 RETURN JUMPDEST CALLVALUE DUP1 ISZERO PUSH2 0x670 JUMPI PUSH0 DUP1 REVERT JUMPDEST POP PUSH2 0x679 PUSH2 0x14A8 JUMP JUMPDEST PUSH1 0x40 MLOAD PUSH2 0x686 SWAP2 SWAP1 PUSH2 0x26ED JUMP JUMPDEST PUSH1 0x40 MLOAD DUP1 SWAP2 SUB SWAP1 RETURN JUMPDEST CALLVALUE DUP1 ISZERO PUSH2 0x69A JUMPI PUSH0 DUP1 REVERT JUMPDEST POP PUSH2 0x6A3 PUSH2 0x14CF JUMP JUMPDEST PUSH1 0x40 MLOAD PUSH2 0x6B0 SWAP2 SWAP1 PUSH2 0x26ED JUMP JUMPDEST PUSH1 0x40 MLOAD DUP1 SWAP2 SUB SWAP1 RETURN JUMPDEST CALLVALUE DUP1 ISZERO PUSH2 0x6C4 JUMPI PUSH0 DUP1 REVERT JUMPDEST POP PUSH2 0x6CD PUSH2 0x14D8 JUMP JUMPDEST PUSH1 0x40 MLOAD PUSH2 0x6DA SWAP2 SWAP1 PUSH2 0x26ED JUMP JUMPDEST PUSH1 0x40 MLOAD DUP1 SWAP2 SUB SWAP1 RETURN JUMPDEST CALLVALUE DUP1 ISZERO PUSH2 0x6EE JUMPI PUSH0 DUP1 REVERT JUMPDEST POP PUSH2 0x709 PUSH1 0x4 DUP1 CALLDATASIZE SUB DUP2 ADD SWAP1 PUSH2 0x704 SWAP2 SWAP1 PUSH2 0x281C JUMP JUMPDEST PUSH2 0x14FC JUMP JUMPDEST STOP JUMPDEST CALLVALUE DUP1 ISZERO PUSH2 0x716 JUMPI PUSH0 DUP1 REVERT JUMPDEST POP PUSH2 0x731 PUSH1 0x4 DUP1 CALLDATASIZE SUB DUP2 ADD SWAP1 PUSH2 0x72C SWAP2 SWAP1 PUSH2 0x25FC JUMP JUMPDEST PUSH2 0x1C50 JUMP JUMPDEST PUSH1 0x40 MLOAD PUSH2 0x740 SWAP4 SWAP3 SWAP2 SWAP1 PUSH2 0x285A JUMP JUMPDEST PUSH1 0x40 MLOAD DUP1 SWAP2 SUB SWAP1 RETURN JUMPDEST PUSH2 0x751 PUSH2 0x1CAD JUMP JUMPDEST STOP JUMPDEST CALLVALUE DUP1 ISZERO PUSH2 0x75E JUMPI PUSH0 DUP1 REVERT JUMPDEST POP PUSH2 0x779 PUSH1 0x4 DUP1 CALLDATASIZE SUB DUP2 ADD SWAP1 PUSH2 0x774 SWAP2 SWAP1 PUSH2 0x288F JUMP JUMPDEST PUSH2 0x1D05 JUMP JUMPDEST PUSH1 0x40 MLOAD PUSH2 0x786 SWAP2 SWAP1 PUSH2 0x26ED JUMP JUMPDEST PUSH1 0x40 MLOAD DUP1 SWAP2 SUB SWAP1 RETURN JUMPDEST DUP3 PUSH0 PUSH20 0xFFFFFFFFFFFFFFFFFFFFFFFFFFFFFFFFFFFFFFFF AND DUP2 PUSH20 0xFFFFFFFFFFFFFFFFFFFFFFFFFFFFFFFFFFFFFFFF AND EQ ISZERO DUP1 ISZERO PUSH2 0x815 JUMPI POP PUSH1 0x3 PUSH0 DUP3 PUSH20 0xFFFFFFFFFFFFFFFFFFFFFFFFFFFFFFFFFFFFFFFF AND PUSH20 0xFFFFFFFFFFFFFFFFFFFFFFFFFFFFFFFFFFFFFFFF AND DUP2 MSTORE PUSH1 0x20 ADD SWAP1 DUP2 MSTORE PUSH1 0x20 ADD PUSH0 KECCAK256 PUSH0 ADD PUSH0 SWAP1 SLOAD SWAP1 PUSH2 0x100 EXP SWAP1 DIV PUSH1 0xFF AND ISZERO JUMPDEST ISZERO PUSH2 0x857 JUMPI DUP1 PUSH1 0x40 MLOAD PUSH32 0x6713984D00000000000000000000000000000000000000000000000000000000 DUP2 MSTORE PUSH1 0x4 ADD PUSH2 0x84E SWAP2 SWAP1 PUSH2 0x2636 JUMP JUMPDEST PUSH1 0x40 MLOAD DUP1 SWAP2 SUB SWAP1 REVERT JUMPDEST PUSH0 DUP1 PUSH0 PUSH20 0xFFFFFFFFFFFFFFFFFFFFFFFFFFFFFFFFFFFFFFFF AND DUP7 PUSH20 0xFFFFFFFFFFFFFFFFFFFFFFFFFFFFFFFFFFFFFFFF AND SUB PUSH2 0x989 JUMPI PUSH1 0x3 PUSH0 DUP1 PUSH20 0xFFFFFFFFFFFFFFFFFFFFFFFFFFFFFFFFFFFFFFFF AND PUSH20 0xFFFFFFFFFFFFFFFFFFFFFFFFFFFFFFFFFFFFFFFF AND DUP2 MSTORE PUSH1 0x20 ADD SWAP1 DUP2 MSTORE PUSH1 0x20 ADD PUSH0 KECCAK256 PUSH0 ADD PUSH0 SWAP1 SLOAD SWAP1 PUSH2 0x100 EXP SWAP1 DIV PUSH1 0xFF AND DUP1 PUSH2 0x96E JUMPI POP PUSH0 PUSH20 0xFFFFFFFFFFFFFFFFFFFFFFFFFFFFFFFFFFFFFFFF AND PUSH1 0x3 PUSH0 DUP1 PUSH20 0xFFFFFFFFFFFFFFFFFFFFFFFFFFFFFFFFFFFFFFFF AND PUSH20 0xFFFFFFFFFFFFFFFFFFFFFFFFFFFFFFFFFFFFFFFF AND DUP2 MSTORE PUSH1 0x20 ADD SWAP1 DUP2 MSTORE PUSH1 0x20 ADD PUSH0 KECCAK256 PUSH0 ADD PUSH1 0x1 SWAP1 SLOAD SWAP1 PUSH2 0x100 EXP SWAP1 DIV PUSH20 0xFFFFFFFFFFFFFFFFFFFFFFFFFFFFFFFFFFFFFFFF AND PUSH20 0xFFFFFFFFFFFFFFFFFFFFFFFFFFFFFFFFFFFFFFFF AND EQ ISZERO JUMPDEST ISZERO PUSH2 0x984 JUMPI PUSH2 0x97D PUSH0 DUP6 PUSH2 0x1D87 JUMP JUMPDEST SWAP2 POP PUSH1 0x1 SWAP1 POP JUMPDEST PUSH2 0x9EC JUMP JUMPDEST PUSH1 0x3 PUSH0 DUP8 PUSH20 0xFFFFFFFFFFFFFFFFFFFFFFFFFFFFFFFFFFFFFFFF AND PUSH20 0xFFFFFFFFFFFFFFFFFFFFFFFFFFFFFFFFFFFFFFFF AND DUP2 MSTORE PUSH1 0x20 ADD SWAP1 DUP2 MSTORE PUSH1 0x20 ADD PUSH0 KECCAK256 PUSH0 ADD PUSH0 SWAP1 SLOAD SWAP1 PUSH2 0x100 EXP SWAP1 DIV PUSH1 0xFF AND ISZERO PUSH2 0x9EB JUMPI PUSH2 0x9E4 DUP7 DUP6 PUSH2 0x1D87 JUMP JUMPDEST SWAP2 POP PUSH1 0x1 SWAP1 POP JUMPDEST JUMPDEST DUP1 ISZERO PUSH2 0xAA0 JUMPI PUSH0 DUP3 PUSH1 0x5 SLOAD PUSH2 0xA01 SWAP2 SWAP1 PUSH2 0x28FA JUMP JUMPDEST SWAP1 POP PUSH32 0x0 DUP2 GT ISZERO PUSH2 0xA97 JUMPI DUP1 PUSH1 0x5 SLOAD PUSH32 0x0 PUSH2 0xA5A SWAP2 SWAP1 PUSH2 0x292D JUMP JUMPDEST PUSH1 0x40 MLOAD PUSH32 0x133D180E00000000000000000000000000000000000000000000000000000000 DUP2 MSTORE PUSH1 0x4 ADD PUSH2 0xA8E SWAP3 SWAP2 SWAP1 PUSH2 0x2960 JUMP JUMPDEST PUSH1 0x40 MLOAD DUP1 SWAP2 SUB SWAP1 REVERT JUMPDEST DUP1 PUSH1 0x5 DUP2 SWAP1 SSTORE POP POP JUMPDEST DUP4 PUSH1 0x2 PUSH0 DUP8 PUSH20 0xFFFFFFFFFFFFFFFFFFFFFFFFFFFFFFFFFFFFFFFF AND PUSH20 0xFFFFFFFFFFFFFFFFFFFFFFFFFFFFFFFFFFFFFFFF AND DUP2 MSTORE PUSH1 0x20 ADD SWAP1 DUP2 MSTORE PUSH1 0x20 ADD PUSH0 KECCAK256 PUSH0 DUP9 PUSH20 0xFFFFFFFFFFFFFFFFFFFFFFFFFFFFFFFFFFFFFFFF AND PUSH20 0xFFFFFFFFFFFFFFFFFFFFFFFFFFFFFFFFFFFFFFFF AND DUP2 MSTORE PUSH1 0x20 ADD SWAP1 DUP2 MSTORE PUSH1 0x20 ADD PUSH0 KECCAK256 PUSH0 DUP3 DUP3 SLOAD PUSH2 0xB27 SWAP2 SWAP1 PUSH2 0x28FA JUMP JUMPDEST SWAP3 POP POP DUP2 SWAP1 SSTORE POP DUP4 PUSH1 0x4 PUSH0 DUP9 PUSH20 0xFFFFFFFFFFFFFFFFFFFFFFFFFFFFFFFFFFFFFFFF AND PUSH20 0xFFFFFFFFFFFFFFFFFFFFFFFFFFFFFFFFFFFFFFFF AND DUP2 MSTORE PUSH1 0x20 ADD SWAP1 DUP2 MSTORE PUSH1 0x20 ADD PUSH0 KECCAK256 PUSH0 DUP3 DUP3 SLOAD PUSH2 0xB7A SWAP2 SWAP1 PUSH2 0x28FA JUMP JUMPDEST SWAP3 POP POP DUP2 SWAP1 SSTORE POP PUSH1 0x6 PUSH0 DUP2 SLOAD DUP1 SWAP3 SWAP2 SWAP1 PUSH1 0x1 ADD SWAP2 SWAP1 POP SSTORE POP DUP6 PUSH20 0xFFFFFFFFFFFFFFFFFFFFFFFFFFFFFFFFFFFFFFFF AND DUP6 PUSH20 0xFFFFFFFFFFFFFFFFFFFFFFFFFFFFFFFFFFFFFFFF AND PUSH32 0xDCBC1C05240F31FF3AD067EF1EE35CE4997762752E3A095284754544F4C709D7 DUP7 DUP6 PUSH1 0x40 MLOAD PUSH2 0xBF1 SWAP3 SWAP2 SWAP1 PUSH2 0x2960 JUMP JUMPDEST PUSH1 0x40 MLOAD DUP1 SWAP2 SUB SWAP1 LOG3 POP POP POP POP POP POP JUMP JUMPDEST PUSH0 PUSH32 0x7965DB0B00000000000000000000000000000000000000000000000000000000 PUSH28 0xFFFFFFFFFFFFFFFFFFFFFFFFFFFFFFFFFFFFFFFFFFFFFFFFFFFFFFFF NOT AND DUP3 PUSH28 0xFFFFFFFFFFFFFFFFFFFFFFFFFFFFFFFFFFFFFFFFFFFFFFFFFFFFFFFF NOT AND EQ DUP1 PUSH2 0xC73 JUMPI POP PUSH2 0xC72 DUP3 PUSH2 0x21EC JUMP JUMPDEST JUMPDEST SWAP1 POP SWAP2 SWAP1 POP JUMP JUMPDEST PUSH0 PUSH1 0x3 PUSH0 DUP4 PUSH20 0xFFFFFFFFFFFFFFFFFFFFFFFFFFFFFFFFFFFFFFFF AND PUSH20 0xFFFFFFFFFFFFFFFFFFFFFFFFFFFFFFFFFFFFFFFF AND DUP2 MSTORE PUSH1 0x20 ADD SWAP1 DUP2 MSTORE PUSH1 0x20 ADD PUSH0 KECCAK256 PUSH0 ADD PUSH1 0x1 SWAP1 SLOAD SWAP1 PUSH2 0x100 EXP SWAP1 DIV PUSH20 0xFFFFFFFFFFFFFFFFFFFFFFFFFFFFFFFFFFFFFFFF AND SWAP1 POP SWAP2 SWAP1 POP JUMP JUMPDEST PUSH0 DUP1 SHL PUSH2 0xCEE DUP2 PUSH2 0x2255 JUMP JUMPDEST PUSH2 0xD18 PUSH32 0xA49807205CE4D355092EF5A8A18F56E8913CF4A201FBE287825B095693C21775 DUP4 PUSH2 0x1471 JUMP JUMPDEST DUP2 PUSH20 0xFFFFFFFFFFFFFFFFFFFFFFFFFFFFFFFFFFFFFFFF AND PUSH32 0xA3B62BC36326052D97EA62D63C3D60308ED4C3EA8AC079DD8499F1E9C4F80C0F PUSH1 0x40 MLOAD PUSH1 0x40 MLOAD DUP1 SWAP2 SUB SWAP1 LOG2 POP POP JUMP JUMPDEST PUSH0 DUP1 PUSH0 DUP4 DUP2 MSTORE PUSH1 0x20 ADD SWAP1 DUP2 MSTORE PUSH1 0x20 ADD PUSH0 KECCAK256 PUSH1 0x1 ADD SLOAD SWAP1 POP SWAP2 SWAP1 POP JUMP JUMPDEST PUSH0 PUSH1 0x3 PUSH0 DUP4 PUSH20 0xFFFFFFFFFFFFFFFFFFFFFFFFFFFFFFFFFFFFFFFF AND PUSH20 0xFFFFFFFFFFFFFFFFFFFFFFFFFFFFFFFFFFFFFFFF AND DUP2 MSTORE PUSH1 0x20 ADD SWAP1 DUP2 MSTORE PUSH1 0x20 ADD PUSH0 KECCAK256 PUSH0 ADD PUSH0 SWAP1 SLOAD SWAP1 PUSH2 0x100 EXP SWAP1 DIV PUSH1 0xFF AND SWAP1 POP SWAP2 SWAP1 POP JUMP JUMPDEST PUSH1 0x5 SLOAD DUP2 JUMP JUMPDEST PUSH0 DUP2 PUSH20 0xFFFFFFFFFFFFFFFFFFFFFFFFFFFFFFFFFFFFFFFF AND PUSH4 0x313CE567 PUSH1 0x40 MLOAD DUP2 PUSH4 0xFFFFFFFF AND PUSH1 0xE0 SHL DUP2 MSTORE PUSH1 0x4 ADD PUSH1 0x20 PUSH1 0x40 MLOAD DUP1 DUP4 SUB DUP2 DUP7 GAS STATICCALL SWAP3 POP POP POP DUP1 ISZERO PUSH2 0xE3E JUMPI POP PUSH1 0x40 MLOAD RETURNDATASIZE PUSH1 0x1F NOT PUSH1 0x1F DUP3 ADD AND DUP3 ADD DUP1 PUSH1 0x40 MSTORE POP DUP2 ADD SWAP1 PUSH2 0xE3B SWAP2 SWAP1 PUSH2 0x299B JUMP JUMPDEST PUSH1 0x1 JUMPDEST PUSH2 0xE4B JUMPI PUSH1 0x12 SWAP1 POP PUSH2 0xE50 JUMP JUMPDEST DUP1 SWAP2 POP POP JUMPDEST SWAP2 SWAP1 POP JUMP JUMPDEST PUSH1 0x6 SLOAD DUP2 JUMP JUMPDEST PUSH2 0xE64 DUP3 PUSH2 0xD5F JUMP JUMPDEST PUSH2 0xE6D DUP2 PUSH2 0x2255 JUMP JUMPDEST PUSH2 0xE77 DUP4 DUP4 PUSH2 0x2269 JUMP JUMPDEST POP POP POP POP JUMP JUMPDEST PUSH2 0xE85 PUSH2 0x2352 JUMP JUMPDEST PUSH20 0xFFFFFFFFFFFFFFFFFFFFFFFFFFFFFFFFFFFFFFFF AND DUP2 PUSH20 0xFFFFFFFFFFFFFFFFFFFFFFFFFFFFFFFFFFFFFFFF AND EQ PUSH2 0xEE9 JUMPI PUSH1 0x40 MLOAD PUSH32 0x6697B23200000000000000000000000000000000000000000000000000000000 DUP2 MSTORE PUSH1 0x4 ADD PUSH1 0x40 MLOAD DUP1 SWAP2 SUB SWAP1 REVERT JUMPDEST PUSH2 0xEF3 DUP3 DUP3 PUSH2 0x2359 JUMP JUMPDEST POP POP POP JUMP JUMPDEST PUSH32 0xA49807205CE4D355092EF5A8A18F56E8913CF4A201FBE287825B095693C21775 PUSH2 0xF22 DUP2 PUSH2 0x2255 JUMP JUMPDEST PUSH0 DUP3 PUSH1 0xFF AND SUB PUSH2 0xF5E JUMPI PUSH1 0x40 MLOAD PUSH32 0x4FD5A4E600000000000000000000000000000000000000000000000000000000 DUP2 MSTORE PUSH1 0x4 ADD PUSH1 0x40 MLOAD DUP1 SWAP2 SUB SWAP1 REVERT JUMPDEST PUSH1 0x40 MLOAD DUP1 PUSH1 0x60 ADD PUSH1 0x40 MSTORE DUP1 PUSH1 0x1 ISZERO ISZERO DUP2 MSTORE PUSH1 0x20 ADD DUP5 PUSH20 0xFFFFFFFFFFFFFFFFFFFFFFFFFFFFFFFFFFFFFFFF AND DUP2 MSTORE PUSH1 0x20 ADD DUP4 PUSH1 0xFF AND DUP2 MSTORE POP PUSH1 0x3 PUSH0 DUP7 PUSH20 0xFFFFFFFFFFFFFFFFFFFFFFFFFFFFFFFFFFFFFFFF AND PUSH20 0xFFFFFFFFFFFFFFFFFFFFFFFFFFFFFFFFFFFFFFFF AND DUP2 MSTORE PUSH1 0x20 ADD SWAP1 DUP2 MSTORE PUSH1 0x20 ADD PUSH0 KECCAK256 PUSH0 DUP3 ADD MLOAD DUP2 PUSH0 ADD PUSH0 PUSH2 0x100 EXP DUP2 SLOAD DUP2 PUSH1 0xFF MUL NOT AND SWAP1 DUP4 ISZERO ISZERO MUL OR SWAP1 SSTORE POP PUSH1 0x20 DUP3 ADD MLOAD DUP2 PUSH0 ADD PUSH1 0x1 PUSH2 0x100 EXP DUP2 SLOAD DUP2 PUSH20 0xFFFFFFFFFFFFFFFFFFFFFFFFFFFFFFFFFFFFFFFF MUL NOT AND SWAP1 DUP4 PUSH20 0xFFFFFFFFFFFFFFFFFFFFFFFFFFFFFFFFFFFFFFFF AND MUL OR SWAP1 SSTORE POP PUSH1 0x40 DUP3 ADD MLOAD DUP2 PUSH0 ADD PUSH1 0x15 PUSH2 0x100 EXP DUP2 SLOAD DUP2 PUSH1 0xFF MUL NOT AND SWAP1 DUP4 PUSH1 0xFF AND MUL OR SWAP1 SSTORE POP SWAP1 POP POP DUP4 PUSH20 0xFFFFFFFFFFFFFFFFFFFFFFFFFFFFFFFFFFFFFFFF AND PUSH32 0x103F8026567C8396AA1DCD479B6C7D0EAAB4B19F5D3D83ADC242716987D6D0A DUP5 DUP5 PUSH1 0x40 MLOAD PUSH2 0x10A0 SWAP3 SWAP2 SWAP1 PUSH2 0x29C6 JUMP JUMPDEST PUSH1 0x40 MLOAD DUP1 SWAP2 SUB SWAP1 LOG2 POP POP POP POP JUMP JUMPDEST PUSH1 0x7 SLOAD DUP2 JUMP JUMPDEST PUSH0 DUP1 SHL PUSH2 0x10C0 DUP2 PUSH2 0x2255 JUMP JUMPDEST PUSH2 0x10EA PUSH32 0xA49807205CE4D355092EF5A8A18F56E8913CF4A201FBE287825B095693C21775 DUP4 PUSH2 0xE5B JUMP JUMPDEST DUP2 PUSH20 0xFFFFFFFFFFFFFFFFFFFFFFFFFFFFFFFFFFFFFFFF AND PUSH32 0x44D6D25963F097AD14F29F06854A01F575648A1EF82F30E562CCD3889717E339 PUSH1 0x40 MLOAD PUSH1 0x40 MLOAD DUP1 SWAP2 SUB SWAP1 LOG2 POP POP JUMP JUMPDEST PUSH32 0xA49807205CE4D355092EF5A8A18F56E8913CF4A201FBE287825B095693C21775 DUP2 JUMP JUMPDEST PUSH32 0xA49807205CE4D355092EF5A8A18F56E8913CF4A201FBE287825B095693C21775 PUSH2 0x117F DUP2 PUSH2 0x2255 JUMP JUMPDEST PUSH1 0x3 PUSH0 DUP4 PUSH20 0xFFFFFFFFFFFFFFFFFFFFFFFFFFFFFFFFFFFFFFFF AND PUSH20 0xFFFFFFFFFFFFFFFFFFFFFFFFFFFFFFFFFFFFFFFF AND DUP2 MSTORE PUSH1 0x20 ADD SWAP1 DUP2 MSTORE PUSH1 0x20 ADD PUSH0 KECCAK256 PUSH0 DUP1 DUP3 ADD PUSH0 PUSH2 0x100 EXP DUP2 SLOAD SWAP1 PUSH1 0xFF MUL NOT AND SWAP1 SSTORE PUSH0 DUP3 ADD PUSH1 0x1 PUSH2 0x100 EXP DUP2 SLOAD SWAP1 PUSH20 0xFFFFFFFFFFFFFFFFFFFFFFFFFFFFFFFFFFFFFFFF MUL NOT AND SWAP1 SSTORE PUSH0 DUP3 ADD PUSH1 0x15 PUSH2 0x100 EXP DUP2 SLOAD SWAP1 PUSH1 0xFF MUL NOT AND SWAP1 SSTORE POP POP DUP2 PUSH20 0xFFFFFFFFFFFFFFFFFFFFFFFFFFFFFFFFFFFFFFFF AND PUSH32 0xB02D270F645215800CEC778B856004C753AD0C8C6CA520A91A8399ACF4C63D4B PUSH1 0x40 MLOAD PUSH1 0x40 MLOAD DUP1 SWAP2 SUB SWAP1 LOG2 POP POP JUMP JUMPDEST PUSH0 DUP1 PUSH0 DUP5 DUP2 MSTORE PUSH1 0x20 ADD SWAP1 DUP2 MSTORE PUSH1 0x20 ADD PUSH0 KECCAK256 PUSH0 ADD PUSH0 DUP4 PUSH20 0xFFFFFFFFFFFFFFFFFFFFFFFFFFFFFFFFFFFFFFFF AND PUSH20 0xFFFFFFFFFFFFFFFFFFFFFFFFFFFFFFFFFFFFFFFF AND DUP2 MSTORE PUSH1 0x20 ADD SWAP1 DUP2 MSTORE PUSH1 0x20 ADD PUSH0 KECCAK256 PUSH0 SWAP1 SLOAD SWAP1 PUSH2 0x100 EXP SWAP1 DIV PUSH1 0xFF AND SWAP1 POP SWAP3 SWAP2 POP POP JUMP JUMPDEST DUP1 PUSH0 DUP2 SUB PUSH2 0x12EE JUMPI PUSH1 0x40 MLOAD PUSH32 0x85EA51AF00000000000000000000000000000000000000000000000000000000 DUP2 MSTORE PUSH1 0x4 ADD PUSH1 0x40 MLOAD DUP1 SWAP2 SUB SWAP1 REVERT JUMPDEST PUSH2 0x12F6 PUSH2 0x2442 JUMP JUMPDEST PUSH0 PUSH20 0xFFFFFFFFFFFFFFFFFFFFFFFFFFFFFFFFFFFFFFFF AND DUP4 PUSH20 0xFFFFFFFFFFFFFFFFFFFFFFFFFFFFFFFFFFFFFFFF AND SUB PUSH2 0x1366 JUMPI DUP3 PUSH1 0x40 MLOAD PUSH32 0x6713984D00000000000000000000000000000000000000000000000000000000 DUP2 MSTORE PUSH1 0x4 ADD PUSH2 0x135D SWAP2 SWAP1 PUSH2 0x2636 JUMP JUMPDEST PUSH1 0x40 MLOAD DUP1 SWAP2 SUB SWAP1 REVERT JUMPDEST DUP3 PUSH20 0xFFFFFFFFFFFFFFFFFFFFFFFFFFFFFFFFFFFFFFFF AND PUSH4 0x23B872DD CALLER ADDRESS DUP6 PUSH1 0x40 MLOAD DUP5 PUSH4 0xFFFFFFFF AND PUSH1 0xE0 SHL DUP2 MSTORE PUSH1 0x4 ADD PUSH2 0x13A3 SWAP4 SWAP3 SWAP2 SWAP1 PUSH2 0x29ED JUMP JUMPDEST PUSH1 0x20 PUSH1 0x40 MLOAD DUP1 DUP4 SUB DUP2 PUSH0 DUP8 GAS CALL ISZERO DUP1 ISZERO PUSH2 0x13BF JUMPI RETURNDATASIZE PUSH0 DUP1 RETURNDATACOPY RETURNDATASIZE PUSH0 REVERT JUMPDEST POP POP POP POP PUSH1 0x40 MLOAD RETURNDATASIZE PUSH1 0x1F NOT PUSH1 0x1F DUP3 ADD AND DUP3 ADD DUP1 PUSH1 0x40 MSTORE POP DUP2 ADD SWAP1 PUSH2 0x13E3 SWAP2 SWAP1 PUSH2 0x2A4C JUMP JUMPDEST POP PUSH2 0x13EF DUP4 CALLER DUP5 PUSH2 0x78F JUMP JUMPDEST PUSH2 0x13F7 PUSH2 0x2491 JUMP JUMPDEST POP POP POP JUMP JUMPDEST PUSH32 0x0 DUP2 JUMP JUMPDEST PUSH0 DUP1 SHL DUP2 JUMP JUMPDEST PUSH1 0x6 DUP2 JUMP JUMPDEST PUSH0 PUSH1 0x4 PUSH0 DUP4 PUSH20 0xFFFFFFFFFFFFFFFFFFFFFFFFFFFFFFFFFFFFFFFF AND PUSH20 0xFFFFFFFFFFFFFFFFFFFFFFFFFFFFFFFFFFFFFFFF AND DUP2 MSTORE PUSH1 0x20 ADD SWAP1 DUP2 MSTORE PUSH1 0x20 ADD PUSH0 KECCAK256 SLOAD SWAP1 POP SWAP2 SWAP1 POP JUMP JUMPDEST PUSH2 0x147A DUP3 PUSH2 0xD5F JUMP JUMPDEST PUSH2 0x1483 DUP2 PUSH2 0x2255 JUMP JUMPDEST PUSH2 0x148D DUP4 DUP4 PUSH2 0x2359 JUMP JUMPDEST POP POP POP POP JUMP JUMPDEST PUSH1 0x4 PUSH1 0x20 MSTORE DUP1 PUSH0 MSTORE PUSH1 0x40 PUSH0 KECCAK256 PUSH0 SWAP2 POP SWAP1 POP SLOAD DUP2 JUMP JUMPDEST PUSH0 PUSH32 0x0 SWAP1 POP SWAP1 JUMP JUMPDEST PUSH0 PUSH1 0x5 SLOAD SWAP1 POP SWAP1 JUMP JUMPDEST PUSH32 0x0 DUP2 JUMP JUMPDEST DUP1 PUSH0 DUP2 SUB PUSH2 0x1536 JUMPI PUSH1 0x40 MLOAD PUSH32 0x85EA51AF00000000000000000000000000000000000000000000000000000000 DUP2 MSTORE PUSH1 0x4 ADD PUSH1 0x40 MLOAD DUP1 SWAP2 SUB SWAP1 REVERT JUMPDEST PUSH2 0x153E PUSH2 0x2442 JUMP JUMPDEST DUP3 PUSH0 PUSH20 0xFFFFFFFFFFFFFFFFFFFFFFFFFFFFFFFFFFFFFFFF AND DUP2 PUSH20 0xFFFFFFFFFFFFFFFFFFFFFFFFFFFFFFFFFFFFFFFF AND EQ ISZERO DUP1 ISZERO PUSH2 0x15C4 JUMPI POP PUSH1 0x3 PUSH0 DUP3 PUSH20 0xFFFFFFFFFFFFFFFFFFFFFFFFFFFFFFFFFFFFFFFF AND PUSH20 0xFFFFFFFFFFFFFFFFFFFFFFFFFFFFFFFFFFFFFFFF AND DUP2 MSTORE PUSH1 0x20 ADD SWAP1 DUP2 MSTORE PUSH1 0x20 ADD PUSH0 KECCAK256 PUSH0 ADD PUSH0 SWAP1 SLOAD SWAP1 PUSH2 0x100 EXP SWAP1 DIV PUSH1 0xFF AND ISZERO JUMPDEST ISZERO PUSH2 0x1606 JUMPI DUP1 PUSH1 0x40 MLOAD PUSH32 0x6713984D00000000000000000000000000000000000000000000000000000000 DUP2 MSTORE PUSH1 0x4 ADD PUSH2 0x15FD SWAP2 SWAP1 PUSH2 0x2636 JUMP JUMPDEST PUSH1 0x40 MLOAD DUP1 SWAP2 SUB SWAP1 REVERT JUMPDEST PUSH0 PUSH1 0x2 PUSH0 CALLER PUSH20 0xFFFFFFFFFFFFFFFFFFFFFFFFFFFFFFFFFFFFFFFF AND PUSH20 0xFFFFFFFFFFFFFFFFFFFFFFFFFFFFFFFFFFFFFFFF AND DUP2 MSTORE PUSH1 0x20 ADD SWAP1 DUP2 MSTORE PUSH1 0x20 ADD PUSH0 KECCAK256 PUSH0 DUP7 PUSH20 0xFFFFFFFFFFFFFFFFFFFFFFFFFFFFFFFFFFFFFFFF AND PUSH20 0xFFFFFFFFFFFFFFFFFFFFFFFFFFFFFFFFFFFFFFFF AND DUP2 MSTORE PUSH1 0x20 ADD SWAP1 DUP2 MSTORE PUSH1 0x20 ADD PUSH0 KECCAK256 SLOAD SWAP1 POP DUP1 DUP5 GT ISZERO PUSH2 0x16CD JUMPI CALLER DUP6 DUP3 DUP7 PUSH1 0x40 MLOAD PUSH32 0x909EAFB200000000000000000000000000000000000000000000000000000000 DUP2 MSTORE PUSH1 0x4 ADD PUSH2 0x16C4 SWAP5 SWAP4 SWAP3 SWAP2 SWAP1 PUSH2 0x2A77 JUMP JUMPDEST PUSH1 0x40 MLOAD DUP1 SWAP2 SUB SWAP1 REVERT JUMPDEST PUSH0 PUSH20 0xFFFFFFFFFFFFFFFFFFFFFFFFFFFFFFFFFFFFFFFF AND DUP6 PUSH20 0xFFFFFFFFFFFFFFFFFFFFFFFFFFFFFFFFFFFFFFFF AND EQ DUP1 ISZERO PUSH2 0x1727 JUMPI POP PUSH32 0x0 DUP5 GT JUMPDEST ISZERO PUSH2 0x178B JUMPI DUP4 PUSH32 0x0 PUSH1 0x40 MLOAD PUSH32 0xD021CB2F00000000000000000000000000000000000000000000000000000000 DUP2 MSTORE PUSH1 0x4 ADD PUSH2 0x1782 SWAP3 SWAP2 SWAP1 PUSH2 0x2960 JUMP JUMPDEST PUSH1 0x40 MLOAD DUP1 SWAP2 SUB SWAP1 REVERT JUMPDEST PUSH0 DUP1 PUSH20 0xFFFFFFFFFFFFFFFFFFFFFFFFFFFFFFFFFFFFFFFF AND DUP7 PUSH20 0xFFFFFFFFFFFFFFFFFFFFFFFFFFFFFFFFFFFFFFFF AND SUB PUSH2 0x18B8 JUMPI PUSH1 0x3 PUSH0 DUP1 PUSH20 0xFFFFFFFFFFFFFFFFFFFFFFFFFFFFFFFFFFFFFFFF AND PUSH20 0xFFFFFFFFFFFFFFFFFFFFFFFFFFFFFFFFFFFFFFFF AND DUP2 MSTORE PUSH1 0x20 ADD SWAP1 DUP2 MSTORE PUSH1 0x20 ADD PUSH0 KECCAK256 PUSH0 ADD PUSH0 SWAP1 SLOAD SWAP1 PUSH2 0x100 EXP SWAP1 DIV PUSH1 0xFF AND DUP1 PUSH2 0x18A1 JUMPI POP PUSH0 PUSH20 0xFFFFFFFFFFFFFFFFFFFFFFFFFFFFFFFFFFFFFFFF AND PUSH1 0x3 PUSH0 DUP1 PUSH20 0xFFFFFFFFFFFFFFFFFFFFFFFFFFFFFFFFFFFFFFFF AND PUSH20 0xFFFFFFFFFFFFFFFFFFFFFFFFFFFFFFFFFFFFFFFF AND DUP2 MSTORE PUSH1 0x20 ADD SWAP1 DUP2 MSTORE PUSH1 0x20 ADD PUSH0 KECCAK256 PUSH0 ADD PUSH1 0x1 SWAP1 SLOAD SWAP1 PUSH2 0x100 EXP SWAP1 DIV PUSH20 0xFFFFFFFFFFFFFFFFFFFFFFFFFFFFFFFFFFFFFFFF AND PUSH20 0xFFFFFFFFFFFFFFFFFFFFFFFFFFFFFFFFFFFFFFFF AND EQ ISZERO JUMPDEST ISZERO PUSH2 0x18B3 JUMPI PUSH2 0x18B0 PUSH0 DUP7 PUSH2 0x1D87 JUMP JUMPDEST SWAP1 POP JUMPDEST PUSH2 0x1917 JUMP JUMPDEST PUSH1 0x3 PUSH0 DUP8 PUSH20 0xFFFFFFFFFFFFFFFFFFFFFFFFFFFFFFFFFFFFFFFF AND PUSH20 0xFFFFFFFFFFFFFFFFFFFFFFFFFFFFFFFFFFFFFFFF AND DUP2 MSTORE PUSH1 0x20 ADD SWAP1 DUP2 MSTORE PUSH1 0x20 ADD PUSH0 KECCAK256 PUSH0 ADD PUSH0 SWAP1 SLOAD SWAP1 PUSH2 0x100 EXP SWAP1 DIV PUSH1 0xFF AND ISZERO PUSH2 0x1916 JUMPI PUSH2 0x1913 DUP7 DUP7 PUSH2 0x1D87 JUMP JUMPDEST SWAP1 POP JUMPDEST JUMPDEST DUP5 DUP3 PUSH2 0x1923 SWAP2 SWAP1 PUSH2 0x292D JUMP JUMPDEST PUSH1 0x2 PUSH0 CALLER PUSH20 0xFFFFFFFFFFFFFFFFFFFFFFFFFFFFFFFFFFFFFFFF AND PUSH20 0xFFFFFFFFFFFFFFFFFFFFFFFFFFFFFFFFFFFFFFFF AND DUP2 MSTORE PUSH1 0x20 ADD SWAP1 DUP2 MSTORE PUSH1 0x20 ADD PUSH0 KECCAK256 PUSH0 DUP9 PUSH20 0xFFFFFFFFFFFFFFFFFFFFFFFFFFFFFFFFFFFFFFFF AND PUSH20 0xFFFFFFFFFFFFFFFFFFFFFFFFFFFFFFFFFFFFFFFF AND DUP2 MSTORE PUSH1 0x20 ADD SWAP1 DUP2 MSTORE PUSH1 0x20 ADD PUSH0 KECCAK256 DUP2 SWAP1 SSTORE POP DUP5 PUSH1 0x4 PUSH0 DUP9 PUSH20 0xFFFFFFFFFFFFFFFFFFFFFFFFFFFFFFFFFFFFFFFF AND PUSH20 0xFFFFFFFFFFFFFFFFFFFFFFFFFFFFFFFFFFFFFFFF AND DUP2 MSTORE PUSH1 0x20 ADD SWAP1 DUP2 MSTORE PUSH1 0x20 ADD PUSH0 KECCAK256 PUSH0 DUP3 DUP3 SLOAD PUSH2 0x19EB SWAP2 SWAP1 PUSH2 0x292D JUMP JUMPDEST SWAP3 POP POP DUP2 SWAP1 SSTORE POP PUSH0 DUP2 GT ISZERO PUSH2 0x1A1F JUMPI DUP1 PUSH1 0x5 SLOAD GT PUSH2 0x1A09 JUMPI PUSH0 PUSH2 0x1A18 JUMP JUMPDEST DUP1 PUSH1 0x5 SLOAD PUSH2 0x1A17 SWAP2 SWAP1 PUSH2 0x292D JUMP JUMPDEST JUMPDEST PUSH1 0x5 DUP2 SWAP1 SSTORE POP JUMPDEST PUSH1 0x7 PUSH0 DUP2 SLOAD DUP1 SWAP3 SWAP2 SWAP1 PUSH1 0x1 ADD SWAP2 SWAP1 POP SSTORE POP PUSH0 PUSH20 0xFFFFFFFFFFFFFFFFFFFFFFFFFFFFFFFFFFFFFFFF AND DUP7 PUSH20 0xFFFFFFFFFFFFFFFFFFFFFFFFFFFFFFFFFFFFFFFF AND SUB PUSH2 0x1B15 JUMPI PUSH0 CALLER PUSH20 0xFFFFFFFFFFFFFFFFFFFFFFFFFFFFFFFFFFFFFFFF AND DUP7 PUSH1 0x40 MLOAD PUSH2 0x1A88 SWAP1 PUSH2 0x2AE7 JUMP JUMPDEST PUSH0 PUSH1 0x40 MLOAD DUP1 DUP4 SUB DUP2 DUP6 DUP8 GAS CALL SWAP3 POP POP POP RETURNDATASIZE DUP1 PUSH0 DUP2 EQ PUSH2 0x1AC2 JUMPI PUSH1 0x40 MLOAD SWAP2 POP PUSH1 0x1F NOT PUSH1 0x3F RETURNDATASIZE ADD AND DUP3 ADD PUSH1 0x40 MSTORE RETURNDATASIZE DUP3 MSTORE RETURNDATASIZE PUSH0 PUSH1 0x20 DUP5 ADD RETURNDATACOPY PUSH2 0x1AC7 JUMP JUMPDEST PUSH1 0x60 SWAP2 POP JUMPDEST POP POP SWAP1 POP DUP1 PUSH2 0x1B0F JUMPI CALLER DUP7 PUSH1 0x40 MLOAD PUSH32 0xC66CEE3800000000000000000000000000000000000000000000000000000000 DUP2 MSTORE PUSH1 0x4 ADD PUSH2 0x1B06 SWAP3 SWAP2 SWAP1 PUSH2 0x2AFB JUMP JUMPDEST PUSH1 0x40 MLOAD DUP1 SWAP2 SUB SWAP1 REVERT JUMPDEST POP PUSH2 0x1BD9 JUMP JUMPDEST PUSH0 DUP7 PUSH20 0xFFFFFFFFFFFFFFFFFFFFFFFFFFFFFFFFFFFFFFFF AND PUSH4 0xA9059CBB CALLER DUP9 PUSH1 0x40 MLOAD DUP4 PUSH4 0xFFFFFFFF AND PUSH1 0xE0 SHL DUP2 MSTORE PUSH1 0x4 ADD PUSH2 0x1B51 SWAP3 SWAP2 SWAP1 PUSH2 0x2AFB JUMP JUMPDEST PUSH1 0x20 PUSH1 0x40 MLOAD DUP1 DUP4 SUB DUP2 PUSH0 DUP8 GAS CALL ISZERO DUP1 ISZERO PUSH2 0x1B6D JUMPI RETURNDATASIZE PUSH0 DUP1 RETURNDATACOPY RETURNDATASIZE PUSH0 REVERT JUMPDEST POP POP POP POP PUSH1 0x40 MLOAD RETURNDATASIZE PUSH1 0x1F NOT PUSH1 0x1F DUP3 ADD AND DUP3 ADD DUP1 PUSH1 0x40 MSTORE POP DUP2 ADD SWAP1 PUSH2 0x1B91 SWAP2 SWAP1 PUSH2 0x2A4C JUMP JUMPDEST SWAP1 POP DUP1 PUSH2 0x1BD7 JUMPI CALLER DUP7 PUSH1 0x40 MLOAD PUSH32 0xC66CEE3800000000000000000000000000000000000000000000000000000000 DUP2 MSTORE PUSH1 0x4 ADD PUSH2 0x1BCE SWAP3 SWAP2 SWAP1 PUSH2 0x2AFB JUMP JUMPDEST PUSH1 0x40 MLOAD DUP1 SWAP2 SUB SWAP1 REVERT JUMPDEST POP JUMPDEST DUP6 PUSH20 0xFFFFFFFFFFFFFFFFFFFFFFFFFFFFFFFFFFFFFFFF AND CALLER PUSH20 0xFFFFFFFFFFFFFFFFFFFFFFFFFFFFFFFFFFFFFFFF AND PUSH32 0xF341246ADAAC6F497BC2A656F546AB9E182111D630394F0C57C710A59A2CB567 DUP8 DUP5 PUSH1 0x40 MLOAD PUSH2 0x1C38 SWAP3 SWAP2 SWAP1 PUSH2 0x2960 JUMP JUMPDEST PUSH1 0x40 MLOAD DUP1 SWAP2 SUB SWAP1 LOG3 POP POP POP PUSH2 0x1C4B PUSH2 0x2491 JUMP JUMPDEST POP POP POP JUMP JUMPDEST PUSH1 0x3 PUSH1 0x20 MSTORE DUP1 PUSH0 MSTORE PUSH1 0x40 PUSH0 KECCAK256 PUSH0 SWAP2 POP SWAP1 POP DUP1 PUSH0 ADD PUSH0 SWAP1 SLOAD SWAP1 PUSH2 0x100 EXP SWAP1 DIV PUSH1 0xFF AND SWAP1 DUP1 PUSH0 ADD PUSH1 0x1 SWAP1 SLOAD SWAP1 PUSH2 0x100 EXP SWAP1 DIV PUSH20 0xFFFFFFFFFFFFFFFFFFFFFFFFFFFFFFFFFFFFFFFF AND SWAP1 DUP1 PUSH0 ADD PUSH1 0x15 SWAP1 SLOAD SWAP1 PUSH2 0x100 EXP SWAP1 DIV PUSH1 0xFF AND SWAP1 POP DUP4 JUMP JUMPDEST CALLVALUE PUSH0 DUP2 SUB PUSH2 0x1CE7 JUMPI PUSH1 0x40 MLOAD PUSH32 0x85EA51AF00000000000000000000000000000000000000000000000000000000 DUP2 MSTORE PUSH1 0x4 ADD PUSH1 0x40 MLOAD DUP1 SWAP2 SUB SWAP1 REVERT JUMPDEST PUSH2 0x1CEF PUSH2 0x2442 JUMP JUMPDEST PUSH2 0x1CFA PUSH0 CALLER CALLVALUE PUSH2 0x78F JUMP JUMPDEST PUSH2 0x1D02 PUSH2 0x2491 JUMP JUMPDEST POP JUMP JUMPDEST PUSH0 PUSH1 0x2 PUSH0 DUP5 PUSH20 0xFFFFFFFFFFFFFFFFFFFFFFFFFFFFFFFFFFFFFFFF AND PUSH20 0xFFFFFFFFFFFFFFFFFFFFFFFFFFFFFFFFFFFFFFFF AND DUP2 MSTORE PUSH1 0x20 ADD SWAP1 DUP2 MSTORE PUSH1 0x20 ADD PUSH0 KECCAK256 PUSH0 DUP4 PUSH20 0xFFFFFFFFFFFFFFFFFFFFFFFFFFFFFFFFFFFFFFFF AND PUSH20 0xFFFFFFFFFFFFFFFFFFFFFFFFFFFFFFFFFFFFFFFF AND DUP2 MSTORE PUSH1 0x20 ADD SWAP1 DUP2 MSTORE PUSH1 0x20 ADD PUSH0 KECCAK256 SLOAD SWAP1 POP SWAP3 SWAP2 POP POP JUMP JUMPDEST PUSH0 DUP1 PUSH0 DUP1 PUSH20 0xFFFFFFFFFFFFFFFFFFFFFFFFFFFFFFFFFFFFFFFF AND DUP6 PUSH20 0xFFFFFFFFFFFFFFFFFFFFFFFFFFFFFFFFFFFFFFFF AND SUB PUSH2 0x1F13 JUMPI PUSH0 PUSH1 0x3 PUSH0 DUP1 PUSH20 0xFFFFFFFFFFFFFFFFFFFFFFFFFFFFFFFFFFFFFFFF AND PUSH20 0xFFFFFFFFFFFFFFFFFFFFFFFFFFFFFFFFFFFFFFFF AND DUP2 MSTORE PUSH1 0x20 ADD SWAP1 DUP2 MSTORE PUSH1 0x20 ADD PUSH0 KECCAK256 PUSH1 0x40 MLOAD DUP1 PUSH1 0x60 ADD PUSH1 0x40 MSTORE SWAP1 DUP2 PUSH0 DUP3 ADD PUSH0 SWAP1 SLOAD SWAP1 PUSH2 0x100 EXP SWAP1 DIV PUSH1 0xFF AND ISZERO ISZERO ISZERO ISZERO DUP2 MSTORE PUSH1 0x20 ADD PUSH0 DUP3 ADD PUSH1 0x1 SWAP1 SLOAD SWAP1 PUSH2 0x100 EXP SWAP1 DIV PUSH20 0xFFFFFFFFFFFFFFFFFFFFFFFFFFFFFFFFFFFFFFFF AND PUSH20 0xFFFFFFFFFFFFFFFFFFFFFFFFFFFFFFFFFFFFFFFF AND PUSH20 0xFFFFFFFFFFFFFFFFFFFFFFFFFFFFFFFFFFFFFFFF AND DUP2 MSTORE PUSH1 0x20 ADD PUSH0 DUP3 ADD PUSH1 0x15 SWAP1 SLOAD SWAP1 PUSH2 0x100 EXP SWAP1 DIV PUSH1 0xFF AND PUSH1 0xFF AND PUSH1 0xFF AND DUP2 MSTORE POP POP SWAP1 POP DUP1 PUSH1 0x20 ADD MLOAD SWAP3 POP PUSH1 0x12 SWAP2 POP PUSH0 PUSH20 0xFFFFFFFFFFFFFFFFFFFFFFFFFFFFFFFFFFFFFFFF AND DUP4 PUSH20 0xFFFFFFFFFFFFFFFFFFFFFFFFFFFFFFFFFFFFFFFF AND SUB PUSH2 0x1F0D JUMPI DUP6 PUSH1 0x40 MLOAD PUSH32 0x6713984D00000000000000000000000000000000000000000000000000000000 DUP2 MSTORE PUSH1 0x4 ADD PUSH2 0x1F04 SWAP2 SWAP1 PUSH2 0x2636 JUMP JUMPDEST PUSH1 0x40 MLOAD DUP1 SWAP2 SUB SWAP1 REVERT JUMPDEST POP PUSH2 0x2079 JUMP JUMPDEST PUSH0 PUSH1 0x3 PUSH0 DUP8 PUSH20 0xFFFFFFFFFFFFFFFFFFFFFFFFFFFFFFFFFFFFFFFF AND PUSH20 0xFFFFFFFFFFFFFFFFFFFFFFFFFFFFFFFFFFFFFFFF AND DUP2 MSTORE PUSH1 0x20 ADD SWAP1 DUP2 MSTORE PUSH1 0x20 ADD PUSH0 KECCAK256 PUSH1 0x40 MLOAD DUP1 PUSH1 0x60 ADD PUSH1 0x40 MSTORE SWAP1 DUP2 PUSH0 DUP3 ADD PUSH0 SWAP1 SLOAD SWAP1 PUSH2 0x100 EXP SWAP1 DIV PUSH1 0xFF AND ISZERO ISZERO ISZERO ISZERO DUP2 MSTORE PUSH1 0x20 ADD PUSH0 DUP3 ADD PUSH1 0x1 SWAP1 SLOAD SWAP1 PUSH2 0x100 EXP SWAP1 DIV PUSH20 0xFFFFFFFFFFFFFFFFFFFFFFFFFFFFFFFFFFFFFFFF AND PUSH20 0xFFFFFFFFFFFFFFFFFFFFFFFFFFFFFFFFFFFFFFFF AND PUSH20 0xFFFFFFFFFFFFFFFFFFFFFFFFFFFFFFFFFFFFFFFF AND DUP2 MSTORE PUSH1 0x20 ADD PUSH0 DUP3 ADD PUSH1 0x15 SWAP1 SLOAD SWAP1 PUSH2 0x100 EXP SWAP1 DIV PUSH1 0xFF AND PUSH1 0xFF AND PUSH1 0xFF AND DUP2 MSTORE POP POP SWAP1 POP DUP1 PUSH0 ADD MLOAD ISZERO DUP1 PUSH2 0x2027 JUMPI POP PUSH0 PUSH20 0xFFFFFFFFFFFFFFFFFFFFFFFFFFFFFFFFFFFFFFFF AND DUP2 PUSH1 0x20 ADD MLOAD PUSH20 0xFFFFFFFFFFFFFFFFFFFFFFFFFFFFFFFFFFFFFFFF AND EQ JUMPDEST ISZERO PUSH2 0x2069 JUMPI DUP6 PUSH1 0x40 MLOAD PUSH32 0x6713984D00000000000000000000000000000000000000000000000000000000 DUP2 MSTORE PUSH1 0x4 ADD PUSH2 0x2060 SWAP2 SWAP1 PUSH2 0x2636 JUMP JUMPDEST PUSH1 0x40 MLOAD DUP1 SWAP2 SUB SWAP1 REVERT JUMPDEST DUP1 PUSH1 0x20 ADD MLOAD SWAP3 POP DUP1 PUSH1 0x40 ADD MLOAD SWAP2 POP POP JUMPDEST PUSH0 DUP3 SWAP1 POP PUSH0 DUP2 PUSH20 0xFFFFFFFFFFFFFFFFFFFFFFFFFFFFFFFFFFFFFFFF AND PUSH4 0xFEAF968C PUSH1 0x40 MLOAD DUP2 PUSH4 0xFFFFFFFF AND PUSH1 0xE0 SHL DUP2 MSTORE PUSH1 0x4 ADD PUSH1 0xA0 PUSH1 0x40 MLOAD DUP1 DUP4 SUB DUP2 DUP7 GAS STATICCALL ISZERO DUP1 ISZERO PUSH2 0x20C7 JUMPI RETURNDATASIZE PUSH0 DUP1 RETURNDATACOPY RETURNDATASIZE PUSH0 REVERT JUMPDEST POP POP POP POP PUSH1 0x40 MLOAD RETURNDATASIZE PUSH1 0x1F NOT PUSH1 0x1F DUP3 ADD AND DUP3 ADD DUP1 PUSH1 0x40 MSTORE POP DUP2 ADD SWAP1 PUSH2 0x20EB SWAP2 SWAP1 PUSH2 0x2BA8 JUMP JUMPDEST POP POP POP SWAP2 POP POP PUSH0 DUP2 SGT PUSH2 0x2133 JUMPI PUSH1 0x40 MLOAD PUSH32 0x8C379A000000000000000000000000000000000000000000000000000000000 DUP2 MSTORE PUSH1 0x4 ADD PUSH2 0x212A SWAP1 PUSH2 0x2C79 JUMP JUMPDEST PUSH1 0x40 MLOAD DUP1 SWAP2 SUB SWAP1 REVERT JUMPDEST PUSH0 DUP2 SWAP1 POP PUSH0 PUSH1 0x8 SWAP1 POP PUSH0 DUP3 DUP10 PUSH2 0x2149 SWAP2 SWAP1 PUSH2 0x2C97 JUMP JUMPDEST SWAP1 POP PUSH0 DUP7 PUSH1 0xA PUSH2 0x2159 SWAP2 SWAP1 PUSH2 0x2E07 JUMP JUMPDEST DUP3 PUSH2 0x2164 SWAP2 SWAP1 PUSH2 0x2E7E JUMP JUMPDEST SWAP1 POP PUSH1 0x6 PUSH1 0xFF AND DUP4 PUSH1 0xFF AND LT PUSH2 0x21AF JUMPI PUSH0 PUSH1 0x6 DUP5 PUSH2 0x2182 SWAP2 SWAP1 PUSH2 0x2EAE JUMP JUMPDEST PUSH1 0xFF AND PUSH1 0xA PUSH2 0x2191 SWAP2 SWAP1 PUSH2 0x2EE2 JUMP JUMPDEST SWAP1 POP DUP1 DUP3 PUSH2 0x219F SWAP2 SWAP1 PUSH2 0x2E7E JUMP JUMPDEST SWAP10 POP POP POP POP POP POP POP POP POP POP PUSH2 0x21E6 JUMP JUMPDEST PUSH0 DUP4 PUSH1 0x6 PUSH2 0x21BD SWAP2 SWAP1 PUSH2 0x2EAE JUMP JUMPDEST PUSH1 0xFF AND PUSH1 0xA PUSH2 0x21CC SWAP2 SWAP1 PUSH2 0x2EE2 JUMP JUMPDEST SWAP1 POP DUP1 DUP3 PUSH2 0x21DA SWAP2 SWAP1 PUSH2 0x2C97 JUMP JUMPDEST SWAP10 POP POP POP POP POP POP POP POP POP POP JUMPDEST SWAP3 SWAP2 POP POP JUMP JUMPDEST PUSH0 PUSH32 0x1FFC9A700000000000000000000000000000000000000000000000000000000 PUSH28 0xFFFFFFFFFFFFFFFFFFFFFFFFFFFFFFFFFFFFFFFFFFFFFFFFFFFFFFFF NOT AND DUP3 PUSH28 0xFFFFFFFFFFFFFFFFFFFFFFFFFFFFFFFFFFFFFFFFFFFFFFFFFFFFFFFF NOT AND EQ SWAP1 POP SWAP2 SWAP1 POP JUMP JUMPDEST PUSH2 0x2266 DUP2 PUSH2 0x2261 PUSH2 0x2352 JUMP JUMPDEST PUSH2 0x249A JUMP JUMPDEST POP JUMP JUMPDEST PUSH0 PUSH2 0x2274 DUP4 DUP4 PUSH2 0x1251 JUMP JUMPDEST PUSH2 0x2348 JUMPI PUSH1 0x1 PUSH0 DUP1 DUP6 DUP2 MSTORE PUSH1 0x20 ADD SWAP1 DUP2 MSTORE PUSH1 0x20 ADD PUSH0 KECCAK256 PUSH0 ADD PUSH0 DUP5 PUSH20 0xFFFFFFFFFFFFFFFFFFFFFFFFFFFFFFFFFFFFFFFF AND PUSH20 0xFFFFFFFFFFFFFFFFFFFFFFFFFFFFFFFFFFFFFFFF AND DUP2 MSTORE PUSH1 0x20 ADD SWAP1 DUP2 MSTORE PUSH1 0x20 ADD PUSH0 KECCAK256 PUSH0 PUSH2 0x100 EXP DUP2 SLOAD DUP2 PUSH1 0xFF MUL NOT AND SWAP1 DUP4 ISZERO ISZERO MUL OR SWAP1 SSTORE POP PUSH2 0x22E5 PUSH2 0x2352 JUMP JUMPDEST PUSH20 0xFFFFFFFFFFFFFFFFFFFFFFFFFFFFFFFFFFFFFFFF AND DUP3 PUSH20 0xFFFFFFFFFFFFFFFFFFFFFFFFFFFFFFFFFFFFFFFF AND DUP5 PUSH32 0x2F8788117E7EFF1D82E926EC794901D17C78024A50270940304540A733656F0D PUSH1 0x40 MLOAD PUSH1 0x40 MLOAD DUP1 SWAP2 SUB SWAP1 LOG4 PUSH1 0x1 SWAP1 POP PUSH2 0x234C JUMP JUMPDEST PUSH0 SWAP1 POP JUMPDEST SWAP3 SWAP2 POP POP JUMP JUMPDEST PUSH0 CALLER SWAP1 POP SWAP1 JUMP JUMPDEST PUSH0 PUSH2 0x2364 DUP4 DUP4 PUSH2 0x1251 JUMP JUMPDEST ISZERO PUSH2 0x2438 JUMPI PUSH0 DUP1 PUSH0 DUP6 DUP2 MSTORE PUSH1 0x20 ADD SWAP1 DUP2 MSTORE PUSH1 0x20 ADD PUSH0 KECCAK256 PUSH0 ADD PUSH0 DUP5 PUSH20 0xFFFFFFFFFFFFFFFFFFFFFFFFFFFFFFFFFFFFFFFF AND PUSH20 0xFFFFFFFFFFFFFFFFFFFFFFFFFFFFFFFFFFFFFFFF AND DUP2 MSTORE PUSH1 0x20 ADD SWAP1 DUP2 MSTORE PUSH1 0x20 ADD PUSH0 KECCAK256 PUSH0 PUSH2 0x100 EXP DUP2 SLOAD DUP2 PUSH1 0xFF MUL NOT AND SWAP1 DUP4 ISZERO ISZERO MUL OR SWAP1 SSTORE POP PUSH2 0x23D5 PUSH2 0x2352 JUMP JUMPDEST PUSH20 0xFFFFFFFFFFFFFFFFFFFFFFFFFFFFFFFFFFFFFFFF AND DUP3 PUSH20 0xFFFFFFFFFFFFFFFFFFFFFFFFFFFFFFFFFFFFFFFF AND DUP5 PUSH32 0xF6391F5C32D9C69D2A47EA670B442974B53935D1EDC7FD64EB21E047A839171B PUSH1 0x40 MLOAD PUSH1 0x40 MLOAD DUP1 SWAP2 SUB SWAP1 LOG4 PUSH1 0x1 SWAP1 POP PUSH2 0x243C JUMP JUMPDEST PUSH0 SWAP1 POP JUMPDEST SWAP3 SWAP2 POP POP JUMP JUMPDEST PUSH1 0x2 PUSH1 0x1 SLOAD SUB PUSH2 0x2487 JUMPI PUSH1 0x40 MLOAD PUSH32 0x8C379A000000000000000000000000000000000000000000000000000000000 DUP2 MSTORE PUSH1 0x4 ADD PUSH2 0x247E SWAP1 PUSH2 0x2F76 JUMP JUMPDEST PUSH1 0x40 MLOAD DUP1 SWAP2 SUB SWAP1 REVERT JUMPDEST PUSH1 0x2 PUSH1 0x1 DUP2 SWAP1 SSTORE POP JUMP JUMPDEST PUSH1 0x1 DUP1 DUP2 SWAP1 SSTORE POP JUMP JUMPDEST PUSH2 0x24A4 DUP3 DUP3 PUSH2 0x1251 JUMP JUMPDEST PUSH2 0x24E7 JUMPI DUP1 DUP3 PUSH1 0x40 MLOAD PUSH32 0xE2517D3F00000000000000000000000000000000000000000000000000000000 DUP2 MSTORE PUSH1 0x4 ADD PUSH2 0x24DE SWAP3 SWAP2 SWAP1 PUSH2 0x2F94 JUMP JUMPDEST PUSH1 0x40 MLOAD DUP1 SWAP2 SUB SWAP1 REVERT JUMPDEST POP POP JUMP JUMPDEST PUSH0 DUP1 REVERT JUMPDEST PUSH0 PUSH32 0xFFFFFFFF00000000000000000000000000000000000000000000000000000000 DUP3 AND SWAP1 POP SWAP2 SWAP1 POP JUMP JUMPDEST PUSH2 0x2523 DUP2 PUSH2 0x24EF JUMP JUMPDEST DUP2 EQ PUSH2 0x252D JUMPI PUSH0 DUP1 REVERT JUMPDEST POP JUMP JUMPDEST PUSH0 DUP2 CALLDATALOAD SWAP1 POP PUSH2 0x253E DUP2 PUSH2 0x251A JUMP JUMPDEST SWAP3 SWAP2 POP POP JUMP JUMPDEST PUSH0 PUSH1 0x20 DUP3 DUP5 SUB SLT ISZERO PUSH2 0x2559 JUMPI PUSH2 0x2558 PUSH2 0x24EB JUMP JUMPDEST JUMPDEST PUSH0 PUSH2 0x2566 DUP5 DUP3 DUP6 ADD PUSH2 0x2530 JUMP JUMPDEST SWAP2 POP POP SWAP3 SWAP2 POP POP JUMP JUMPDEST PUSH0 DUP2 ISZERO ISZERO SWAP1 POP SWAP2 SWAP1 POP JUMP JUMPDEST PUSH2 0x2583 DUP2 PUSH2 0x256F JUMP JUMPDEST DUP3 MSTORE POP POP JUMP JUMPDEST PUSH0 PUSH1 0x20 DUP3 ADD SWAP1 POP PUSH2 0x259C PUSH0 DUP4 ADD DUP5 PUSH2 0x257A JUMP JUMPDEST SWAP3 SWAP2 POP POP JUMP JUMPDEST PUSH0 PUSH20 0xFFFFFFFFFFFFFFFFFFFFFFFFFFFFFFFFFFFFFFFF DUP3 AND SWAP1 POP SWAP2 SWAP1 POP JUMP JUMPDEST PUSH0 PUSH2 0x25CB DUP3 PUSH2 0x25A2 JUMP JUMPDEST SWAP1 POP SWAP2 SWAP1 POP JUMP JUMPDEST PUSH2 0x25DB DUP2 PUSH2 0x25C1 JUMP JUMPDEST DUP2 EQ PUSH2 0x25E5 JUMPI PUSH0 DUP1 REVERT JUMPDEST POP JUMP JUMPDEST PUSH0 DUP2 CALLDATALOAD SWAP1 POP PUSH2 0x25F6 DUP2 PUSH2 0x25D2 JUMP JUMPDEST SWAP3 SWAP2 POP POP JUMP JUMPDEST PUSH0 PUSH1 0x20 DUP3 DUP5 SUB SLT ISZERO PUSH2 0x2611 JUMPI PUSH2 0x2610 PUSH2 0x24EB JUMP JUMPDEST JUMPDEST PUSH0 PUSH2 0x261E DUP5 DUP3 DUP6 ADD PUSH2 0x25E8 JUMP JUMPDEST SWAP2 POP POP SWAP3 SWAP2 POP POP JUMP JUMPDEST PUSH2 0x2630 DUP2 PUSH2 0x25C1 JUMP JUMPDEST DUP3 MSTORE POP POP JUMP JUMPDEST PUSH0 PUSH1 0x20 DUP3 ADD SWAP1 POP PUSH2 0x2649 PUSH0 DUP4 ADD DUP5 PUSH2 0x2627 JUMP JUMPDEST SWAP3 SWAP2 POP POP JUMP JUMPDEST PUSH0 DUP2 SWAP1 POP SWAP2 SWAP1 POP JUMP JUMPDEST PUSH2 0x2661 DUP2 PUSH2 0x264F JUMP JUMPDEST DUP2 EQ PUSH2 0x266B JUMPI PUSH0 DUP1 REVERT JUMPDEST POP JUMP JUMPDEST PUSH0 DUP2 CALLDATALOAD SWAP1 POP PUSH2 0x267C DUP2 PUSH2 0x2658 JUMP JUMPDEST SWAP3 SWAP2 POP POP JUMP JUMPDEST PUSH0 PUSH1 0x20 DUP3 DUP5 SUB SLT ISZERO PUSH2 0x2697 JUMPI PUSH2 0x2696 PUSH2 0x24EB JUMP JUMPDEST JUMPDEST PUSH0 PUSH2 0x26A4 DUP5 DUP3 DUP6 ADD PUSH2 0x266E JUMP JUMPDEST SWAP2 POP POP SWAP3 SWAP2 POP POP JUMP JUMPDEST PUSH2 0x26B6 DUP2 PUSH2 0x264F JUMP JUMPDEST DUP3 MSTORE POP POP JUMP JUMPDEST PUSH0 PUSH1 0x20 DUP3 ADD SWAP1 POP PUSH2 0x26CF PUSH0 DUP4 ADD DUP5 PUSH2 0x26AD JUMP JUMPDEST SWAP3 SWAP2 POP POP JUMP JUMPDEST PUSH0 DUP2 SWAP1 POP SWAP2 SWAP1 POP JUMP JUMPDEST PUSH2 0x26E7 DUP2 PUSH2 0x26D5 JUMP JUMPDEST DUP3 MSTORE POP POP JUMP JUMPDEST PUSH0 PUSH1 0x20 DUP3 ADD SWAP1 POP PUSH2 0x2700 PUSH0 DUP4 ADD DUP5 PUSH2 0x26DE JUMP JUMPDEST SWAP3 SWAP2 POP POP JUMP JUMPDEST PUSH0 PUSH1 0xFF DUP3 AND SWAP1 POP SWAP2 SWAP1 POP JUMP JUMPDEST PUSH2 0x271B DUP2 PUSH2 0x2706 JUMP JUMPDEST DUP3 MSTORE POP POP JUMP JUMPDEST PUSH0 PUSH1 0x20 DUP3 ADD SWAP1 POP PUSH2 0x2734 PUSH0 DUP4 ADD DUP5 PUSH2 0x2712 JUMP JUMPDEST SWAP3 SWAP2 POP POP JUMP JUMPDEST PUSH0 DUP1 PUSH1 0x40 DUP4 DUP6 SUB SLT ISZERO PUSH2 0x2750 JUMPI PUSH2 0x274F PUSH2 0x24EB JUMP JUMPDEST JUMPDEST PUSH0 PUSH2 0x275D DUP6 DUP3 DUP7 ADD PUSH2 0x266E JUMP JUMPDEST SWAP3 POP POP PUSH1 0x20 PUSH2 0x276E DUP6 DUP3 DUP7 ADD PUSH2 0x25E8 JUMP JUMPDEST SWAP2 POP POP SWAP3 POP SWAP3 SWAP1 POP JUMP JUMPDEST PUSH2 0x2781 DUP2 PUSH2 0x2706 JUMP JUMPDEST DUP2 EQ PUSH2 0x278B JUMPI PUSH0 DUP1 REVERT JUMPDEST POP JUMP JUMPDEST PUSH0 DUP2 CALLDATALOAD SWAP1 POP PUSH2 0x279C DUP2 PUSH2 0x2778 JUMP JUMPDEST SWAP3 SWAP2 POP POP JUMP JUMPDEST PUSH0 DUP1 PUSH0 PUSH1 0x60 DUP5 DUP7 SUB SLT ISZERO PUSH2 0x27B9 JUMPI PUSH2 0x27B8 PUSH2 0x24EB JUMP JUMPDEST JUMPDEST PUSH0 PUSH2 0x27C6 DUP7 DUP3 DUP8 ADD PUSH2 0x25E8 JUMP JUMPDEST SWAP4 POP POP PUSH1 0x20 PUSH2 0x27D7 DUP7 DUP3 DUP8 ADD PUSH2 0x25E8 JUMP JUMPDEST SWAP3 POP POP PUSH1 0x40 PUSH2 0x27E8 DUP7 DUP3 DUP8 ADD PUSH2 0x278E JUMP JUMPDEST SWAP2 POP POP SWAP3 POP SWAP3 POP SWAP3 JUMP JUMPDEST PUSH2 0x27FB DUP2 PUSH2 0x26D5 JUMP JUMPDEST DUP2 EQ PUSH2 0x2805 JUMPI PUSH0 DUP1 REVERT JUMPDEST POP JUMP JUMPDEST PUSH0 DUP2 CALLDATALOAD SWAP1 POP PUSH2 0x2816 DUP2 PUSH2 0x27F2 JUMP JUMPDEST SWAP3 SWAP2 POP POP JUMP JUMPDEST PUSH0 DUP1 PUSH1 0x40 DUP4 DUP6 SUB SLT ISZERO PUSH2 0x2832 JUMPI PUSH2 0x2831 PUSH2 0x24EB JUMP JUMPDEST JUMPDEST PUSH0 PUSH2 0x283F DUP6 DUP3 DUP7 ADD PUSH2 0x25E8 JUMP JUMPDEST SWAP3 POP POP PUSH1 0x20 PUSH2 0x2850 DUP6 DUP3 DUP7 ADD PUSH2 0x2808 JUMP JUMPDEST SWAP2 POP POP SWAP3 POP SWAP3 SWAP1 POP JUMP JUMPDEST PUSH0 PUSH1 0x60 DUP3 ADD SWAP1 POP PUSH2 0x286D PUSH0 DUP4 ADD DUP7 PUSH2 0x257A JUMP JUMPDEST PUSH2 0x287A PUSH1 0x20 DUP4 ADD DUP6 PUSH2 0x2627 JUMP JUMPDEST PUSH2 0x2887 PUSH1 0x40 DUP4 ADD DUP5 PUSH2 0x2712 JUMP JUMPDEST SWAP5 SWAP4 POP POP POP POP JUMP JUMPDEST PUSH0 DUP1 PUSH1 0x40 DUP4 DUP6 SUB SLT ISZERO PUSH2 0x28A5 JUMPI PUSH2 0x28A4 PUSH2 0x24EB JUMP JUMPDEST JUMPDEST PUSH0 PUSH2 0x28B2 DUP6 DUP3 DUP7 ADD PUSH2 0x25E8 JUMP JUMPDEST SWAP3 POP POP PUSH1 0x20 PUSH2 0x28C3 DUP6 DUP3 DUP7 ADD PUSH2 0x25E8 JUMP JUMPDEST SWAP2 POP POP SWAP3 POP SWAP3 SWAP1 POP JUMP JUMPDEST PUSH32 0x4E487B7100000000000000000000000000000000000000000000000000000000 PUSH0 MSTORE PUSH1 0x11 PUSH1 0x4 MSTORE PUSH1 0x24 PUSH0 REVERT JUMPDEST PUSH0 PUSH2 0x2904 DUP3 PUSH2 0x26D5 JUMP JUMPDEST SWAP2 POP PUSH2 0x290F DUP4 PUSH2 0x26D5 JUMP JUMPDEST SWAP3 POP DUP3 DUP3 ADD SWAP1 POP DUP1 DUP3 GT ISZERO PUSH2 0x2927 JUMPI PUSH2 0x2926 PUSH2 0x28CD JUMP JUMPDEST JUMPDEST SWAP3 SWAP2 POP POP JUMP JUMPDEST PUSH0 PUSH2 0x2937 DUP3 PUSH2 0x26D5 JUMP JUMPDEST SWAP2 POP PUSH2 0x2942 DUP4 PUSH2 0x26D5 JUMP JUMPDEST SWAP3 POP DUP3 DUP3 SUB SWAP1 POP DUP2 DUP2 GT ISZERO PUSH2 0x295A JUMPI PUSH2 0x2959 PUSH2 0x28CD JUMP JUMPDEST JUMPDEST SWAP3 SWAP2 POP POP JUMP JUMPDEST PUSH0 PUSH1 0x40 DUP3 ADD SWAP1 POP PUSH2 0x2973 PUSH0 DUP4 ADD DUP6 PUSH2 0x26DE JUMP JUMPDEST PUSH2 0x2980 PUSH1 0x20 DUP4 ADD DUP5 PUSH2 0x26DE JUMP JUMPDEST SWAP4 SWAP3 POP POP POP JUMP JUMPDEST PUSH0 DUP2 MLOAD SWAP1 POP PUSH2 0x2995 DUP2 PUSH2 0x2778 JUMP JUMPDEST SWAP3 SWAP2 POP POP JUMP JUMPDEST PUSH0 PUSH1 0x20 DUP3 DUP5 SUB SLT ISZERO PUSH2 0x29B0 JUMPI PUSH2 0x29AF PUSH2 0x24EB JUMP JUMPDEST JUMPDEST PUSH0 PUSH2 0x29BD DUP5 DUP3 DUP6 ADD PUSH2 0x2987 JUMP JUMPDEST SWAP2 POP POP SWAP3 SWAP2 POP POP JUMP JUMPDEST PUSH0 PUSH1 0x40 DUP3 ADD SWAP1 POP PUSH2 0x29D9 PUSH0 DUP4 ADD DUP6 PUSH2 0x2627 JUMP JUMPDEST PUSH2 0x29E6 PUSH1 0x20 DUP4 ADD DUP5 PUSH2 0x2712 JUMP JUMPDEST SWAP4 SWAP3 POP POP POP JUMP JUMPDEST PUSH0 PUSH1 0x60 DUP3 ADD SWAP1 POP PUSH2 0x2A00 PUSH0 DUP4 ADD DUP7 PUSH2 0x2627 JUMP JUMPDEST PUSH2 0x2A0D PUSH1 0x20 DUP4 ADD DUP6 PUSH2 0x2627 JUMP JUMPDEST PUSH2 0x2A1A PUSH1 0x40 DUP4 ADD DUP5 PUSH2 0x26DE JUMP JUMPDEST SWAP5 SWAP4 POP POP POP POP JUMP JUMPDEST PUSH2 0x2A2B DUP2 PUSH2 0x256F JUMP JUMPDEST DUP2 EQ PUSH2 0x2A35 JUMPI PUSH0 DUP1 REVERT JUMPDEST POP JUMP JUMPDEST PUSH0 DUP2 MLOAD SWAP1 POP PUSH2 0x2A46 DUP2 PUSH2 0x2A22 JUMP JUMPDEST SWAP3 SWAP2 POP POP JUMP JUMPDEST PUSH0 PUSH1 0x20 DUP3 DUP5 SUB SLT ISZERO PUSH2 0x2A61 JUMPI PUSH2 0x2A60 PUSH2 0x24EB JUMP JUMPDEST JUMPDEST PUSH0 PUSH2 0x2A6E DUP5 DUP3 DUP6 ADD PUSH2 0x2A38 JUMP JUMPDEST SWAP2 POP POP SWAP3 SWAP2 POP POP JUMP JUMPDEST PUSH0 PUSH1 0x80 DUP3 ADD SWAP1 POP PUSH2 0x2A8A PUSH0 DUP4 ADD DUP8 PUSH2 0x2627 JUMP JUMPDEST PUSH2 0x2A97 PUSH1 0x20 DUP4 ADD DUP7 PUSH2 0x2627 JUMP JUMPDEST PUSH2 0x2AA4 PUSH1 0x40 DUP4 ADD DUP6 PUSH2 0x26DE JUMP JUMPDEST PUSH2 0x2AB1 PUSH1 0x60 DUP4 ADD DUP5 PUSH2 0x26DE JUMP JUMPDEST SWAP6 SWAP5 POP POP POP POP POP JUMP JUMPDEST PUSH0 DUP2 SWAP1 POP SWAP3 SWAP2 POP POP JUMP JUMPDEST POP JUMP JUMPDEST PUSH0 PUSH2 0x2AD2 PUSH0 DUP4 PUSH2 0x2ABA JUMP JUMPDEST SWAP2 POP PUSH2 0x2ADD DUP3 PUSH2 0x2AC4 JUMP JUMPDEST PUSH0 DUP3 ADD SWAP1 POP SWAP2 SWAP1 POP JUMP JUMPDEST PUSH0 PUSH2 0x2AF1 DUP3 PUSH2 0x2AC7 JUMP JUMPDEST SWAP2 POP DUP2 SWAP1 POP SWAP2 SWAP1 POP JUMP JUMPDEST PUSH0 PUSH1 0x40 DUP3 ADD SWAP1 POP PUSH2 0x2B0E PUSH0 DUP4 ADD DUP6 PUSH2 0x2627 JUMP JUMPDEST PUSH2 0x2B1B PUSH1 0x20 DUP4 ADD DUP5 PUSH2 0x26DE JUMP JUMPDEST SWAP4 SWAP3 POP POP POP JUMP JUMPDEST PUSH0 PUSH10 0xFFFFFFFFFFFFFFFFFFFF DUP3 AND SWAP1 POP SWAP2 SWAP1 POP JUMP JUMPDEST PUSH2 0x2B40 DUP2 PUSH2 0x2B22 JUMP JUMPDEST DUP2 EQ PUSH2 0x2B4A JUMPI PUSH0 DUP1 REVERT JUMPDEST POP JUMP JUMPDEST PUSH0 DUP2 MLOAD SWAP1 POP PUSH2 0x2B5B DUP2 PUSH2 0x2B37 JUMP JUMPDEST SWAP3 SWAP2 POP POP JUMP JUMPDEST PUSH0 DUP2 SWAP1 POP SWAP2 SWAP1 POP JUMP JUMPDEST PUSH2 0x2B73 DUP2 PUSH2 0x2B61 JUMP JUMPDEST DUP2 EQ PUSH2 0x2B7D JUMPI PUSH0 DUP1 REVERT JUMPDEST POP JUMP JUMPDEST PUSH0 DUP2 MLOAD SWAP1 POP PUSH2 0x2B8E DUP2 PUSH2 0x2B6A JUMP JUMPDEST SWAP3 SWAP2 POP POP JUMP JUMPDEST PUSH0 DUP2 MLOAD SWAP1 POP PUSH2 0x2BA2 DUP2 PUSH2 0x27F2 JUMP JUMPDEST SWAP3 SWAP2 POP POP JUMP JUMPDEST PUSH0 DUP1 PUSH0 DUP1 PUSH0 PUSH1 0xA0 DUP7 DUP9 SUB SLT ISZERO PUSH2 0x2BC1 JUMPI PUSH2 0x2BC0 PUSH2 0x24EB JUMP JUMPDEST JUMPDEST PUSH0 PUSH2 0x2BCE DUP9 DUP3 DUP10 ADD PUSH2 0x2B4D JUMP JUMPDEST SWAP6 POP POP PUSH1 0x20 PUSH2 0x2BDF DUP9 DUP3 DUP10 ADD PUSH2 0x2B80 JUMP JUMPDEST SWAP5 POP POP PUSH1 0x40 PUSH2 0x2BF0 DUP9 DUP3 DUP10 ADD PUSH2 0x2B94 JUMP JUMPDEST SWAP4 POP POP PUSH1 0x60 PUSH2 0x2C01 DUP9 DUP3 DUP10 ADD PUSH2 0x2B94 JUMP JUMPDEST SWAP3 POP POP PUSH1 0x80 PUSH2 0x2C12 DUP9 DUP3 DUP10 ADD PUSH2 0x2B4D JUMP JUMPDEST SWAP2 POP POP SWAP3 SWAP6 POP SWAP3 SWAP6 SWAP1 SWAP4 POP JUMP JUMPDEST PUSH0 DUP3 DUP3 MSTORE PUSH1 0x20 DUP3 ADD SWAP1 POP SWAP3 SWAP2 POP POP JUMP JUMPDEST PUSH32 0x5072696365206665656420696E76616C69640000000000000000000000000000 PUSH0 DUP3 ADD MSTORE POP JUMP JUMPDEST PUSH0 PUSH2 0x2C63 PUSH1 0x12 DUP4 PUSH2 0x2C1F JUMP JUMPDEST SWAP2 POP PUSH2 0x2C6E DUP3 PUSH2 0x2C2F JUMP JUMPDEST PUSH1 0x20 DUP3 ADD SWAP1 POP SWAP2 SWAP1 POP JUMP JUMPDEST PUSH0 PUSH1 0x20 DUP3 ADD SWAP1 POP DUP2 DUP2 SUB PUSH0 DUP4 ADD MSTORE PUSH2 0x2C90 DUP2 PUSH2 0x2C57 JUMP JUMPDEST SWAP1 POP SWAP2 SWAP1 POP JUMP JUMPDEST PUSH0 PUSH2 0x2CA1 DUP3 PUSH2 0x26D5 JUMP JUMPDEST SWAP2 POP PUSH2 0x2CAC DUP4 PUSH2 0x26D5 JUMP JUMPDEST SWAP3 POP DUP3 DUP3 MUL PUSH2 0x2CBA DUP2 PUSH2 0x26D5 JUMP JUMPDEST SWAP2 POP DUP3 DUP3 DIV DUP5 EQ DUP4 ISZERO OR PUSH2 0x2CD1 JUMPI PUSH2 0x2CD0 PUSH2 0x28CD JUMP JUMPDEST JUMPDEST POP SWAP3 SWAP2 POP POP JUMP JUMPDEST PUSH0 DUP2 PUSH1 0x1 SHR SWAP1 POP SWAP2 SWAP1 POP JUMP JUMPDEST PUSH0 DUP1 DUP3 SWAP2 POP DUP4 SWAP1 POP JUMPDEST PUSH1 0x1 DUP6 GT ISZERO PUSH2 0x2D2D JUMPI DUP1 DUP7 DIV DUP2 GT ISZERO PUSH2 0x2D09 JUMPI PUSH2 0x2D08 PUSH2 0x28CD JUMP JUMPDEST JUMPDEST PUSH1 0x1 DUP6 AND ISZERO PUSH2 0x2D18 JUMPI DUP1 DUP3 MUL SWAP2 POP JUMPDEST DUP1 DUP2 MUL SWAP1 POP PUSH2 0x2D26 DUP6 PUSH2 0x2CD8 JUMP JUMPDEST SWAP5 POP PUSH2 0x2CED JUMP JUMPDEST SWAP5 POP SWAP5 SWAP3 POP POP POP JUMP JUMPDEST PUSH0 DUP3 PUSH2 0x2D45 JUMPI PUSH1 0x1 SWAP1 POP PUSH2 0x2E00 JUMP JUMPDEST DUP2 PUSH2 0x2D52 JUMPI PUSH0 SWAP1 POP PUSH2 0x2E00 JUMP JUMPDEST DUP2 PUSH1 0x1 DUP2 EQ PUSH2 0x2D68 JUMPI PUSH1 0x2 DUP2 EQ PUSH2 0x2D72 JUMPI PUSH2 0x2DA1 JUMP JUMPDEST PUSH1 0x1 SWAP2 POP POP PUSH2 0x2E00 JUMP JUMPDEST PUSH1 0xFF DUP5 GT ISZERO PUSH2 0x2D84 JUMPI PUSH2 0x2D83 PUSH2 0x28CD JUMP JUMPDEST JUMPDEST DUP4 PUSH1 0x2 EXP SWAP2 POP DUP5 DUP3 GT ISZERO PUSH2 0x2D9B JUMPI PUSH2 0x2D9A PUSH2 0x28CD JUMP JUMPDEST JUMPDEST POP PUSH2 0x2E00 JUMP JUMPDEST POP PUSH1 0x20 DUP4 LT PUSH2 0x133 DUP4 LT AND PUSH1 0x4E DUP5 LT PUSH1 0xB DUP5 LT AND OR ISZERO PUSH2 0x2DD6 JUMPI DUP3 DUP3 EXP SWAP1 POP DUP4 DUP2 GT ISZERO PUSH2 0x2DD1 JUMPI PUSH2 0x2DD0 PUSH2 0x28CD JUMP JUMPDEST JUMPDEST PUSH2 0x2E00 JUMP JUMPDEST PUSH2 0x2DE3 DUP5 DUP5 DUP5 PUSH1 0x1 PUSH2 0x2CE4 JUMP JUMPDEST SWAP3 POP SWAP1 POP DUP2 DUP5 DIV DUP2 GT ISZERO PUSH2 0x2DFA JUMPI PUSH2 0x2DF9 PUSH2 0x28CD JUMP JUMPDEST JUMPDEST DUP2 DUP2 MUL SWAP1 POP JUMPDEST SWAP4 SWAP3 POP POP POP JUMP JUMPDEST PUSH0 PUSH2 0x2E11 DUP3 PUSH2 0x26D5 JUMP JUMPDEST SWAP2 POP PUSH2 0x2E1C DUP4 PUSH2 0x2706 JUMP JUMPDEST SWAP3 POP PUSH2 0x2E49 PUSH32 0xFFFFFFFFFFFFFFFFFFFFFFFFFFFFFFFFFFFFFFFFFFFFFFFFFFFFFFFFFFFFFFFF DUP5 DUP5 PUSH2 0x2D36 JUMP JUMPDEST SWAP1 POP SWAP3 SWAP2 POP POP JUMP JUMPDEST PUSH32 0x4E487B7100000000000000000000000000000000000000000000000000000000 PUSH0 MSTORE PUSH1 0x12 PUSH1 0x4 MSTORE PUSH1 0x24 PUSH0 REVERT JUMPDEST PUSH0 PUSH2 0x2E88 DUP3 PUSH2 0x26D5 JUMP JUMPDEST SWAP2 POP PUSH2 0x2E93 DUP4 PUSH2 0x26D5 JUMP JUMPDEST SWAP3 POP DUP3 PUSH2 0x2EA3 JUMPI PUSH2 0x2EA2 PUSH2 0x2E51 JUMP JUMPDEST JUMPDEST DUP3 DUP3 DIV SWAP1 POP SWAP3 SWAP2 POP POP JUMP JUMPDEST PUSH0 PUSH2 0x2EB8 DUP3 PUSH2 0x2706 JUMP JUMPDEST SWAP2 POP PUSH2 0x2EC3 DUP4 PUSH2 0x2706 JUMP JUMPDEST SWAP3 POP DUP3 DUP3 SUB SWAP1 POP PUSH1 0xFF DUP2 GT ISZERO PUSH2 0x2EDC JUMPI PUSH2 0x2EDB PUSH2 0x28CD JUMP JUMPDEST JUMPDEST SWAP3 SWAP2 POP POP JUMP JUMPDEST PUSH0 PUSH2 0x2EEC DUP3 PUSH2 0x26D5 JUMP JUMPDEST SWAP2 POP PUSH2 0x2EF7 DUP4 PUSH2 0x26D5 JUMP JUMPDEST SWAP3 POP PUSH2 0x2F24 PUSH32 0xFFFFFFFFFFFFFFFFFFFFFFFFFFFFFFFFFFFFFFFFFFFFFFFFFFFFFFFFFFFFFFFF DUP5 DUP5 PUSH2 0x2D36 JUMP JUMPDEST SWAP1 POP SWAP3 SWAP2 POP POP JUMP JUMPDEST PUSH32 0x5265656E7472616E637947756172643A207265656E7472616E742063616C6C00 PUSH0 DUP3 ADD MSTORE POP JUMP JUMPDEST PUSH0 PUSH2 0x2F60 PUSH1 0x1F DUP4 PUSH2 0x2C1F JUMP JUMPDEST SWAP2 POP PUSH2 0x2F6B DUP3 PUSH2 0x2F2C JUMP JUMPDEST PUSH1 0x20 DUP3 ADD SWAP1 POP SWAP2 SWAP1 POP JUMP JUMPDEST PUSH0 PUSH1 0x20 DUP3 ADD SWAP1 POP DUP2 DUP2 SUB PUSH0 DUP4 ADD MSTORE PUSH2 0x2F8D DUP2 PUSH2 0x2F54 JUMP JUMPDEST SWAP1 POP SWAP2 SWAP1 POP JUMP JUMPDEST PUSH0 PUSH1 0x40 DUP3 ADD SWAP1 POP PUSH2 0x2FA7 PUSH0 DUP4 ADD DUP6 PUSH2 0x2627 JUMP JUMPDEST PUSH2 0x2FB4 PUSH1 0x20 DUP4 ADD DUP5 PUSH2 0x26AD JUMP JUMPDEST SWAP4 SWAP3 POP POP POP JUMP INVALID LOG2 PUSH5 0x6970667358 0x22 SLT KECCAK256 0xCF 0xE9 REVERT 0x29 CALLER 0xE5 SMOD SWAP4 PUSH30 0xDBE26CDB67C48AB11C6967F6070FA416B7CB48EF4517F264736F6C634300 ADDMOD BYTE STOP CALLER "
				},
				"gasEstimates": {
					"creation": {
						"codeDepositCost": "2454600",
						"executionCost": "infinite",
						"totalCost": "infinite"
					},
					"external": {
						"": "202",
						"ADMIN_ROLE()": "414",
						"DEFAULT_ADMIN_ROLE()": "375",
						"USDC_DECIMALS()": "398",
						"addAdmin(address)": "infinite",
						"balanceOf(address,address)": "infinite",
						"depositCount()": "2471",
						"depositERC20(address,uint256)": "infinite",
						"depositETH()": "infinite",
						"getLimiteBancoUSDC()": "infinite",
						"getPriceFeedForToken(address)": "infinite",
						"getRoleAdmin(bytes32)": "infinite",
						"getTotalDepositedUSDC()": "2521",
						"grantRole(bytes32,address)": "infinite",
						"hasRole(bytes32,address)": "3168",
						"isTokenRegistered(address)": "2943",
						"limiteBancoUSDC()": "infinite",
						"limiteRetiroWei()": "infinite",
						"registerToken(address,address,uint8)": "infinite",
						"removeAdmin(address)": "infinite",
						"renounceRole(bytes32,address)": "infinite",
						"revokeRole(bytes32,address)": "infinite",
						"supportsInterface(bytes4)": "764",
						"tokenInfo(address)": "infinite",
						"totalDepositedByToken(address)": "2847",
						"totalDepositedForToken(address)": "2918",
						"totalDepositedUSDC()": "2515",
						"tryTokenDecimals(address)": "infinite",
						"unregisterToken(address)": "infinite",
						"withdraw(address,uint256)": "infinite",
						"withdrawCount()": "2470"
					},
					"internal": {
						"_convertTokenAmountToUSDC(address,uint256)": "infinite",
						"_deposit(address,address,uint256)": "infinite"
					}
				},
				"methodIdentifiers": {
					"ADMIN_ROLE()": "75b238fc",
					"DEFAULT_ADMIN_ROLE()": "a217fddf",
					"USDC_DECIMALS()": "c1419def",
					"addAdmin(address)": "70480275",
					"balanceOf(address,address)": "f7888aec",
					"depositCount()": "2dfdf0b5",
					"depositERC20(address,uint256)": "97feb926",
					"depositETH()": "f6326fb3",
					"getLimiteBancoUSDC()": "ec826ff6",
					"getPriceFeedForToken(address)": "12984b0b",
					"getRoleAdmin(bytes32)": "248a9ca3",
					"getTotalDepositedUSDC()": "edda71ed",
					"grantRole(bytes32,address)": "2f2ff15d",
					"hasRole(bytes32,address)": "91d14854",
					"isTokenRegistered(address)": "26aa101f",
					"limiteBancoUSDC()": "efe5e7d6",
					"limiteRetiroWei()": "9aebfef2",
					"registerToken(address,address,uint8)": "4bebc5a8",
					"removeAdmin(address)": "1785f53c",
					"renounceRole(bytes32,address)": "36568abe",
					"revokeRole(bytes32,address)": "d547741f",
					"supportsInterface(bytes4)": "01ffc9a7",
					"tokenInfo(address)": "f5dab711",
					"totalDepositedByToken(address)": "e62bac56",
					"totalDepositedForToken(address)": "d2f33427",
					"totalDepositedUSDC()": "27175b23",
					"tryTokenDecimals(address)": "288e4e1e",
					"unregisterToken(address)": "77860cdd",
					"withdraw(address,uint256)": "f3fef3a3",
					"withdrawCount()": "4cc05a71"
				}
			},
			"storageLayout": {
				"storage": [
					{
						"astId": 73,
						"contract": "contracts/kipu-bank-v2.sol:KipuBankV2",
						"label": "_roles",
						"offset": 0,
						"slot": "0",
						"type": "t_mapping(t_bytes32,t_struct(RoleData)68_storage)"
					},
					{
						"astId": 436,
						"contract": "contracts/kipu-bank-v2.sol:KipuBankV2",
						"label": "_status",
						"offset": 0,
						"slot": "1",
						"type": "t_uint256"
					},
					{
						"astId": 747,
						"contract": "contracts/kipu-bank-v2.sol:KipuBankV2",
						"label": "balances",
						"offset": 0,
						"slot": "2",
						"type": "t_mapping(t_address,t_mapping(t_address,t_uint256))"
					},
					{
						"astId": 753,
						"contract": "contracts/kipu-bank-v2.sol:KipuBankV2",
						"label": "tokenInfo",
						"offset": 0,
						"slot": "3",
						"type": "t_mapping(t_address,t_struct(TokenInfo)721_storage)"
					},
					{
						"astId": 758,
						"contract": "contracts/kipu-bank-v2.sol:KipuBankV2",
						"label": "totalDepositedByToken",
						"offset": 0,
						"slot": "4",
						"type": "t_mapping(t_address,t_uint256)"
					},
					{
						"astId": 761,
						"contract": "contracts/kipu-bank-v2.sol:KipuBankV2",
						"label": "totalDepositedUSDC",
						"offset": 0,
						"slot": "5",
						"type": "t_uint256"
					},
					{
						"astId": 764,
						"contract": "contracts/kipu-bank-v2.sol:KipuBankV2",
						"label": "depositCount",
						"offset": 0,
						"slot": "6",
						"type": "t_uint256"
					},
					{
						"astId": 766,
						"contract": "contracts/kipu-bank-v2.sol:KipuBankV2",
						"label": "withdrawCount",
						"offset": 0,
						"slot": "7",
						"type": "t_uint256"
					}
				],
				"types": {
					"t_address": {
						"encoding": "inplace",
						"label": "address",
						"numberOfBytes": "20"
					},
					"t_bool": {
						"encoding": "inplace",
						"label": "bool",
						"numberOfBytes": "1"
					},
					"t_bytes32": {
						"encoding": "inplace",
						"label": "bytes32",
						"numberOfBytes": "32"
					},
					"t_mapping(t_address,t_bool)": {
						"encoding": "mapping",
						"key": "t_address",
						"label": "mapping(address => bool)",
						"numberOfBytes": "32",
						"value": "t_bool"
					},
					"t_mapping(t_address,t_mapping(t_address,t_uint256))": {
						"encoding": "mapping",
						"key": "t_address",
						"label": "mapping(address => mapping(address => uint256))",
						"numberOfBytes": "32",
						"value": "t_mapping(t_address,t_uint256)"
					},
					"t_mapping(t_address,t_struct(TokenInfo)721_storage)": {
						"encoding": "mapping",
						"key": "t_address",
						"label": "mapping(address => struct KipuBankV2.TokenInfo)",
						"numberOfBytes": "32",
						"value": "t_struct(TokenInfo)721_storage"
					},
					"t_mapping(t_address,t_uint256)": {
						"encoding": "mapping",
						"key": "t_address",
						"label": "mapping(address => uint256)",
						"numberOfBytes": "32",
						"value": "t_uint256"
					},
					"t_mapping(t_bytes32,t_struct(RoleData)68_storage)": {
						"encoding": "mapping",
						"key": "t_bytes32",
						"label": "mapping(bytes32 => struct AccessControl.RoleData)",
						"numberOfBytes": "32",
						"value": "t_struct(RoleData)68_storage"
					},
					"t_struct(RoleData)68_storage": {
						"encoding": "inplace",
						"label": "struct AccessControl.RoleData",
						"members": [
							{
								"astId": 65,
								"contract": "contracts/kipu-bank-v2.sol:KipuBankV2",
								"label": "hasRole",
								"offset": 0,
								"slot": "0",
								"type": "t_mapping(t_address,t_bool)"
							},
							{
								"astId": 67,
								"contract": "contracts/kipu-bank-v2.sol:KipuBankV2",
								"label": "adminRole",
								"offset": 0,
								"slot": "1",
								"type": "t_bytes32"
							}
						],
						"numberOfBytes": "64"
					},
					"t_struct(TokenInfo)721_storage": {
						"encoding": "inplace",
						"label": "struct KipuBankV2.TokenInfo",
						"members": [
							{
								"astId": 716,
								"contract": "contracts/kipu-bank-v2.sol:KipuBankV2",
								"label": "supported",
								"offset": 0,
								"slot": "0",
								"type": "t_bool"
							},
							{
								"astId": 718,
								"contract": "contracts/kipu-bank-v2.sol:KipuBankV2",
								"label": "priceFeed",
								"offset": 1,
								"slot": "0",
								"type": "t_address"
							},
							{
								"astId": 720,
								"contract": "contracts/kipu-bank-v2.sol:KipuBankV2",
								"label": "decimals",
								"offset": 21,
								"slot": "0",
								"type": "t_uint8"
							}
						],
						"numberOfBytes": "32"
					},
					"t_uint256": {
						"encoding": "inplace",
						"label": "uint256",
						"numberOfBytes": "32"
					},
					"t_uint8": {
						"encoding": "inplace",
						"label": "uint8",
						"numberOfBytes": "1"
					}
				}
			},
			"userdoc": {
				"kind": "user",
				"methods": {
					"USDC_DECIMALS()": {
						"notice": "Decimales objetivo interno: USDC (6)"
					},
					"addAdmin(address)": {
						"notice": "Añade un nuevo ADMIN"
					},
					"balanceOf(address,address)": {
						"notice": "Consulta saldo de un usuario para un token específico"
					},
					"depositCount()": {
						"notice": "Contadores simples"
					},
					"depositERC20(address,uint256)": {
						"notice": "Deposita un token ERC-20 previamente aprobado al contrato"
					},
					"depositETH()": {
						"notice": "Deposita ETH enviando msg.value (token = address(0))"
					},
					"getLimiteBancoUSDC()": {
						"notice": "Consulta el límite global del banco en USDC (6 decimales)"
					},
					"getPriceFeedForToken(address)": {
						"notice": "Devuelve el price feed address registrado para un token (o address(0) si none)"
					},
					"getTotalDepositedUSDC()": {
						"notice": "Devuelve el total depositado en el banco en USDC (6 decimales)"
					},
					"isTokenRegistered(address)": {
						"notice": "Devuelve si un token está registrado para participar en el límite global"
					},
					"limiteBancoUSDC()": {
						"notice": "Límite global en USD (unidad: USDC decimals), inmutable"
					},
					"limiteRetiroWei()": {
						"notice": "Límite por retiro en wei (ETH) para retiros de ETH; para ERC20 se aplica por token en unidades token-native"
					},
					"registerToken(address,address,uint8)": {
						"notice": "Registra un token y su price feed (token/USD) para incluirlo en el límite global"
					},
					"removeAdmin(address)": {
						"notice": "Elimina un ADMIN"
					},
					"tokenInfo(address)": {
						"notice": "Token metadata para conversiones y controles"
					},
					"totalDepositedByToken(address)": {
						"notice": "Total depositado por token (token-native units)"
					},
					"totalDepositedForToken(address)": {
						"notice": "Devuelve el total depositado (token-native units) por token"
					},
					"totalDepositedUSDC()": {
						"notice": "Total depositado en USD (unidad: USDC decimals) calculado con price feeds; usado para comparar con limiteBancoUSDC"
					},
					"tryTokenDecimals(address)": {
						"notice": "Intento de lectura segura de decimals desde el token (no usado directamente; usamos registerToken.decimals)"
					},
					"unregisterToken(address)": {
						"notice": "Elimina soporte (desregistra) un token"
					},
					"withdraw(address,uint256)": {
						"notice": "Retira fondos (ETH si token == address(0), sino ERC20)"
					}
				},
				"version": 1
			}
		}
	}
}